:020000040000FA
:100000000C94CC0E0C9491170C946A170C94F40E6B
:100010000C94F40E0C94F40E0C94F40E0C94F40E58
:100020000C94F40E0C94F40E0C94F40E0C94F40E48
:100030000C94F40E0C94F40E0C94F40E0C94F40E38
:100040000C9420170C94F40E0C94EE160C94C81615
:100050000C94F40E0C94F40E0C94F40E0C94F40E18
:100060000C94F40E0C94F40E000000002400270001
:100070002A0000000000250028002B0000000008D6
:10008000000201000003040700000000000000005F
:10009000010204081020408001020408102001021F
:1000A000040810200000000023002600290004049A
:1000B0000404040404040202020202020303030310
:1000C0000303020200000000000000000000000026
:1000D0000000000000000000000000000000000020
:1000E0000000000000000000000000000000000010
:1000F0000000000000000000000000000000000000
:1001000000000000000000000000000000000000EF
:1001100000000000000000000000000000000000DF
:1001200000000000000000000000000000000000CF
:1001300000000000000000000000000000000000BF
:1001400000000000000000000000000000000000AF
:10015000000000000000000000000000000000009F
:10016000000000000000000000000000000000008F
:10017000000000000000000000000000000000007F
:10018000000000000000000000000000000000006F
:10019000000000000000000000000000000000005F
:1001A000000000000000000000000000000000004F
:1001B00000000000000000000301640000000100D6
:1001C000000000000000000000000000000002002D
:1001D000000000000000000000000000000000001F
:1001E000000000000000000000000000000000000F
:1001F00000000000000000000000000000000000FF
:1002000000000000000000000000000000000000EE
:1002100000000000000000000000000000000000DE
:1002200000000000000000000000000000000000CE
:1002300000000000000000000000000000000000BE
:1002400000000000000000000000000000000000AE
:10025000000000000000000000000000000000009E
:10026000000000000000000000000000000000008E
:10027000000000000000000000000000000000007E
:10028000000000000000000000000000000000006E
:10029000000000000000000000000000000000005E
:1002A0000000000000000000000000000000020349
:1002B00043000000000002000000000002020000F5
:1002C000000000000000000000000000000000002E
:1002D000000000000000000000000000000000001E
:1002E000000000000000000000000000000000000E
:1002F00000000000000000000000000000000000FE
:1003000000000000000000000000000000000000ED
:1003100000000000000000000000000000000000DD
:1003200000000000000000000000000000000000CD
:1003300000000000000000000000000000000000BD
:1003400000000000000000000000000000000000AD
:10035000000000000000000000000000000000009D
:10036000000000000000000000000000000000008D
:10037000000000000000000000000000000000007D
:10038000000000000000000000000000000000006D
:10039000000000000000000000000000000000005D
:1003A0000000000002020000000001000000000048
:1003B000000000010000000000000000000000003C
:1003C000000000000000000000000000000000002D
:1003D000000000000000000000000000000000001D
:1003E000000000000000000000000000000000000D
:1003F00000000000000000000000000000000000FD
:1004000000000000000000000000000000000000EC
:1004100000000000000000000000000000000000DC
:1004200000000000000000000000000000000000CC
:1004300000000000000000000000000000000000BC
:1004400000000000000000000000000000000000AC
:10045000000000000000000000000000000000009C
:10046000000000000000000000000000000000008C
:10047000000000000000000000000000000000007C
:10048000000000000000000000000000000000006C
:100490000000000000000000000005033200000022
:1004A0000100000000000000020000000000000049
:1004B0000001000000000000000200000000000039
:1004C0000000010000000000000002000000000029
:1004D000000000000000000000000000000000001C
:1004E000000000000000000000000000000000000C
:1004F00000000000000000000000000000000000FC
:1005000000000000000000000000000000000000EB
:1005100000000000000000000000000000000000DB
:1005200000000000000000000000000000000000CB
:1005300000000000000000000000000000000000BB
:1005400000000000000000000000000000000000AB
:10055000000000000000000000000000000000009B
:10056000000000000000000000000000000000008B
:10057000000000000000000000000000000000007B
:10058000000000000000000000000000000000006B
:100590000904320000000100000000000000020019
:1005A0000000000000000200000100000000000147
:1005B0000000000000000002000000000000000138
:1005C0000001000000000002000200000000000026
:1005D0000100000000000000020000000000000018
:1005E000000000000000000000000000000000000B
:1005F00000000000000000000000000000000000FB
:1006000000000000000000000000000000000000EA
:1006100000000000000000000000000000000000DA
:1006200000000000000000000000000000000000CA
:1006300000000000000000000000000000000000BA
:1006400000000000000000000000000000000000AA
:10065000000000000000000000000000000000009A
:10066000000000000000000000000000000000008A
:10067000000000000000000000000000000000007A
:10068000000000000000060432000000000100002D
:100690000000000001000100000000000200020054
:1006A0000000000000000100000000000000020047
:1006B0000000000000000001000000000000000039
:1006C000000000000000000000000000000000002A
:1006D000000000000000000000000000000000001A
:1006E000000000000000000000000000000000000A
:1006F00000000000000000000000000000000000FA
:1007000000000000000000000000000000000000E9
:1007100000000000000000000000000000000000D9
:1007200000000000000000000000000000000000C9
:1007300000000000000000000000000000000000B9
:1007400000000000000000000000000000000000A9
:100750000000000000000000000000000000000099
:100760000000000000000000000000000000000089
:10077000000000000000000000000000050532003D
:100780000000010000000000000001010000000066
:100790000000000001000000000000000101000056
:1007A0000000000001000100000000000000000047
:1007B0000000000000000000000000000000000039
:1007C0000000000000000000000000000000000029
:1007D0000000000000000000000000000000000019
:1007E0000000000000000000000000000000000009
:1007F00000000000000000000000000000000000F9
:1008000000000000000000000000000000000000E8
:1008100000000000000000000000000000000000D8
:1008200000000000000000000000000000000000C8
:1008300000000000000000000000000000000000B8
:1008400000000000000000000000000000000000A8
:100850000000000000000000000000000000000098
:100860000000000000000000000000000000000088
:10087000000003033200000001000000000000003F
:100880000101000000000000000001000000000065
:100890000000000000000000000000000000000058
:1008A0000000000000000000000000000000000048
:1008B0000000000000000000000000000000000038
:1008C0000000000000000000000000000000000028
:1008D0000000000000000000000000000000000018
:1008E0000000000000000000000000000000000008
:1008F00000000000000000000000000000000000F8
:1009000000000000000000000000000000000000E7
:1009100000000000000000000000000000000000D7
:1009200000000000000000000000000000000000C7
:1009300000000000000000000000000000000000B7
:1009400000000000000000000000000000000000A7
:100950000000000000000000000000000000000097
:10096000000000000000000004060000000001007C
:100970000100010000000100010000010000010071
:100980000001000100000001000000000000000064
:100990000000000000000000000000000000000057
:1009A0000000000000000000000000000000000047
:1009B0000000000000000000000000000000000037
:1009C0000000000000000000000000000000000027
:1009D0000000000000000000000000000000000017
:1009E0000000000000000000000000000000000007
:1009F00000000000000000000000000000000000F7
:100A000000000000000000000000000000000000E6
:100A100000000000000000000000000000000000D6
:100A200000000000000000000000000000000000C6
:100A300000000000000000000000000000000000B6
:100A400000000000000000000000000000000000A6
:100A5000000000000000000000000000000003048F
:100A60003200000001000100000000000100000150
:100A70000000000000010001000000000000000074
:100A80000000000000000000000000000000000066
:100A90000000000000000000000000000000000056
:100AA0000000000000000000000000000000000046
:100AB0000000000000000000000000000000000036
:100AC0000000000000000000000000000000000026
:100AD0000000000000000000000000000000000016
:100AE0000000000000000000000000000000000006
:100AF00000000000000000000000000000000000F6
:100B000000000000000000000000000000000000E5
:100B100000000000000000000000000000000000D5
:100B200000000000000000000000000000000000C5
:100B300000000000000000000000000000000000B5
:100B400000000000000000000000000000000000A5
:100B50000000000006053200000001000000000057
:100B60000000010100000000000000010100000081
:100B70000000000000010100000001010000000071
:100B80000000010001000000000000000000000063
:100B90000000000000000000000000000000000055
:100BA0000000000000000000000000000000000045
:100BB0000000000000000000000000000000000035
:100BC0000000000000000000000000000000000025
:100BD0000000000000000000000000000000000015
:100BE0000000000000000000000000000000000005
:100BF00000000000000000000000000000000000F5
:100C000000000000000000000000000000000000E4
:100C100000000000000000000000000000000000D4
:100C200000000000000000000000000000000000C4
:100C300000000000000000000000000000000000B4
:100C40000000000000000000000006053200000067
:100C5000020000000000000002020000000000008E
:100C6000000102000000000000000002020000007D
:100C7000020200000000000002000200000000006C
:100C80000000000000000000000000000000000064
:100C90000000000000000000000000000000000054
:100CA0000000000000000000000000000000000044
:100CB0000000000000000000000000000000000034
:100CC0000000000000000000000000000000000024
:100CD0000000000000000000000000000000000014
:100CE0000000000000000000000000000000000004
:100CF00000000000000000000000000000000000F4
:100D000000000000000000000000000000000000E3
:100D100000000000000000000000000000000000D3
:100D200000000000000000000000000000000000C3
:100D300000000000000000000000000000000000B3
:100D40000404320000000100000000000000010166
:100D50000000000000000100010000000000000091
:100D60000001000000000000000000000000000082
:100D70000000000000000000000000000000000073
:100D80000000000000000000000000000000000063
:100D90000000000000000000000000000000000053
:100DA0000000000000000000000000000000000043
:100DB0000000000000000000000000000000000033
:100DC0000000000000000000000000000000000023
:100DD0000000000000000000000000000000000013
:100DE0000000000000000000000000000000000003
:100DF00000000000000000000000000000000000F3
:100E000000000000000000000000000000000000E2
:100E100000000000000000000000000000000000D2
:100E200000000000000000000000000000000000C2
:100E30000000000000000707320000000100000071
:100E4000000000000101000000000000010000009F
:100E5000020000000100010000000000000000018D
:100E6000000000000000000100010000000000017F
:100E70000000020000000000000000000000000070
:100E80000000000000000000000000000000000062
:100E90000000000000000000000000000000000052
:100EA0000000000000000000000000000000000042
:100EB0000000000000000000000000000000000032
:100EC0000000000000000000000000000000000022
:100ED0000000000000000000000000000000000012
:100EE0000000000000000000000000000000000002
:100EF00000000000000000000000000000000000F2
:100F000000000000000000000000000000000000E1
:100F100000000000000000000000000000000000D1
:100F20000000000000000000000000000404320087
:100F300000000101000000000000010101000000AC
:100F4000000001000101000000000000010100009C
:100F50000000000000000000000000000000000091
:100F60000000000000000000000000000000000081
:100F70000000000000000000000000000000000071
:100F80000000000000000000000000000000000061
:100F90000000000000000000000000000000000051
:100FA0000000000000000000000000000000000041
:100FB0000000000000000000000000000000000031
:100FC0000000000000000000000000000000000021
:100FD0000000000000000000000000000000000011
:100FE0000000000000000000000000000000000001
:100FF00000000000000000000000000000000000F1
:1010000000000000000000000000000000000000E0
:1010100000000000000000000000000000000000D0
:1010200000000607000000000100000000000000B2
:1010300001000000000001000100000100000000AC
:10104000010101000000000000000000010100009B
:10105000000000000000000100000000000000008F
:101060000000000000000000000000000000000080
:101070000000000000000000000000000000000070
:101080000000000000000000000000000000000060
:101090000000000000000000000000000000000050
:1010A0000000000000000000000000000000000040
:1010B0000000000000000000000000000000000030
:1010C0000000000000000000000000000000000020
:1010D0000000000000000000000000000000000010
:1010E0000000000000000000000000000000000000
:1010F00000000000000000000000000000000000F0
:1011000000000000000000000000000000000000DF
:1011100000000000000000000607000000000101C0
:1011200000000000000001000100000000000101BB
:1011300001000000000001010001000000000100AA
:10114000010000000000000000010100000000009C
:10115000000000000000000000000000000000008F
:10116000000000000000000000000000000000007F
:10117000000000000000000000000000000000006F
:10118000000000000000000000000000000000005F
:10119000000000000000000000000000000000004F
:1011A000000000000000000000000000000000003F
:1011B000000000000000000000000000000000002F
:1011C000000000000000000000000000000000001F
:1011D000000000000000000000000000000000000F
:1011E00000000000000000000000000000000000FF
:1011F00000000000000000000000000000000000EF
:1012000000000000000000000000000000000805D1
:1012100000000000010000000000000000010000CC
:1012200000000000000200000000000000010100BA
:1012300000000000000202000000000000000001A9
:10124000000000000000000200000000000000019B
:10125000010000000000000000000000000000008D
:10126000000000000000000000000000000000007E
:10127000000000000000000000000000000000006E
:10128000000000000000000000000000000000005E
:10129000000000000000000000000000000000004E
:101D9000000000000000B81711241FBECFEFD8E0EC
:101DA000DEBFCDBF11E0A0E0B1E0E2E7F0E402C0A9
:101DB00005900D92A436B107D9F724E0A4E6B1E06E
:101DC00001C01D92A237B207E1F71EE0CCECDEE0C5
:101DD00004C02197FE010E940A20CB3CD107C9F71D
:101DE0000E940A180C9437200C9400008230F8F4FA
:101DF000E82FF0E0EE0FFF1FEE5FFE4F2DE031E128
:101E000031832083813041F0809169008C7F682B81
:101E100060936900E89A089580916900837F660F56
:101E2000771F660F771F682B60936900E99A089502
:101E3000FC01538D448D252F30E0842F90E0821BD0
:101E4000930B541710F0CF96089501970895FC0155
:101E5000918D828D981761F0A28DAE0FBF2FB11DAD
:101E60005D968C91928D9F5F9F73928F90E0089505
:101E70008FEF9FEF0895FC01918D828D981731F0BF
:101E8000828DE80FF11D858D90E008958FEF9FEF13
:101E90000895FC01918D228D892F90E0805C9F4FE9
:101EA000821B91098F7399270895FC01A48DA80FB7
:101EB000B92FB11DA35ABF4F2C91848D90E001968C
:101EC0008F739927848FA689B7892C93A089B189AC
:101ED0008C91837080648C93938D848D981306C04D
:101EE0000288F389E02D80818F7D80830895EF92B1
:101EF000FF920F931F93CF93DF93EC0181E0888FC4
:101F00009B8D8C8D98131AC0E889F989808185FF93
:101F100015C09FB7F894EE89FF896083E889F98935
:101F200080818370806480839FBF81E090E0DF9137
:101F3000CF911F910F91FF90EF900895F62E0B8D8A
:101F400010E00F5F1F4F0F731127E02E8C8D8E1145
:101F50000CC00FB607FCFACFE889F989808185FFAC
:101F6000F5CFCE010E94550FF1CFEB8DEC0FFD2F79
:101F7000F11DE35AFF4FF0829FB7F8940B8FEA8967
:101F8000FB8980818062CFCFCF93DF93EC01888D76
:101F90008823B9F0AA89BB89E889F9898C9185FDE4
:101FA00003C0808186FD0DC00FB607FCF7CF8C9172
:101FB00085FFF2CF808185FFEDCFCE010E94550FC6
:101FC000E9CFDF91CF91089589EB92E00E94490F0C
:101FD00021E0892B09F420E0822F089580E090E031
:101FE000892B29F00E94E40F81110C9400000895C0
:101FF00080E090E0892B11F00C9400000895AF92DE
:10200000BF92CF92DF92EF92FF920F931F93CF93E5
:10201000DF936C017B018B01040F151FEB015E0147
:10202000AE18BF08C017D10759F06991D601ED91DC
:10203000FC910190F081E02DC6010995892B79F77B
:10204000C501DF91CF911F910F91FF90EF90DF902D
:10205000CF90BF90AF900895833081F028F4813005
:1020600099F08230A9F008958730A9F08830C9F03E
:102070008430B1F4809180008F7D03C08091800016
:102080008F7780938000089584B58F7784BD0895FD
:1020900084B58F7DFBCF8091B0008F778093B000A7
:1020A00008958091B0008F7DF9CFCF93DF93282FD3
:1020B00030E0F901E458FF4F8491F901E057FF4FF8
:1020C000D491F901E255FF4FC491CC23A1F08111C5
:1020D0000E942C10EC2FF0E0EE0FFF1FEC55FF4F8D
:1020E000A591B491EC91ED2381E090E009F480E0BA
:1020F000DF91CF91089580E090E0FACF1F93CF93C6
:10210000DF93282F30E0F901E458FF4F8491F90163
:10211000E057FF4FD491F901E255FF4FC491CC2312
:10212000A9F0162F81110E942C10EC2FF0E0EE0F79
:10213000FF1FEE58FF4FA591B4918FB7F894EC9123
:10214000111108C0D095DE23DC938FBFDF91CF91B2
:102150001F910895DE2BF8CFCF93DF9390E0FC0121
:10216000E057FF4F249182559F4FFC0184918823B3
:10217000C9F090E0880F991FFC01E859FF4FA59125
:10218000B491FC01EE58FF4FC591D49161110DC07F
:102190009FB7F8948C91209582238C938881282373
:1021A00028839FBFDF91CF910895623051F49FB78C
:1021B000F8943C91822F809583238C93E8812E2B79
:1021C000EFCF8FB7F894EC912E2B2C938FBFEACFE3
:1021D0003FB7F8948091720190917301A0917401BE
:1021E000B091750126B5A89B05C02F3F19F0019647
:1021F000A11DB11D3FBFBA2FA92F982F8827BC0161
:10220000CD01620F711D811D911D42E0660F771F88
:10221000881F991F4A95D1F70895FF920F931F9336
:10222000CF93DF930E94E81020916B0130916C01F5
:10223000EB01C21BD30B2091780130917901C217B9
:10224000D30708F45FC04091800150918101413073
:10225000510561F0E091A901F091AA01208130912E
:10226000AB0123233091760123134CC070936C0192
:1022700060936B0100917A0110917B01423051050E
:1022800009F413C14330510509F44EC141305105E1
:1022900061F480916A01813009F447C0C8F183304C
:1022A00009F482C0843009F4C9C080918001909102
:1022B0008101019739F1C017D10708F06DC18091F4
:1022C00068018F5F809368018B30E0F081E090E0DF
:1022D000909381018093800161E070E08091A7017B
:1022E0000E94F60E1092760110926A0182E590E04B
:1022F00090937B0180937A0183E290E0909379013F
:1023000080937801DF91CF911F910F91FF900895F5
:10231000C017D10730F481E080936A01C09369014E
:10232000C4CF84E080936A01C0CFC017D107D0F535
:1023300010926A01809168018F5F809368012091FB
:1023400069018C2F0C2E000C990B821B910927FD23
:10235000939597FF03C0919581959109499794F2C0
:10236000109281011092800182E990E090937B01AC
:1023700080937A0182E590E09093790180937801CF
:1023800010926801F09077016F2D70E08091A701A5
:102390000E94F60E8091AB0193E0F91227C0809362
:1023A000760183CF83E0BECFC017D10708F5109226
:1023B00081011092800182E990E090937B018093EB
:1023C0007A0182E590E090937901809378011092F0
:1023D0006801F09077016F2D70E08091A7010E9455
:1023E000F60E8091AB0133E0F316C9F280E0D7CF4F
:1023F00090917701933009F482E08093770182E035
:1024000090E0909381018093800182E990E0909325
:102410007B0180937A0182E590E09093790180932B
:102420007801109286018091680180938701109253
:1024300083011092850110928401CBCFC017D10780
:10244000A8F4109281011092800182E990E09093AB
:102450007B0180937A0182E590E0909379018093EB
:10246000780110926801109283018CCF82E090E095
:10247000909381018093800182E990E090937B01A9
:1024800080937A0182E590E09093790180937801BE
:1024900010928601809168018093870110928301D8
:1024A00010928501109284016DCF909183019F5FFE
:1024B0009093830180918401880FC017D107E0F0C9
:1024C00080938401983009F0F6CEE0918601E630E1
:1024D000A9F4109281011092800182E990E090931A
:1024E0007B0180937A0182E590E09093790180935B
:1024F000780110928301D9CE8160E2CF83E090E031
:10250000909381018093800181E08E0F80938601FA
:1025100090918401F0E0E058FE4F90878091850112
:10252000892780938501C1CEC017D10728F5109265
:102530008101109280011092830182E990E09093D2
:102540007B0180937A0182E590E0909379018093FA
:102550007801809185018111B2CE88E0E6E8F1E052
:10256000AEE8B1E001900D928A95E1F781E08093A9
:1025700082011092680199CE80918601863009F41B
:10258000A8CF82E090E09093810180938001109227
:1025900083011092840189CE10926801B3CE2FB7C7
:1025A000F89460916E0170916F018091700190912B
:1025B00071012FBF08950895CF93C82F80E090E058
:1025C000892B51F0809198018C1731F081E0C11175
:1025D00001C080E00E940000C093980160E070E0BC
:1025E000CB01C1110E94CF126093990170939A019F
:1025F00080939B0190939C0180E090E0892B59F09F
:10260000809198018C1739F081E0C11101C080E000
:10261000CF910C940000CF9108951F93CF93DF9337
:10262000EC01162F80E090E0892B91F0C830D105A5
:1026300079F4662319F10E94000080E090E0892B74
:10264000B9F0612FCE01DF91CF911F910C94000062
:1026500080E090E0892BA9F781E0C11594E0D907CB
:1026600008F080E0111105C0DF91CF911F9108950E
:1026700081E027972297C0F780E0F6CF80E090E0D6
:10268000892BF9F681E0F0CF80E090E0892B29F0EA
:102690008091AF0183FD0C94000008952091B50155
:1026A00020FF14C04091B70250E0EAE5F3E030E0CB
:1026B00020E02417350754F4A781B0858A179B07BB
:1026C00009F461832F5F3F4F7196F3CF0895FC01AA
:1026D00001900020E9F73197AF01481B590BBC016D
:1026E00089EB92E00C94FF0F0E94DC12E6E9F1E026
:1026F00081E087831086EFE9F1E088E0DF011D9239
:102700008A95E9F7089520E030E0232B11F00C942E
:1027100000000C94AA1FCF93DF932091AC0130915D
:10272000AD012F3F320721F0C901DF91CF9108950C
:102730008091AF0187FF2BC086FF0FC089E090E03A
:102740000E948313C82F81E090E00E9483139C2F86
:102750009093AD018093AC0115C089E090E00E9498
:102760008313C82F81E090E00E94831390E4C99FF7
:1027700090011124207C31708F73282B3093AD0190
:102780002093AC018091AC019091AD01CECF85FF3B
:102790000CC081E190E00E948313C82F82E190E099
:1027A0000E948313C05CDD0BD2CF81E090E00E94D9
:1027B000831390E0CDCF0F931F93CF93DF938C01C2
:1027C000EB010E94AA1F8883C80101960E94AA1FDC
:1027D0008983CE01DF91CF911F910F910895BF9210
:1027E000CF92DF92EF92FF920F931F93CF93DF93DD
:1027F00000D0CDB7DEB71092B7028091B1019091B1
:10280000B2010AE513E020E1E22EF12CD12CF8010F
:10281000C6804C2D4D0D5527551F4131510514F5DE
:10282000B090B501B1FE08C0BE016F5F7F4FC70118
:102830000E94DB1389819A81F801D0829087878377
:10284000B0FE1CC001962091B7022F5F2093B70203
:10285000DC0C0F5E1F4FF2E0EF0EF11C20E3E216DE
:10286000F104A9F60F900F90DF91CF911F910F9176
:10287000FF90EF90DF90CF90BF9008952481820F5A
:10288000911DE1CF0C94B21F1F93CF93DF93EC0106
:10289000162F83319105C8F48131910528F48130D8
:1028A000910511F0099731F48FEF9FEF9093AD01EF
:1028B0008093AC0180E090E0892BA9F0612FCE01DC
:1028C000DF91CF911F910C9400004D9799F7177FDE
:1028D0001093AF01809196018F73912F907C892B7B
:1028E00080939601E1CFCE010E94AA1F1817C1F074
:1028F000612FCE010E94421480E090E0892B21F0EC
:10290000612FCE010E94000080E090E0892B41F011
:102910008091960184FD04C0612FCE010E940000C9
:10292000CE01DF91CF911F910C94AA1FBF92CF923D
:10293000DF92EF92FF920F931F93CF93DF938B0160
:10294000B42E690182FF23C083FF17C061E0C80174
:102950000E940D138823D9F16B2DC8010E944414E5
:102960008B1135C0F601DF91CF911F910F91FF9030
:10297000EF90DF90CF90BF90099460E0C8010E9473
:102980000D13882321F1C8010E948313E9CF842FFE
:102990008770C1E0D0E07E0101C0EE0C8A95EAF7B5
:1029A000D42FD870CB010E948313C82FB4FE1CC053
:1029B00061E0C8010E940D13882349F0DD2389F0EE
:1029C000CE296C2FC8010E9444148C1759F2DF9154
:1029D000CF911F910F91FF90EF90DF90CF90BF901C
:1029E0000895E094CE21EDCF60E0C8010E940D1360
:1029F000882369F3CE21DD2319F0C111B3CFE7CFCE
:102A0000CC2309F4AFCFE3CFCF92DF92EF92FF92C6
:102A10000F931F93CF937C016B01C42F402F8C2FFA
:102A2000807E803609F474C080F4803209F453C08B
:102A3000803409F46DC08823D9F1CF911F910F9193
:102A4000FF90EF90DF90CF900895803A09F497C0FF
:102A5000A8F4803891F780E090E02C2F2F7141E0AE
:102A600050E0892B51F3B601C701CF911F910F910F
:102A7000FF90EF90DF90CF900C940000803C09F421
:102A80008CC0803ED1F66C2F70E0762F66276627CB
:102A90007370622B6F5F7F4F24E433E18C2FCF91F3
:102AA0001F910F91FF90EF90DF90CF900C949614B0
:102AB0008C2F8E7011F680E090E0892B09F4BDCF49
:102AC0008C2F8170CF911F910F91FF90EF90DF902D
:102AD000CF900C940000CF71CF3109F0AECF80E0E1
:102AE00090E0892B09F4A9CF422F4F7769F041304C
:102AF00069F0221F2227221F30E00FE710E0B60105
:102B0000C7010E94000099CF41E0F3CF40E0F1CF30
:102B100080E090E0892BC1F02C2F30E08C2F8F715A
:102B2000813029F030F0803121F08131F1F440E042
:102B300001C041E025FB222720F90DE110E030E043
:102B4000B601C7010E94000080E090E0892B09F4E3
:102B500074CF4C2FB601C701CF911F910F91FF90F9
:102B6000EF90DF90CF900C940000C901880F991F5F
:102B70008E71C4FB442740F9482B4250DBCF80E0E4
:102B800090E0892B09F459CF2C2F2F7043E050E0AF
:102B9000C4FF69CF42E050E066CFCF71CE3159F02B
:102BA000CF3109F04ACF80E090E045E050E0892B3A
:102BB00009F059CF42CF80E090E044E050E0892B0B
:102BC00009F051CF3ACFFF920F931F93CF93DF932A
:102BD000EC018B01FB01F0800E94AA1FF81621F086
:102BE0006F2DCE010E94B21FF801F1802196CE0117
:102BF0000E94AA1FF81621F06F2DCE010E94B21F6D
:102C0000C801DF91CF911F910F91FF9008954F92CE
:102C10005F926F927F929F92AF92BF92CF92DF921C
:102C2000EF92FF920F931F93CF93DF93CDB7DEB751
:102C3000A1970FB6F894DEBF0FBECDBF7C01162F53
:102C4000042F0E94CF124090640150906501609063
:102C50006601709067016419750986099709643FD8
:102C600071408105910588F00E94CF126093640144
:102C700070936501809366019093670181E0809372
:102C8000B601F092B401E092B3018091BB018111D1
:102C900069C0002309F466C099249394111101C0FE
:102CA000912C0AE513E0D12CC12C8AE0482E512C3E
:102CB000612C712C8091B7028C151D0409F00CF465
:102CC00051C0F80145818091B50180FF02C04111DA
:102CD00049C0F80187819085E816F906D8F164812A
:102CE00070E09C0121503109260F371F2E153F053A
:102CF00088F19701281B390BC9010E94C01F880F5A
:102D0000890D442369F1818388E391E00E94671370
:102D1000F801218130E050E040E019A25E01F1E2CB
:102D2000AF0EB11CCA01B901A30192010E94E81FB4
:102D3000605DF50162935F01211531054105510583
:102D400089F7309719F0CF010E94671385E491E06D
:102D50000E946713FFEFCF1ADF0A0F5E1F4FAACF43
:102D60008068D1CFA1960FB6F894DEBF0FBECDBF5D
:102D7000DF91CF911F910F91FF90EF90DF90CF9057
:102D8000BF90AF909F907F906F905F904F9008950D
:102D90001F920F920FB60F9211242F933F934F93D0
:102DA0005F936F937F938F939F93AF93BF93EF93B3
:102DB000FF9389EB92E00E94550FFF91EF91BF9135
:102DC000AF919F918F917F916F915F914F913F91C3
:102DD0002F910F900FBE0F901F9018951F920F927A
:102DE0000FB60F9211242F938F939F93EF93FF931E
:102DF000E091C902F091CA028081E091CF02F09186
:102E0000D00282FD1BC090818091D2028F5F8F73B0
:102E10002091D302821741F0E091D202F0E0E75412
:102E2000FD4F958F8093D202FF91EF919F918F91EB
:102E30002F910F900FBE0F901F9018958081F4CFA7
:102E40001F920F920FB60F9211242F933F938F93DF
:102E50009F93AF93BF9380916E0190916F01A0916A
:102E60007001B091710130916D0123E0230F2D3776
:102E700058F50196A11DB11D20936D0180936E013F
:102E800090936F01A0937001B093710180917201D2
:102E900090917301A0917401B09175010196A11DEB
:102EA000B11D8093720190937301A0937401B0934C
:102EB0007501BF91AF919F918F913F912F910F908D
:102EC0000FBE0F901F90189526E8230F0296A11DA4
:102ED000B11DD2CF1F920F920FB60F9211242F93D4
:102EE0003F934F935F936F937F938F939F93AF9392
:102EF000BF93EF93FF93E0910401F09105010995D1
:102F0000FF91EF91BF91AF919F918F917F916F91C1
:102F10005F914F913F912F910F900FBE0F901F9097
:102F200018951F920F920FB60F9211242F933F9373
:102F30004F935F936F937F938F939F93AF93BF93C1
:102F4000EF93FF93E0910201F09103010995FF9146
:102F5000EF91BF91AF919F918F917F916F915F9111
:102F60004F913F912F910F900FBE0F901F9018958A
:102F70001092BC021092BB0288EE93E0A0E0B0E099
:102F80008093BD029093BE02A093BF02B093C00293
:102F90008AE291E09093BA028093B90285EC90E0C6
:102FA0009093C6028093C50284EC90E09093C8028F
:102FB0008093C70280EC90E09093CA028093C9028C
:102FC00081EC90E09093CC028093CB0282EC90E075
:102FD0009093CE028093CD0286EC90E09093D00245
:102FE0008093CF021092D2021092D3021092D40298
:102FF0001092D502EAE5F3E088EE93E0908B8787A4
:10300000719624E0EA36F207C9F71092580310923D
:1030100059030895CF93DF9300D000D01F92CDB70E
:10302000DEB7789484B5826084BD84B5816084BD48
:1030300085B5826085BD85B5816085BD80916E0056
:10304000816080936E001092810080918100826087
:1030500080938100809181008160809381008091C4
:1030600080008160809380008091B10084608093B3
:10307000B1008091B00081608093B00080917A00AF
:10308000846080937A0080917A00826080937A00D5
:1030900080917A00816080937A0080917A008068C4
:1030A00080937A001092C10061E08DE00E94AC1024
:1030B00006E011E056E2C52E51E0D52ED801FC9075
:1030C0000E5F1F4F61E08F2D0E94AC1060E08F2DCE
:1030D0000E947E10C016D10689F762E088E00E9447
:1030E000AC1088E0809357031092560388EE93E06B
:1030F0000E94AA1F8C3CC9F16CEC88EE93E00E9400
:1031000042141092B50160E08DEE93E00E944214EB
:1031100081E090E09093B2018093B10161EB71E0A6
:103120008AEE93E00E94E31584E68093C00164E692
:103130008CEE93E00E94421440E1E42EF12C10E06A
:1031400000E060E0C8010E9442140F5F1F4F1C8323
:103150000B83BE016D5F7F4FC7010E94E315B2E094
:10316000EB0EF11C0031110561F761EB71E08AEEA5
:1031700093E00E94DB130AE513E0F12CE12C36EF1B
:10318000D32EC7010E94AA1FF80185838D9DB0012F
:1031900011246E537F4F46EF50E081EC91E00E9486
:1031A000A11F8091C201D80116968C931697209189
:1031B000C10113962C9330E0C901019797FDC90115
:1031C000959587958F5FF8018483FFEFEF1AFF0ACB
:1031D0000F5E1F4F20E1E216F10499F61092A7014D
:1031E00082E08093A801E0EBF0E0E491F0E0EE0FE4
:1031F000FF1FEC55FF4F859194919093AA01809306
:10320000A901E2E9F0E0E491E093AB0160E082E043
:103210000E94AC10E0E8F1E086E1DF011D928A95A2
:10322000E9F782E990E090937B0180937A0182E54F
:1032300090E0909379018093780180EC80939601DF
:10324000109297018FEF9FEF9093AD018093AC01A7
:103250001092AE0183E0809377018091AB0180935F
:10326000760163E070E08091A7010E94F60E8DE187
:1032700090E00E948313682F606C8DE190E00E94C3
:1032800044148093AF016BE087E090E00E94441407
:103290006DE088E090E00E94441480E00E94741386
:1032A0000E94EF131092B00180E0282E80E0382EAB
:1032B0000E94CF1200917C0110917D0120917E012E
:1032C00030917F016B017C01C01AD10AE20AF30A36
:1032D0009701860140910001509101016A01F12C92
:1032E000E12C0C151D052E053F0558F160937C015E
:1032F00070937D0180937E0190937F01E091BB01EB
:10330000E15061E0E730D0F4F0E0E757F64E0C947E
:103310000A20ED19E619E619ED19DF19D8199019E7
:1033200013E2E12EF12CF0920101E09200018DE018
:103330000E94551061E0892B09F060E08DE00E9449
:103340007E10809198018823B1F00E94CF120091E5
:10335000990110919A0120919B0130919C01601B71
:10336000710B820B930B653171058105910518F086
:1033700080E00E94741380918201882309F457C071
:10338000F89488E0EEE8F1E0AAE6B4E001900D924E
:103390008A95E1F710928201789480916A04E82F6F
:1033A000F0E0E459FB4F863008F511928F5FFBCFB8
:1033B00082E390E09093010180930001B8CFAAEFDF
:1033C000B0E0B0930101A0930001B1CFEDE7F0E0D0
:1033D000F0930101E0930001AACFB4EFCB2EDD24DE
:1033E000D394D0920101C0920001A1CFA0E0EA2EB7
:1033F000A0E0FA2EEF2821F08AE694E00E94000077
:1034000080916C0481117CC090916D04911178C001
:1034100080E090E0892B19F080E00E94000080910C
:103420009801882309F468C081E00E94DC120E94A0
:10343000CF120091BC011091BD012091BE013091CD
:10344000BF016B017C01C01AD10AE20AF30A97019D
:103450008601043111052105310528F16093BC0175
:103460007093BD018093BE019093BF01809157037B
:103470000E9455109C0191E02115310509F490E05E
:103480008091580398130DC080915903981709F43F
:1034900046C29093590383E0232B09F482E0809382
:1034A00056039093580310915603133019F481E09A
:1034B0008093560380915603823011F41092560384
:1034C000123039F48091BB01882319F01092BB01AE
:1034D00011E0E091BB01E93008F039C2F0E0ED58AD
:1034E000F54E0C940A20961C4A1D641DA71D8C1DC8
:1034F000CF1D101EA91E271D81E00E94741397CFB7
:1035000090919801992309F48BC08057803108F07D
:1035100084C081E00E94DC1210916A0480919F01B6
:1035200018130AC0412F50E061EA71E08CE694E084
:103530000E942A20892B61F010929E0188E0EAE621
:10354000F4E0AFE9B1E001900D928A95E1F76FCF19
:1035500080919E018F5F80939E01133009F045C0DA
:1035600090916C04892F8770F0906D04853051F430
:10357000F0929D0180E090E0892B09F458CF0E94E1
:10358000000055CF0DE110E0843091F0282F30E09D
:103590008430F0F400919D010023D1F00150110B13
:1035A000000F111F000F111F020F131F0F5F1F4F7E
:1035B00093FF10C061E0C8010E940D13882309F435
:1035C00036CF6F2DC8010E944414F81230CFD2CFED
:1035D0008901ECCF60E0C8010E940D13882309F433
:1035E00026CFC8010E948313F0CF143009F01FCFFB
:1035F00080916C04682F70E0762F662766277370C1
:1036000090916D04692B6F5F7F4F28EF3FE04091F1
:103610006E048C700E9496140ACF80E00E9474138E
:10362000E0916C04EF3F61F480916D048111FFCE55
:1036300080E090E0892B09F4FACE0E940000F7CEDA
:10364000E7FD0DC000916F0420916E0440916D0460
:1036500070E060E08E2F90E00E940415E8CEE03C20
:1036600008F04CC14091960147FFE1CE90916D0466
:10367000292F30E0890100951095000F111F000FD0
:10368000111F007C1170EF730E2B35952795822F3B
:103690008370B82E80916A04853039F59C789C300F
:1036A00021F50E948B138017910721F00F3F1140E5
:1036B00009F0BDCE00916D0410E0102F0027002707
:1036C000137080916E04080F111D0F5F1F4FF09053
:1036D0006F0461E0C8010E940D136F2D882309F467
:1036E000A6CEC8010E944414A2CE6801A1E0CA1A65
:1036F000D108CC0CDD1CCC0CDD1CCB287601BFEF37
:10370000EB1AFB0A8091AE018823F1F046FF3CC022
:10371000C70160E071E00E94D41F682F81E090E053
:103720000E944414C701F7FE02C081509F4F692FC9
:1037300089E090E00E9444142114310419F0C7017B
:103740000E9400001092AE018091960180FD35C06C
:1037500080916A04843009F04AC080916D048978B0
:10376000813009F064CE60916E04C7010E944E134F
:1037700080E090E0892B09F45ACE40916E046B2DC5
:10378000C7010E94000053CEB8016F73772781E014
:1037900090E00E944414B801B6E075956795BA951B
:1037A000E1F789E090E00E944414E0E0F0E0EF2BC4
:1037B00049F2C8010E940000C5CF86FF0CC00E94DC
:1037C0008B138E159F0521F2FDEFEF16F7E0FF0634
:1037D0000CF0BECF2CCE0E948B138017910709F4FA
:1037E000B7CF0F3F21E0120709F4B2CF20CE8330CC
:1037F00041F540916D04942F9170C92E43FBDD2457
:10380000D0F8A0E0B0E0AB2B31F047702D2DB8011F
:10381000C7010E9400008091960186FF06C04D2DD1
:103820006C2DC7010E94071602CEE0E0F0E0EF2BFE
:1038300009F4FDCD2D2D4C2D6B2DC8010E940000EB
:10384000F6CD863009F0F3CD80916D04982F9978EC
:10385000913021F08F78803809F0E9CD8091960180
:1038600086FF28C00E948B138E159F05E9F4809176
:103870006E0490E0382F22272227337000916F04C6
:10388000020F132F111D0F5F1F4FF09070049595BD
:10389000879595958795837099278230910599F042
:1038A000039709F416CFC3CDFDEFEF16F7E0FF063F
:1038B000F4F6BDCD0E948B1380179107C1F20F3F24
:1038C0001140A9F2B4CDF4FEB2CD61E0C8010E946E
:1038D0000D13882309F4ABCDC8010E9483139F2DDB
:1038E000977061E070E001C0660F9A95EAF7F3FE09
:1038F00002C0682BF6CE60956823F3CEE83E08F050
:1039000096CDE05CFF0B80916D04009170042091D6
:103910006F0440916E0461E070E09E2F9DCE81E0C7
:10392000232B09F0BCCD10925603BBCD123079F495
:103930000E94CF126093B7017093B8018093B901D0
:103940009093BA0188E08093BB011092B601009178
:10395000B802E02EF12CF1E10F9F80011124065AEC
:103960001C4F680125E0C20ED11CD8011596BC90F1
:103970001597BB2009F42FC2B6EFBB9EB0011124EE
:103980006E537F4F46EF50E081EC91E00E94A11F03
:103990000E94CF124B015C01F80181859285A385BD
:1039A000B48524013501481A590A6A0A7B0A209114
:1039B000C3013091C4014091C5015091C601AAE0F4
:1039C000B0E00E941020461657066806790608F4F3
:1039D00025C281869286A386B486858591E0892753
:1039E0008587F12CE12C3801B6E06B0E711C580173
:1039F000EFEFAE1ABE0AC8010D964C01D3018C91AF
:103A00008E151F0409F00CF409C2D801EC91EE0DDB
:103A1000FF2DF11DEE0FFF1FEA5FFE4F8081D501E4
:103A2000EC91EF77B8E0EB9FF0011124EF53FE4FDC
:103A3000EE0DFF1D9681913009F4BAC108F4BCC1A6
:103A4000923009F4BBC1BFEFEB1AFB0AD7CF0E943B
:103A5000CF12C090B701D090B801E090B901F090BA
:103A6000BA016C197D098E099F09683E7340810572
:103A7000910518F083E08093BB01133009F067CF04
:103A80008091B50181FF02C082E001C081E0809396
:103A9000BB015DCF8091B601813009F058CF109203
:103AA000B6018091B3019091B4019093B2018093DB
:103AB000B10161EB71E08AEE93E00E94E3150E9490
:103AC000EF131092BB0141CF111116C00E94CF120B
:103AD0000091B7011091B8012091B9013091BA015C
:103AE000601B710B820B930B603A7F40810591053F
:103AF00018F086E08093BB018091B601813009F017
:103B000026CF1092B6018091B3019091B4018150FB
:103B10008093B00184E0BBCF8091B601813009F081
:103B200016CF1092B6012091B3013091B40180916B
:103B3000B0013A83298390E00896BE016F5F7F4F02
:103B4000880F991F0E94E3150E94EF139DCF11115A
:103B500016C00E94CF120091B7011091B8012091B8
:103B6000B9013091BA01601B710B820B930B603A63
:103B70007F408105910518F086E08093BB0180911C
:103B8000B601813009F0E3CE1092B6018091B30105
:103B90009091B40181508093B00185E078CF8091FD
:103BA000B601813009F0D3CE1092B6018091B301F5
:103BB0009091B401FF24FA94F80E0091B001E1E174
:103BC0000E9F80011124065A1C4FD8011596FC92B5
:103BD000B6EFFB9EB00111246E537F4F46EF50E0CD
:103BE00081EC91E00E94A11F8091C201F8018683BF
:103BF0002091C101238330E0C901019797FDC901DC
:103C0000959587958F5FD80114968C938091B0011C
:103C10006F2D90E00E9442140E94EF1383E037CF93
:103C20008091B601813009F092CE1092B601809158
:103C3000B3019091B401019769F46091B5016E7F71
:103C40006093B5018DEE93E00E9442140E94EF1341
:103C50001092BB018091B3019091B401029769F475
:103C60006091B50161606093B5018DEE93E00E94B3
:103C700042140E94EF131092BB018091B301909106
:103C8000B401039769F46091B5016D7F6093B5014C
:103C90008DEE93E00E9442140E94EF131092BB013C
:103CA0008091B3019091B401049769F46091B501DA
:103CB00062606093B5018DEE93E00E9442140E9411
:103CC000EF131092BB018091B3019091B40105975D
:103CD00019F487E08093BB018091B3019091B40106
:103CE0000A9709F034CE63E388EE93E00E94421411
:103CF00088E491E00E94671385E491E00E946713D5
:103D00000E94E8104B015C0150EDC52E57E0D52E06
:103D1000E12CF12C0E94E810681979098A099B09A5
:103D2000683E734081059105A8F3B1E0CB1AD10834
:103D3000E108F108E8EE8E0EE3E09E1EA11CB11C26
:103D4000C114D104E104F10429F7F0E0E0E00995A1
:103D5000FECD8091B601813009F0F9CD1092B60107
:103D60008091B3019091B4014E97E0F08091B3013E
:103D70009091B4018B3F9105C0F48091B301909173
:103D8000B4019093B4018093B3016091B301709139
:103D9000B4016093C0018CEE93E00E944214109233
:103DA000BB01D5CD8EE190E0ECCF8AEF90E0E9CF7A
:103DB00061E00E947E1047CE60E0FBCFF40160819D
:103DC000F1E0EF16F104A9F7D6019C91923089F742
:103DD00091E06927EECFF8018685823009F458C05A
:103DE00048F4882389F0813031F1FD81F13009F008
:103DF00041C014C0833009F488C08430B1F7818198
:103E000081708183168636C011968C91119787FF39
:103E100095C081E01E968C93B1E0BD838091B8027D
:103E20008F5F8093B8029091B702891302C01092FD
:103E3000B802BD801FC0808190E02181880F991F4A
:103E4000FC0120FF22C0EA5FFE4F61E080810E94FA
:103E50007E100E94CF1221E12E9DF0012F9DF00DCA
:103E60001124E65AFC4F6187728783879487868581
:103E70008F5F868780E090E0892B29F00E94E40F15
:103E800081110E940000BD8213CAE85FFE4FDDCFA2
:103E90000E94CF12D8011996CD90DD90ED90FC9044
:103EA0001C97AB01BC014C195D096E097F0980911B
:103EB000C00190E0B0E0A0E0481759076A077B070F
:103EC000C8F2D801EC91F0E0EE0FFF1FEA5FFE4F61
:103ED00060E080810E947E10D801EC91F0E0EE0F4E
:103EE000FF1FE85FFE4F60E080810E947E10F801B6
:103EF00086858F5F86870E94CF12D80119966D93B1
:103F00007D938D939C931C97B5CF0E94CF12F8019F
:103F1000C184D284E384F4846C197D098E099F09DD
:103F2000643F71408105910508F4A4CFD8011E9625
:103F30008C911E978F5F1E968C939CCF21E02D83D2
:103F40006DCFFB01DC0102C005900D924150504045
:103F5000D8F70895F999FECF92BD81BDF89A9927B7
:103F600080B50895262FF999FECF1FBA92BD81BD65
:103F700020BD0FB6F894FA9AF99A0FBE01960895EB
:103F8000AA1BBB1B51E107C0AA1FBB1FA617B7077F
:103F900010F0A61BB70B881F991F5A95A9F780959B
:103FA0009095BC01CD01089597FB072E16F400945F
:103FB00007D077FD09D00E94C01F07FC05D03EF452
:103FC000909581959F4F0895709561957F4F0895C5
:103FD000A1E21A2EAA1BBB1BFD010DC0AA1FBB1F0D
:103FE000EE1FFF1FA217B307E407F50720F0A21B7F
:103FF000B30BE40BF50B661F771F881F991F1A94EC
:1040000069F760957095809590959B01AC01BD0115
:10401000CF010895EE0FFF1F0590F491E02D099454
:104020000E941B20A59F900DB49F900DA49F800D12
:10403000911D11240895A29FB001B39FC001A39FB9
:10404000700D811D1124911DB29F700D811D1124D1
:10405000911D0895FB01DC0104C08D910190801930
:1040600021F441505040C8F7881B990B0895F894EB
:10407000FFCFE803DB12DB1204000300050006009B
:1040800007000A000B000C000100000013001200E2
:104090001100110010000E0000000000770FFF0F4C
:1040A000180FC40F490F270F3B0F417370656374DE
:1040B000207365743A20000D0A00464143544F5264
:1040C0005920524553455420696E20322073656350
:0640D0006F6E6473000036
:107E0000112484B714BE81FFF0D085E080938100F7
:107E100082E08093C00088E18093C10086E0809377
:107E2000C20080E18093C4008EE0C9D0259A86E02C
:107E300020E33CEF91E0309385002093840096BBD3
:107E4000B09BFECF1D9AA8958150A9F7CC24DD24C4
:107E500088248394B5E0AB2EA1E19A2EF3E0BF2EE7
:107E6000A2D0813461F49FD0082FAFD0023811F036
:107E7000013811F484E001C083E08DD089C08234E0
:107E800011F484E103C0853419F485E0A6D080C0E4
:107E9000853579F488D0E82EFF2485D0082F10E0AE
:107EA000102F00270E291F29000F111F8ED06801E7
:107EB0006FC0863521F484E090D080E0DECF843638
:107EC00009F040C070D06FD0082F6DD080E0C81688
:107ED00080E7D80618F4F601B7BEE895C0E0D1E017
:107EE00062D089930C17E1F7F0E0CF16F0E7DF06D8
:107EF00018F0F601B7BEE89568D007B600FCFDCFD4
:107F0000A601A0E0B1E02C9130E011968C91119780
:107F100090E0982F8827822B932B1296FA010C0160
:107F200087BEE89511244E5F5F4FF1E0A038BF0790
:107F300051F7F601A7BEE89507B600FCFDCF97BE46
:107F4000E89526C08437B1F42ED02DD0F82E2BD052
:107F50003CD0F601EF2C8F010F5F1F4F84911BD097
:107F6000EA94F801C1F70894C11CD11CFA94CF0C13
:107F7000D11C0EC0853739F428D08EE10CD085E9AC
:107F80000AD08FE07ACF813511F488E018D01DD067
:107F900080E101D065CF982F8091C00085FFFCCF94
:107FA0009093C60008958091C00087FFFCCF809118
:107FB000C00084FD01C0A8958091C6000895E0E648
:107FC000F0E098E1908380830895EDDF803219F02E
:107FD00088E0F5DFFFCF84E1DECF1F93182FE3DFCA
:107FE0001150E9F7F2DF1F91089580E0E8DFEE27F6
:047FF000FF270994CA
:027FFE00040479
:00000001FF
