:100000000C94CC0E0C9424160C94FD150C94F40E48
:100010000C94F40E0C94F40E0C94F40E0C94F40E58
:100020000C94F40E0C94F40E0C94F40E0C94F40E48
:100030000C94F40E0C94F40E0C94F40E0C94F40E38
:100040000C94B3150C94F40E0C94F40E0C94F40E62
:100050000C94F40E0C94F40E0C94F40E0C94F40E18
:100060000C94F40E0C94F40E000000002400270001
:100070002A0000000000250028002B0000000008D6
:10008000000201000003040700000000000000005F
:10009000010204081020408001020408102001021F
:1000A000040810200000000023002600290004049A
:1000B0000404040404040202020202020303030310
:1000C0000303020200000000000000000000000026
:1000D0000000000000000000000000000000000020
:1000E0000000000000000000000000000000000010
:1000F0000000000000000000000000000000000000
:1001000000000000000000000000000000000000EF
:1001100000000000000000000000000000000000DF
:1001200000000000000000000000000000000000CF
:1001300000000000000000000000000000000000BF
:1001400000000000000000000000000000000000AF
:10015000000000000000000000000000000000009F
:10016000000000000000000000000000000000008F
:10017000000000000000000000000000000000007F
:10018000000000000000000000000000000000006F
:10019000000000000000000000000000000000005F
:1001A000000000000000000000000000000000004F
:1001B00000000000000000000301640000000100D6
:1001C000000000000000000000000000000002002D
:1001D000000000000000000000000000000000001F
:1001E000000000000000000000000000000000000F
:1001F00000000000000000000000000000000000FF
:1002000000000000000000000000000000000000EE
:1002100000000000000000000000000000000000DE
:1002200000000000000000000000000000000000CE
:1002300000000000000000000000000000000000BE
:1002400000000000000000000000000000000000AE
:10025000000000000000000000000000000000009E
:10026000000000000000000000000000000000008E
:10027000000000000000000000000000000000007E
:10028000000000000000000000000000000000006E
:10029000000000000000000000000000000000005E
:1002A0000000000000000000000000000000020349
:1002B00043000000000002000000000002020000F5
:1002C000000000000000000000000000000000002E
:1002D000000000000000000000000000000000001E
:1002E000000000000000000000000000000000000E
:1002F00000000000000000000000000000000000FE
:1003000000000000000000000000000000000000ED
:1003100000000000000000000000000000000000DD
:1003200000000000000000000000000000000000CD
:1003300000000000000000000000000000000000BD
:1003400000000000000000000000000000000000AD
:10035000000000000000000000000000000000009D
:10036000000000000000000000000000000000008D
:10037000000000000000000000000000000000007D
:10038000000000000000000000000000000000006D
:10039000000000000000000000000000000000005D
:1003A0000000000002020000000001000000000048
:1003B000000000010000000000000000000000003C
:1003C000000000000000000000000000000000002D
:1003D000000000000000000000000000000000001D
:1003E000000000000000000000000000000000000D
:1003F00000000000000000000000000000000000FD
:1004000000000000000000000000000000000000EC
:1004100000000000000000000000000000000000DC
:1004200000000000000000000000000000000000CC
:1004300000000000000000000000000000000000BC
:1004400000000000000000000000000000000000AC
:10045000000000000000000000000000000000009C
:10046000000000000000000000000000000000008C
:10047000000000000000000000000000000000007C
:10048000000000000000000000000000000000006C
:100490000000000000000000000005033200000022
:1004A0000100000000000000020000000000000049
:1004B0000001000000000000000200000000000039
:1004C0000000010000000000000002000000000029
:1004D000000000000000000000000000000000001C
:1004E000000000000000000000000000000000000C
:1004F00000000000000000000000000000000000FC
:1005000000000000000000000000000000000000EB
:1005100000000000000000000000000000000000DB
:1005200000000000000000000000000000000000CB
:1005300000000000000000000000000000000000BB
:1005400000000000000000000000000000000000AB
:10055000000000000000000000000000000000009B
:10056000000000000000000000000000000000008B
:10057000000000000000000000000000000000007B
:10058000000000000000000000000000000000006B
:100590000904320000000100000000000000020019
:1005A0000000000000000200000100000000000147
:1005B0000000000000000002000000000000000138
:1005C0000001000000000002000200000000000026
:1005D0000100000000000000020000000000000018
:1005E000000000000000000000000000000000000B
:1005F00000000000000000000000000000000000FB
:1006000000000000000000000000000000000000EA
:1006100000000000000000000000000000000000DA
:1006200000000000000000000000000000000000CA
:1006300000000000000000000000000000000000BA
:1006400000000000000000000000000000000000AA
:10065000000000000000000000000000000000009A
:10066000000000000000000000000000000000008A
:10067000000000000000000000000000000000007A
:10068000000000000000060432000000000100002D
:100690000000000001000100000000000200020054
:1006A0000000000000000100000000000000020047
:1006B0000000000000000001000000000000000039
:1006C000000000000000000000000000000000002A
:1006D000000000000000000000000000000000001A
:1006E000000000000000000000000000000000000A
:1006F00000000000000000000000000000000000FA
:1007000000000000000000000000000000000000E9
:1007100000000000000000000000000000000000D9
:1007200000000000000000000000000000000000C9
:1007300000000000000000000000000000000000B9
:1007400000000000000000000000000000000000A9
:100750000000000000000000000000000000000099
:100760000000000000000000000000000000000089
:10077000000000000000000000000000050532003D
:100780000000010000000000000001010000000066
:100790000000000001000000000000000101000056
:1007A0000000000001000100000000000000000047
:1007B0000000000000000000000000000000000039
:1007C0000000000000000000000000000000000029
:1007D0000000000000000000000000000000000019
:1007E0000000000000000000000000000000000009
:1007F00000000000000000000000000000000000F9
:1008000000000000000000000000000000000000E8
:1008100000000000000000000000000000000000D8
:1008200000000000000000000000000000000000C8
:1008300000000000000000000000000000000000B8
:1008400000000000000000000000000000000000A8
:100850000000000000000000000000000000000098
:100860000000000000000000000000000000000088
:10087000000003033200000001000000000000003F
:100880000101000000000000000001000000000065
:100890000000000000000000000000000000000058
:1008A0000000000000000000000000000000000048
:1008B0000000000000000000000000000000000038
:1008C0000000000000000000000000000000000028
:1008D0000000000000000000000000000000000018
:1008E0000000000000000000000000000000000008
:1008F00000000000000000000000000000000000F8
:1009000000000000000000000000000000000000E7
:1009100000000000000000000000000000000000D7
:1009200000000000000000000000000000000000C7
:1009300000000000000000000000000000000000B7
:1009400000000000000000000000000000000000A7
:100950000000000000000000000000000000000097
:10096000000000000000000004060000000001007C
:100970000100010000000100010000010000010071
:100980000001000100000001000000000000000064
:100990000000000000000000000000000000000057
:1009A0000000000000000000000000000000000047
:1009B0000000000000000000000000000000000037
:1009C0000000000000000000000000000000000027
:1009D0000000000000000000000000000000000017
:1009E0000000000000000000000000000000000007
:1009F00000000000000000000000000000000000F7
:100A000000000000000000000000000000000000E6
:100A100000000000000000000000000000000000D6
:100A200000000000000000000000000000000000C6
:100A300000000000000000000000000000000000B6
:100A400000000000000000000000000000000000A6
:100A5000000000000000000000000000000003048F
:100A60003200000001000100000000000100000150
:100A70000000000000010001000000000000000074
:100A80000000000000000000000000000000000066
:100A90000000000000000000000000000000000056
:100AA0000000000000000000000000000000000046
:100AB0000000000000000000000000000000000036
:100AC0000000000000000000000000000000000026
:100AD0000000000000000000000000000000000016
:100AE0000000000000000000000000000000000006
:100AF00000000000000000000000000000000000F6
:100B000000000000000000000000000000000000E5
:100B100000000000000000000000000000000000D5
:100B200000000000000000000000000000000000C5
:100B300000000000000000000000000000000000B5
:100B400000000000000000000000000000000000A5
:100B50000000000006053200000001000000000057
:100B60000000000101000000000000000001000082
:100B70000000000000010200000001010000000070
:100B80000000010001000000000000000000000063
:100B90000000000000000000000000000000000055
:100BA0000000000000000000000000000000000045
:100BB0000000000000000000000000000000000035
:100BC0000000000000000000000000000000000025
:100BD0000000000000000000000000000000000015
:100BE0000000000000000000000000000000000005
:100BF00000000000000000000000000000000000F5
:100C000000000000000000000000000000000000E4
:100C100000000000000000000000000000000000D4
:100C200000000000000000000000000000000000C4
:100C300000000000000000000000000000000000B4
:100C40000000000000000000000006053200000067
:100C5000020000000000000000020200000000008E
:100C6000000000020000000000000002020000007E
:100C7000020200000000000002000200000000006C
:100C80000000000000000000000000000000000064
:100C90000000000000000000000000000000000054
:100CA0000000000000000000000000000000000044
:100CB0000000000000000000000000000000000034
:100CC0000000000000000000000000000000000024
:100CD0000000000000000000000000000000000014
:100CE0000000000000000000000000000000000004
:100CF00000000000000000000000000000000000F4
:100D000000000000000000000000000000000000E3
:100D100000000000000000000000000000000000D3
:100D200000000000000000000000000000000000C3
:100D300000000000000000000000000000000000B3
:100D40000404320000000100000000000000010166
:100D50000000000000000100010000000000000091
:100D60000001000000000000000000000000000082
:100D70000000000000000000000000000000000073
:100D80000000000000000000000000000000000063
:100D90000000000000000000000000000000000053
:100DA0000000000000000000000000000000000043
:100DB0000000000000000000000000000000000033
:100DC0000000000000000000000000000000000023
:100DD0000000000000000000000000000000000013
:100DE0000000000000000000000000000000000003
:100DF00000000000000000000000000000000000F3
:100E000000000000000000000000000000000000E2
:100E100000000000000000000000000000000000D2
:100E200000000000000000000000000000000000C2
:100E30000000000000000707320000000100000071
:100E4000000000000101000000000000010000009F
:100E5000020000000100010000000000000000018D
:100E6000000000000000000100010000000000017F
:100E70000000020000000000000000000000000070
:100E80000000000000000000000000000000000062
:100E90000000000000000000000000000000000052
:100EA0000000000000000000000000000000000042
:100EB0000000000000000000000000000000000032
:100EC0000000000000000000000000000000000022
:100ED0000000000000000000000000000000000012
:100EE0000000000000000000000000000000000002
:100EF00000000000000000000000000000000000F2
:100F000000000000000000000000000000000000E1
:100F100000000000000000000000000000000000D1
:100F20000000000000000000000000000404320087
:100F300000000101000000000000010101000000AC
:100F4000000001000101000000000000010100009C
:100F50000000000000000000000000000000000091
:100F60000000000000000000000000000000000081
:100F70000000000000000000000000000000000071
:100F80000000000000000000000000000000000061
:100F90000000000000000000000000000000000051
:100FA0000000000000000000000000000000000041
:100FB0000000000000000000000000000000000031
:100FC0000000000000000000000000000000000021
:100FD0000000000000000000000000000000000011
:100FE0000000000000000000000000000000000001
:100FF00000000000000000000000000000000000F1
:1010000000000000000000000000000000000000E0
:1010100000000000000000000000000000000000D0
:1010200000000607000000000100000000000000B2
:1010300001000000000001000100000100000000AC
:10104000010101000000000000000000010100009B
:10105000000000000000000100000000000000008F
:101060000000000000000000000000000000000080
:101070000000000000000000000000000000000070
:101080000000000000000000000000000000000060
:101090000000000000000000000000000000000050
:1010A0000000000000000000000000000000000040
:1010B0000000000000000000000000000000000030
:1010C0000000000000000000000000000000000020
:1010D0000000000000000000000000000000000010
:1010E0000000000000000000000000000000000000
:1010F00000000000000000000000000000000000F0
:1011000000000000000000000000000000000000DF
:1011100000000000000000000607000000000101C0
:1011200000000000000001000100000000000101BB
:1011300001000000000001010001000000000100AA
:10114000010000000000000000010100000000009C
:10115000000000000000000000000000000000008F
:10116000000000000000000000000000000000007F
:10117000000000000000000000000000000000006F
:10118000000000000000000000000000000000005F
:10119000000000000000000000000000000000004F
:1011A000000000000000000000000000000000003F
:1011B000000000000000000000000000000000002F
:1011C000000000000000000000000000000000001F
:1011D000000000000000000000000000000000000F
:1011E00000000000000000000000000000000000FF
:1011F00000000000000000000000000000000000EF
:1012000000000000000000000000000000000805D1
:1012100000000000010000000000000000010000CC
:1012200000000000000200000000000000010100BA
:1012300000000000000202000000000000000001A9
:10124000000000000000000200000000000000019B
:10125000010000000000000000000000000000008D
:10126000000000000000000000000000000000007E
:10127000000000000000000000000000000000006E
:10128000000000000000000000000000000000005E
:10129000000000000000000000000000000000004E
:101D9000000000000000FB1D11241FBECFEFD8E0A3
:101DA000DEBFCDBF11E0A0E0B1E0E8E1FDE302C09D
:101DB00005900D92AA32B107D9F723E0AAE2B1E06B
:101DC00001C01D92AB3AB207E1F71EE0CCECDEE0B9
:101DD00004C02197FE010E945D1ECB3CD107C9F7CC
:101DE0000E944B160C948A1E0C9400008230F8F46A
:101DF000E82FF0E0EE0FFF1FEC5FFE4F20E030E138
:101E000031832083813041F0809169008C7F682B81
:101E100060936900E89A089580916900837F660F56
:101E2000771F660F771F682B60936900E99A089502
:101E300080E090E0892B11F00C940000089583302D
:101E400081F028F4813099F08230A9F0089587302C
:101E5000A9F08830C9F08430B1F4809180008F7D82
:101E600003C0809180008F7780938000089584B5AF
:101E70008F7784BD089584B58F7DFBCF8091B000AE
:101E80008F778093B00008958091B0008F7DF9CF57
:101E9000CF93DF93282F30E0F901E458FF4F84916E
:101EA000F901E057FF4FD491F901E255FF4FC4917A
:101EB000CC23A1F081110E941F0FEC2FF0E0EE0F58
:101EC000FF1FEC55FF4FA591B491EC91ED2381E0FC
:101ED00090E009F480E0DF91CF91089580E090E0F8
:101EE000FACF1F93CF93DF93282F30E0F901E45806
:101EF000FF4F8491F901E057FF4FD491F901E2556A
:101F0000FF4FC491CC23A9F0162F81110E941F0FFF
:101F1000EC2FF0E0EE0FFF1FEE58FF4FA591B491AC
:101F20008FB7F894EC91111108C0D095DE23DC93A3
:101F30008FBFDF91CF911F910895DE2BF8CFCF9304
:101F4000DF9390E0FC01E057FF4F249182559F4FB3
:101F5000FC0184918823C9F090E0880F991FFC014F
:101F6000E859FF4FA591B491FC01EE58FF4FC59180
:101F7000D49161110DC09FB7F8948C912095822364
:101F80008C938881282328839FBFDF91CF91089568
:101F9000623051F49FB7F8943C91822F809583234F
:101FA0008C93E8812E2BEFCF8FB7F894EC912E2BEA
:101FB0002C938FBFEACF3FB7F8948091380190916E
:101FC0003901A0913A01B0913B0126B5A89B05C00B
:101FD0002F3F19F00196A11DB11D3FBFBA2FA92FA8
:101FE000982F8827BC01CD01620F711D811D911DA5
:101FF00042E0660F771F881F991F4A95D1F7089511
:10200000FF920F931F93CF93DF930E94DB0F2091DA
:10201000310130913201EB01C21BD30B20913E0103
:1020200030913F01C217D30708F45FC040914601C9
:10203000509147014130510561F0E0916F01F091FD
:102040007001208130917101232330913C012313D1
:102050004CC07093320160933101009140011091A6
:1020600041014230510509F413C14330510509F4CF
:102070004EC14130510561F480913001813009F445
:1020800047C0C8F1833009F482C0843009F4C9C064
:102090008091460190914701019739F1C017D1070E
:1020A00008F06DC180912E018F5F80932E018B30DF
:1020B000E0F081E090E0909347018093460161E079
:1020C00070E080916D010E94F60E10923C0110921A
:1020D000300182E590E0909341018093400183E2DA
:1020E00090E090933F0180933E01DF91CF911F914B
:1020F0000F91FF900895C017D10730F481E08093CD
:102100003001C0932F01C4CF84E080933001C0CF51
:10211000C017D107D0F51092300180912E018F5F4A
:1021200080932E0120912F018C2F0C2E000C990BE7
:10213000821B910927FD939597FF03C09195819587
:102140009109499794F2109247011092460182E951
:1021500090E0909341018093400182E590E090935C
:102160003F0180933E0110922E01F0903D016F2DB2
:1021700070E080916D010E94F60E8091710193E0F4
:10218000F91227C080933C0183CF83E0BECFC017F4
:10219000D10708F5109247011092460182E990E0BC
:1021A000909341018093400182E590E090933F013C
:1021B00080933E0110922E01F0903D016F2D70E052
:1021C00080916D010E94F60E8091710133E0F3164B
:1021D000C9F280E0D7CF90913D01933009F482E0BD
:1021E00080933D0182E090E0909347018093460107
:1021F00082E990E0909341018093400182E590E074
:1022000090933F0180933E0110924C0180912E01EA
:1022100080934D011092490110924B0110924A0196
:10222000CBCFC017D107A8F41092470110924601F6
:1022300082E990E0909341018093400182E590E033
:1022400090933F0180933E0110922E01109249011C
:102250008CCF82E090E0909347018093460182E921
:1022600090E0909341018093400182E590E090934B
:102270003F0180933E0110924C0180912E0180938A
:102280004D011092490110924B0110924A016DCFFD
:10229000909149019F5F9093490180914A01880F75
:1022A000C017D107E0F080934A01983009F0F6CECC
:1022B000E0914C01E630A9F41092470110924601DA
:1022C00082E990E0909341018093400182E590E0A3
:1022D00090933F0180933E0110924901D9CE8160D5
:1022E000E2CF83E090E0909347018093460181E044
:1022F0008E0F80934C0190914A01F0E0EA5BFE4F13
:10230000908780914B01892780934B01C1CEC017E4
:10231000D10728F510924701109246011092490109
:1023200082E990E0909341018093400182E590E042
:1023300090933F0180933E0180914B018111B2CE79
:1023400088E0ECE4F1E0A4E5B1E001900D928A951B
:10235000E1F781E08093480110922E0199CE80919F
:102360004C01863009F4A8CF82E090E090934701B9
:10237000809346011092490110924A0189CE109231
:102380002E01B3CE2FB7F8946091340170913501CE
:1023900080913601909137012FBF08950895CF9312
:1023A000C82F80E090E0892B51F080915E018C175E
:1023B00031F081E0C11101C080E00E940000C093B3
:1023C0005E0160E070E0CB01C1110E94C211609318
:1023D0005F0170936001809361019093620180E0DE
:1023E00090E0892B59F080915E018C1739F081E0E3
:1023F000C11101C080E0CF910C940000CF910895ED
:102400001F93CF93DF93EC01162F80E090E0892B90
:1024100091F0C830D10579F4662319F10E940000CB
:1024200080E090E0892BB9F0612FCE01DF91CF9150
:102430001F910C94000080E090E0892BA9F781E0C7
:10244000C11594E0D90708F080E0111105C0DF91B3
:10245000CF911F91089581E027972297C0F780E0E0
:10246000F6CF80E090E0892BF9F681E0F0CF80E0B4
:1024700090E0892B29F08091750183FD0C94000078
:102480000895CF92DF92EF92FF920F931F93CF9315
:10249000DF93EC01162F042F0E94C211C0902A0175
:1024A000D0902B01E0902C01F0902D016C197D094A
:1024B0008E099F09643F71408105910588F00E9453
:1024C000C21160932A0170932B0180932C01909389
:1024D0002D0181E080937C01D0937A01C093790132
:1024E00080918101811138C00023B1F1FF24F39460
:1024F000111101C0F12C0091810210E040917B018B
:102500004170E2E8F2E030E020E02017310724F5E6
:10251000E680442311F0E1101FC080859185C81723
:10252000D907A0F0658170E0DC011197A60FB71FF5
:10253000AC17BD0758F0DE01A81BB90BCD010E94F6
:10254000351E880F8F0DEE2029F081832F5F3F4FBE
:102550007296DBCF8068F9CFDF91CF911F910F91F9
:10256000FF90EF90DF90CF9008950E94CF11ECE59F
:10257000F1E081E087831086E5E6F1E088E0DF01A5
:102580001D928A95E9F708950C941F1E20E030E013
:10259000232B11F00C9400000C94C412CF93DF9302
:1025A00020917201309173012F3F320721F0C90150
:1025B000DF91CF9108958091750187FF2BC086FF31
:1025C0000FC089E090E00E94C612C82F81E090E021
:1025D0000E94C6129C2F909373018093720115C0C4
:1025E00089E090E00E94C612C82F81E090E00E942E
:1025F000C61290E4C99F90011124207C31708F7322
:10260000282B309373012093720180917201909175
:102610007301CECF85FF0CC081E190E00E94C6120D
:10262000C82F82E190E00E94C612C05CDD0BD2CFC1
:1026300081E090E00E94C61290E0CDCFCF93DF936F
:10264000EB010E941F1E8883CE01DF91CF91089578
:102650000F931F93CF93DF938C01EB010E941F1EFA
:102660008883C80101960E941F1E8983CE01DF91D5
:10267000CF911F910F910895CF92DF92EF92FF9229
:102680000F931F93CF93DF9300D0CDB7DEB7109297
:102690008102809177019091780102E812E020E1B7
:1026A000E22EF12CD12CF801C7804C2D4D0D552771
:1026B000551F4131510524F520917B0121FF08C0B0
:1026C000BE016F5F7F4FC7010E94281389819A81E5
:1026D000F801D0829187808720917B0120FF1BC069
:1026E0000196209181022F5F20938102DC0C0E5E07
:1026F0001F4FF2E0EF0EF11C20E3E216F10499F611
:102700000F900F90DF91CF911F910F91FF90EF905D
:10271000DF90CF9008952581820F911DE2CF0C9418
:10272000271E1F93CF93DF93EC01162F8331910562
:10273000C8F48131910528F48130910511F0099791
:1027400031F48FEF9FEF909373018093720180E0DB
:1027500090E0892BA9F0612FCE01DF91CF911F91DD
:102760000C9400004D9799F7177F10937501809195
:102770005C018F73912F907C892B80935C01E1CF5A
:10278000CE010E94C4121817C1F0612FCE010E9421
:102790008F1380E090E0892B21F0612FCE010E9401
:1027A000000080E090E0892B41F080915C0184FD85
:1027B00004C0612FCE010E940000CE01DF91CF91B5
:1027C0001F910C94C412BF92CF92DF92EF92FF92AE
:1027D0000F931F93CF93DF938B01B42E690182FF78
:1027E00023C083FF17C061E0C8010E940012882344
:1027F000D9F16B2DC8010E9491138B1135C0F601E0
:10280000DF91CF911F910F91FF90EF90DF90CF90CC
:10281000BF90099460E0C8010E940012882321F152
:10282000C8010E94C612E9CF842F8770C1E0D0E0B2
:102830007E0101C0EE0C8A95EAF7D42FD870CB0147
:102840000E94C612C82FB4FE1CC061E0C8010E94DD
:102850000012882349F0DD2389F0CE296C2FC801AE
:102860000E9491138C1759F2DF91CF911F910F9114
:10287000FF90EF90DF90CF90BF900895E094CE212D
:10288000EDCF60E0C8010E940012882369F3CE21D9
:10289000DD2319F0C111B3CFE7CFCC2309F4AFCFBB
:1028A000E3CFCF92DF92EF92FF920F931F93CF93DC
:1028B0007C016B01C42F402F8C2F807E803609F461
:1028C00074C080F4803209F453C0803409F46DC0C0
:1028D0008823D9F1CF911F910F91FF90EF90DF9056
:1028E000CF900895803A09F497C0A8F4803891F702
:1028F00080E090E02C2F2F7141E050E0892B51F3C4
:10290000B601C701CF911F910F91FF90EF90DF901B
:10291000CF900C940000803C09F48CC0803ED1F62E
:102920006C2F70E0762F662766277370622B6F5FBF
:102930007F4F27E332E18C2FCF911F910F91FF90B2
:10294000EF90DF90CF900C94E3138C2F8E7011F6E4
:1029500080E090E0892B09F4BDCF8C2F8170CF915E
:102960001F910F91FF90EF90DF90CF900C9400009B
:10297000CF71CF3109F0AECF80E090E0892B09F420
:10298000A9CF422F4F7769F0413069F0221F2227EB
:10299000221F30E00FE710E0B601C7010E940000DF
:1029A00099CF41E0F3CF40E0F1CF80E090E0892B78
:1029B000C1F02C2F30E08C2F8F71813029F030F056
:1029C000803121F08131F1F440E001C041E025FB8C
:1029D000222720F90DE110E030E0B601C7010E9486
:1029E000000080E090E0892B09F474CF4C2FB601F1
:1029F000C701CF911F910F91FF90EF90DF90CF9083
:102A00000C940000C901880F991F8E71C4FB4427E4
:102A100040F9482B4250DBCF80E090E0892B09F44D
:102A200059CF2C2F2F7043E050E0C4FF69CF42E014
:102A300050E066CFCF71CE3159F0CF3109F04ACF97
:102A400080E090E045E050E0892B09F059CF42CF7B
:102A500080E090E044E050E0892B09F051CF3ACF7C
:102A6000FF920F931F93CF93DF93EC01F62E088113
:102A70001981C8010E941F1EF81621F06F2DC80190
:102A80000E94271ECE01DF91CF911F910F91FF90E1
:102A90000895EF92FF920F931F93CF93DF9300D08F
:102AA000CDB7DEB78C017B019A838983FB016081FE
:102AB000CE0101960E9430150F5F1F4F1A830983C4
:102AC000F7016181CE0101960E943015C7010F9078
:102AD0000F90DF91CF911F910F91FF90EF9008958C
:102AE000AF92BF92CF92DF92EF92FF920F931F931C
:102AF000CF93DF9300D0CDB7DEB720917B0120FFCD
:102B000025C0F62E5C0102E812E0D12CC12CE62E85
:102B1000E894E7F8809181028C151D04B9F0B4F0B7
:102B2000F80180859185A816B90651F4F182828159
:102B300093819A8389836E2DCE0101960E94301570
:102B4000FFEFCF1ADF0A0E5E1F4FE4CF0F900F90FA
:102B5000DF91CF911F910F91FF90EF90DF90CF9079
:102B6000BF90AF9008951F920F920FB60F9211244D
:102B70002F933F938F939F93AF93BF938091340193
:102B800090913501A0913601B09137013091330118
:102B900023E0230F2D3758F50196A11DB11D209379
:102BA00033018093340190933501A0933601B093A3
:102BB00037018091380190913901A0913A01B0918B
:102BC0003B010196A11DB11D8093380190933901FD
:102BD000A0933A01B0933B01BF91AF919F918F9128
:102BE0003F912F910F900FBE0F901F90189526E8E0
:102BF000230F0296A11DB11DD2CF1F920F920FB6C7
:102C00000F9211242F933F934F935F936F937F9372
:102C10008F939F93AF93BF93EF93FF93E091060140
:102C2000F09107010995FF91EF91BF91AF919F91AD
:102C30008F917F916F915F914F913F912F910F9065
:102C40000FBE0F901F9018951F920F920FB60F9204
:102C500011242F933F934F935F936F937F938F93A1
:102C60009F93AF93BF93EF93FF93E0910401F09193
:102C700005010995FF91EF91BF91AF919F918F91C0
:102C80007F916F915F914F913F912F910F900FBE68
:102C90000F901F901895CF93DF9300D000D01F9214
:102CA000CDB7DEB7789484B5826084BD84B5816089
:102CB00084BD85B5826085BD85B5816085BD809107
:102CC0006E00816080936E0010928100809181007F
:102CD0008260809381008091810081608093810077
:102CE000809180008160809380008091B100846039
:102CF0008093B1008091B00081608093B00080919A
:102D00007A00846080937A0080917A008260809358
:102D10007A0080917A00816080937A0080917A00B5
:102D2000806880937A001092C10061E08DE00E947B
:102D30009F0F0AE011E05AE2C52E51E0D52ED801CE
:102D4000FC900E5F1F4F61E08F2D0E949F0F60E08F
:102D50008F2D0E94710FC016D10689F762E088E0BE
:102D60000E949F0F88E0809383011092820188EE79
:102D700093E00E94C4128C3CF1F16CEC88EE93E07D
:102D80000E948F1310927B018DEE93E09A838983CA
:102D900060E0CE0101960E94301581E090E09093B2
:102DA00078018093770167E771E08AEE93E00E94F3
:102DB000491584E680938A0168E071E08CEE93E027
:102DC0000E94491540E1E42EF12C10E000E060E0A3
:102DD000C8010E948F130F5F1F4F1C830B83BE011E
:102DE0006D5F7F4FC7010E944915B2E0EB0EF11CE9
:102DF0000031110561F76BE771E08DEE93E00E9401
:102E00001E1367E771E08AEE93E00E9428136AE8D8
:102E100071E08CEE93E00E941E1302E812E0F12CA8
:102E2000E12C36EFD32EC7010E941F1EF8018683C6
:102E30008D9DB00111246E537F4F46EF50E08BE81B
:102E400091E00E94161E80918C01D80117968C93F8
:102E5000179720918B0114962C9330E0C9010197AC
:102E600097FDC901959587958F5FF80185838281CC
:102E700093810E94C412D80111968C9311971696D3
:102E80009C911697911103C0806811968C93BFEFA7
:102E9000EB1AFB0A0E5E1F4FE0E1EE16F10419F685
:102EA00010926D0182E080936E01E0EBF0E0E4911E
:102EB000F0E0EE0FFF1FEC55FF4F8591949190933A
:102EC000700180936F01E2E9F0E0E491E093710119
:102ED00060E082E00E949F0FE6E4F1E086E1DF011E
:102EE0001D928A95E9F782E990E0909341018093E1
:102EF000400182E590E090933F0180933E0180EC99
:102F000080935C0110925D018FEF9FEF90937301AE
:102F1000809372011092740183E080933D0180914F
:102F2000710180933C0163E070E080916D010E942B
:102F3000F60E8DE190E00E94C612682F606C8DE164
:102F400090E00E949113809375016BE087E090E020
:102F50000E9491136DE088E090E00E94911380E060
:102F60000E94B5120E943C1310927601BD8200E0CF
:102F7000202E00E0302E0E94C211009142011091DB
:102F8000430120914401309145016B017C01C01A3D
:102F9000D10AE20AF30A9701860140910201509199
:102FA00003016A01F12CE12C0C151D052E053F05CE
:102FB00068F16093420170934301809344019093C0
:102FC0004501E0918101E15061E0E730E0F4F0E09B
:102FD000E451F84E0C945D1E52184B184B185218C1
:102FE00044183D18F517BD82C6CF13E2E12EF12C2F
:102FF000F0920301E09202018DE00E94480F61E02F
:10300000892B09F060E08DE00E94710F80915E01D4
:103010008823B1F00E94C21100915F0110916001FC
:103020002091610130916201601B710B820B930B47
:10303000653171058105910518F080E00E94B51297
:1030400080914801882309F457C0F89488E0E4E5AA
:10305000F1E0A3EAB3E001900D928A95E1F71092B6
:10306000480178948091A303E82FF0E0EB55FC4FE2
:10307000863008F511928F5FFBCF82E390E090934A
:10308000030180930201B8CFAAEFB0E0B09303012F
:10309000A0930201B1CFEDE7F0E0F0930301E093DC
:1030A0000201AACFB4EFCB2EDD24D394D09203013A
:1030B000C0920201A1CFA0E0EA2EA0E0FA2EEF28F4
:1030C00021F083EA93E00E9400008091A503811122
:1030D0007CC09091A603911178C080E090E0892B8C
:1030E00019F080E00E94000080915E01882309F4BD
:1030F00068C081E00E94CF110E94C2110091860138
:103100001091870120918801309189016B017C0128
:10311000C01AD10AE20AF30A9701860104311105A7
:103120002105310528F16093860170938701809312
:10313000880190938901809183010E94480F9C012E
:1031400091E02115310509F490E0809184019813F4
:103150000DC080918501981709F446C290938501AE
:1031600083E0232B09F482E0809382019093840111
:1031700010918201133019F481E0809382018091D3
:103180008201823011F410928201123039F4809160
:103190008101882319F01092810111E0E0918101F1
:1031A000E93008F039C2F0E0E852F74E0C945D1EA9
:1031B000FB1AAF1BC91B0C1CF11B341C751C061D14
:1031C0008C1B81E00E94B51297CF90915E019923EC
:1031D00009F48BC08057803108F084C081E00E94E0
:1031E000CF111091A3038091650118130AC0412FDC
:1031F00050E067E671E085EA93E00E947D1E892B2E
:1032000061F01092640188E0E3EAF3E0A5E6B1E042
:1032100001900D928A95E1F76FCF809164018F5FE5
:1032200080936401133009F045C09091A503892F64
:103230008770F090A603853051F4F092630180E02E
:1032400090E0892B09F458CF0E94000055CF0DE182
:1032500010E0843091F0282F30E08430F0F40091B9
:1032600063010023D1F00150110B000F111F000F5B
:10327000111F020F131F0F5F1F4F93FF10C061E05C
:10328000C8010E940012882309F436CF6F2DC801AF
:103290000E949113F81230CFD2CF8901ECCF60E0B9
:1032A000C8010E940012882309F426CFC8010E9499
:1032B000C612F0CF143009F01FCF8091A503682FFC
:1032C00070E0762F6627662773709091A603692BAE
:1032D0006F5F7F4F28E13FE04091A7038C700E9411
:1032E000E3130ACF80E00E94B512E091A503EF3FFF
:1032F00061F48091A6038111FFCE80E090E0892BDC
:1033000009F4FACE0E940000F7CEE7FD0DC000914F
:10331000A8032091A7034091A60370E060E08E2FE0
:1033200090E00E945114E8CEE03C08F04CC140917E
:103330005C0147FFE1CE9091A603292F30E089017F
:1033400000951095000F111F000F111F007C1170C8
:10335000EF730E2B35952795822F8370B82E8091B1
:10336000A303853039F59C789C3021F50E94CE125C
:103370008017910721F00F3F114009F0BDCE009159
:10338000A60310E0102F0027002713708091A703D9
:10339000080F111D0F5F1F4FF090A80361E0C801D7
:1033A0000E9400126F2D882309F4A6CEC8010E9446
:1033B0009113A2CE6801A1E0CA1AD108CC0CDD1C81
:1033C000CC0CDD1CCB287601BFEFEB1AFB0A8091F9
:1033D00074018823F1F046FF3CC0C70160E071E052
:1033E0000E94491E682F81E090E00E949113C7015E
:1033F000F7FE02C081509F4F692F89E090E00E9444
:1034000091132114310419F0C7010E940000109299
:10341000740180915C0180FD35C08091A3038430EC
:1034200009F04AC08091A6038978813009F064CE02
:103430006091A703C7010E94701580E090E0892B7E
:1034400009F45ACE4091A7036B2DC7010E940000DA
:1034500053CEB8016F73772781E090E00E949113FB
:10346000B801B6E075956795BA95E1F789E090E007
:103470000E949113E0E0F0E0EF2B49F2C8010E94B6
:103480000000C5CF86FF0CC00E94CE128E159F058E
:1034900021F2FDEFEF16F7E0FF060CF0BECF2CCEC9
:1034A0000E94CE128017910709F4B7CF0F3F21E099
:1034B000120709F4B2CF20CE833041F54091A60324
:1034C000942F9170C92E43FBDD24D0F8A0E0B0E02A
:1034D000AB2B31F047702D2DB801C7010E940000C1
:1034E00080915C0186FF06C04D2D6C2DC7010E94A6
:1034F000411202CEE0E0F0E0EF2B09F4FDCD2D2DDE
:103500004C2D6B2DC8010E940000F6CD863009F0CD
:10351000F3CD8091A603982F9978913021F08F7880
:10352000803809F0E9CD80915C0186FF28C00E94B7
:10353000CE128E159F05E9F48091A70390E0382FF5
:103540002227222733700091A803020F132F111D89
:103550000F5F1F4FF090A9039595879595958795D7
:10356000837099278230910599F0039709F416CF5B
:10357000C3CDFDEFEF16F7E0FF06F4F6BDCD0E94D8
:10358000CE1280179107C1F20F3F1140A9F2B4CDBE
:10359000F4FEB2CD61E0C8010E940012882309F454
:1035A000ABCDC8010E94C6129F2D977061E070E0FC
:1035B00001C0660F9A95EAF7F3FE02C0682BF6CEBB
:1035C00060956823F3CEE83E08F096CDE05CFF0BF3
:1035D0008091A6030091A9032091A8034091A7031D
:1035E00061E070E09E2F9DCE81E0232B09F0BCCDE1
:1035F00010928201BBCD123079F40E94C211609307
:103600007D0170937E0180937F019093800188E01B
:103610008093810110927C010091A203E02EF12C95
:10362000F2E10F9F800111240E571D4F680126E023
:10363000C20ED11CD8011696BC901697BB2009F477
:1036400027C2B6EFBB9EB00111246E537F4F46EFE9
:1036500050E08BE891E00E94161E0E94C2114B01BF
:103660005C01F80182859385A485B5852401350127
:10367000481A590A6A0A7B0A20918D0130918E01FD
:1036800040918F0150919001AAE0B0E00E94631E2A
:10369000461657066806790608F41DC28286938688
:1036A000A486B586868591E089278687F12CE12C52
:1036B0003801B7E06B0E711C5801EFEFAE1ABE0A6D
:1036C000C8010E964C01D3018C918E151F0409F090
:1036D0000CF401C2D801EC91EE0DFF2DF11DEE0F9F
:1036E000FF1FE65FFE4F8081D501EC91EF77B8E0D8
:1036F000EB9FF0011124E557FE4FEE0DFF1D968163
:10370000913009F4B2C108F4B4C1923009F4B3C1E4
:10371000BFEFEB1AFB0AD7CF0E94C211C0907D0108
:10372000D0907E01E0907F01F09080016C197D09BE
:103730008E099F09683E73408105910518F083E06A
:1037400080938101133009F067CF80917B0181FF65
:1037500002C082E001C081E0809381015DCF809151
:103760007C01813009F058CF10927C018091790161
:1037700090917A01909378018093770167E771E0E7
:103780008AEE93E00E9449150E943C131092810139
:1037900041CF111116C00E94C21100917D011091FC
:1037A0007E0120917F0130918001601B710B820BA3
:1037B000930B603A7F408105910518F086E0809375
:1037C000810180917C01813009F026CF10927C012B
:1037D0008091790190917A0181508093760184E003
:1037E000BBCF80917C01813009F016CF10927C0113
:1037F0002091790130917A01809176013A83298371
:1038000090E00896BE016F5F7F4F880F991F0E945E
:1038100049150E943C139DCF111116C00E94C21180
:1038200000917D0110917E0120917F0130918001F6
:10383000601B710B820B930B603A7F4081059105F1
:1038400018F086E08093810180917C01813009F03D
:10385000E3CE10927C018091790190917A018150A0
:103860008093760185E078CF80917C01813009F0EA
:10387000D3CE10927C018091790190917A01FF243E
:10388000FA94F80E00917601E2E10E9F8001112476
:103890000E571D4FD8011696FC92B6EFFB9EB00155
:1038A00011246E537F4F46EF50E08BE891E00E9469
:1038B000161E80918C01F801878320918B0124834F
:1038C00030E0C901019797FDC901959587958F5FF4
:1038D000D80115968C93809176016F2D90E00E940F
:1038E0008F130E943C1383E037CF80917C0181309D
:1038F00009F092CE10927C018091790190917A0129
:10390000019769F460917B016E7F60937B018DEE7E
:1039100093E00E948F130E943C13109281018091CA
:10392000790190917A01029769F460917B0161605D
:1039300060937B018DEE93E00E948F130E943C13F5
:10394000109281018091790190917A01039769F435
:1039500060917B016D7F60937B018DEE93E00E940F
:103960008F130E943C1310928101809179019091F4
:103970007A01049769F460917B01626060937B0136
:103980008DEE93E00E948F130E943C1310928101F0
:103990008091790190917A01059719F487E08093DD
:1039A00081018091790190917A010A9709F034CED2
:1039B00063E388EE93E00E948F130E94DB0F4B01BC
:1039C0005C0150EDC52E57E0D52EE12CF12C0E9464
:1039D000DB0F681979098A099B09683E73408105E4
:1039E0009105A8F3B1E0CB1AD108E108F108E8EE9F
:1039F0008E0EE3E09E1EA11CB11CC114D104E10493
:103A0000F10429F7F0E0E0E0099506CE80917C0111
:103A1000813009F001CE10927C0180917901909162
:103A20007A014E97E0F08091790190917A018B3F75
:103A30009105C0F48091790190917A0190937A0177
:103A4000809379016091790170917A0160938A0184
:103A50008CEE93E00E948F1310928101DDCD8EE1F8
:103A600090E0ECCF8AEF90E0E9CF61E00E94710F27
:103A70004FCE60E0FBCFF4016081F1E0EF16F1047E
:103A8000A9F7D6019C91923089F791E06927EECF92
:103A9000F8018785823009F455C048F4882389F0FD
:103AA000813031F1FD81F13009F041C014C0833023
:103AB00009F485C08430B1F78181817081831786D4
:103AC00036C011968C91119787FF92C081E01F96A6
:103AD0008C93B1E0BD838091A2038F5F8093A2039A
:103AE00090918102891302C01092A203BD801FC071
:103AF000808190E02181880F991FFC0120FF1FC069
:103B0000E65FFE4F61E080810E94710F0E94C2114A
:103B100022E12E9DF0012F9DF00D1124EE57FD4F57
:103B2000628773878487958787858F5F878780E023
:103B300090E0892B09F457CA0E94000017CAE45F7D
:103B4000FE4FE0CF0E94C211D8011A96CD90DD90B1
:103B5000ED90FC901D97AB01BC014C195D096E09FD
:103B60007F0980918A0190E0B0E0A0E048175907F2
:103B70006A077B07E0F2D801EC91F0E0EE0FFF1F3F
:103B8000E65FFE4F60E080810E94710FD801EC91EA
:103B9000F0E0EE0FFF1FE45FFE4F60E080810E94C7
:103BA000710FF80187858F5F87870E94C211D80146
:103BB0001A966D937D938D939C931D97B8CF0E9419
:103BC000C211F801C284D384E484F5846C197D09A0
:103BD0008E099F09643F71408105910508F4A7CFC4
:103BE000D8011F968C911F978F5F1F968C939FCF44
:103BF00021E02D8370CFE2E8F2E028EE33E0318B54
:103C0000208B809100019091010193838283019622
:103C10009093010180930001729683E0E23AF807E5
:103C200071F710928401109285010895FB01DC0167
:103C300002C005900D9241505040D8F70895F9996F
:103C4000FECF92BD81BDF89A992780B50895262FA1
:103C5000F999FECF1FBA92BD81BD20BD0FB6F89471
:103C6000FA9AF99A0FBE01960895AA1BBB1B51E15F
:103C700007C0AA1FBB1FA617B70710F0A61BB70BDC
:103C8000881F991F5A95A9F780959095BC01CD0181
:103C9000089597FB072E16F4009407D077FD09D0FE
:103CA0000E94351E07FC05D03EF4909581959F4FEC
:103CB0000895709561957F4F0895EE0FFF1F059051
:103CC000F491E02D09940E946E1EA59F900DB49F63
:103CD000900DA49F800D911D11240895A29FB00105
:103CE000B39FC001A39F700D811D1124911DB29F30
:103CF000700D811D1124911D0895FB01DC0104C08C
:103D00008D910190801921F441505040C8F7881BD3
:083D1000990B0895F894FFCF10
:103D18003000E803CE11CE11640004000300050052
:103D2800060007000A000B000C0001000000130049
:0A3D380012001100110010000E002F
:00000001FF
