:020000040000FA
:100000000C94CC0E0C948A170C9463170C94F40E79
:100010000C94F40E0C94F40E0C94F40E0C94F40E58
:100020000C94F40E0C94F40E0C94F40E0C94F40E48
:100030000C94F40E0C94F40E0C94F40E0C94F40E38
:100040000C9419170C94F40E0C94E7160C94C1162A
:100050000C94F40E0C94F40E0C94F40E0C94F40E18
:100060000C94F40E0C94F40E000000002400270001
:100070002A0000000000250028002B0000000008D6
:10008000000201000003040700000000000000005F
:10009000010204081020408001020408102001021F
:1000A000040810200000000023002600290004049A
:1000B0000404040404040202020202020303030310
:1000C0000303020200000000000000000000000026
:1000D0000000000000000000000000000000000020
:1000E0000000000000000000000000000000000010
:1000F0000000000000000000000000000000000000
:1001000000000000000000000000000000000000EF
:1001100000000000000000000000000000000000DF
:1001200000000000000000000000000000000000CF
:1001300000000000000000000000000000000000BF
:1001400000000000000000000000000000000000AF
:10015000000000000000000000000000000000009F
:10016000000000000000000000000000000000008F
:10017000000000000000000000000000000000007F
:10018000000000000000000000000000000000006F
:10019000000000000000000000000000000000005F
:1001A000000000000000000000000000000000004F
:1001B00000000000000000000301640000000100D6
:1001C000000000000000000000000000000002002D
:1001D000000000000000000000000000000000001F
:1001E000000000000000000000000000000000000F
:1001F00000000000000000000000000000000000FF
:1002000000000000000000000000000000000000EE
:1002100000000000000000000000000000000000DE
:1002200000000000000000000000000000000000CE
:1002300000000000000000000000000000000000BE
:1002400000000000000000000000000000000000AE
:10025000000000000000000000000000000000009E
:10026000000000000000000000000000000000008E
:10027000000000000000000000000000000000007E
:10028000000000000000000000000000000000006E
:10029000000000000000000000000000000000005E
:1002A0000000000000000000000000000000020349
:1002B00043000000000002000000000002020000F5
:1002C000000000000000000000000000000000002E
:1002D000000000000000000000000000000000001E
:1002E000000000000000000000000000000000000E
:1002F00000000000000000000000000000000000FE
:1003000000000000000000000000000000000000ED
:1003100000000000000000000000000000000000DD
:1003200000000000000000000000000000000000CD
:1003300000000000000000000000000000000000BD
:1003400000000000000000000000000000000000AD
:10035000000000000000000000000000000000009D
:10036000000000000000000000000000000000008D
:10037000000000000000000000000000000000007D
:10038000000000000000000000000000000000006D
:10039000000000000000000000000000000000005D
:1003A0000000000002020000000001000000000048
:1003B000000000010000000000000000000000003C
:1003C000000000000000000000000000000000002D
:1003D000000000000000000000000000000000001D
:1003E000000000000000000000000000000000000D
:1003F00000000000000000000000000000000000FD
:1004000000000000000000000000000000000000EC
:1004100000000000000000000000000000000000DC
:1004200000000000000000000000000000000000CC
:1004300000000000000000000000000000000000BC
:1004400000000000000000000000000000000000AC
:10045000000000000000000000000000000000009C
:10046000000000000000000000000000000000008C
:10047000000000000000000000000000000000007C
:10048000000000000000000000000000000000006C
:100490000000000000000000000005033200000022
:1004A0000100000000000000020000000000000049
:1004B0000001000000000000000200000000000039
:1004C000000001000000000000000000000000002B
:1004D000000000000000000000000000000000001C
:1004E000000000000000000000000000000000000C
:1004F00000000000000000000000000000000000FC
:1005000000000000000000000000000000000000EB
:1005100000000000000000000000000000000000DB
:1005200000000000000000000000000000000000CB
:1005300000000000000000000000000000000000BB
:1005400000000000000000000000000000000000AB
:10055000000000000000000000000000000000009B
:10056000000000000000000000000000000000008B
:10057000000000000000000000000000000000007B
:10058000000000000000000000000000000000006B
:100590000904320000000100000000000000020019
:1005A0000000000000000200000100000000000147
:1005B0000000000000000002000000000000000138
:1005C0000001000000000002000200000000000026
:1005D0000100000000000000020000000000000018
:1005E000000000000000000000000000000000000B
:1005F00000000000000000000000000000000000FB
:1006000000000000000000000000000000000000EA
:1006100000000000000000000000000000000000DA
:1006200000000000000000000000000000000000CA
:1006300000000000000000000000000000000000BA
:1006400000000000000000000000000000000000AA
:10065000000000000000000000000000000000009A
:10066000000000000000000000000000000000008A
:10067000000000000000000000000000000000007A
:10068000000000000000060432000000000100002D
:100690000000000001000100000000000200020054
:1006A0000000000000000100000000000000020047
:1006B0000000000000000001000000000000000039
:1006C000000000000000000000000000000000002A
:1006D000000000000000000000000000000000001A
:1006E000000000000000000000000000000000000A
:1006F00000000000000000000000000000000000FA
:1007000000000000000000000000000000000000E9
:1007100000000000000000000000000000000000D9
:1007200000000000000000000000000000000000C9
:1007300000000000000000000000000000000000B9
:1007400000000000000000000000000000000000A9
:100750000000000000000000000000000000000099
:100760000000000000000000000000000000000089
:100770000000000000000000000000000303320041
:100780000000010000000000000001010000000066
:100790000000000001000000000000000000000058
:1007A0000000000000000000000000000000000049
:1007B0000000000000000000000000000000000039
:1007C0000000000000000000000000000000000029
:1007D0000000000000000000000000000000000019
:1007E0000000000000000000000000000000000009
:1007F00000000000000000000000000000000000F9
:1008000000000000000000000000000000000000E8
:1008100000000000000000000000000000000000D8
:1008200000000000000000000000000000000000C8
:1008300000000000000000000000000000000000B8
:1008400000000000000000000000000000000000A8
:100850000000000000000000000000000000000098
:100860000000000000000000000000000000000088
:10087000000005053200000001000000000000003B
:100880000101000000000000000001000000000065
:100890000000010001000000000001010000000054
:1008A0000000000000000000000000000000000048
:1008B0000000000000000000000000000000000038
:1008C0000000000000000000000000000000000028
:1008D0000000000000000000000000000000000018
:1008E0000000000000000000000000000000000008
:1008F00000000000000000000000000000000000F8
:1009000000000000000000000000000000000000E7
:1009100000000000000000000000000000000000D7
:1009200000000000000000000000000000000000C7
:1009300000000000000000000000000000000000B7
:1009400000000000000000000000000000000000A7
:100950000000000000000000000000000000000097
:10096000000000000000000004060000000001007C
:100970000100010000000100010000010000010071
:100980000001000100000001000000000000000064
:100990000000000000000000000000000000000057
:1009A0000000000000000000000000000000000047
:1009B0000000000000000000000000000000000037
:1009C0000000000000000000000000000000000027
:1009D0000000000000000000000000000000000017
:1009E0000000000000000000000000000000000007
:1009F00000000000000000000000000000000000F7
:100A000000000000000000000000000000000000E6
:100A100000000000000000000000000000000000D6
:100A200000000000000000000000000000000000C6
:100A300000000000000000000000000000000000B6
:100A400000000000000000000000000000000000A6
:100A5000000000000000000000000000000003048F
:100A60003200000001000100000000000100000150
:100A70000000000000010001000000000000000074
:100A80000000000000000000000000000000000066
:100A90000000000000000000000000000000000056
:100AA0000000000000000000000000000000000046
:100AB0000000000000000000000000000000000036
:100AC0000000000000000000000000000000000026
:100AD0000000000000000000000000000000000016
:100AE0000000000000000000000000000000000006
:100AF00000000000000000000000000000000000F6
:100B000000000000000000000000000000000000E5
:100B100000000000000000000000000000000000D5
:100B200000000000000000000000000000000000C5
:100B300000000000000000000000000000000000B5
:100B400000000000000000000000000000000000A5
:100B50000000000006053200000001000000000057
:100B60000000010100000000000000010100000081
:100B70000000000000010100000001010000000071
:100B80000000010001000000000000000000000063
:100B90000000000000000000000000000000000055
:100BA0000000000000000000000000000000000045
:100BB0000000000000000000000000000000000035
:100BC0000000000000000000000000000000000025
:100BD0000000000000000000000000000000000015
:100BE0000000000000000000000000000000000005
:100BF00000000000000000000000000000000000F5
:100C000000000000000000000000000000000000E4
:100C100000000000000000000000000000000000D4
:100C200000000000000000000000000000000000C4
:100C300000000000000000000000000000000000B4
:100C40000000000000000000000006053200000067
:100C5000020000000000000002020000000000008E
:100C6000000102000000000000000002020000007D
:100C7000020200000000000002000200000000006C
:100C80000000000000000000000000000000000064
:100C90000000000000000000000000000000000054
:100CA0000000000000000000000000000000000044
:100CB0000000000000000000000000000000000034
:100CC0000000000000000000000000000000000024
:100CD0000000000000000000000000000000000014
:100CE0000000000000000000000000000000000004
:100CF00000000000000000000000000000000000F4
:100D000000000000000000000000000000000000E3
:100D100000000000000000000000000000000000D3
:100D200000000000000000000000000000000000C3
:100D300000000000000000000000000000000000B3
:100D40000404320000000100000000000000010166
:100D50000000000000000100010000000000000091
:100D60000001000000000000000000000000000082
:100D70000000000000000000000000000000000073
:100D80000000000000000000000000000000000063
:100D90000000000000000000000000000000000053
:100DA0000000000000000000000000000000000043
:100DB0000000000000000000000000000000000033
:100DC0000000000000000000000000000000000023
:100DD0000000000000000000000000000000000013
:100DE0000000000000000000000000000000000003
:100DF00000000000000000000000000000000000F3
:100E000000000000000000000000000000000000E2
:100E100000000000000000000000000000000000D2
:100E200000000000000000000000000000000000C2
:100E30000000000000000707320000000100000071
:100E4000000000000101000000000000010000009F
:100E5000020000000100010000000000000000018D
:100E6000000000000000000100010000000000017F
:100E70000000020000000000000000000000000070
:100E80000000000000000000000000000000000062
:100E90000000000000000000000000000000000052
:100EA0000000000000000000000000000000000042
:100EB0000000000000000000000000000000000032
:100EC0000000000000000000000000000000000022
:100ED0000000000000000000000000000000000012
:100EE0000000000000000000000000000000000002
:100EF00000000000000000000000000000000000F2
:100F000000000000000000000000000000000000E1
:100F100000000000000000000000000000000000D1
:100F20000000000000000000000000000404320087
:100F300000000101000000000000010101000000AC
:100F4000000001000101000000000000010100009C
:100F50000000000000000000000000000000000091
:100F60000000000000000000000000000000000081
:100F70000000000000000000000000000000000071
:100F80000000000000000000000000000000000061
:100F90000000000000000000000000000000000051
:100FA0000000000000000000000000000000000041
:100FB0000000000000000000000000000000000031
:100FC0000000000000000000000000000000000021
:100FD0000000000000000000000000000000000011
:100FE0000000000000000000000000000000000001
:100FF00000000000000000000000000000000000F1
:1010000000000000000000000000000000000000E0
:1010100000000000000000000000000000000000D0
:1010200000000607000000000100000000000000B2
:1010300001000000000001000100000100000000AC
:10104000010101000000000000000000010100009B
:10105000000000000000000100000000000000008F
:101060000000000000000000000000000000000080
:101070000000000000000000000000000000000070
:101080000000000000000000000000000000000060
:101090000000000000000000000000000000000050
:1010A0000000000000000000000000000000000040
:1010B0000000000000000000000000000000000030
:1010C0000000000000000000000000000000000020
:1010D0000000000000000000000000000000000010
:1010E0000000000000000000000000000000000000
:1010F00000000000000000000000000000000000F0
:1011000000000000000000000000000000000000DF
:1011100000000000000000000607000000000101C0
:1011200000000000000001000100000000000101BB
:1011300001000000000001010001000000000100AA
:10114000010000000000000000010100000000009C
:10115000000000000000000000000000000000008F
:10116000000000000000000000000000000000007F
:10117000000000000000000000000000000000006F
:10118000000000000000000000000000000000005F
:10119000000000000000000000000000000000004F
:1011A000000000000000000000000000000000003F
:1011B000000000000000000000000000000000002F
:1011C000000000000000000000000000000000001F
:1011D000000000000000000000000000000000000F
:1011E00000000000000000000000000000000000FF
:1011F00000000000000000000000000000000000EF
:1012000000000000000000000000000000000805D1
:1012100000000000010000000000000000010000CC
:1012200000000000000200000000000000010100BA
:1012300000000000000202000000000000000001A9
:10124000000000000000000200000000000000019B
:10125000010000000000000000000000000000008D
:10126000000000000000000000000000000000007E
:10127000000000000000000000000000000000006E
:10128000000000000000000000000000000000005E
:10129000000000000000000000000000000000004E
:101D9000000000000000B11711241FBECFEFD8E0F3
:101DA000DEBFCDBF11E0A0E0B1E0E4E7FFE302C099
:101DB00005900D92A436B107D9F724E0A4E6B1E06E
:101DC00001C01D92A137B207E1F71EE0CCECDEE0C6
:101DD00004C02197FE010E948B1FCB3CD107C9F79D
:101DE0000E9403180C94B81F0C9400008230F8F481
:101DF000E82FF0E0EE0FFF1FEE5FFE4F2DE031E128
:101E000031832083813041F0809169008C7F682B81
:101E100060936900E89A089580916900837F660F56
:101E2000771F660F771F682B60936900E99A089502
:101E3000FC01538D448D252F30E0842F90E0821BD0
:101E4000930B541710F0CF96089501970895FC0155
:101E5000918D828D981761F0A28DAE0FBF2FB11DAD
:101E60005D968C91928D9F5F9F73928F90E0089505
:101E70008FEF9FEF0895FC01918D828D981731F0BF
:101E8000828DE80FF11D858D90E008958FEF9FEF13
:101E90000895FC01918D228D892F90E0805C9F4FE9
:101EA000821B91098F7399270895FC01A48DA80FB7
:101EB000B92FB11DA35ABF4F2C91848D90E001968C
:101EC0008F739927848FA689B7892C93A089B189AC
:101ED0008C91837080648C93938D848D981306C04D
:101EE0000288F389E02D80818F7D80830895EF92B1
:101EF000FF920F931F93CF93DF93EC0181E0888FC4
:101F00009B8D8C8D98131AC0E889F989808185FF93
:101F100015C09FB7F894EE89FF896083E889F98935
:101F200080818370806480839FBF81E090E0DF9137
:101F3000CF911F910F91FF90EF900895F62E0B8D8A
:101F400010E00F5F1F4F0F731127E02E8C8D8E1145
:101F50000CC00FB607FCFACFE889F989808185FFAC
:101F6000F5CFCE010E94550FF1CFEB8DEC0FFD2F79
:101F7000F11DE35AFF4FF0829FB7F8940B8FEA8967
:101F8000FB8980818062CFCFCF93DF93EC01888D76
:101F90008823B9F0AA89BB89E889F9898C9185FDE4
:101FA00003C0808186FD0DC00FB607FCF7CF8C9172
:101FB00085FFF2CF808185FFEDCFCE010E94550FC6
:101FC000E9CFDF91CF91089588EB92E00E94490F0D
:101FD00021E0892B09F420E0822F089580E090E031
:101FE000892B29F00E94E40F81110C9400000895C0
:101FF00080E090E0892B11F00C9400000895AF92DE
:10200000BF92CF92DF92EF92FF920F931F93CF93E5
:10201000DF936C017B018B01040F151FEB015E0147
:10202000AE18BF08C017D10759F06991D601ED91DC
:10203000FC910190F081E02DC6010995892B79F77B
:10204000C501DF91CF911F910F91FF90EF90DF902D
:10205000CF90BF90AF900895833081F028F4813005
:1020600099F08230A9F008958730A9F08830C9F03E
:102070008430B1F4809180008F7D03C08091800016
:102080008F7780938000089584B58F7784BD0895FD
:1020900084B58F7DFBCF8091B0008F778093B000A7
:1020A00008958091B0008F7DF9CFCF93DF93282FD3
:1020B00030E0F901E458FF4F8491F901E057FF4FF8
:1020C000D491F901E255FF4FC491CC23A1F08111C5
:1020D0000E942C10EC2FF0E0EE0FFF1FEC55FF4F8D
:1020E000A591B491EC91ED2381E090E009F480E0BA
:1020F000DF91CF91089580E090E0FACF1F93CF93C6
:10210000DF93282F30E0F901E458FF4F8491F90163
:10211000E057FF4FD491F901E255FF4FC491CC2312
:10212000A9F0162F81110E942C10EC2FF0E0EE0F79
:10213000FF1FEE58FF4FA591B4918FB7F894EC9123
:10214000111108C0D095DE23DC938FBFDF91CF91B2
:102150001F910895DE2BF8CFCF93DF9390E0FC0121
:10216000E057FF4F249182559F4FFC0184918823B3
:10217000C9F090E0880F991FFC01E859FF4FA59125
:10218000B491FC01EE58FF4FC591D49161110DC07F
:102190009FB7F8948C91209582238C938881282373
:1021A00028839FBFDF91CF910895623051F49FB78C
:1021B000F8943C91822F809583238C93E8812E2B79
:1021C000EFCF8FB7F894EC912E2B2C938FBFEACFE3
:1021D0003FB7F8948091720190917301A0917401BE
:1021E000B091750126B5A89B05C02F3F19F0019647
:1021F000A11DB11D3FBFBA2FA92F982F8827BC0161
:10220000CD01620F711D811D911D42E0660F771F88
:10221000881F991F4A95D1F70895FF920F931F9336
:10222000CF93DF930E94E81020916B0130916C01F5
:10223000EB01C21BD30B2091780130917901C217B9
:10224000D30708F45FC04091800150918101413073
:10225000510561F0E091A901F091AA01208130912E
:10226000AB0123233091760123134CC070936C0192
:1022700060936B0100917A0110917B01423051050E
:1022800009F413C14330510509F44EC141305105E1
:1022900061F480916A01813009F447C0C8F183304C
:1022A00009F482C0843009F4C9C080918001909102
:1022B0008101019739F1C017D10708F06DC18091F4
:1022C00068018F5F809368018B30E0F081E090E0DF
:1022D000909381018093800161E070E08091A7017B
:1022E0000E94F60E1092760110926A0182E590E04B
:1022F00090937B0180937A0183E290E0909379013F
:1023000080937801DF91CF911F910F91FF900895F5
:10231000C017D10730F481E080936A01C09369014E
:10232000C4CF84E080936A01C0CFC017D107D0F535
:1023300010926A01809168018F5F809368012091FB
:1023400069018C2F0C2E000C990B821B910927FD23
:10235000939597FF03C0919581959109499794F2C0
:10236000109281011092800182E990E090937B01AC
:1023700080937A0182E590E09093790180937801CF
:1023800010926801F09077016F2D70E08091A701A5
:102390000E94F60E8091AB0193E0F91227C0809362
:1023A000760183CF83E0BECFC017D10708F5109226
:1023B00081011092800182E990E090937B018093EB
:1023C0007A0182E590E090937901809378011092F0
:1023D0006801F09077016F2D70E08091A7010E9455
:1023E000F60E8091AB0133E0F316C9F280E0D7CF4F
:1023F00090917701933009F482E08093770182E035
:1024000090E0909381018093800182E990E0909325
:102410007B0180937A0182E590E09093790180932B
:102420007801109286018091680180938701109253
:1024300083011092850110928401CBCFC017D10780
:10244000A8F4109281011092800182E990E09093AB
:102450007B0180937A0182E590E0909379018093EB
:10246000780110926801109283018CCF82E090E095
:10247000909381018093800182E990E090937B01A9
:1024800080937A0182E590E09093790180937801BE
:1024900010928601809168018093870110928301D8
:1024A00010928501109284016DCF909183019F5FFE
:1024B0009093830180918401880FC017D107E0F0C9
:1024C00080938401983009F0F6CEE0918601E630E1
:1024D000A9F4109281011092800182E990E090931A
:1024E0007B0180937A0182E590E09093790180935B
:1024F000780110928301D9CE8160E2CF83E090E031
:10250000909381018093800181E08E0F80938601FA
:1025100090918401F0E0E058FE4F90878091850112
:10252000892780938501C1CEC017D10728F5109265
:102530008101109280011092830182E990E09093D2
:102540007B0180937A0182E590E0909379018093FA
:102550007801809185018111B2CE88E0E6E8F1E052
:10256000AEE8B1E001900D928A95E1F781E08093A9
:1025700082011092680199CE80918601863009F41B
:10258000A8CF82E090E09093810180938001109227
:1025900083011092840189CE10926801B3CE2FB7C7
:1025A000F89460916E0170916F018091700190912B
:1025B00071012FBF08950895CF93C82F80E090E058
:1025C000892B51F0809198018C1731F081E0C11175
:1025D00001C080E00E940000C093980160E070E0BC
:1025E000CB01C1110E94CF126093990170939A019F
:1025F00080939B0190939C0180E090E0892B59F09F
:10260000809198018C1739F081E0C11101C080E000
:10261000CF910C940000CF9108951F93CF93DF9337
:10262000EC01162F80E090E0892B91F0C830D105A5
:1026300079F4662319F10E94000080E090E0892B74
:10264000B9F0612FCE01DF91CF911F910C94000062
:1026500080E090E0892BA9F781E0C11594E0D907CB
:1026600008F080E0111105C0DF91CF911F9108950E
:1026700081E027972297C0F780E0F6CF80E090E0D6
:10268000892BF9F681E0F0CF80E090E0892B29F0EA
:102690008091AF0183FD0C94000008952091B50155
:1026A00020FF0DC02091B602222349F02091600343
:1026B000309161038217930711F460935A030895D0
:1026C000FC0101900020E9F73197AF01481B590B3D
:1026D000BC0188EB92E00C94FF0F0E94DC12E6E94B
:1026E000F1E081E087831086EFE9F1E088E0DF0127
:1026F0001D928A95E9F7089520E030E0232B11F030
:102700000C9400000C942B1FCF93DF932091AC010D
:102710003091AD012F3F320721F0C901DF91CF91F8
:1027200008958091AF0187FF2BC086FF0FC089E01D
:1027300090E00E947C13C82F81E090E00E947C13FF
:102740009C2F9093AD018093AC0115C089E090E07F
:102750000E947C13C82F81E090E00E947C1390E4DB
:10276000C99F90011124207C31708F73282B3093E6
:10277000AD012093AC018091AC019091AD01CECF21
:1027800085FF0CC081E190E00E947C13C82F82E19C
:1027900090E00E947C13C05CDD0BD2CF81E090E022
:1027A0000E947C1390E0CDCF0F931F93CF93DF93C4
:1027B0008C01EB010E942B1F8883C80101960E94A7
:1027C0002B1F8983CE01DF91CF911F910F91089527
:1027D000BF92CF92DF92EF92FF920F931F93CF930E
:1027E000DF9300D0CDB7DEB71092B6028091B10171
:1027F0009091B20109E513E020E1E22EF12CD12CF9
:10280000F801C6804C2D4D0D5527551F41315105FE
:1028100014F5B090B501B1FE08C0BE016F5F7F4FE7
:10282000C7010E94D41389819A81F801D0829087D0
:102830008783B0FE1CC001962091B6022F5F2093C3
:10284000B602DC0C0F5E1F4FF2E0EF0EF11C20E32E
:10285000E216F104A9F60F900F90DF91CF911F912E
:102860000F91FF90EF90DF90CF90BF90089524815B
:10287000820F911DE1CF0C94331F1F93CF93DF93F1
:10288000EC01162F83319105C8F48131910528F4AC
:102890008130910511F0099731F48FEF9FEF9093FC
:1028A000AD018093AC0180E090E0892BA9F0612F0D
:1028B000CE01DF91CF911F910C9400004D9799F7B5
:1028C000177F1093AF01809196018F73912F907CA9
:1028D000892B80939601E1CFCE010E942B1F181700
:1028E000C1F0612FCE010E943B1480E090E0892B63
:1028F00021F0612FCE010E94000080E090E0892B42
:1029000041F08091960184FD04C0612FCE010E94A8
:102910000000CE01DF91CF911F910C942B1FBF922D
:10292000CF92DF92EF92FF920F931F93CF93DF939B
:102930008B01B42E690182FF23C083FF17C061E0C1
:10294000C8010E940D138823D9F16B2DC8010E9484
:102950003D148B1135C0F601DF91CF911F910F917E
:10296000FF90EF90DF90CF90BF90099460E0C80196
:102970000E940D13882321F1C8010E947C13E9CF26
:10298000842F8770C1E0D0E07E0101C0EE0C8A95F3
:10299000EAF7D42FD870CB010E947C13C82FB4FE65
:1029A0001CC061E0C8010E940D13882349F0DD239B
:1029B00089F0CE296C2FC8010E943D148C1759F262
:1029C000DF91CF911F910F91FF90EF90DF90CF900B
:1029D000BF900895E094CE21EDCF60E0C8010E9441
:1029E0000D13882369F3CE21DD2319F0C111B3CF74
:1029F000E7CFCC2309F4AFCFE3CFCF92DF92EF92B2
:102A0000FF920F931F93CF937C016B01C42F402F34
:102A10008C2F807E803609F474C080F4803209F4F3
:102A200053C0803409F46DC08823D9F1CF911F9130
:102A30000F91FF90EF90DF90CF900895803A09F4C6
:102A400097C0A8F4803891F780E090E02C2F2F7188
:102A500041E050E0892B51F3B601C701CF911F919E
:102A60000F91FF90EF90DF90CF900C940000803C8E
:102A700009F48CC0803ED1F66C2F70E0762F66276B
:102A800066277370622B6F5F7F4F24E433E18C2FD6
:102A9000CF911F910F91FF90EF90DF90CF900C940A
:102AA0008F148C2F8E7011F680E090E0892B09F442
:102AB000BDCF8C2F8170CF911F910F91FF90EF9020
:102AC000DF90CF900C940000CF71CF3109F0AECFE2
:102AD00080E090E0892B09F4A9CF422F4F7769F06D
:102AE000413069F0221F2227221F30E00FE710E05B
:102AF000B601C7010E94000099CF41E0F3CF40E04A
:102B0000F1CF80E090E0892BC1F02C2F30E08C2FAA
:102B10008F71813029F030F0803121F08131F1F472
:102B200040E001C041E025FB222720F90DE110E043
:102B300030E0B601C7010E94000080E090E0892BE0
:102B400009F474CF4C2FB601C701CF911F910F919B
:102B5000FF90EF90DF90CF900C940000C901880F98
:102B6000991F8E71C4FB442740F9482B4250DBCF9C
:102B700080E090E0892B09F459CF2C2F2F7043E08F
:102B800050E0C4FF69CF42E050E066CFCF71CE3154
:102B900059F0CF3109F04ACF80E090E045E050E0B5
:102BA000892B09F059CF42CF80E090E044E050E01B
:102BB000892B09F051CF3ACFFF920F931F93CF93F8
:102BC000DF93EC018B01FB01F0800E942B1FF816B4
:102BD00021F06F2DCE010E94331FF801F180219664
:102BE000CE010E942B1FF81621F06F2DCE010E94FE
:102BF000331FC801DF91CF911F910F91FF9008956E
:102C00004F925F926F927F929F92AF92BF92CF92BC
:102C1000DF92EF92FF920F931F93CF93DF93CDB785
:102C2000DEB7A1970FB6F894DEBF0FBECDBF7C0113
:102C3000162F042F0E94CF1240906401509065011E
:102C4000609066017090670164197509860997099B
:102C5000643F71408105910588F00E94CF12609316
:102C6000640170936501809366019093670181E030
:102C70008093B601F092B401E092B3018091BB0160
:102C8000811169C0002309F466C09924939411113D
:102C900001C0912C09E513E0D12CC12C8AE0482E0B
:102CA000512C612C712C8091B6028C151D0409F0F9
:102CB0000CF451C0F80145818091B50180FF02C03C
:102CC000411149C0F80187819085E816F906D8F1CD
:102CD000648170E09C0121503109260F371F2E15A9
:102CE0003F0588F19701281B390BC9010E94411F3C
:102CF000880F890D442369F1818388E391E00E9464
:102D00006013F801218130E050E040E019A25E013B
:102D1000F1E2AF0EB11CCA01B901A30192010E94F8
:102D2000691F605DF50162935F0121153105410561
:102D3000510589F7309719F0CF010E94601385E49F
:102D400091E00E946013FFEFCF1ADF0A0F5E1F4F62
:102D5000AACF8068D1CFA1960FB6F894DEBF0FBE80
:102D6000CDBFDF91CF911F910F91FF90EF90DF903A
:102D7000CF90BF90AF909F907F906F905F904F905B
:102D800008951F920F920FB60F9211242F933F9325
:102D90004F935F936F937F938F939F93AF93BF9363
:102DA000EF93FF9388EB92E00E94550FFF91EF9114
:102DB000BF91AF919F918F917F916F915F914F9153
:102DC0003F912F910F900FBE0F901F9018951F925B
:102DD0000F920FB60F9211242F938F939F93EF931F
:102DE000FF93E091C802F091C9028081E091CE0288
:102DF000F091CF0282FD1BC090818091D1028F5F44
:102E00008F732091D202821741F0E091D102F0E05D
:102E1000E854FD4F958F8093D102FF91EF919F91E0
:102E20008F912F910F900FBE0F901F90189580815A
:102E3000F4CF1F920F920FB60F9211242F933F934E
:102E40008F939F93AF93BF9380916E0190916F0189
:102E5000A0917001B091710130916D0123E0230FB9
:102E60002D3758F50196A11DB11D20936D0180935A
:102E70006E0190936F01A0937001B09371018091E6
:102E8000720190917301A0917401B0917501019646
:102E9000A11DB11D8093720190937301A0937401E1
:102EA000B0937501BF91AF919F918F913F912F91F9
:102EB0000F900FBE0F901F90189526E8230F0296D3
:102EC000A11DB11DD2CF1F920F920FB60F921124E8
:102ED0002F933F934F935F936F937F938F939F9322
:102EE000AF93BF93EF93FF93E0910401F09105013D
:102EF0000995FF91EF91BF91AF919F918F917F9134
:102F00006F915F914F913F912F910F900FBE0F9056
:102F10001F9018951F920F920FB60F9211242F93A6
:102F20003F934F935F936F937F938F939F93AF9351
:102F3000BF93EF93FF93E0910201F0910301099594
:102F4000FF91EF91BF91AF919F918F917F916F9181
:102F50005F914F913F912F910F900FBE0F901F9057
:102F600018951092BB021092BA0288EE93E0A0E08E
:102F7000B0E08093BC029093BD02A093BE02B093D8
:102F8000BF028AE291E09093B9028093B80285EC87
:102F900090E09093C5028093C40284EC90E09093FB
:102FA000C7028093C60280EC90E09093C9028093A0
:102FB000C80281EC90E09093CB028093CA0282EC2D
:102FC00090E09093CD028093CC0286EC90E09093B9
:102FD000CF028093CE021092D1021092D2021092B0
:102FE000D3021092D402E9E5F3E088EE93E0908BEF
:102FF0008787719624E0E936F207C9F710925703E4
:10300000109258030895CF93DF9300D000D01F9201
:10301000CDB7DEB7789484B5826084BD84B5816015
:1030200084BD85B5826085BD85B5816085BD809193
:103030006E00816080936E0010928100809181000B
:103040008260809381008091810081608093810003
:10305000809180008160809380008091B1008460C5
:103060008093B1008091B00081608093B000809126
:103070007A00846080937A0080917A0082608093E5
:103080007A0080917A00816080937A0080917A0042
:10309000806880937A001092C10061E08DE00E9408
:1030A000AC1006E011E056E2E52E51E0F52ED80115
:1030B0008C910E5F1F4F61E00E94AC10E016F1068C
:1030C000B1F762E088E00E94AC1088E0809356037C
:1030D0001092550388EE93E00E942B1F8C3C89F1DF
:1030E0006CEC88EE93E00E943B141092B50160E016
:1030F0008CEE93E00E943B1481E090E09093B2014B
:103100008093B10161EB71E08AEE93E00E94DC15DF
:1031100040E1E42EF12C10E000E060E0C8010E94E4
:103120003B140F5F1F4F1C830B83BE016D5F7F4FEE
:10313000C7010E94DC15B2E0EB0EF11C0031110555
:1031400061F761EB71E08AEE93E00E94D41309E528
:1031500013E0F12CE12C36EFD32EC7010E942B1F78
:10316000F80185838D9DB00111246E537F4F46EF8A
:1031700050E080EC91E00E94221F8091C101D801B3
:1031800016968C9316972091C00113962C9330E0DD
:10319000C901019797FDC901959587958F5FF80142
:1031A0008483FFEFEF1AFF0A0F5E1F4F20E1E21644
:1031B000F10499F61092A70182E08093A801E0EB58
:1031C000F0E0E491F0E0EE0FFF1FEC55FF4F85912A
:1031D00094919093AA018093A901E2E9F0E0E4912F
:1031E000E093AB0160E082E00E94AC10E0E8F1E027
:1031F00086E1DF011D928A95E9F782E990E09093DC
:103200007B0180937A0182E590E09093790180932D
:10321000780180EC80939601109297018FEF9FEFD9
:103220009093AD018093AC011092AE0183E0809346
:1032300077018091AB018093760163E070E080912B
:10324000A7010E94F60E8DE190E00E947C13682F8A
:10325000606C8DE190E00E943D148093AF016BE0C3
:1032600087E090E00E943D146DE088E090E00E94CD
:103270003D1480E00E946D130E94E8131092B0018B
:1032800080E0282E80E0382E0E94CF1200917C0131
:1032900010917D0120917E0130917F016B017C01B5
:1032A000C01AD10AE20AF30A97018601409100018F
:1032B000509101016A01F12CE12C0C151D052E0520
:1032C0003F05C8F060937C0170937D0180937E017F
:1032D00090937F018091BB01833009F45FC008F0B7
:1032E00041C0813009F468C0823009F45EC061E0F9
:1032F0008DE00E947E10809198018823B1F00E9499
:10330000CF120091990110919A0120919B01309167
:103310009C01601B710B820B930B6531710581055C
:10332000910518F080E00E946D138091820188233E
:1033300009F46CC0F89488E0EEE8F1E0A9E6B4E0A6
:1033400001900D928A95E1F7109282017894809114
:103350006904E82FF0E0E559FB4F8630B0F5119293
:103360008F5FFBCF843099F0853009F0C0CF12E336
:10337000E12EF12CF0920101E09200018DE00E941B
:10338000551061E0892B09F4B3CF60E0B1CF8DE730
:1033900090E09093010180930001F0CFAEEBB0E09C
:1033A000B0930101A0930001E9CFEAEFF0E0F093C0
:1033B0000101E0930001E2CFB4EFCB2EDD24D394E2
:1033C000D0920101C0920001D9CFA0E0EA2EA0E086
:1033D000FA2EEF2821F089E694E00E940000809107
:1033E0006B0481117AC090916C04911176C080E0D9
:1033F00090E0892B19F080E00E94000080919801F4
:10340000882309F466C081E00E94DC120E94CF127A
:103410000091BC011091BD012091BE013091BF010E
:103420006B017C01C01AD10AE20AF30A97018601F6
:10343000043111052105310528F16093BC01709319
:10344000BD018093BE019093BF01809156030E94FD
:1034500055109C0191E02115310509F490E080910F
:10346000570398130DC080915803981709F444C26C
:103470009093580383E0232B09F482E08093550353
:103480009093570310915503133019F481E0809302
:10349000550380915503823011F410925503123078
:1034A00039F48091BB01882319F01092BB0111E01F
:1034B000E091BB01E73008F037C2F0E0EE59F54E7D
:1034C0000C948B1F831C371D511D7F1D9A1DD11D10
:1034D000141D81E00E946D1399CF9091980199235A
:1034E00009F48BC08057803108F084C081E00E94CD
:1034F000DC121091690480919F0118130AC0412FBA
:1035000050E061EA71E08BE694E00E94AB1F892BEA
:1035100061F010929E0188E0E9E6F4E0AFE9B1E0E5
:1035200001900D928A95E1F771CF80919E018F5F96
:1035300080939E01133009F045C090916B04892F50
:103540008770F0906C04853051F4F0929D0180E01A
:1035500090E0892B09F45ACF0E94000057CF0DE16B
:1035600010E0843091F0282F30E08430F0F40091A6
:103570009D010023D1F00150110B000F111F000F0E
:10358000111F020F131F0F5F1F4F93FF10C061E049
:10359000C8010E940D13882309F438CF6F2DC8018C
:1035A0000E943D14F81232CFD2CF8901ECCF60E0F7
:1035B000C8010E940D13882309F428CFC8010E9476
:1035C0007C13F0CF143009F021CF80916B04682F69
:1035D00070E0762F66276627737090916C04692BD4
:1035E0006F5F7F4F28EF3FE040916D048C700E9429
:1035F0008F140CCF80E00E946D13E0916B04EF3FBD
:1036000061F480916C04811101CF80E090E0892BFE
:1036100009F4FCCE0E940000F9CEE7FD0DC0009138
:103620006E0420916D0440916C0470E060E08E2F78
:1036300090E00E94FD14EACEE03C08F04CC14091BD
:10364000960147FFE3CE90916C04292F30E0890169
:1036500000951095000F111F000F111F007C1170B5
:10366000EF730E2B35952795822F8370B82E80919E
:103670006904853039F59C789C3021F50E948413CB
:103680008017910721F00F3F114009F0BFCE009144
:103690006C0410E0102F00270027137080916D0438
:1036A000080F111D0F5F1F4FF0906E0461E0C801FD
:1036B0000E940D136F2D882309F4A8CEC8010E9423
:1036C0003D14A4CE6801A1E0CA1AD108CC0CDD1CBF
:1036D000CC0CDD1CCB287601BFEFEB1AFB0A8091E6
:1036E000AE018823F1F046FF3CC0C70160E071E005
:1036F0000E94551F682F81E090E00E943D14C70191
:10370000F7FE02C081509F4F692F89E090E00E9430
:103710003D142114310419F0C7010E9400001092D9
:10372000AE018091960180FD35C08091690484309E
:1037300009F04AC080916C048978813009F066CE26
:1037400060916D04C7010E944E1380E090E0892BC8
:1037500009F45CCE40916D046B2DC7010E940000FE
:1037600055CEB8016F73772781E090E00E943D1439
:10377000B801B6E075956795BA95E1F789E090E0F4
:103780000E943D14E0E0F0E0EF2B49F2C8010E94F6
:103790000000C5CF86FF0CC00E9484138E159F05C4
:1037A00021F2FDEFEF16F7E0FF060CF0BECF2ECEB4
:1037B0000E9484138017910709F4B7CF0F3F21E0CF
:1037C000120709F4B2CF22CE833041F540916C0448
:1037D000942F9170C92E43FBDD24D0F8A0E0B0E017
:1037E000AB2B31F047702D2DB801C7010E940000AE
:1037F0008091960186FF06C04D2D6C2DC7010E9459
:10380000001604CEE0E0F0E0EF2B09F4FFCD2D2D03
:103810004C2D6B2DC8010E940000F8CD863009F0B8
:10382000F5CD80916C04982F9978913021F08F78A4
:10383000803809F0EBCD8091960186FF28C00E9468
:1038400084138E159F05E9F480916D0490E0382F64
:1038500022272227337000916E04020F132F111DAF
:103860000F5F1F4FF0906F049595879595958795FD
:10387000837099278230910599F0039709F416CF48
:10388000C5CDFDEFEF16F7E0FF06F4F6BFCD0E94C1
:10389000841380179107C1F20F3F1140A9F2B6CDF2
:1038A000F4FEB4CD61E0C8010E940D13882309F431
:1038B000ADCDC8010E947C139F2D977061E070E030
:1038C00001C0660F9A95EAF7F3FE02C0682BF6CEA8
:1038D00060956823F3CEE83E08F098CDE05CFF0BDE
:1038E00080916C0400916F0420916E0440916D04EE
:1038F00061E070E09E2F9DCE81E0232B09F0BECDCC
:1039000010925503BDCD123079F40E94CF1260930E
:10391000B7017093B8018093B9019093BA0186E022
:103920008093BB011092B6010091B702E02EF12CFA
:10393000F1E10F9F80011124075A1C4F680125E017
:10394000C20ED11CD8011596BC901597BB2009F466
:10395000CBC1B6EFBB9EB00111246E537F4F46EF33
:1039600050E080EC91E00E94221F0E94CF124B0198
:103970005C01F80181859285A385B4852401350118
:10398000481A590A6A0A7B0A2091C2013091C30180
:103990004091C4015091C501AAE0B0E00E94911F7E
:1039A000461657066806790608F4C1C181869286D4
:1039B000A386B486858591E089278587F12CE12C43
:1039C0003801B6E06B0E711C5801EFEFAE1ABE0A5B
:1039D000C8010D964C01D3018C918E151F0409F07E
:1039E0000CF4A5C1D801EC91EE0DFF2DF11DEE0FE9
:1039F000FF1FEA5FFE4F8081D501EC91EF77B8E0C1
:103A0000EB9FF0011124E054FE4FEE0DFF1D968157
:103A1000913009F456C108F458C1923009F457C1E5
:103A2000BFEFEB1AFB0AD7CF0E94CF12C090B701AD
:103A3000D090B801E090B901F090BA016C197D09FD
:103A40008E099F09683E73408105910518F082E058
:103A50008093BB01133009F067CF8091B50181FFDE
:103A600002C082E001C081E08093BB015DCF809104
:103A7000B601813009F058CF1092B6018091B301A0
:103A80009091B4019093B2018093B10161EB71E028
:103A90008AEE93E00E94DC150E94E8131092BB01AD
:103AA00041CF111116C00E94CF120091B7011091A1
:103AB000B8012091B9013091BA01601B710B820BE2
:103AC000930B603A7F408105910518F085E0809363
:103AD000BB018091B601813009F026CF1092B6016A
:103AE0008091B3019091B40181508093B001809195
:103AF000B50181FF02C083E0B7CF84E0B5CF8091EC
:103B0000B601813009F010CF1092B6012091B301B7
:103B10003091B4018091B0013A83298390E00896F6
:103B2000BE016F5F7F4F880F991F0E94DC150E94B6
:103B3000E81397CF8091B601813009F0F5CE10924D
:103B4000B6010091B0016091B3017091B401615070
:103B5000B1E10B9F80011124075A1C4FF8016583C6
:103B6000F6EF6F9FB00111246E537F4F46EF50E088
:103B700080EC91E00E94221F8091C101D80116962D
:103B80008C9316972091C00113962C9330E0C901B5
:103B9000019797FDC901959587958F5FF8018483FB
:103BA000C6CF8091B601813009F0BECE1092B60129
:103BB0008091B3019091B401019769F46091B501CE
:103BC0006E7F6093B5018CEE93E00E943B140E94DF
:103BD000E8131092BB018091B3019091B401029758
:103BE00069F46091B50161606093B5018CEE93E07A
:103BF0000E943B140E94E8131092BB018091B30114
:103C00009091B401039769F46091B5016D7F609361
:103C1000B5018CEE93E00E943B140E94E8131092D1
:103C2000BB018091B3019091B401049769F4609154
:103C3000B50162606093B5018CEE93E00E943B1485
:103C40000E94E8131092BB018091B3019091B401DE
:103C50000A9709F069CE63E388EE93E00E943B1473
:103C600088E491E00E94601385E491E00E94601373
:103C70000E94E8104B015C0150EDC52E57E0D52E97
:103C8000E12CF12C0E94E810681979098A099B0936
:103C9000683E734081059105A8F3F1E0CF1AD10881
:103CA000E108F10828EE820E23E0921EA11CB11C4F
:103CB000C114D104E104F10429F7F0E0E0E0099532
:103CC00033CE61E00E947E10ABCE60E0FBCFF4010A
:103CD0006081F1E0EF16F104A9F7D6019C919230D2
:103CE00089F791E06927EECFF8018685823009F4E3
:103CF00058C048F4882389F0813031F1FD81F130DA
:103D000009F041C014C0833009F480C08430B1F799
:103D1000818181708183168636C011968C911197AE
:103D200087FF8DC081E01E968C93B1E0BD838091AA
:103D3000B7028F5F8093B7029091B602891302C0D9
:103D40001092B702BD801FC0808190E02181880F52
:103D5000991FFC0120FF22C0EA5FFE4F61E08081D5
:103D60000E947E100E94CF1221E12E9DF0012F9D16
:103D7000F00D1124E75AFC4F61877287838794877F
:103D800086858F5F868780E090E0892B29F00E94EE
:103D9000E40F81110E940000BD8276CAE85FFE4FE9
:103DA000DDCF0E94CF12D8011996CD90DD90ED9015
:103DB000FC901C976C197D098E099F09643671056A
:103DC0008105910500F3EC91F0E0EE0FFF1FEA5F33
:103DD000FE4F60E080810E947E10D801EC91F0E0FF
:103DE000EE0FFF1FE85FFE4F60E080810E947E10B3
:103DF000F80186858F5F86870E94CF12D8011996B9
:103E00006D937D938D939C931C97BDCF0E94CF1291
:103E1000F801C184D284E384F4846C197D098E098D
:103E20009F09643F71408105910508F4ACCFD8012A
:103E30001E968C911E978F5F1E968C93A4CF21E0C7
:103E40002D8375CFFB01DC0102C005900D9241501E
:103E50005040D8F70895F999FECF92BD81BDF89AE8
:103E6000992780B50895262FF999FECF1FBA92BDE4
:103E700081BD20BD0FB6F894FA9AF99A0FBE01964B
:103E80000895AA1BBB1B51E107C0AA1FBB1FA617A1
:103E9000B70710F0A61BB70B881F991F5A95A9F7F3
:103EA00080959095BC01CD01089597FB072E16F4DF
:103EB000009407D077FD09D00E94411F07FC05D070
:103EC0003EF4909581959F4F0895709561957F4F31
:103ED0000895A1E21A2EAA1BBB1BFD010DC0AA1F4B
:103EE000BB1FEE1FFF1FA217B307E407F50720F063
:103EF000A21BB30BE40BF50B661F771F881F991FDE
:103F00001A9469F760957095809590959B01AC0126
:103F1000BD01CF010895EE0FFF1F0590F491E02D34
:103F200009940E949C1FA59F900DB49F900DA49F83
:103F3000800D911D11240895A29FB001B39FC0016F
:103F4000A39F700D811D1124911DB29F700D811DC5
:103F50001124911D0895FB01DC0104C08D91019095
:103F6000801921F441505040C8F7881B990B0895DF
:103F7000F894FFCFE803DB12DB1204000300050016
:103F8000060007000A000B000C00010000001300EF
:103F900012001100110010000E0000000000770F49
:103FA000FF0F180FC40F490F270F3B0F41737065A8
:103FB0006374207365743A20000D0A00464143542F
:103FC0004F525920524553455420696E2032207378
:083FD00065636F6E647300006D
:107E0000112484B714BE81FFF0D085E080938100F7
:107E100082E08093C00088E18093C10086E0809377
:107E2000C20080E18093C4008EE0C9D0259A86E02C
:107E300020E33CEF91E0309385002093840096BBD3
:107E4000B09BFECF1D9AA8958150A9F7CC24DD24C4
:107E500088248394B5E0AB2EA1E19A2EF3E0BF2EE7
:107E6000A2D0813461F49FD0082FAFD0023811F036
:107E7000013811F484E001C083E08DD089C08234E0
:107E800011F484E103C0853419F485E0A6D080C0E4
:107E9000853579F488D0E82EFF2485D0082F10E0AE
:107EA000102F00270E291F29000F111F8ED06801E7
:107EB0006FC0863521F484E090D080E0DECF843638
:107EC00009F040C070D06FD0082F6DD080E0C81688
:107ED00080E7D80618F4F601B7BEE895C0E0D1E017
:107EE00062D089930C17E1F7F0E0CF16F0E7DF06D8
:107EF00018F0F601B7BEE89568D007B600FCFDCFD4
:107F0000A601A0E0B1E02C9130E011968C91119780
:107F100090E0982F8827822B932B1296FA010C0160
:107F200087BEE89511244E5F5F4FF1E0A038BF0790
:107F300051F7F601A7BEE89507B600FCFDCF97BE46
:107F4000E89526C08437B1F42ED02DD0F82E2BD052
:107F50003CD0F601EF2C8F010F5F1F4F84911BD097
:107F6000EA94F801C1F70894C11CD11CFA94CF0C13
:107F7000D11C0EC0853739F428D08EE10CD085E9AC
:107F80000AD08FE07ACF813511F488E018D01DD067
:107F900080E101D065CF982F8091C00085FFFCCF94
:107FA0009093C60008958091C00087FFFCCF809118
:107FB000C00084FD01C0A8958091C6000895E0E648
:107FC000F0E098E1908380830895EDDF803219F02E
:107FD00088E0F5DFFFCF84E1DECF1F93182FE3DFCA
:107FE0001150E9F7F2DF1F91089580E0E8DFEE27F6
:047FF000FF270994CA
:027FFE00040479
:00000001FF
