:100000000C9462000C948A000C948A000C948A0070
:100010000C948A000C948A000C948A000C948A0038
:100020000C948A000C948A000C948A000C948A0028
:100030000C948A000C948A000C948A000C948A0018
:100040000C940B030C948A000C9455030C948A00B6
:100050000C94B5030C948A000C948A000C948A00CA
:100060000C948A000C948A000000000023002600F3
:10007000290000000000240027002A0000000000E2
:10008000250028002B0004040404040404040202D4
:100090000202020203030303030301020408102007
:1000A0004080010204081020010204081020000012
:1000B0000008000201000003040700000000000027
:1000C0000000060B11241FBECFEFD8E0DEBFCDBF6E
:1000D00011E0A0E0B1E0E4E0F7E102C005900D928C
:1000E000A034B107D9F722E0A0E4B1E001C01D922D
:1000F000A633B207E1F710E0C2E6D0E004C02197D2
:10010000FE010E947A0BC136D107C9F70E94DF03B6
:100110000C94800B0C94000020913102EBE0E29FE4
:10012000D0011124A850BE4F6C932E9FF0011124D2
:1001300050E040E0DC013D91CD01DA01AE0FBF1F80
:10014000A750BE4F3C934F5F5F4F461798F32F5F0A
:10015000253018F420933102089510923102089549
:10016000FC01319690E080E06250770B96171706FD
:1001700024F4219182279F5FF9CF80830895CF9344
:10018000DF9300D000D01F92CDB7DEB7198222E5F1
:100190002A831D829C0136952795369527952B83BA
:1001A000880F8670806898E0499FA0011124482B31
:1001B000642B6C8365E0CE0101960E94B00065E07F
:1001C000CE0101960E948C000F900F900F900F901F
:1001D0000F90DF91CF9108958F77982F20E041E025
:1001E000992329F024273FEF390F9323F9CF2111C9
:1001F00080680895CF93DF9300D000D0CDB7DEB7ED
:100200008091990181110EC081E68A8382E88B83F7
:1002100083EE8C838091B701898364E0CE010196DF
:100220000E948C000F900F900F900F90DF91CF9154
:100230000895833081F028F4813099F08230A9F05C
:1002400008958730A9F08830C9F08430B1F48091E6
:1002500080008F7D03C0809180008F778093800025
:10026000089584B58F7784BD089584B58F7DFBCFC5
:100270008091B0008F778093B00008958091B00096
:100280008F7DF9CF1F93CF93DF93282F30E0F901B3
:10029000E255FF4F8491F901E656FF4FD491F901E1
:1002A000EA57FF4FC491CC23A9F0162F81110E9469
:1002B0001901EC2FF0E0EE0FFF1FE458FF4FA5915E
:1002C000B4918FB7F894EC91111108C0D095DE234A
:1002D000DC938FBFDF91CF911F910895DE2BF8CF74
:1002E000CF93DF9390E0FC01E656FF4F24918A57AD
:1002F0009F4FFC0184918823D1F090E0880F991FD3
:10030000FC01EE58FF4FA591B491FC01E458FF4F5A
:10031000C591D491623071F49FB7F8943C91822FCB
:10032000809583238C93E8812E2B28839FBFDF91B8
:10033000CF9108958FB7F894EC912E2B2C938FBF0B
:10034000F6CF3FB7F8948091940190919501A091D8
:100350009601B091970126B5A89B05C02F3F19F0D3
:100360000196A11DB11D3FBFBA2FA92F982F882735
:10037000BC01CD01620F711D811D911D42E0660F10
:10038000771F881F991F4A95D1F708958F929F92E2
:10039000AF92BF92CF92DF92EF92FF924B015C013E
:1003A0000E94A1016B017C010E94A1016C197D09D1
:1003B0008E099F09683E734081059105A8F321E0ED
:1003C000821A9108A108B10888EEC80E83E0D81EF1
:1003D000E11CF11C81149104A104B10429F7FF90E0
:1003E000EF90DF90CF90BF90AF909F908F90089547
:1003F000FF920F931F93CF93DF93EC01DC01A9567B
:10040000BF4F9C91492F50E09E018BE0989F200D9B
:10041000311D1124F901E05AFF4FF080FF20A9F0AF
:10042000BE0168567F4FFB018081280F311DF90105
:10043000EF59FF4F008110E0811118C02981116030
:100440002223A1F081E0FB01808360E08D810E9486
:1004500042018881843099F58981811130C01882E8
:10046000DF91CF911F910F91FF9008958F5FFB0156
:100470008F1540F110828BE0849FF001859FF00D75
:100480001124EC0FFD1FE05AFF4F10829F5F953043
:10049000A0F49C9361E08D810E9442018091C10093
:1004A0008E7F8093C10010FF05C08091C1008160E4
:1004B0008093C1000093C600D3CF1C92EBCF82E0A3
:1004C0008883CECF8083E6CF63FF0EC02AE02093DF
:1004D0004E0120910201309103012130310521F0BC
:1004E000909301018093000108958F30974291F419
:1004F00060FF08C0109203011092020161E08DE0DC
:100500000C94420181E090E09093030180930201FA
:1005100060E0F5CF0895DF92EF92FF920F931F9363
:10052000CF93DF932FB7F894809190019091910130
:10053000A0919201B09193012FBF40914001509141
:10054000410160914201709143018C019D01041BA6
:10055000150B260B370BB901A80142335105610574
:10056000710508F445C08093400190934101A09328
:100570004201B0934301CFE4D1E001E092E0F92ED3
:1005800023E0E22E298130E0F901E255FF4F84910A
:10059000F901E656FF4F1491F901EA57FF4FD49045
:1005A000DD2071F181110E941901ED2DF0E0EE0FB7
:1005B000FF1FE859FF4FA591B491EC911E2331E044
:1005C00020E009F430E0832F922F282F21703A8108
:1005D000231307C03B812317C1F02B83892B99F08C
:1005E000E8822A83249611E0CF38D10709F0CACFD8
:1005F000DF91CF911F910F91FF90EF90DF900895C1
:1006000090E080E0E2CFF882ECCF892B11F00883F4
:10061000E8CF1882E6CF1F920F920FB60F921124E7
:100620002F933F938F939F93AF93BF9380919001AC
:1006300090919101A0919201B091930130918F011D
:1006400023E0230F2D3758F50196A11DB11D2093EE
:100650008F018093900190939101A0939201B093A8
:1006600093018091940190919501A0919601B09190
:1006700097010196A11DB11D80939401909395015E
:10068000A0939601B0939701BF91AF919F918F91E5
:100690003F912F910F900FBE0F901F90189526E855
:1006A000230F0296A11DB11DD2CF1F920F920FB63C
:1006B0000F9211242F933F934F935F936F937F93E8
:1006C0008F939F93AF93BF93CF93DF93EF93FF935A
:1006D000C0914401D0914501209751F18091C10012
:1006E00081FF39C08091C6008B879FEF99838F353A
:1006F00019F4CE010E94F8012C892230C8F08D89AE
:100700008F7090E002962817190671F4FE013C964E
:1007100080E0918591938F5F2813FBCF81E0FE01EC
:10072000E656FF4F80831C8A8C89883008F01C8A2B
:10073000FF91EF91DF91CF91BF91AF919F918F91F9
:100740007F916F915F914F913F912F910F900FBECD
:100750000F901F901895EC89EF5FEC8B8091C6008D
:10076000EC0FFD2FF11D848BC7CF1F920F920FB698
:100770000F9211242F933F934F935F936F937F9327
:100780008F939F93AF93BF93EF93FF938091440117
:1007900090914501009711F00E94F801FF91EF91AF
:1007A000BF91AF919F918F917F916F915F914F9189
:1007B0003F912F910F900FBE0F901F901895CF93E0
:1007C000DF93CDB7DEB7A2970FB6F894DEBF0FBEAA
:1007D000CDBF789484B5826084BD84B5816084BDCA
:1007E00085B5826085BD85B5816085BD80916E00CF
:1007F000816080936E001092810080918100826000
:10080000809381008091810081608093810080913C
:1008100080008160809380008091B100846080932B
:10082000B1008091B00081608093B00080917A0027
:10083000846080937A0080917A00826080937A004D
:1008400080917A00816080937A0080917A0080683C
:1008500080937A001092C1000E948B0264E670E0DF
:1008600080E090E00E94C6010E948B0284E08093A9
:100870009C0182E080939D0161E00E94700160E034
:1008800080919D010E944201F8941092C5008FE072
:100890008093C4001092C0008CED8093C10086E06C
:1008A0008093C200789488E991E090934501809309
:1008B000440161E08DE00E94700186E2E82E81E053
:1008C000F82E0FE411E0DD24D394D7018D917D0142
:1008D000F8018183D082D38262E00E9470010C5FB4
:1008E0001F4FF6E3EF16F1E0FF0679F700910401E0
:1008F0001091050120910601309107010F8318879F
:1009000029873A878091080190910901A0910A01F5
:10091000B0910B018B879C87AD87BE8700910C013E
:1009200010910D0120910E0130910F010F87188B4E
:10093000298B3A8B8091100190911101A0911201A5
:10094000B09113018B8B9C8BAD8BBE8B00911401EE
:100950001091150120911601309117010F8B188FFE
:10096000298F3A8F8091180190911901A0911A0155
:10097000B0911B018B8F9C8FAD8FBE8F00911C019E
:1009800010911D0120911E0130911F010F8F18A39E
:1009900029A33AA320902001309021014090220108
:1009A00060902301709024018090250180914E0178
:1009B000882309F4D5C02FB7F894809190019091C5
:1009C0009101A0919201B09193012FBF40914601F6
:1009D0005091470160914801709149018C019D013E
:1009E000041B150B260B370BB901A8014233510527
:1009F0006105710588F08093460190934701A093AB
:100A00004801B093490185B190E2892785B9809169
:100A10004E01815080934E010E948B020FE4E02E24
:100A200001E0F02E01E010E055245394D7019C9092
:100A3000B3E09B1202C0F7015082D7018C91823043
:100A400009F41C928EEF890D823090F5B4E0B093DA
:100A50004E015801E1E0AE1AB10880910201909177
:100A60000301019709F0B5C0C5010E94640B898399
:100A7000C8010E94640B8A83C980DA80BD2CBB1C2C
:100A8000BB24BB1CF7E0DF2222E0921201C0B52498
:100A900041E06B2DC6010E94BF0064E170E080E080
:100AA00090E00E94C60140E06B2DC6010E94BF008D
:100AB00044E0E40EF11C0E5F1F4F0132110509F0F6
:100AC000B5CF80919801823009F4A0C0833009F439
:100AD000C4C08111EBC080919901811174C581E07E
:100AE0008093980180919E018F5F80939E01803258
:100AF000B8F0982F9F71E92FF0E0EE0FFF1FE85438
:100B0000FE4F208131812F3F3F4F19F4803208F092
:100B100058C580939E01911103C081E080939E018E
:100B200010919E011F71812F80640E94EC00082F9C
:100B30008093B501812F0E94EC008093B601812F34
:100B400080660E94EC008093B701098361E0CE01CA
:100B500001960E948C0088E991E00E94F80172C021
:100B60008091020190910301892B71F52FB7F894C0
:100B70008091900190919101A0919201B091930187
:100B80002FBF40914A0150914B0160914C017091EF
:100B90004D018C019D01041B150B260B370BB90170
:100BA000A801443F51406105710508F435CF809399
:100BB0004A0190934B01A0934C01B0934D0185B134
:100BC00090E2892785B928CF60E08DE00E9442013C
:100BD00023CFC0900001D090010133E0931611F0B3
:100BE0006894D7F8C5010E94640B8C1521F06C2D18
:100BF000C5010E946C0BC8010E94640BD81609F451
:100C000057CF6D2DC8010E946C0B52CF0E94A101DD
:100C100000919F011091A0012091A1013091A201AA
:100C2000601B710B820B930B66327240810591053C
:100C300010F0109298018091AC018823B9F183E003
:100C4000809398010E94A10160939F017093A0017D
:100C50008093A1019093A20129C00E94A10100915B
:100C60009F011091A0012091A1013091A201601B70
:100C7000710B820B930B6037774181059105F0F082
:100C8000109298011092A4011092A5011092A60151
:100C90001092A7011092A8011092A9011092AA0126
:100CA0001092AB011092A3011092AC0180E090E091
:100CB000892B09F47BCE0E9400006CCE8091320219
:100CC0008823A1F3109232028091A401482F4F7023
:100CD00050E04F5F5F4F60E090E0262F30E042171A
:100CE00053073CF028563E4FF901248592276F5F49
:100CF000F4CF911194C0823509F494C308F582327F
:100D000009F4E5C130F4813209F4B9C00E94FA0057
:100D100086C1833209F4F2C18234C1F780E090E0E9
:100D2000892B09F47CC18091990181117CC140918A
:100D3000A6016091A5018091B7010E9400006FC1DA
:100D4000833E09F4F9C140F5803801F78091A5018F
:100D50008038E1F6809199018111E9C10B851C85EC
:100D60002D853E8509831A832B833C8364E0CE0165
:100D700001960E948C0080919B01813009F44FC143
:100D800081E080939B0180E090E0892B09F447C1CA
:100D900081E00E94000043C1843E09F431C2863ED6
:100DA00009F0B4CF8091A501803309F038C10091DA
:100DB000A60110E0102F002700271F738091A701C4
:100DC000080F111D8091A801E82EF12CFE2CEE24B5
:100DD000EE24B3E0FB229091A901E90EF11C8C7F77
:100DE0008C3E51F480E090E0892B31F04091AA01D3
:100DF000B701C8010E9400008091A8018C7F883E45
:100E000009F00DC180E090E0892B09F408C1409100
:100E1000AA014F70B701C8010E94000000C1809173
:100E2000990181110EC081E68A8380E88B8381EE6F
:100E30008C838091B701898364E0CE0101960E9482
:100E40008C001092A4011092A5011092A60110929C
:100E5000A7011092A8011092A9011092AA01109264
:100E6000AB011092A301809199018111A7C384E085
:100E70008093980188E991E00E94F80117CF809152
:100E800099018111D0C08091A501843201F5809132
:100E9000A6018530E1F4E0919B0181E0E93020F486
:100EA000F0E0EA5CFE4F80811D8292E69A8392E236
:100EB0009B839091B70199838C8365E0CE01019665
:100EC0000E94B00065E0CE0101960E948C008091E6
:100ED000A5018132D1F49091A601911116C01E8214
:100EE0001D8293E69A838B8386E38C8380E18D83D6
:100EF0008091B701898366E0CE0101960E94B0001F
:100F000066E0CE0101960E948C008091A501803898
:100F100021F58091A601813A09F046C0809199019E
:100F20008111ABC00B8D1C8D2D8D3E8D09831A83D5
:100F30002B833C8364E0CE0101960E948C0080915B
:100F40009B01823051F082E080939B0180E090E031
:100F5000892B19F082E00E9400008091A501813860
:100F600019F58091A601803A09F04BC08091990152
:100F700081118CC00B891C892D893E8909831A83B4
:100F80002B833C8364E0CE0101960E948C0080910B
:100F90009B01882349F010929B0180E090E0892B0F
:100FA00019F080E00E9400008091A501803149F590
:100FB0008091A601813329F59091B70120913302E8
:100FC00030913402809135022115310509F467C052
:100FD0001E821D8233E63A8334E13B8399832C835E
:100FE0008D8366E0CE0101960E94B00066E0CE01DE
:100FF00001960E948C0010923402109233021092DB
:101000003502E091B701EF71F0E0EE0FFF1FE854F9
:10101000FE4F80819181019611F41182108280919E
:1010200099018823E1F08091A301803609F07CC208
:101030008091A401813609F037C28091A5018130E9
:1010400009F003C28091A601803649F410929B01F9
:1010500080E090E0892B19F080E00E94000020E001
:1010600030E0232B09F4EDCE6091A4016F706E5F28
:1010700084EA91E00E940000E4CE8F89988DA98DCA
:10108000BA8D89839A83AB83BC8354CF8F8598892B
:10109000A989BA8989839A83AB83BC8373CF1C8265
:1010A0001B8221E62A832FE12B8399838F3F21F432
:1010B00083E18B831092350264E0CE0101960E9499
:1010C000B00064E0CE0101960E948C009ACF80911E
:1010D000A501853109F01ACE109234021092330224
:1010E0001092350280E090E0892B09F498CF80912E
:1010F000A6018150990B0E94000091CF8091A5011B
:10110000863109F003CE109234021092330210920D
:10111000350280E090E0892B09F481CF8091A6010F
:101120006091A7018150990B0E94000078CF6982DD
:101130007A828B8263E01BCE90919901911173CFDB
:101140009091A501983009F443C0D8F4992379F11E
:10115000973009F0DBCD1B821C821D821E8283EE3C
:101160008A8380E58B838091B701898366E0CE0115
:1011700001960E94B00066E0CE0101960E948C00AC
:101180004ECF993061F1903F09F0C0CD80E090E002
:10119000892B09F464CF6091A6016F738091A70138
:1011A000762F682F8091B7010E94000038CF80E031
:1011B00090E0892B09F453CF6091A6016F73809161
:1011C000A701762F682F8091B7010E94000027CFDA
:1011D0001B821C821D821E828A8381E5C3CF80E030
:1011E00090E0892B09F43BCF6091A6016F73809149
:1011F000A701762F682F8091B7010E9400000FCFC2
:101200008091A6018F739091A7018927982789273C
:101210002091B701009709F451C02F71A22E022F1F
:1012200010E0000F111FF801E854FE4F20813181BA
:101230008217930709F442C09183808368E9E62E00
:1012400061E0F62EBB24B3948F0173EE972EE0E499
:101250005E2EBA1461F1D7019296CD90DC90F80120
:1012600080819181C816D90611F58B2D80660E9468
:10127000EC001B821C821D821E829A825B82898303
:10128000F4E6CF16D10418F08D2D806C8C83CD82BE
:1012900066E0CE0101960E94B00066E0CE010196A4
:1012A0000E948C00D70193961C921E929297B39441
:1012B000B2E0EB0EF11CE0E2BE12CBCF8091A501B3
:1012C000803191F480E090E0892B09F4A8CE8091E0
:1012D000A6018F739091A7016091A8018927982793
:1012E00089270E9400009BCE813191F480E090E03C
:1012F000892B09F494CE8091A6018F739091A70158
:101300006091A8018927982789270E94000087CE2D
:10131000823191F480E090E0892B09F480CE8091B5
:10132000A6018F739091A7016091A8018927982742
:1013300089270E94000073CE833191F480E090E011
:10134000892B09F46CCE8091A6018F739091A7012F
:101350006091A8018927982789270E9400005FCE05
:10136000803269F48091A6018F739091A7016091FA
:10137000A8018927982789270E94750250CE8132BB
:1013800091F480E090E0892B09F449CE8091A60188
:101390008F739091A7016091A801892798278927C9
:1013A0000E9400003CCE823291F480E090E0892BD4
:1013B00009F435CE8091A6018F739091A7016091B9
:1013C000A8018927982789270E94000028CE833208
:1013D00011F0833F91F480E090E0892B09F41FCE57
:1013E0008091A6018F739091A7016091A801892730
:1013F000982789270E94000012CE883209F086CCF7
:1014000080E090E0892B09F40ACE8091A6018F73C9
:101410009091A7016091A8018927982789270E94A8
:101420000000FDCD6091A6012091A501F4E02F9F61
:1014300090011124862F90E09595879583709927C8
:10144000822B932B0E946402EACD81110FC0809100
:10145000A601813609F003CE82E080939B0180E0F3
:1014600090E0892B09F4FBCD82E0F7CD883051F470
:1014700084E080939B0180E090E0892B09F4EFCD1C
:1014800084E0EBCD823009F0EACD8091A60183366D
:1014900009F0E5CD88E080939B0180E090E0892B06
:1014A00009F4DDCD88E0D9CD813899F48091A5018A
:1014B0008111D5CD8091A601813809F0D0CD81E090
:1014C00080939B0180E090E0892B09F4C8CD81E0F6
:1014D000C4CD982F907F903409F0C1CD8695877048
:1014E000F82E08E911E0EE24E394FE1408F4B7CDD9
:1014F00020E030E0232BA1F0D8011E966C911E97BE
:101500001D962C91B4E02B9F90011124862F90E022
:101510009595879583709927822B932B0E940000C5
:10152000E3940E5F1F4FE1CF8A3949F429823A8252
:101530004B8263E0CE0101960E948C0090CD809199
:10154000A401823609F08BCD8091A501823209F089
:1015500086CD8091A601813009F170F08230B1F022
:10156000883021F10F81188529853A8509831A83EE
:101570002B833C8364E0DECF10929B0180E090E0FF
:10158000892B81F380E00E940000ECCF80939B01C7
:1015900080E090E0892B31F382E0F5CF80939B01CE
:1015A00080E090E0892BF1F281E0EDCF80939B0108
:1015B00080E090E0892BB1F288E0E5CF10929801AD
:1015C00075CB8F5F96CA81508093990183E0809399
:1015D000980180919A01882379F010929A018F8D59
:1015E00098A1A9A1BAA189839A83AB83BC8364E043
:1015F000CE0101960E948C0080919901811122CB2D
:1016000081E080939A011092AC011CCB10929E0154
:101610001092990181E080939A0182E080939B016E
:1016200084E080939C0110922F021092300210925D
:101630003102E8EBF1E088E991E02FEF3FEF2193F1
:10164000319341E0E83FF407D1F7FC01E05AFF4F46
:10165000108230E020E0F901EF59FF4FE80FF91F49
:1016600010822F5F3F4F2A303105A9F70B9621E0FA
:101670008F3C920751F7109232021092980110920B
:10168000A4011092A5011092A6011092A701109238
:10169000A8011092A9011092AA011092AB01109218
:1016A000A3011092AC0110923402109233021092F6
:1016B0003502EFE4F1E08FE891E012821382349674
:1016C0008E179F07D1F70895F999FECF92BD81BD7E
:1016D000F89A992780B50895262FF999FECF1FBA59
:1016E00092BD81BD20BD0FB6F894FA9AF99A0FBE4B
:1016F00001960895EE0FFF1F0590F491E02D0994D7
:04170000F894FFCF8B
:10170400FFFF01000021210060810081002181A0F0
:1017140060610160002180A16061006100212405F5
:10172400002020008080030405060708090A0B0C2A
:101734000E0F101112130001010102010101080032
:00000001FF
