:020000040000FA
:100000000C9462000C94930C0C946C0C0C948A006D
:100010000C948A000C948A000C948A000C948A0038
:100020000C948A000C948A000C948A000C948A0028
:100030000C948A000C948A000C948A000C948A0018
:100040000C94220C0C948A000C94E00C0C94BA0CC6
:100050000C948A000C948A000C948A000C948A00F8
:100060000C948A000C948A000000000023002600F3
:10007000290000000000240027002A0000000000E2
:10008000250028002B0004040404040404040202D4
:100090000202020203030303030301020408102007
:1000A0004080010204081020010204081020000012
:1000B0000008000201000003040700000000000027
:1000C0000000120D11241FBECFEFD8E0DEBFCDBF60
:1000D00011E0A0E0B1E0E2ECFCE302C005900D927B
:1000E000AA35B107D9F725E0AAE5B1E001C01D9214
:1000F000A931B207E1F710E0C2E6D0E004C02197D1
:10010000FE010E94331EC136D107C9F70E94A10D1E
:100110000C945F1E0C9400008230F8F4E82FF0E09D
:10012000EE0FFF1FEF5FFE4F20E733E031832083A8
:10013000813041F0809169008C7F682B6093690069
:10014000E89A089580916900837F660F771F660F94
:10015000771F682B60936900E99A0895FC01538D1D
:10016000448D252F30E0842F90E0821B930B541791
:1001700010F0CF96089501970895FC01918D828D1E
:10018000981761F0A28DAE0FBF2FB11D5D968C91B7
:10019000928D9F5F9F73928F90E008958FEF9FEFF6
:1001A0000895FC01918D828D981731F0828DE80FB2
:1001B000F11D858D90E008958FEF9FEF0895FC016C
:1001C000918D228D892F90E0805C9F4F821B910939
:1001D0008F7399270895FC01A48DA80FB92FB11D25
:1001E000A35ABF4F2C91848D90E001968F7399276D
:1001F000848FA689B7892C93A089B1898C9183704B
:1002000080648C93938D848D981306C00288F38943
:10021000E02D80818F7D80830895EF92FF920F9370
:100220001F93CF93DF93EC0181E0888F9B8D8C8DA2
:1002300098131AC0E889F989808185FF15C09FB796
:10024000F894EE89FF896083E889F9898081837059
:10025000806480839FBF81E090E0DF91CF911F9108
:100260000F91FF90EF900895F62E0B8D10E00F5F29
:100270001F4F0F731127E02E8C8D8E110CC00FB6FF
:1002800007FCFACFE889F989808185FFF5CFCE0197
:100290000E94EB00F1CFEB8DEC0FFD2FF11DE35A27
:1002A000FF4FF0829FB7F8940B8FEA89FB8980811A
:1002B0008062CFCFCF93DF93EC01888D8823B9F094
:1002C000AA89BB89E889F9898C9185FD03C0808161
:1002D00086FD0DC00FB607FCF7CF8C9185FFF2CFDE
:1002E000808185FFEDCFCE010E94EB00E9CFDF9149
:1002F000CF91089583E892E00E94DF0021E0892BEE
:1003000009F420E0822F089580E090E0892B29F005
:100310000E947A0181110C9400000895833081F0CD
:1003200028F4813099F08230A9F008958730A9F03F
:100330008830C9F08430B1F4809180008F7D03C093
:10034000809180008F7780938000089584B58F77A7
:1003500084BD089584B58F7DFBCF8091B0008F77E9
:100360008093B00008958091B0008F7DF9CF1F93E6
:10037000CF93DF93282F30E0F901E255FF4F8491AE
:10038000F901E656FF4FD491F901EA57FF4FC491A6
:10039000CC23A9F0162F81110E948E01EC2FF0E0E2
:1003A000EE0FFF1FE458FF4FA591B4918FB7F8945B
:1003B000EC91111108C0D095DE23DC938FBFDF9143
:1003C000CF911F910895DE2BF8CFCF93DF9390E06C
:1003D000FC01E656FF4F24918A579F4FFC01849100
:1003E0008823C9F090E0880F991FFC01EE58FF4F59
:1003F000A591B491FC01E458FF4FC591D4916111CE
:100400000DC09FB7F8948C91209582238C9388819E
:10041000282328839FBFDF91CF910895623051F444
:100420009FB7F8943C91822F809583238C93E88129
:100430002E2BEFCF8FB7F894EC912E2B2C938FBFF0
:10044000EACF2FB7F89460917C0270917D02809181
:100450007E0290917F022FBF089580E090E0892B6B
:1004600011F00C94000008950895AF92BF92CF92BE
:10047000DF92EF92FF920F931F93CF93DF936C0164
:100480007B018B01040F151FEB015E01AE18BF0845
:10049000C017D10759F06991D601ED91FC910190F7
:1004A000F081E02DC6010995892B79F7C501DF910F
:1004B000CF911F910F91FF90EF90DF90CF90BF9061
:1004C000AF9008950F931F93CF93DF93EC016111C9
:1004D00008C00E9421026E837F83888799871C86CB
:1004E0001DC00E9421020E811F8128853985601B55
:1004F000710B820B930B0A811B812C813D8160174C
:1005000071078207930758F30E9421026E837F834D
:10051000888799878C8591E089278C878C85DF91E6
:10052000CF911F910F9108950F931F93CF93DF9356
:10053000EC011C86662349F081E08A878B878C85D5
:10054000DF91CF911F910F9108958A85882339F00B
:100550001A860E9421026E837F83888799870E9472
:1005600021020E811F8128853985601B710B820B4A
:10057000930B0A811B812C813D81601771078207D3
:100580009307E8F28B858823D1F21B8681E08C8764
:10059000D6CF0F931F93CF93DF93EC011C8661118D
:1005A00009C081E08A878B878C85DF91CF911F916D
:1005B0000F9108958A85882339F01A860E942102B6
:1005C0006E837F83888799870E9421020E811F8115
:1005D00028853985601B710B820B930B0A811B8167
:1005E0002C813D816017710782079307E8F28B85A4
:1005F0008823D1F21B8681E08C87D6CFCF93C82F7A
:1006000080E090E0892B51F08091C2018C1731F08D
:1006100081E0C11101C080E00E940000C093C201CE
:1006200060E070E0CB01C1110E9421026093C30120
:100630007093C4018093C5019093C60180E090E05F
:10064000892B59F08091C2018C1739F081E0C111DA
:1006500001C080E0CF910C940000CF9108951F93CA
:10066000CF93DF93EC01162F80E090E0892B91F07F
:10067000C830D10579F4662319F10E94000080E0AA
:1006800090E0892BB9F0612FCE01DF91CF911F91BE
:100690000C94000080E090E0892BA9F781E0C1155F
:1006A00094E0D90708F080E0111105C0DF91CF91E7
:1006B0001F91089581E027972297C0F780E0F6CF39
:1006C00080E090E0892BF9F681E0F0CF80E090E0C7
:1006D000892B29F08091D90183FD0C9400000895A5
:1006E000FF920F931F93CF93DF933FB7F8948091BE
:1006F000770290917802A0917902B0917A0226B5A2
:10070000A89B05C02F3F19F00196A11DB11D3FBF49
:10071000BA2FA92F982F8827820F911DA11DB11DD7
:1007200042E0880F991FAA1FBB1F4A95D1F720915D
:10073000650130916601EC01C21BD30B2091A10130
:100740003091A201C217D30708F45FC02091AA011B
:100750003091AB012130310561F0E091D301F0918E
:10076000D40140815091D501452350919F014513FB
:100770004CC090936601809365010091A301109194
:10078000A4012230310509F413C12330310509F4E5
:100790004EC12130310561F480916401813009F44A
:1007A00047C0C8F1833009F482C0843009F4C9C05D
:1007B0008091AA019091AB01019739F1C017D1073F
:1007C00008F06DC1809162018F5F809362018B3070
:1007D000E0F081E090E09093AB018093AA0161E0AA
:1007E00070E08091D1010E948C0010929F011092C4
:1007F000640182E590E09093A4018093A30183E2D9
:1008000090E09093A2018093A101DF91CF911F917D
:100810000F91FF900895C017D10730F481E08093C5
:100820006401C0936301C4CF84E080936401C0CFAE
:10083000C017D107D0F510926401809162018F5FDB
:1008400080936201209163018C2F0C2E000C990B78
:10085000821B910927FD939597FF03C09195819580
:100860009109499794F21092AB011092AA0182E982
:1008700090E09093A4018093A30182E590E090938F
:10088000A2018093A10110926201F090A0016F2D4E
:1008900070E08091D1010E948C008091D50193E09D
:1008A000F91227C080939F0183CF83E0BECFC0178A
:1008B000D10708F51092AB011092AA0182E990E0ED
:1008C0009093A4018093A30182E590E09093A2010C
:1008D0008093A10110926201F090A0016F2D70E051
:1008E0008091D1010E948C008091D50133E0F316F4
:1008F000C9F280E0D7CF9091A001933009F482E053
:100900008093A00182E090E09093AB018093AA01D4
:1009100082E990E09093A4018093A30182E590E0A6
:100920009093A2018093A1011092B0018091620185
:100930008093B1011092AD011092AF011092AE01FF
:10094000CBCFC017D107A8F41092AB011092AA0127
:1009500082E990E09093A4018093A30182E590E066
:100960009093A2018093A101109262011092AD01B7
:100970008CCF82E090E09093AB018093AA0182E952
:1009800090E09093A4018093A30182E590E090937E
:10099000A2018093A1011092B00180916201809325
:1009A000B1011092AD011092AF011092AE016DCF66
:1009B0009091AD019F5F9093AD018091AE01880F42
:1009C000C017D107E0F08093AE01983009F0F6CE61
:1009D000E091B001E630A9F41092AB011092AA01A7
:1009E00082E990E09093A4018093A30182E590E0D6
:1009F0009093A2018093A1011092AD01D9CE8160A4
:100A0000E2CF83E090E09093AB018093AA0181E074
:100A10008E0F8093B0019091AE01F0E0E655FE4F4D
:100A200090878091AF0189278093AF01C1CEC01715
:100A3000D10728F51092AB011092AA011092AD01D6
:100A400082E990E09093A4018093A30182E590E075
:100A50009093A2018093A1018091AF018111B2CE48
:100A600088E0E0EBF1E0A8EBB1E001900D928A950F
:100A7000E1F781E08093AC011092620199CE809100
:100A8000B001863009F4A8CF82E090E09093AB01EA
:100A90008093AA011092AD011092AE0189CE1092FE
:100AA0006201B3CE0F931F93CF93DF93EC010E94AB
:100AB00021020D811E812F813885601B710B820BF5
:100AC000930B0B851C852D853E856017710782076A
:100AD000930730F10E9421026D837E838F83988774
:100AE0008B818F5F8B839F85891302C01B82198640
:100AF0008985882361F09B818881392F36952A85E5
:100B0000321718F461E090FF20C060E01EC08981B8
:100B1000823089F350F48823B1F061E08130A1F094
:100B2000DF91CF911F910F9108958430D9F098F003
:100B30008530B1F76C8188810E94B7018C8191E08A
:100B400089278C83EDCF60E08881DF91CF911F9161
:100B50000F910C94B7018B8165E00E94131E9111D7
:100B6000DFCFE8CF8B8180FDDBCFE4CFCF93DF9366
:100B7000EC016F5F6A8781E089871B820E942102F6
:100B80006D837E838F839887DF91CF910895AF9295
:100B9000BF92CF92DF92EF92FF920F931F93CF936A
:100BA000DF932091800221FF5DC08C0188EE93E0ED
:100BB000689F6001699FD00C11240D2C000CEE0879
:100BC000FF08D0E0C0E088E3B82EBC9E9001BD9E37
:100BD000300D1124F901EE5AFC4F9081892F829536
:100BE00086958695837091819170990F990F982BB6
:100BF000923099F5F901E65AFC4F50815695569579
:100C000056954181642F6295660F607E862F852BF5
:100C100046954695469552815295550F507E952F93
:100C2000942BAC014F5F5F4F0817190731F5F9019D
:100C3000EF5AFC4FC38AD48AE58AF68A82818260A1
:100C40008283AC2EA3946A2D8DE393E00E94B605B7
:100C50006A2D8DE293E00E94B6052196C830D10539
:100C600009F0B3CFDF91CF911F910F91FF90EF90DB
:100C7000DF90CF90BF90AF9008950417150769F7E4
:100C8000F901EF5AFC4FC0A2D1A2E2A2F3A28281E5
:100C90008460D6CF8091DD01882371F01092DD0150
:100CA00063E08DE393E00E94B60563E08DE293E09C
:100CB0000E94B60581E0089580E0089590915A035E
:100CC00096959695969580915B03482F4295440F93
:100CD000407E242F292B86958695869590915C03DE
:100CE0009295990F907E392F382B50E040E088E0A4
:100CF00078E3749FF001759FF00D1124EE5AFC4FBC
:100D00009081692F62956695669563709181917067
:100D1000990F990F962B9250923050F52E5F3F4FBE
:100D20008F5F4F5F5F4F749FF001759FF00D11242F
:100D3000EF5AFC4F91859770622F660F660F660F12
:100D4000962B9187922F929596959770632F660FA9
:100D5000660F660F962B92879385987F632F629517
:100D600066956770962B93874730510511F6089565
:100D70002F5F3F4FD6CFFC01918182818170282F58
:100D8000220F220F96FB882780F9822B8130B1F148
:100D9000942F990F990F990F85818770892B8583DF
:100DA000952F990F990F990F842F829586958770AB
:100DB000892B8683962F990F990F990F852F8295EE
:100DC00086958770892B8783972F990F990F990F95
:100DD000862F829586958770892B8087972F92958D
:100DE000969597708185887F892B8187438B548B5B
:100DF000658B768B40A351A362A373A30895FC0176
:100E00008181982F92959695969593705281852F12
:100E10008170880F880F892B853009F44FC0948525
:100E200096FD03C0222309F449C094859F7B9487D3
:100E3000A185A695A695A6959285B92FB295BB0FCB
:100E4000B07E2B2F2A2B969596959695A385A295E5
:100E5000AA0FA07E3A2F392B8230E9F020F08330A0
:100E600099F0843059F52617370739F591E041118B
:100E700090E0828190FB83F990FB85F9417040FB03
:100E800084F940FB86F90DC0852F53FB85F9982F17
:100E900084FB96F992832617370731F4828140FB51
:100EA00083F9828381E008952F5F3F4F261737072C
:100EB00029F4828140FB84F9F4CF089580E00895FD
:100EC000CF92DF92EF92FF920F931F93CF93DF9316
:100ED000EC01162F042F8091820281FD0BC0C430DB
:100EE000D10509F45BC02497C13028E0D20710F087
:100EF000C0E0D8E00E942102C0905A01D0905B016E
:100F0000E0905C01F0905D016C197D098E099F09EC
:100F1000643F71408105910588F00E942102609331
:100F20005A0170935B0180935C0190935D0181E0B5
:100F30008093DD01D093DC01C093DB018091E3015C
:100F4000811123C0002309F101E0111101C000E06B
:100F500081E5E82E83E0F82E11E020E0402FBE016D
:100F6000C7010E94FF06882351F0612F8DE393E0B3
:100F70000E94B605612F8DE293E00E94B60588E3DA
:100F8000E80EF11C1F5F193041F7DF91CF911F91DF
:100F90000F91FF90EF90DF90CF900895C1E0D0E0E7
:100FA000A9CF2F923F924F925F926F927F928F9232
:100FB0009F92AF92BF92CF92DF92EF92FF920F93E8
:100FC0001F93CF93DF9300D01F92CDB7DEB77C0184
:100FD000909180029C7009F4CBC029836A010E9421
:100FE0005E0620915A0326952695269590915B03DF
:100FF000392F3295330F307E032F022B969596951D
:10100000969520915C032295220F207E122F192B9A
:10101000909180029C70943009F08DC0CA94CD28C4
:1010200009F0A6C0E016F10608F4A2C0282F30E0AF
:10103000A9014150510957FF02C04D5F5F4F5595BF
:101040004795559547954F5F400F512F511DE41619
:10105000F50608F08DC0E01AF10A9E2D990F990F40
:101060004FE050E0092E02C0440F551F0A94E2F7EA
:1010700040955095209160013091610142235323A6
:1010800029812F7030E002C0220F331F9A95E2F7BA
:10109000BA01622B732B7B836A8370936101609327
:1010A000600140905E0150905F0170935F0160931A
:1010B0005E016415750509F45BC0F12CE12C282E46
:1010C000312C4626572666246394712C21E1A22EEA
:1010D00025E0B22E2E143F040CF44AC0C3010E2C9E
:1010E00002C0880F991F0A94E2F784219521892B69
:1010F000F1F08A819B810E2C02C0969587950A9407
:10110000E2F7782F717079834701800E911E81E597
:10111000C82E83E0D82E21E04981B401C6010E9487
:10112000FF0688E3C80ED11CAC14BD04A1F79FEFE5
:10113000E91AF90ACFCF9830A9F4E016F106C1F404
:1011400031E0C316D10471F062E0C616D10461F03B
:1011500073E0C716D10451F094E0C916D10441F4EC
:101160009CE07ECF90E07CCF94E07ACF98E078CF7F
:101170000F900F900F90DF91CF911F910F91FF90E3
:10118000EF90DF90CF90BF90AF909F908F907F9027
:101190006F905F904F903F902F900895CF93DF9383
:1011A000EC018A8185788B7F8A83881F8827881F36
:1011B0009B819F70990F60E0892B0E94B7019B81F2
:1011C00092959F708C8181708295807F60E0892BE1
:1011D0000E94B7018B8560E08695869586950E9472
:1011E000B7018C8560E08F71DF91CF910C94B701CE
:1011F0000E94FE02E0ECF1E081E087831086E9ECDA
:10120000F1E088E0DF011D928A95E9F708951F93C8
:10121000CF93DF93EC01162F83319105C8F4813110
:10122000910528F48130910511F0099731F48FEF81
:101230009FEF9093D7018093D60180E090E0892BB7
:10124000A9F0612FCE01DF91CF911F910C94000086
:101250004D9799F7177F1093D9018091C0018F7333
:10126000912F907C892B8093C001E1CFCE010E9409
:10127000FD1D1817A1F080E090E0892B21F0612F6F
:10128000CE010E94000080E090E0892B41F0809127
:10129000C00184FD04C0612FCE010E940000CE0178
:1012A000DF91CF911F910C94FD1D20E030E0232BA6
:1012B00011F00C9400000C94FD1DBF92CF92DF92B0
:1012C000EF92FF920F931F93CF93DF938B01B42E76
:1012D000690182FF23C083FF17C061E0C8010E943B
:1012E0002F038823D9F16B2DC8010E9407098B11A8
:1012F00035C0F601DF91CF911F910F91FF90EF90D4
:10130000DF90CF90BF90099460E0C8010E942F0346
:10131000882321F1C8010E945509E9CF842F8770E5
:10132000C1E0D0E07E0101C0EE0C8A95EAF7D42F2F
:10133000D870CB010E945509C82FB4FE1CC061E0D3
:10134000C8010E942F03882349F0DD2389F0CE29AC
:101350006C2FC8010E9407098C1759F2DF91CF91B9
:101360001F910F91FF90EF90DF90CF90BF90089565
:10137000E094CE21EDCF60E0C8010E942F038823C6
:1013800069F3CE21DD2319F0C111B3CFE7CFCC2310
:1013900009F4AFCFE3CFCF92DF92EF92FF920F939A
:1013A0001F93CF937C016B01C42F402F8C2F807E25
:1013B000803609F46FC080F4803209F44EC0803466
:1013C00009F468C08823B9F1CF911F910F91FF9064
:1013D000EF90DF90CF900895803A09F492C088F49E
:1013E0002C2F2F7141E050E0803871F7B601C70112
:1013F000CF911F910F91FF90EF90DF90CF900C94C1
:10140000D107803C09F486C0803EF1F66C2F70E075
:10141000762F662766277370622B6F5F7F4F26E6F5
:1014200033E08C2FCF911F910F91FF90EF90DF90C1
:10143000CF900C945D098C2F8E7031F680E090E097
:10144000892B11F28C2F8170CF911F910F91FF90FA
:10145000EF90DF90CF900C940000CF71CF3109F066
:10146000B3CF80E090E0892B09F4AECF422F4F77C5
:1014700069F0413069F0221F2227221F30E00FE778
:1014800010E0B601C7010E9400009ECF41E0F3CFFB
:1014900040E0F1CF80E090E0892BC1F02C2F30E0CC
:1014A0008C2F8F71813029F030F0803121F0813123
:1014B000F1F440E001C041E025FB222720F90DE1D5
:1014C00010E030E0B601C7010E94000080E090E02B
:1014D000892B09F479CF4C2FB601C701CF911F9109
:1014E0000F91FF90EF90DF90CF900C940000C90116
:1014F000880F991F8E71C4FB442740F9482B425036
:10150000DBCF2C2F2F7043E050E0C4FF6FCF42E0C1
:1015100050E06CCFCF71CE3131F0CF3109F054CFE4
:1015200045E050E063CF44E050E060CFCF93DF93DD
:101530002091D6013091D7012F3F320721F0C90108
:10154000DF91CF9108958091D90187FF2BC086FF4D
:101550000FC089E090E00E945509C82F81E090E01B
:101560000E9455099C2F9093D7018093D60115C0F6
:1015700089E090E00E945509C82F81E090E00E9428
:10158000550990E4C99F90011124207C31708F731C
:10159000282B3093D7012093D6018091D6019091CA
:1015A000D701CECF85FF0CC081E190E00E945509A4
:1015B000C82F82E190E00E945509C05CDD0BD2CFBC
:1015C00081E090E00E94550990E0CDCF0E944D1E31
:1015D000CF93DF93EC0161E088810E94E50160E038
:1015E00088810E94B7014DE050E069E471E083E832
:1015F00092E00E94350242E050E067E571E083E846
:1016000092E0DF91CF910C943502FF920F931F93DC
:10161000CF93DF93EC01F62E08811981C8010E9457
:10162000FD1DF81621F06F2DC8010E94051ECE0188
:10163000DF91CF911F910F91FF9008950F931F930A
:10164000CF93DF9300D0CDB7DEB788E390E09A83E5
:10165000898300E812E0F8016081CE0101960E94C2
:10166000050B89E390E09A838983F8016181CE01BB
:1016700001960E94050B8AE390E09A838983F80122
:101680006281CE0101960E94050BC8010F900F9058
:10169000DF91CF911F910F9108958F929F92AF92FA
:1016A000BF92CF92DF92EF92FF920F931F93CF934F
:1016B000DF9300D0CDB7DEB707E611E0680150E058
:1016C00040E0B7E0EB2E88E3F82E96E0E49EF001D0
:1016D000E59EF00D1124E959FE4FF49E9001F59E10
:1016E000300D1124B9016E5A7C4FDB016C9162956B
:1016F00066956695637011968C918170880F880F3E
:10170000682B8081887FD901AD5ABC4F7C91862B94
:1017100075FB83F976FB84F9B9016B5A7C4FDB01C9
:101720006C9166956F71969FB00111246B5E7D4F31
:10173000DB0115966C91762F7295770F707E8F7105
:10174000872B8083669566956695D901A65ABC4F0E
:101750008C91B82EB694B694B69411967C91872F3E
:101760008295880F807E8B29769576957695B82E12
:10177000B294A0EFBA226F706B2961837295707F6B
:1017800082958F70872B8283F901EA5AFC4F208162
:101790002695269526958181382F3295330F307EF8
:1017A000832E822A282F2695269526958281382FEA
:1017B0003295330F307E932E922A282F2695269528
:1017C00026958381382F3295330F307EA32EA22A9F
:1017D00086958695869524812295220F207EB22EAD
:1017E000B82AAA24BB24F60183829482A582B682F9
:1017F0004F5F5F4FF7E0CF0ED11C4830510509F025
:1018000065CFF12CE12CFA82E982D8016D918D012E
:10181000CE0101960E94050BBFEFEB1AFB0AE8E32D
:10182000EE16F10481F70F900F90DF91CF911F9189
:101830000F91FF90EF90DF90CF90BF90AF909F906F
:101840008F9008951F920F920FB60F9211242F932D
:101850003F938F939F93AF93BF9380917C0290911E
:101860007D02A0917E02B0917F0230917B0223E045
:10187000230F2D3758F50196A11DB11D20937B0232
:1018800080937C0290937D02A0937E02B0937F02AE
:101890008091770290917802A0917902B0917A02BA
:1018A0000196A11DB11D8093770290937802A093B9
:1018B0007902B0937A02BF91AF919F918F913F913E
:1018C0002F910F900FBE0F901F90189526E8230FB1
:1018D0000296A11DB11DD2CF1F920F920FB60F928B
:1018E00011242F933F934F935F936F937F938F9325
:1018F0009F93AF93BF93EF93FF93E0910301F09118
:1019000004010995FF91EF91BF91AF919F918F9144
:101910007F916F915F914F913F912F910F900FBEEB
:101920000F901F9018951F920F920FB60F921124CF
:101930002F933F934F935F936F937F938F939F93D7
:10194000AF93BF93EF93FF93E0910101F0910201F8
:101950000995FF91EF91BF91AF919F918F917F91E9
:101960006F915F914F913F912F910F900FBE0F900C
:101970001F9018951F920F920FB60F9211242F935C
:101980003F934F935F936F937F938F939F93AF9307
:10199000BF93EF93FF9383E892E00E94EB00FF91E7
:1019A000EF91BF91AF919F918F917F916F915F91D7
:1019B0004F913F912F910F900FBE0F901F90189550
:1019C0001F920F920FB60F9211242F938F939F9314
:1019D000EF93FF93E0919302F09194028081E09164
:1019E0009902F0919A0282FD1BC0908180919C0225
:1019F0008F5F8F7320919D02821741F0E0919C02CE
:101A0000F0E0ED57FD4F958F80939C02FF91EF9191
:101A10009F918F912F910F900FBE0F901F9018954F
:101A20008081F4CF109286021092850288EE93E0B6
:101A3000A0E0B0E08093870290938802A09389028F
:101A4000B0938A0289E291E09093840280938302AA
:101A500085EC90E09093900280938F0284EC90E06C
:101A6000909392028093910280EC90E09093940284
:101A70008093930281EC90E090939602809395027C
:101A800082EC90E0909398028093970286EC90E02D
:101A900090939A028093990210929C0210929D0258
:101AA00010929E0210929F02E1E5F3E041E155E0C1
:101AB00081E021E431E067E471E0838F848F328B31
:101AC000218B80A781A7378F268F85AB86AB74A724
:101AD00063A79385986F938794859F619487F89601
:101AE0004E175F0751F710924F031092500348E7CB
:101AF00050E060E070E040934803509349036093E6
:101B00004A0370934B0390E190934C0324E020939D
:101B10003D03409338035093390360933A03709325
:101B20003B0390933C039DE090932D0380932A0305
:101B300080932B038BE391E0909321038093200308
:101B40000895CF93DF9300D000D000D0CDB7DEB79B
:101B5000789484B5826084BD84B5816084BD85B588
:101B6000826085BD85B5816085BD80916E00816094
:101B700080936E001092810080918100826080933A
:101B8000810080918100816080938100809180003C
:101B90008160809380008091B10084608093B10067
:101BA0008091B00081608093B00080917A00846061
:101BB00080937A0080917A00826080937A0080918D
:101BC0007A00816080937A0080917A0080688093A7
:101BD0007A001092C10088EE93E0A0E0B0E080931C
:101BE000220390932303A0932403B093250362E080
:101BF00088E00E94E50188E080934E0310924D0337
:101C000075E0872E71E0972E8401D8018C910E5FCC
:101C10001F4F61E00E94E501B1E005321B07A9F703
:101C20008DE393E00E94E80A8DE293E00E94E80AC7
:101C30008CEF93E00E94FD1D89838DEF93E00E945D
:101C4000FD1D8A838EEF93E00E94FD1D8B838FEF35
:101C500093E00E94FD1D8C8389819A81AB81BC81B8
:101C60008F3E9E4BAD4ABE4D09F49DC08FEE9EEB5C
:101C7000ADEABEED89839A83AB83BC839E012F5F5F
:101C80003F4F79010CEF13E01E830D83D7016D9157
:101C90007D01CE0105960E94050B0F5F1F4F0115B8
:101CA000B4E01B0789F710928002109281028091A4
:101CB00082028260809382020E941E0B31E5C32E55
:101CC00033E0D32EF12CE12C48E3542E56E0652E60
:101CD0006AE0762E5E9C50015F9CB00C1124850159
:101CE0000F5A1C4FF80181818F73818382818E7F0F
:101CF000828342E350E060E070E0C6010E94BB06D0
:101D0000FFEFEF1AFF0A9E2D990F990F990FD80137
:101D100019968C9119978770892B19968C9319971E
:101D20009F2D990F990F990F8E2D8295869587700B
:101D3000892B1A968C931A979F2D9295969597704A
:101D40001B968C911B97887F892B1B968C93F50192
:101D5000EB5AFC4F8081A82FA695AF716A9ED001E7
:101D60001124AB5EBD4F15967C9282958695869523
:101D70008370E181E770EE0FEE0FE82B6E9EF001AD
:101D80001124EB5EFD4F7582F80182818F7D8F7B80
:101D90008283F8E3CF0ED11C28E0E216F10409F0AB
:101DA00099CF0E944D0B88E390E00E94FD1D809327
:101DB000800289E390E00E94FD1D809381028AE306
:101DC00090E00E94FD1D8093820227E6222E21E0F2
:101DD000322E710110E000E0C8010E94FD1DD70104
:101DE0008D937D010F5F1F4F08331105A9F7809177
:101DF0005C038770806780935C0380915D03807EC5
:101E00008F6080935D0380919403877080688093D6
:101E1000940380919503807E8161809395038091E6
:101E2000CC03877080698093CC038091CD03807E42
:101E300083618093CD0380910404877080930404B0
:101E400080910504807E81608093050481E5A82E41
:101E500083E0B82EF12CE12C98EE492E93E0592E18
:101E6000612C712CB8E3BE9D6001BF9DD00C112484
:101E700086010F5A1C4FE7E0EE9DC001EF9D900DCB
:101E80001124FC01E959FE4F3081432F4295440F44
:101E9000440F407CD80111962C9111972F73242B5D
:101EA00011962C93119732FB442740F912962C91EE
:101EB00012972E7F242B33FB25F934FB26F912963B
:101EC0002C9332953695377021812F70220F220F77
:101ED000220F232BF601EB5AFC4F3081A32FA6953E
:101EE000AF7146E04A9FD0011124AB5EBD4F1596FD
:101EF0002C933295369536953370E181E770EE0F6D
:101F0000EE0FE32B4E9FF0011124EB5EFD4F258376
:101F1000FC01E859FE4F8081282F22952F70918176
:101F2000892F8295807F822B382F330F330F330F09
:101F3000D80119962C9119972770232B19962C9359
:101F4000199792959F70990F990F990F8295869581
:101F50008770892B1A968C931A971B968C911B97D6
:101F6000887F1B968C93F101438154816581768132
:101F7000C5010E94BB06D40112969C9112978C91C8
:101F8000F801228180FB27F922838695292F22954B
:101F9000207F8F70822B83839295917084818E7FB6
:101FA000982B9483D5019D964D925D926D927C9273
:101FB000D097F601EE5AFC4F8081982F9295969516
:101FC0009695937081818170880F880F892B982F47
:101FD000957011F0843011F5B8E3BE9D8001BF9D6E
:101FE000100D1124F801ED5AFC4F9081991F99278B
:101FF000991F81818F70880F60E0892B0E94B70143
:10200000F801EC5AFC4F908192959F70818181700C
:102010008295807F60E0892B0E94B701E8E3EE9D06
:102020008001EF9D100D1124F801EE5AFC4F8081C4
:10203000982F929596959695937081818170880FCF
:10204000880F892B8430F1F498012D5A3C4F690197
:10205000D9016C9165FB662760F9F801E45AFC4FE1
:1020600080818695869586950E94B701F6016081EC
:1020700066FB662760F9F801E35AFC4F80818F7197
:102080000E94B70128E32E9DF0012F9DF00D112431
:10209000DF01AE5ABC4F9C9111968C918170282F14
:1020A000220F220F96FB882780F9822B813069F45A
:1020B000DF01AD5ABC4F9C91EF5AFC4F828195FBDA
:1020C00083F9982F86FB94F992833FEFE31AF30A82
:1020D00047E0240E311C58E3A50EB11C84E0880EA5
:1020E000911C98E0E916F10409F0BCCE1092D101E0
:1020F00082E08093D201E8E8F0E0E491F0E0EE0FB6
:10210000FF1FE859FF4F859194919093D4018093DC
:10211000D301ECE9F0E0E491E093D50160E082E0E6
:102120000E94E501EAEAF1E086E1DF011D928A956D
:10213000E9F782E990E09093A4018093A30182E5FE
:1021400090E09093A2018093A10180EC8093C00164
:102150001092C1018FEF9FEF9093D7018093D6012A
:102160001092D80183E08093A0018091D5018093E3
:102170009F0163E070E08091D1010E948C008DE1AD
:1021800090E00E945509682F606C8DE190E00E94FC
:1021900007098093D9016BE087E090E00E9407096E
:1021A0006DE088E090E00E94070980E00E94F80856
:1021B00008EEA02E03E0B02E18E355245394B0E0AF
:1021C0002B2EB0E03B2E80915203982F929596953E
:1021D00096959370809153038170880F880F892B97
:1021E00048E0843009F444E021E030E050E0241776
:1021F0003507C4F4129FF001139FF00D1124EE5A1D
:10220000FC4F9081692F6295669566956370918108
:102210009170990F990F962B891303C02F5F3F4F31
:10222000E6CF8FEFE091E301E11101C1823009F4C3
:10223000F6C040F4882389F08130B9F0509247030A
:1022400082E023C1833009F4EDC08430B9F75092A5
:102250003E0382E0809337030AC05092470382E036
:1022600080933E035092370302C080933E038093D5
:102270002E038DE393E00E9452058DE293E00E94CD
:1022800052050E942102C090A601D090A701E090C3
:10229000A801F090A9016C157D058E059F0509F434
:1022A00086C06093A6017093A7018093A8019093C4
:1022B000A9018091A5018111F5C090911902913079
:1022C00009F0ECC09091180220911F02213019F4FE
:1022D00020911E02922B20912502213019F4209189
:1022E0002402922B20912B02213019F420912A02F2
:1022F000922B20913102213019F420913002922B3F
:1023000020913702213009F0CBC020913602309164
:102310003D02313019F430913C02232B30914302BD
:10232000313019F430914202232B3091490231307F
:1023300019F430914802932B30914F02313019F447
:1023400030914E02932B30915502313011F480912F
:10235000540230915B02313019F430915A02832BD0
:1023600030916102313019F430916002832B309149
:102370006702313019F430916602832B30916D027F
:10238000313019F430916C02832B3091730231306B
:1023900019F430917202832B9BB925B988B98091C9
:1023A000A5018F5F8A3009F45EC18093A5018091F9
:1023B000C2018823B1F00E942102C090C301D090D5
:1023C000C401E090C501F090C6016C197D098E0929
:1023D0009F09653171058105910518F080E00E9423
:1023E000F8088091AC01882309F45FC1F89488E073
:1023F000E8EBF1E0A1E1B5E001900D928A95E1F7FB
:102400001092AC01789480911105E82FF0E0ED5E18
:10241000FA4F863008F02AC111928F5FFACF1092DE
:102420003E0320CF10923E0350922E0322CFE15064
:10243000EB3008F01ECFF0E0E05EFD4E0C94331E52
:102440001E11301234121E11421240123A1248125A
:102450003E124C122B1210923E0310922E0309CF03
:102460005092470382E003C082E080934703809349
:102470003E03F3CF83E080934703F4CF84E0FBCFA8
:1024800085E0F9CF82E08093470380933E03CCCF71
:1024900083E080934703D4CE84E0FBCF90E014CF59
:1024A00020E035CF90911A0289130AC0E0911602FC
:1024B000F0911702208190911802909592239083B9
:1024C0009091200289130AC0E0911C02F0911D0234
:1024D000208190911E0290959223908390912602E4
:1024E00089130AC0E0912202F09123022081909189
:1024F000240290959223908390912C0289130AC014
:10250000E0912802F0912902208190912A02909571
:10251000922390839091320289130AC0E0912E0297
:10252000F0912F0220819091300290959223908318
:102530009091380289130AC0E0913402F09135027B
:1025400020819091360290959223908390913E0243
:1025500089130AC0E0913A02F0913B0220819091E8
:102560003C029095922390839091440289130AC073
:10257000E0914002F09141022081909142029095B9
:102580009223908390914A0289130AC0E0914602F7
:10259000F091470220819091480290959223908378
:1025A0009091500289130AC0E0914C02F0914D02C3
:1025B000208190914E0290959223908390915602A3
:1025C00089130AC0E0915202F09153022081909148
:1025D000540290959223908390915C0289130AC0D3
:1025E000E0915802F0915902208190915A02909501
:1025F000922390839091620289130AC0E0915E0257
:10260000F0915F02208190916002909592239083D7
:102610009091680289130AC0E0916402F09165020A
:1026200020819091660290959223908390916E0202
:1026300089130AC0E0916A02F0916B0220819091A7
:102640006C02909592239083909174028913A7CE87
:10265000E0917002F09171029081809172028095F8
:10266000892380839CCE1092A501A1CEE0E0F0E00A
:10267000EF2B21F081E195E00E940000809113058D
:102680008111BBC0909114059111B7C080E090E01A
:10269000892B19F080E00E9400008091C2018823FC
:1026A00009F4A7C081E00E94FE0280910D02811111
:1026B00002C050920D0280910402811102C050921A
:1026C00004028091FB01811102C05092FB018091B4
:1026D000F201811102C05092F2018091E901811151
:1026E00002C05092E9010E942102C090E401D09002
:1026F000E501E090E601F090E7019B01AC012C19A7
:102700003D094E095F0969017A0134E1C316D1041C
:10271000E104F10408F442C06093E4017093E50120
:102720008093E6019093E70120914E0330E0F90198
:10273000E255FF4F8491F901E656FF4FF490F901FD
:10274000EA57FF4F0491002309F476C281110E94D9
:102750008E01E02FF0E0EE0FFF1FE859FF4FA5912B
:10276000B491EC91FE2231E020E009F430E0832FB7
:10277000922F282F217030914F0323130DC03091D9
:102780005003231709F45DC220935003892B09F4E9
:1027900056C283E080934D0320934F0300914D0375
:1027A000033011F450924D0380914D03823011F4A7
:1027B00010924D03023039F48091E301882319F01F
:1027C0001092E30100E0E091E301EC3008F054C224
:1027D000F0E0E351FC4E0C94331E291668179E1747
:1027E000EA17BC170818B019661884181B1939198C
:1027F000821681E00E94F80858CF9091C201992377
:1028000009F492C08057803108F08BC081E00E94AB
:10281000FE02009111058091C90108130AC0402FE2
:1028200050E06BEC71E083E195E00E94521E892B31
:1028300061F01092C80188E0E1E1F5E0A9ECB1E0B7
:1028400001900D928A95E1F730CF8091C8018F5F9A
:102850008093C801033009F04CC090911305892F73
:10286000877000911405853051F40093C70180E012
:1028700090E0892B09F419CF0E94000016CFFDE1EA
:10288000EF2EF12C8430A9F0282F30E0843008F5A9
:10289000E090C701EE20E9F04E2D4150550B7A0132
:1028A000EE0CFF1CEE0CFF1CE20EF31E5FEFE51AB0
:1028B000F50A93FF13C061E0C7010E942F0388232C
:1028C00009F4F3CE602FC7010E9407090813EDCE6B
:1028D000CECF79018FEFE81AF80AEBCF60E0C7019D
:1028E0000E942F03882309F4E0CEC7010E945509F6
:1028F000EDCF043009F0D9CE80911305682F70E038
:10290000762F66276627737090911405692B6F5F89
:102910007F4F2DE232E0409115058C700E945D09D9
:10292000C4CE80E00E94F808E0911305EF3F59F40F
:10293000809114058111B9CE2114310409F4B5CE6A
:102940000E940000B2CEE7FD0DC000911605209157
:1029500015054091140570E060E08E2F90E00E9414
:10296000CB09A3CEE03C08F056C19091C00197FF7F
:102970009CCE80911405282F30E07901E094F094EA
:10298000EE0CFF1CEE0CFF1CA0ECEA22A1E0FA22E8
:10299000EF73EE2A35952795022F037020911105CC
:1029A000253059F58C788C3041F50E94960A8E15A9
:1029B0009F0531F0BFEFEB16B1E0FB0609F075CED5
:1029C000E0901405F12CFE2CEE24EE24E3E0FE2230
:1029D00080911505E80EF11CFFEFEF1AFF0A009138
:1029E000160561E0C7010E942F03602F882309F4B8
:1029F0005CCEC7010E94070958CE470121E0821A28
:102A00009108880C991C880C991C802A64013FEF5E
:102A1000C31AD30A8091D8018823F9F096FF3DC0EC
:102A2000C60160E071E00E941F1E682F81E090E007
:102A30000E940709C601D7FE02C081509F4F692F2F
:102A400089E090E00E94070940E050E0452B19F032
:102A5000C6010E9400001092D8018091C00180FD43
:102A600035C080911105843009F04BC08091140568
:102A70008978813009F019CE60911505C6010E9450
:102A8000C705E0E0F0E0EF2B09F40FCE409115050B
:102A9000602FC6010E94000008CEB7016F73772730
:102AA00081E090E00E940709B70136E075956795CF
:102AB0003A95E1F789E090E00E94070980E090E014
:102AC000892B49F2C7010E940000C5CF86FF0CC0C8
:102AD0000E94960A8C159D0521F29DEFC91697E07C
:102AE000D9060CF0BECFE1CD0E94960A8E159F0547
:102AF00009F4B7CFAFEFEA16A1E0FA0609F4B1CFB7
:102B0000D4CD833041F540911405F42FF1708F2E10
:102B100043FB992490F820E030E0232B31F04770FC
:102B2000292DB701C6010E9400008091C00186FFD7
:102B300006C0492D682DC6010E946007B6CD40E051
:102B400050E0452B09F4B1CD292D482D602FC70148
:102B50000E940000AACD863009F0A7CD809114050F
:102B6000982F9978913021F08F78803809F09DCD99
:102B70008091C00186FF29C00E94960A8C159D0590
:102B8000F1F48091150590E0382F22272227337029
:102B9000E0901605E20EF32EF11C5FEFE51AF50A40
:102BA0000091170595958795959587958370992739
:102BB00082309105A9F0039709F413CF76CD8DEFFC
:102BC000C81687E0D806ECF670CD0E94960A8E15DE
:102BD0009F05B9F29FEFE91691E0F90691F265CDF4
:102BE00004FF63CD61E0C7010E942F03882309F42D
:102BF0005CCDC7010E945509902F977061E070E08D
:102C000001C0660F9A95EAF703FF02C0682BF1CE68
:102C100060956823EECEE83E08F047CDE05CFF0B00
:102C20008091140500911705209116054091150516
:102C300061E070E09E2F93CE90E080E09ACD82E03C
:102C4000A9CD892B19F050924D03A6CD10924D03BA
:102C5000A3CD023089F40E9421026093DF017093BA
:102C6000E0018093E1019093E2018BE08093E30126
:102C70005092DE011092DD018091000181110AC0A5
:102C80000E942102683873418105910508F49AC7B2
:102C90005092000180910001813009F093C7C090EB
:102CA0007602EC2CF12C1E9D40011F9D900C1124EE
:102CB000F401EE5AFC4F8081982F92959695969547
:102CC000937081818170880F880F892B853009F07E
:102CD0006AC587E480937C0080917A008064809349
:102CE0007A0080917A0086FDFCCF809178009091E7
:102CF0007900809176028F5F883008F07BC78093DF
:102D0000760260C70E942102C090DF01D090E001EE
:102D1000E090E101F090E201AB01BC014C195D09CA
:102D20006E097F0991E0423051056105710508F493
:102D300090E080910C028E7F80930C0281FB222711
:102D400020F9921731F08E7F892B90FB81F98093C7
:102D50000C0280910C0280FF07C05092DE0161E0FE
:102D60008DE393E00E94B6050E942102AB01BC01F5
:102D70004C195D096E097F0991E0413D574061059D
:102D8000710508F490E0809103028E7F8093030226
:102D900081FB222720F9921731F08E7F892B90FB3F
:102DA00081F9809303028091030280FF08C083E0D1
:102DB0008093DE0162E08DE393E00E94B6050E94FD
:102DC0002102AB01BC014C195D096E097F0991E03C
:102DD000413A5F406105710508F490E08091FA0185
:102DE0008E7F8093FA0181FB222720F9921731F020
:102DF0008E7F892B90FB81F98093FA018091FA01F3
:102E000080FF08C087E08093DE0163E08DE393E0FC
:102E10000E94B6050E942102AB01BC014C195D095C
:102E20006E097F0991E0413757416105710508F44A
:102E300090E08091F1018E7F8093F10181FB222748
:102E400020F9921731F08E7F892B90FB81F98093C6
:102E5000F1018091F10180FF08C089E08093DE01DB
:102E600064E08DE393E00E94B6050E942102AB016D
:102E7000BC014C195D096E097F0991E041345F4145
:102E80006105710508F490E08091E8018E7F8093E0
:102E9000E80181FB222720F9921731F08E7F892BE0
:102EA00090FB81F98093E8018091E80180FF08C0E0
:102EB00086E08093DE0165E08DE393E00E94B60535
:102EC0008091DE01033009F0D7CE8093E301D4CEA8
:102ED0008091800280FF03C082E08093E3010E9422
:102EE0004A06882309F4C8CE2091DB013091DC0129
:102EF000922F990F990F990F80915A038770892B00
:102F000080935A03932F990F990F990F822F8295CF
:102F100086958770892B80935B03932F9295969566
:102F2000977080915C03887F892B80935C030E945B
:102F30005E060E944D0B1092E3019ECE0E944A064F
:102F4000882309F499CE8091DB019091DC01892BD3
:102F500079F08091DB019091DC01099758F4809120
:102F6000DB019091DC0181508093DA0184E0ADCFE8
:102F700080E0FACF87E0F8CF0E944A06882309F460
:102F80007BCE2091DB013091DC01E091DA011E9FC4
:102F9000F0011124EF5AFC4F922F990F990F990FBE
:102FA00081858770892B8187932F990F990F990FAE
:102FB000822F829586958770892B8287932F929591
:102FC000969597708385887F892B83870E944D0B08
:102FD00082E07BCF0E944A06882309F44DCE80917F
:102FE000DB019091DC01892B79F08091DB019091DC
:102FF000DC01099758F48091DB019091DC0181504C
:103000008093DA0185E061CF80E0FACF87E0F8CFE6
:103010000E944A06882309F42FCE8091DB0190910B
:10302000DC01892B09F44EC08091DB019091DC0119
:10303000069708F049C08091DB019091DC019FEF79
:10304000980F0091DA01202F30E0129FF001139FBA
:10305000F00D1124EF5AFC4F81818F73492F429557
:10306000440F440F407C842B818392FB442740F91A
:1030700082818E7F842B82830430B8F49430A9F44B
:1030800087E090E0821B930B189FF001199FF00DD1
:103090001124EF5AFC4F81818F7380648183828178
:1030A00081608283CF010E94CE08019FC00111245C
:1030B0008F5A9C4F0E94CE080E945E060E944D0BC4
:1030C00083E003CF90E0BDCF94E0BBCF0E944A06DF
:1030D000882309F4D1CD8091DB019091DC01892B0B
:1030E00079F08091DB019091DC010A9758F480918E
:1030F000DB019091DC0181508093DA0188E0E5CE1C
:1031000080E0FACF88E0F8CF0E944A06882309F4CD
:10311000B3CD8091DB019091DC01892BD9F18091B5
:10312000DB019091DC01853F9140B8F58091DB0196
:103130009091DC019093DC018093DB01E091DA0156
:10314000E830C8F5E19FF0011124CF018F5A9C4F60
:10315000EE5AFC4F2081322F3295369536953370DA
:1031600021812170220F220F232B2230C9F42091BC
:10317000DB013091DC012A9DA0012B9D500D3A9D71
:10318000500D112470E060E00E94BB060E944D0BC0
:1031900087E09BCE81E090E0CDCF84EF91E0CACF75
:1031A0002091DB013091DC016AE0629FA001639F06
:1031B000500D1124E7CFA1E5CA2EA3E0DA2EF12CA1
:1031C000E12C0AE01E9DF0011F9DF00D1124EE5A26
:1031D000FC4F8081982F929596959695937081815A
:1031E0008170880F880F892B8230D9F48091DB01A0
:1031F0009091DC018A9DA0018B9D500D9A9D500DF0
:10320000112470E060E0C6010E94BB062FEFE21AB5
:10321000F20A38E3C30ED11C48E0E416F10491F63B
:10322000B5CF8091DB019091DC01089FA001099F3F
:10323000500D1124E6CF0E944A06882309F41CCDC4
:103240008091DB019091DC01892B79F08091DB0189
:103250009091DC010A9758F48091DB019091DC0198
:1032600081508093DA018AE030CE80E0FACF88E0A6
:10327000F8CF0E944A06882309F4FECC8091DB0136
:103280009091DC01892BE1F18091DB019091DC01CF
:103290000B97C8F58091DB019091DC019093DC01E4
:1032A0008093DB01E091DA0190E080E046E0E830D5
:1032B00068F52091DB013091DC011E9FF0011124A3
:1032C000EB5AFC4F8081A82FA695AF7196E09A9F8C
:1032D000D0011124AB5EBD4F15962C93382F32953B
:1032E00036953695337081818770880F880F832BD0
:1032F000989FF0011124EB5EFD4F258389E0E5CD19
:1033000081E090E0CBCF8AE090E0C8CF2091DB0154
:103310003091DC01189FF001199FF00D1124EB5A38
:10332000FC4F3081A32FA695AF714A9FD001112485
:10333000AB5EBD4F15962C9332953695369533700E
:10334000E181E770EE0FEE0FE32B4E9FF0011124A9
:10335000EB5EFD4F2583019688309105B9F6CECFFF
:103360000E944A06882309F487CC8091DB01909162
:10337000DC01019709F048C0E1E58E2EE3E09E2EC6
:10338000D12CC12CF6E07F2E0AE01C9D70011D9D02
:10339000F00C1124F701EF5AFC4F81818F73818368
:1033A00082818E7F828342E350E060E070E0C4015E
:1033B0000E94BB06F701EB5AFC4F8081A82FA6950F
:1033C000AF717A9ED0011124AB5EBD4F15960C9360
:1033D0008295869586958370E181E770EE0FEE0FFA
:1033E000E82B7E9EF0011124EB5EFD4F0583C401A6
:1033F0000E94CE085FEFC51AD50A88E3880E911C9B
:1034000098E0C916D10409F68091DB019091DC01A6
:10341000029709F048C061E5C62E63E0D62EF12C74
:10342000E12C76E0972E0AE01E9DF0011F9DF00D25
:103430001124DF01AF5ABC4F11968C9111978F73F5
:10344000806411968C93119712968C9112978E7FAF
:1034500012968C93EB5AFC4F8081A82FA695AF71E2
:103460009A9ED0011124AB5EBD4F15960C938295A8
:10347000869586958370E181E770EE0FEE0FE82B5D
:103480009E9EF0011124EB5EFD4F0583C6010E9454
:10349000CE08AFEFEA1AFA0AB8E3CB0ED11CE8E087
:1034A000EE16F10409F68091DB019091DC0103979F
:1034B00009F04AC041E5842E43E0942ED12CC12C62
:1034C00056E0752E0AE01C9D70011D9DF00C112424
:1034D000F701EF5AFC4F81818F738068818382816D
:1034E0008E7F828348E853E160E070E0C4010E946F
:1034F000BB06F701EB5AFC4F8081A82FA695AF7150
:103500007A9ED0011124AB5EBD4F15960C93829527
:10351000869586958370E181E770EE0FEE0FE82BBC
:103520007E9EF0011124EB5EFD4F0583C4010E94D5
:10353000CE08FFEFCF1ADF0A28E3820E911C38E095
:10354000C316D10409F0BFCF8091DB019091DC015B
:10355000049709F047C021E5C22E23E0D22EF12CBA
:10356000E12C36E0932E0AE01E9DF0011F9DF00D28
:103570001124DF01AF5ABC4F11968C911197806CCA
:1035800011968C93119712968C9112978E7F1296AA
:103590008C93EB5AFC4F8081A82FA695AF719A9E11
:1035A000D0011124AB5EBD4F15960C938295869584
:1035B00086958370E181E770EE0FEE0FE82B9E9EFB
:1035C000F0011124EB5EFD4F0583C6010E94CE0879
:1035D0004FEFE41AF40A58E3C50ED11C88E0E81650
:1035E000F10411F68091DB019091DC01059709F05F
:1035F0005EC081E5C82E83E0D82EF12CE12C96E048
:10360000792E0AE01E9D40011F9D900C1124F401AB
:10361000EF5AFC4F81818F73818382818160828325
:1036200042E350E060E070E0C6010E94BB06F40196
:10363000EB5AFC4F8081A82FA695AF717A9ED001DE
:103640001124AB5EBD4F15960C9382958695869599
:103650008370E181E770EE0FEE0FE82B7E9EF001A4
:103660001124EB5EFD4F0583C6010E94CE08C70101
:103670000496189FF001199FF00D1124EF5AFC4F8A
:1036800081818F7380648183828181608283C6019E
:1036900080529F4F0E94CE089FEFE91AF90AA8E3D3
:1036A000CA0ED11CB4E0EB16F10409F0ABCF809147
:1036B000DB019091DC01449729F4809180028E7F98
:1036C000809380028091DB019091DC01459729F481
:1036D000809180028160809380028091DB019091D3
:1036E000DC014E9729F4809180028D7F80938002C7
:1036F0008091DB019091DC014F9729F48091800249
:103700008260809380028091DB019091DC01889738
:1037100029F480918002837F809380028091DB0175
:103720009091DC01899731F480918002837F8860D9
:10373000809380028091DB019091DC018A9731F4C3
:1037400080918002837F8460809380028091DB017E
:103750009091DC01883E934039F08091DB0190919B
:10376000DC01843E934029F4809182028D7F809316
:1037700082028091DB019091DC01893E934039F017
:103780008091DB019091DC01853E934029F480918A
:1037900082028260809382020E945E060E944D0B2C
:1037A0000E941E0BC8CBC19E60011124F401E35A94
:1037B000FC4F608166FB662760F9C60184589C4F08
:1037C0000E949402882331F0F401EF5AFC4F848563
:1037D000806484878091750281112DC01E9DF00147
:1037E0001F9DF00D1124DF01AE5ABC4F8C918295C4
:1037F000869586958370F9F4DF01AF5ABC4F129617
:103800008C911297982F9871B1F0509275021C9676
:103810009C911C9790621C969C931C97ED5AFC4FB0
:10382000908193FB81F912968C931297908194FB6F
:1038300082F912968C931E9DC0011F9D900D11243C
:10384000FC01EE5AFC4F2081229526952695237087
:1038500089F0FC01EF5AFC4F2485206224878D5AA1
:103860009C4FDC019C91828193FB81F9982F84FB12
:1038700092F992831E9D30011F9D700C1124F3015B
:10388000ED5AFC4F4F01608166956170C6018E59FB
:103890009C4F0E94C902D4016C9162FB662760F9BB
:1038A000C60181599C4F0E94C902F301EF5AFC4F97
:1038B000848585FF40C0F301EE5AFC4F8081982F2C
:1038C000929596959695937081818170880F880F57
:1038D000892B982F957011F0843069F51E9DF001A9
:1038E0001F9DF00D1124EF5AFC4F958D992321F067
:1038F00092819D7F977F92831E9DF0011F9DF00D09
:103900001124EF5AFC4F92A5992321F092819B7FBD
:103910009F7E9283837079F41E9DF0011F9DF00DB0
:103920001124EF5AFC4F8281867029F484858F7DA3
:103930008487109275021E9DF0011F9DF00D1124C9
:10394000DF01AD5ABC4F2C9126952170E25AFC4FF5
:1039500080818E7F808381FB992790F9291729F038
:103960008E7F822B20FB81F980831E9DC0011F9DCD
:10397000900D1124FC01E25AFC4F308130FF0DC044
:103980008B5A9C4FDC01EC91E695EF71B6E0EB9F12
:10399000F0011124EB5EFD4F54821E9DF0011F9D2E
:1039A000F00D1124DF01AD5ABC4F9C9192FB992779
:1039B00090F9E15AFC4F80818E7F808381FB332711
:1039C00030F9931729F08E7F892B90FB81F9808342
:1039D0001E9DD0011F9DB00D1124FD01E15AFC4F29
:1039E000808180FF15C0AB5ABC4FEC918E2F829521
:1039F0008695869583701196EC91E770EE0FEE0F29
:103A0000E82B36E0E39FF0011124EB5EFD4F54827A
:103A10001E9DF0011F9DF00D1124E05AFC4F808186
:103A20008E7F808381FB332730F9231731F08E7F1F
:103A300020FF816020FB81F980831E9D90011F9DE6
:103A4000300D1124F901E05AFC4F808180FF0DC038
:103A50002B5A3C4FD901EC91E695EF71B6E0EB9F04
:103A6000F0011124EB5EFD4F14821E9DF0011F9D9D
:103A7000F00D1124EF59FC4F80818E7F808381FBF4
:103A8000222720F9921731F08E7F90FF816090FB02
:103A900081F980831E9DD0011F9DB00D1124FD0171
:103AA000EF59FC4F808180FF15C0AB5ABC4FEC91A1
:103AB0008E2F82958695869583701196EC91E7708E
:103AC000EE0FEE0FE82B26E0E29FF0011124EB5EF3
:103AD000FD4F14821E9DF0011F9DF00D1124DF018A
:103AE000AE5ABC4F8C91982F92959695969593705F
:103AF00011968C918170880F880F892B843009F082
:103B00004AC0DF01A25ABC4F8C9180FD05C0E15A2A
:103B1000FC4F808180FF17C01E9D60011F9DD00C4F
:103B20001124F601E45AFC4F808160E08695869569
:103B300086950E94B701F601E35AFC4F808160E050
:103B40008F710E94B7011E9DC0011F9D900D112411
:103B5000FC01E05AFC4F208120FF0AC0845A9C4F90
:103B6000DC018C9161E08695869586950E94B7016F
:103B70001E9DC0011F9D900D1124FC01EF59FC4FAB
:103B8000208120FF08C0835A9C4FFC01808161E0A6
:103B90008F710E94B7011E9DC0011F9D900D1124C1
:103BA000FC01EE5AFC4F2081229526952695237024
:103BB00009F08FC88F5A9C4FDC0112968C91867049
:103BC00009F487C861E080E293E00E9462028111FB
:103BD0000E944D0B80E090E0892B11F40C94E310CF
:103BE0000E947A01882311F40C94DC100E940000DA
:103BF0000C94DC1010927602E5CFF999FECF92BDBD
:103C000081BDF89A992780B50895262FF999FECF9E
:103C10001FBA92BD81BD20BD0FB6F894FA9AF99AE9
:103C20000FBE01960895991B79E004C0991F96175D
:103C300008F0961B881F7A95C9F78095089597FB21
:103C4000072E16F4009407D077FD09D00E94391E84
:103C500007FC05D03EF4909581959F4F089570958F
:103C600061957F4F0895EE0FFF1F0590F491E02DB1
:103C70000994AA1BBB1B51E107C0AA1FBB1FA617B3
:103C8000B70710F0A61BB70B881F991F5A95A9F705
:103C900080959095BC01CD01089581E090E0F89465
:103CA0000C945F1EFB01DC0104C08D910190801912
:103CB00021F441505040C8F7881B990B0895F8949F
:103CC000FFCF01340234020900030005000600079B
:103CD000000A000B000C000100000013001200118C
:103CE0000010000F000E00000000000D013502AEB4
:103CF000005A01DF00BD00D1000000000062020098
:103D0000000000C902000000009402626567696E4D
:0C3D10006E696E67206C6564000D0A008F
:107E0000112484B714BE81FFF0D085E080938100F7
:107E100082E08093C00088E18093C10086E0809377
:107E2000C20080E18093C4008EE0C9D0259A86E02C
:107E300020E33CEF91E0309385002093840096BBD3
:107E4000B09BFECF1D9AA8958150A9F7CC24DD24C4
:107E500088248394B5E0AB2EA1E19A2EF3E0BF2EE7
:107E6000A2D0813461F49FD0082FAFD0023811F036
:107E7000013811F484E001C083E08DD089C08234E0
:107E800011F484E103C0853419F485E0A6D080C0E4
:107E9000853579F488D0E82EFF2485D0082F10E0AE
:107EA000102F00270E291F29000F111F8ED06801E7
:107EB0006FC0863521F484E090D080E0DECF843638
:107EC00009F040C070D06FD0082F6DD080E0C81688
:107ED00080E7D80618F4F601B7BEE895C0E0D1E017
:107EE00062D089930C17E1F7F0E0CF16F0E7DF06D8
:107EF00018F0F601B7BEE89568D007B600FCFDCFD4
:107F0000A601A0E0B1E02C9130E011968C91119780
:107F100090E0982F8827822B932B1296FA010C0160
:107F200087BEE89511244E5F5F4FF1E0A038BF0790
:107F300051F7F601A7BEE89507B600FCFDCF97BE46
:107F4000E89526C08437B1F42ED02DD0F82E2BD052
:107F50003CD0F601EF2C8F010F5F1F4F84911BD097
:107F6000EA94F801C1F70894C11CD11CFA94CF0C13
:107F7000D11C0EC0853739F428D08EE10CD085E9AC
:107F80000AD08FE07ACF813511F488E018D01DD067
:107F900080E101D065CF982F8091C00085FFFCCF94
:107FA0009093C60008958091C00087FFFCCF809118
:107FB000C00084FD01C0A8958091C6000895E0E648
:107FC000F0E098E1908380830895EDDF803219F02E
:107FD00088E0F5DFFFCF84E1DECF1F93182FE3DFCA
:107FE0001150E9F7F2DF1F91089580E0E8DFEE27F6
:047FF000FF270994CA
:027FFE00040479
:00000001FF
