:020000040000FA
:100000000C9462000C94700A0C94490A0C948A00B7
:100010000C948A000C948A000C948A000C948A0038
:100020000C948A000C948A000C948A000C948A0028
:100030000C948A000C948A000C948A000C948A0018
:100040000C94FF090C948A000C948A000C948A008A
:100050000C948A000C948A000C948A000C948A00F8
:100060000C948A000C948A000000000023002600F3
:10007000290000000000240027002A0000000000E2
:10008000250028002B0004040404040404040202D4
:100090000202020203030303030301020408102007
:1000A0004080010204081020010204081020000012
:1000B0000008000201000003040700000000000027
:1000C0000000D41311241FBECFEFD8E0DEBFCDBF98
:1000D00011E0A0E0B1E0E4E6F9E202C005900D9283
:1000E000A432B107D9F722E0A4E2B1E001C01D9229
:1000F000AC35B207E1F710E0C2E6D0E004C02197CA
:10010000FE010E946F14C136D107C9F70E94970AF9
:100110000C94B0140C9400008230F8F4E82FF0E056
:10012000EE0FFF1FE050FF4F27EC31E031832083BB
:10013000813041F0809169008C7F682B6093690069
:10014000E89A089580916900837F660F771F660F94
:10015000771F682B60936900E99A0895833081F0D6
:1001600028F4813099F08230A9F008958730A9F001
:100170008830C9F08430B1F4809180008F7D03C055
:10018000809180008F7780938000089584B58F7769
:1001900084BD089584B58F7DFBCF8091B0008F77AB
:1001A0008093B00008958091B0008F7DF9CF1F93A8
:1001B000CF93DF93282F30E0F901E255FF4F849170
:1001C000F901E656FF4FD491F901EA57FF4FC49168
:1001D000CC23A9F0162F81110E94AE00EC2FF0E085
:1001E000EE0FFF1FE458FF4FA591B4918FB7F8941D
:1001F000EC91111108C0D095DE23DC938FBFDF9105
:10020000CF911F910895DE2BF8CFCF93DF9390E02D
:10021000FC01E656FF4F24918A579F4FFC018491C1
:100220008823C9F090E0880F991FFC01EE58FF4F1A
:10023000A591B491FC01E458FF4FC591D49161118F
:100240000DC09FB7F8948C91209582238C93888160
:10025000282328839FBFDF91CF910895623051F406
:100260009FB7F8943C91822F809583238C93E881EB
:100270002E2BEFCF8FB7F894EC912E2B2C938FBFB2
:10028000EACF2FB7F8946091D0017091D10180919D
:10029000D2019091D3012FBF089580E090E0892B87
:1002A00011F00C94000008950895CF93C82F80E0BA
:1002B00090E0892B51F080914C018C1731F081E056
:1002C000C11101C080E00E940000C0934C0160E0B9
:1002D00070E0CB01C1110E94410160934D01709308
:1002E0004E0180934F019093500180E090E0892B64
:1002F00059F080914C018C1739F081E0C11101C097
:1003000080E0CF910C940000CF9108951F93CF937C
:10031000DF93EC01162F80E090E0892B91F0C8303C
:10032000D10579F4662319F10E94000080E090E085
:10033000892BB9F0612FCE01DF91CF911F910C94E1
:10034000000080E090E0892BA9F781E0C11594E0DE
:10035000D90708F080E0111105C0DF91CF911F91FE
:10036000089581E027972297C0F780E0F6CF80E0DC
:1003700090E0892BF9F681E0F0CF80E090E0892BC6
:1003800029F08091630183FD0C9400000895FF9291
:100390000F931F93CF93DF933FB7F8948091CB01D6
:1003A0009091CC01A091CD01B091CE0126B5A89B32
:1003B00005C02F3F19F00196A11DB11D3FBFBA2FF7
:1003C000A92F982F8827820F911DA11DB11D42E0F2
:1003D000880F991FAA1FBB1F4A95D1F720912B01A7
:1003E00030912C01EC01C21BD30B20912F013091D5
:1003F0003001C217D30708F45FC020913401309157
:1004000035012130310561F0E0915D01F0915E012F
:10041000408150915F01452350912D0145134CC0FF
:1004200090932C0180932B010091310110913201A6
:100430002230310509F413C12330310509F44EC1CE
:100440002130310561F480912A01813009F447C0DF
:10045000C8F1833009F482C0843009F4C9C08091A6
:10046000340190913501019739F1C017D10708F097
:100470006DC1809128018F5F809328018B30E0F05F
:1004800081E090E0909335018093340161E070E069
:1004900080915B010E948C0010922D0110922A0124
:1004A00082E590E0909332018093310183E290E005
:1004B0009093300180932F01DF91CF911F910F9185
:1004C000FF900895C017D10730F481E080932A018E
:1004D000C0932901C4CF84E080932A01C0CFC01704
:1004E000D107D0F510922A01809128018F5F809367
:1004F0002801209129018C2F0C2E000C990B821BB6
:10050000910927FD939597FF03C0919581959109D6
:10051000499794F2109235011092340182E990E0EB
:10052000909332018093310182E590E09093300105
:1005300080932F0110922801F0902E016F2D70E012
:1005400080915B010E948C0080915F0193E0F91221
:1005500027C080932D0183CF83E0BECFC017D10782
:1005600008F5109235011092340182E990E09093E1
:1005700032018093310182E590E0909330018093C5
:100580002F0110922801F0902E016F2D70E08091C4
:100590005B010E948C0080915F0133E0F316C9F289
:1005A00080E0D7CF90912E01933009F482E08093C0
:1005B0002E0182E090E0909335018093340182E92E
:1005C00090E0909332018093310182E590E0909326
:1005D000300180932F0110923A018091280180937D
:1005E0003B01109237011092390110923801CBCFA4
:1005F000C017D107A8F4109235011092340182E996
:1006000090E0909332018093310182E590E09093E5
:10061000300180932F0110922801109237018CCF66
:1006200082E090E0909335018093340182E990E07C
:10063000909332018093310182E590E090933001F4
:1006400080932F0110923A018091280180933B0101
:100650001092370110923901109238016DCF9091AC
:1006600037019F5F9093370180913801880FC01741
:10067000D107E0F080933801983009F0F6CEE09190
:100680003A01E630A9F4109235011092340182E962
:1006900090E0909332018093310182E590E0909355
:1006A000300180932F0110923701D9CE8160E2CFC3
:1006B00083E090E0909335018093340181E08E0FC8
:1006C00080933A0190913801F0E0EC5CFE4F908706
:1006D00080913901892780933901C1CEC017D10794
:1006E00028F510923501109234011092370182E9F9
:1006F00090E0909332018093310182E590E09093F5
:10070000300180932F01809139018111B2CE88E0B0
:10071000EAE3F1E0A2E4B1E001900D928A95E1F7FD
:1007200081E0809336011092280199CE80913A01A0
:10073000863009F4A8CF82E090E090933501809351
:100740003401109237011092380189CE109228019D
:10075000B3CEFC018389861721F0638B80810C94D2
:10076000D70008954F925F926F927F928F929F92DF
:10077000AF92BF92CF92DF92EF92FF920F931F93AF
:10078000CF93DF93EC010E9441010B851C852D85E1
:100790003E856B017C01C01AD10AE20AF30A970177
:1007A0008601023311052105310508F46CC06B8701
:1007B0007C878D879E878B809C80AD80BE800F85D7
:1007C000188929893A89601B710B820B930BA5014B
:1007D00094010E944D146B017C011C89112309F4C2
:1007E00047C00D89011114C060E0CE01DF91CF91A7
:1007F0001F910F91FF90EF90DF90CF90BF90AF903F
:100800009F908F907F906F905F904F900C94A90372
:10081000202F30E050E040E0C501B4010E944D14AB
:1008200029013A01812C912C54018016F0F4A30186
:100830009201C501B4010E942914C616D706E80624
:10084000F90668F02F81388549855A85620F731F34
:10085000841F951FC616D706E806F90638F08FEFF5
:10086000881A980AA80AB80AE0CF10E0612FBDCF15
:100870008981823021F1C0F4882309F4B5CF61E089
:10088000813009F4B2CFDF91CF911F910F91FF908A
:10089000EF90DF90CF90BF90AF909F908F907F9020
:1008A0006F905F904F9008958330A9F1843059F78D
:1008B000C501B40124E130E040E050E032C00A81DB
:1008C000002309F491CF202F30E050E040E0C50133
:1008D000B4010E944D1480E090E0DC0160E0C81695
:1008E000D906EA06FB0668F08F809884A984BA844A
:1008F000880E991EAA1EBB1EC814D904EA04FB0464
:1009000040F06F5F820F931FA41FB51F0613E7CF40
:10091000ADCF11E0ABCFC501B40125E030E040E040
:1009200050E00E944D14C701B6010E944D1420955D
:10093000309540955095622F617057CFCF93DF93DC
:10094000EC0161E088810E94050160E088810E94DD
:10095000D7000E9441016F87788B898B9A8BDF913A
:10096000CF9108957F928F929F92AF92BF92CF9234
:10097000DF92EF92FF920F931F93CF93DF936C015F
:10098000C62FD42F0E94410100912401109125010E
:100990002091260130912701601B710B820B930B74
:1009A000643F71408105910588F00E944101609388
:1009B000240170932501809326019093270181E003
:1009C00080936701D0926601C092650180916901B0
:1009D000811170C0DD2309F46DC099249394C11175
:1009E00001C0912CF12CE12C81E1882E8E9CD0014C
:1009F0008F9CB00D1124FD01EE51FE4F9081929518
:100A00009695969593708181282F220F220FA22E02
:100A1000A92A82958695869583709281990F990F60
:100A2000B92EB82AAC52BE4FFC9190FAF6F9FC935D
:100A30008F2F8073803109F04BC0C5010196CA1415
:100A4000DB0480F18C159D0568F18E9C80018F9CE4
:100A5000100D1124E801CC52DE4FE8816E2F66950F
:100A6000669566956770762E81E06817D1F16817F4
:100A700008F4FDC022E0621709F44EC083E0681359
:100A800011C0F801CA14DB0429F5EB52FE4F908126
:100A900092959F70818181708295807F692D892BCD
:100AA0000E94D7002FEFE21AF20A88E0E816F1045C
:100AB00009F09CCFDF91CF911F910F91FF90EF90A4
:100AC000DF90CF90BF90AF909F908F907F900895D0
:100AD000C501B5CFEA52FE4F80818695692D8F7191
:100AE000DFCFF801EB52FE4F908192959F7081818C
:100AF00081708295807F692D892B0E94D700688143
:100B0000629566956695637067256170F801EA5293
:100B1000FE4F80818695E3CFD801A252BE4F2C9123
:100B2000229526952695237011963C911197832F37
:100B3000880F880F282B832F829586958695837042
:100B400012964C911297342F330F330F382B842F7A
:100B5000829586958695837013965C911397452FA1
:100B6000440F440F482B852F829586958695837078
:100B700014965C91550F550F582BA4E6B0E00E94D7
:100B80007514F770CA14DB0409F03FC0F1118ACF65
:100B9000D801AB52BE4F2C91322F32953F70119637
:100BA0002C9121702295207F232B20FBE7F926959D
:100BB0003981307F232B29832A812F732A83272F82
:100BC0002295220F220F207C66956695622B6B83FF
:100BD000282F2295220F220F207C76957695722B56
:100BE0007C83292F2295220F220F207C86958695C3
:100BF000822B8D83892F869586959E81907C982B5C
:100C00009E83E87FE160E8834DCFF1114BCFD8019F
:100C1000AA52BE4F2C9126952F7120FBE7F92695FD
:100C20003981307F232B29832A812F732A83272F11
:100C30002295220F220F207C66956695622B6B838E
:100C4000282F2295220F220F207C76957695722BE5
:100C50007C83292F2295220F220F207C8695869552
:100C6000822B8D83969596958E81807CC8CFD801F6
:100C7000A252BE4F2C91822F8295869586958370C5
:100C800011963C911197232F220F220F282B832F8F
:100C9000829586958695837012964C911297342F83
:100CA000330F330F382B842F82958695869583706A
:100CB00013965C911397452F440F440F482B852FB3
:100CC000829586958695837014965C91550F550F85
:100CD000582BAAE0B0E00E9475142F2F2770F6FF62
:100CE0001FC02111DFCED801AB52BE4F2C91322F45
:100CF00032953F7011962C9121702295207F232BE5
:100D000020FBE7F926953981307F232B2983362F65
:100D10003295330F330F307C2A812F73232B4ECF24
:100D20002111C0CED801AA52BE4F2C9126952F7109
:100D300020FBE7F926953981307F232B2983362F35
:100D40003295330F330F307C2A812F73232B6ECFD4
:100D50006F927F928F929F92AF92BF92CF92DF92CB
:100D6000EF92FF920F931F93CF93DF93EC0184E6F2
:100D7000689F60011124F12CE12C50E040E081E1FA
:100D8000982E8C2D869586957D2D7295770F770FF1
:100D9000707C6D2D669566951E2D1295110F110FA5
:100DA000107C0E2D06950695BF2CB294BB0CBB0C87
:100DB00090ECB922AF2CA694A6947E019FEFE91A7D
:100DC000F90A949E9001959E300D1124F901EC5280
:100DD000FE4F9081A92FA872A83051F1D901AE51D0
:100DE000BE4F7C90769476947694769476947694AE
:100DF00011968C901197682C660C660CC62CC7282F
:100E00008694869486948694869486941296AC9161
:100E1000AA0FAA0FDA2ED828CC15DD0549F4A92F80
:100E2000A873A031C9F4A92FA770EC16FD06C0F471
:100E30004F5F5F4F4830510521F6DF91CF911F91F1
:100E40000F91FF90EF90DF90CF90BF90AF909F9069
:100E50008F907F906F900895A92FA77096FF2AC05A
:100E6000A111E6CFD901AB52BE4F2C91322F329552
:100E70003F7011962C9121702295207F232B20FB0F
:100E800097F926953181307F232B218322812F737F
:100E90002283282F272B2383262F212B2483202FC7
:100EA0002B2925832681207C2A292683987F9160FF
:100EB0009083BECFA111BCCF2A523E4FD9012C91B5
:100EC00026952F71DCCF3091E2013295369536951B
:100ED00033702091E301422F440F440F842F832B62
:100EE00022952695269523703091E401330F330F18
:100EF000932F922B41E050E061E19A01215031099A
:100F0000629FF001639FF00D1124EC52FE4F20818F
:100F100026952695269527702250223040F5029678
:100F2000649FF001659FF00D1124EC52FE4F268561
:100F30002F73382F3295330F330F307C232B2687B6
:100F4000282F26952695392F3295330F330F307C75
:100F5000232B27872089207C392F36953695232B04
:100F6000208B4F5F5F4F4830510539F60895019649
:100F7000D7CF8091D401869586958695877080938A
:100F8000330121E030E041E1429FF001439FF00D49
:100F90001124EC52FE4F90819695969596959770F8
:100FA000891721F08FEF8093330108952F5F3F4F12
:100FB0002830310549F70895FF920F931F93CF937F
:100FC000DF9304ED11E0D0E0C0E0F801F1908F0173
:100FD000CE010E941314F81621F06F2DCE010E944D
:100FE0001B142196C838D10581F784ED91E0DF917B
:100FF000CF911F910F91FF9008951F93CF93DF938F
:10100000EC01162F83319105C8F48131910528F444
:101010008130910511F0099731F48FEF9FEF909394
:1010200061018093600180E090E0892BA9F0612F3D
:10103000CE01DF91CF911F910C9400004D9799F74D
:10104000177F1093630180914A018F73912F907CD9
:10105000892B80934A01E1CFCE010E941314181707
:10106000A1F080E090E0892B21F0612FCE010E9459
:10107000000080E090E0892B41F080914A0184FDDE
:1010800004C0612FCE010E940000CE01DF91CF91FC
:101090001F910C94131420E030E0232B11F00C94DA
:1010A00000000C941314BF92CF92DF92EF92FF9244
:1010B0000F931F93CF93DF938B01B42E690182FFAF
:1010C00023C083FF17C061E0C8010E948601882306
:1010D000D9F16B2DC8010E94FD078B1135C0F601B7
:1010E000DF91CF911F910F91FF90EF90DF90CF9004
:1010F000BF90099460E0C8010E948601882321F115
:10110000C8010E944B08E9CF842F8770C1E0D0E06E
:101110007E0101C0EE0C8A95EAF7D42FD870CB017E
:101120000E944B08C82FB4FE1CC061E0C8010E9499
:101130008601882349F0DD2389F0CE296C2FC80170
:101140000E94FD078C1759F2DF91CF911F910F91EB
:10115000FF90EF90DF90CF90BF900895E094CE2164
:10116000EDCF60E0C8010E948601882369F3CE219B
:10117000DD2319F0C111B3CFE7CFCC2309F4AFCFF2
:10118000E3CFCF92DF92EF92FF920F931F93CF9313
:101190007C016B01C42F402F8C2F807E803609F498
:1011A00074C080F4803209F453C0803409F46DC0F7
:1011B0008823D9F1CF911F910F91FF90EF90DF908D
:1011C000CF900895803A09F497C0A8F4803891F739
:1011D00080E090E02C2F2F7141E050E0892B51F3FB
:1011E000B601C701CF911F910F91FF90EF90DF9053
:1011F000CF900C940000803C09F48CC0803ED1F666
:101200006C2F70E0762F662766277370622B6F5FF6
:101210007F4F2DEB31E08C2FCF911F910F91FF90DD
:10122000EF90DF90CF900C9453088C2F8E7011F6B6
:1012300080E090E0892B09F4BDCF8C2F8170CF9195
:101240001F910F91FF90EF90DF90CF900C940000D2
:10125000CF71CF3109F0AECF80E090E0892B09F457
:10126000A9CF422F4F7769F0413069F0221F222722
:10127000221F30E00FE710E0B601C7010E94000016
:1012800099CF41E0F3CF40E0F1CF80E090E0892BAF
:10129000C1F02C2F30E08C2F8F71813029F030F08D
:1012A000803121F08131F1F440E001C041E025FBC3
:1012B000222720F90DE110E030E0B601C7010E94BD
:1012C000000080E090E0892B09F474CF4C2FB60128
:1012D000C701CF911F910F91FF90EF90DF90CF90BA
:1012E0000C940000C901880F991F8E71C4FB44271C
:1012F00040F9482B4250DBCF80E090E0892B09F485
:1013000059CF2C2F2F7043E050E0C4FF69CF42E04B
:1013100050E066CFCF71CE3159F0CF3109F04ACFCE
:1013200080E090E045E050E0892B09F059CF42CFB2
:1013300080E090E044E050E0892B09F051CF3ACFB3
:10134000CF93DF9320916001309161012F3F3207ED
:1013500021F0C901DF91CF9108958091630187FF4A
:101360002BC086FF0FC089E090E00E944B08C82F79
:1013700081E090E00E944B089C2F90936101809344
:10138000600115C089E090E00E944B08C82F81E001
:1013900090E00E944B0890E4C99F90011124207CAA
:1013A00031708F73282B30936101209360018091FD
:1013B000600190916101CECF85FF0CC081E190E08A
:1013C0000E944B08C82F82E190E00E944B08C05C4D
:1013D000DD0BD2CF81E090E00E944B0890E0CDCFB2
:1013E0000E945501EAE4F1E081E087831086E3E59D
:1013F000F1E088E0DF011D928A95E9F708951F92D8
:101400000F920FB60F9211242F933F938F939F93B8
:10141000AF93BF938091D0019091D101A091D2015F
:10142000B091D3013091CF0123E0230F2D3758F530
:101430000196A11DB11D2093CF018093D0019093FF
:10144000D101A093D201B093D3018091CB019091AF
:10145000CC01A091CD01B091CE010196A11DB11D8D
:101460008093CB019093CC01A093CD01B093CE019A
:10147000BF91AF919F918F913F912F910F900FBE90
:101480000F901F90189526E8230F0296A11DB11DFD
:10149000D2CF1F920F920FB60F9211242F933F932A
:1014A0004F935F936F937F938F939F93AF93BF936C
:1014B000EF93FF93E0910201F09103010995FF91F1
:1014C000EF91BF91AF919F918F917F916F915F91BC
:1014D0004F913F912F910F900FBE0F901F90189535
:1014E0001F920F920FB60F9211242F933F934F9399
:1014F0005F936F937F938F939F93AF93BF93EF937C
:10150000FF93E0910001F09101010995FF91EF91A6
:10151000BF91AF919F918F917F916F915F914F910B
:101520003F912F910F900FBE0F901F901895CF9362
:10153000DF93CDB7DEB728970FB6F894DEBF0FBEA6
:10154000CDBF789484B5826084BD84B5816084BD4C
:1015500085B5826085BD85B5816085BD80916E0051
:10156000816080936E001092810080918100826082
:1015700080938100809181008160809381008091BF
:1015800080008160809380008091B10084608093AE
:10159000B1008091B00081608093B00080917A00AA
:1015A000846080937A0080917A00826080937A00D0
:1015B00080917A00816080937A0080917A008068BF
:1015C00080937A001092C10061E08DE00E940501D5
:1015D00062E088E00E94050188E080936B01109230
:1015E0006A0154EDE52E51E0F52E10E000E0C8014F
:1015F0000E941314D7018D937D010F5F1F4F083890
:101600001105A9F734E0E32E31E0F32E10E000E0FD
:1016100041E1B42EF701228180818F71B09E60017B
:10162000B19ED00C1124F601EC52FE4F382F3295AA
:10163000307F91819F70932B9183382F32953F702B
:101640009281907C2F71220F932B922B928361E0D9
:101650000E940501F601EA52FE4F8081869561E005
:101660008F710E9405010F5F1F4FF4E0EF0EF11C18
:101670000830110579F685EB91E00E949E048FE910
:1016800091E00E949E0488EE93E00E9413148983E7
:1016900089EE93E00E9413148A838AEE93E00E94FD
:1016A00013148B838BEE93E00E9413148C83898137
:1016B0009A81AB81BC818F3E9E4BAD4ABE4D09F4F1
:1016C00051C08FEE9EEBADEABEED89839A83AB836A
:1016D000BC83CE0101967C0108EE13E0D701DD90BA
:1016E0007D01C8010E941314D81621F06D2DC80188
:1016F0000E941B140F5F1F4F0C3EB3E01B0771F7D6
:1017000090E080E041E1489FF001499FF00D1124F5
:10171000EC52FE4F2081277C208322852F73206886
:1017200022872CE02387148615860196282F229580
:10173000220F220F207C2687392F3295330F330F4B
:10174000307C282F26952695232B2787392F3695F1
:1017500036952089207C232B208B8830910599F6A3
:101760000E94DC070E94B90710925B0182E080931F
:101770005C01E8E8F0E0E491F0E0EE0FFF1FE859CB
:10178000FF4F8591949190935E0180935D01ECE908
:10179000F0E0E491E0935F0160E082E00E940501E7
:1017A000E4E3F1E086E1DF011D928A95E9F782E941
:1017B00090E0909332018093310182E590E0909324
:1017C000300180932F0180EC80934A0110924B01ED
:1017D0008FEF9FEF909361018093600110926201FF
:1017E00083E080932E0180915F0180932D0163E05F
:1017F00070E080915B010E948C008DE190E00E947E
:101800004B08682F606C8DE190E00E94FD0780938B
:1018100063016BE087E090E00E94FD076DE088E0E7
:1018200090E00E94FD0780E00E94F00910E0212E68
:1018300010E0312E00E0C02E00E0D02E80E0A82E77
:1018400080E0B82E91E1992EE0916901E1117CC010
:1018500080913301813009F45EC078F0823009F460
:1018600061C0833009F466C082E08093B60181E0F4
:101870008093B7011092C90152C092E09093B601D3
:1018800081E08093B7011092C9019093A0018093E9
:10189000A1011092B30185EB91E00E94B2038FE9A0
:1018A00091E00E94B20380914C018823B1F00E9424
:1018B000410100914D0110914E0120914F01309155
:1018C0005001601B710B820B930B65317105810513
:1018D000910518F080E00E94F0098091360188237C
:1018E00009F489C0F89488E0E2E4F1E0A7E9B1E006
:1018F00001900D928A95E1F71092360178948091CB
:101900009701E82FF0E0E756FE4F863008F056C00A
:1019100011928F5FFACF1092C9018093B601109295
:10192000B3010FC01092C9011092B6018093A001BB
:1019300081E0ADCF1092C9011092B6011092B301AF
:1019400081E08093A001A7CFE150E83080F4F0E07F
:10195000E155F34F82E08093B6010C946F14C00CF4
:10196000C90CCA0CC00CC10CD80CD00CD20C1092F3
:10197000C9011092B6011092B3011092A0018BCF51
:1019800081E08093B7011092C90183E08093A001A8
:1019900080CF81E08093B7011092C90184E0F6CF37
:1019A00083E0F8CF83E08093B7011092C901EECFB6
:1019B00084E08093B7011092C901DDCFE0E0F0E050
:1019C000EF2B21F087E991E00E94000080919901BE
:1019D0008111B7C090919A019111B3C0A114B104C3
:1019E00011F00E94000080914C01882309F4A5C0E9
:1019F00081E00E94550180918E01811103C081E038
:101A000080938E0180918501811103C081E08093D4
:101A1000850180917C01811103C081E080937C016C
:101A200080917301811103C081E0809373010E9452
:101A3000410100916E0110916F0120917001309170
:101A400071012B013C01401A510A620A730A930189
:101A50008201043111052105310508F442C060936B
:101A60006E0170936F0180937001909371012091CA
:101A70006B0130E0F901E255FF4F8491F901E65620
:101A8000FF4F0491F901EA57FF4F1491112309F414
:101A900068C281110E94AE00E12FF0E0EE0FFF1F3F
:101AA000E859FF4FA591B491EC910E2331E020E06D
:101AB00009F430E0832F922F282F217030916C0190
:101AC00023130DC030916D01231709F44FC22093E9
:101AD0006D01892B09F448C283E080936A01209349
:101AE0006C0110916A01133019F481E080936A014E
:101AF00080916A01823011F410926A01123049F427
:101B000080916901882329F0109269010E94DC0705
:101B100011E0E0916901EA3008F03BC2F0E0ED56D7
:101B2000F24F0C946F14BD0FFD102E116C113E116D
:101B30007C1134129D11AD11371081E00E94F00923
:101B40005ACF90914C01992309F48AC08057803173
:101B500008F083C081E00E945501109197018091A7
:101B6000530118130AC0412F50E065E571E089E97F
:101B700091E00E94A314892B61F01092520188E039
:101B8000E7E9F1E0A3E5B1E001900D928A95E1F774
:101B900032CF809152018F5F80935201133009F050
:101BA00044C090919901892F8770F0909A018530F7
:101BB00049F4F0925101C114D10409F41CCF0E94E0
:101BC000000019CF0DE110E0843091F0282F30E0B3
:101BD0008430F0F4009151010023D1F00150110B39
:101BE000000F111F000F111F020F131F0F5F1F4F58
:101BF00093FF10C061E0C8010E948601882309F4A8
:101C0000FACE6F2DC8010E94FD07F812F4CED3CF93
:101C10008901ECCF60E0C8010E948601882309F4A5
:101C2000EACEC8010E944B08F0CF143009F0E3CE91
:101C300080919901682F70E0762F66276627737070
:101C400090919A01692B6F5F7F4F2DE431E04091B5
:101C50009B018C700E945308CECE80E00E94F00958
:101C6000E0919901EF3F71F480919A018111C3CE07
:101C7000F0E04F2EF0E05F2E452809F4BCCE0E9424
:101C80000000B9CEE7FD0DC000919C0120919B01A1
:101C900040919A0170E060E08E2F90E00E94C108B0
:101CA000AACEE03C08F04CC190914A0197FFA3CE28
:101CB00080919A01282F30E0890100951095000F3E
:101CC000111F000F111F007C1170EF730E2B359543
:101CD0002795422F4370842E20919701253039F5A6
:101CE0008C788C3021F50E94A0098017910721F093
:101CF0000F3F114009F07FCE00919A0110E0102FA4
:101D000000270027137080919B01080F111D0F5FA2
:101D10001F4FF0909C0161E0C8010E9486016F2D69
:101D2000882309F468CEC8010E94FD0764CE3801FB
:101D3000A1E06A1A7108660C771C660C771C68288B
:101D40007301BFEFEB1AFB0A809162018823F1F067
:101D500096FF3CC0C70160E071E00E943914682F13
:101D600081E090E00E94FD07C701F7FE02C08150AC
:101D70009F4F692F89E090E00E94FD0721143104F4
:101D800019F0C7010E9400001092620180914A017F
:101D900080FD35C080919701843009F04AC0809160
:101DA0009A018978813009F026CE60919B01C701A4
:101DB0000E94A80680E090E0892B09F41CCE409197
:101DC0009B01682DC7010E94000015CEB8016F73FA
:101DD000772781E090E00E94FD07B80146E0759505
:101DE00067954A95E1F789E090E00E94FD07E0E001
:101DF000F0E0EF2B49F2C8010E940000C5CF86FF3A
:101E00000CC00E94A0098E159F0521F2FDEFEF1670
:101E1000F7E0FF060CF0BECFEECD0E94A0098017C0
:101E2000910709F4B7CF0F3F21E0120709F4B2CFB1
:101E3000E2CD833041F540919A01942F9170692E43
:101E400043FB772470F8A0E0B0E0AB2B31F0477093
:101E5000272DB801C7010E94000080914A0186FF2A
:101E600006C0472D662DC7010E94B204C4CDE0E034
:101E7000F0E0EF2B09F4BFCD272D462D682DC801CA
:101E80000E940000B8CD863009F0B5CD80919A014E
:101E9000982F9978913021F08F78803809F0ABCD68
:101EA00080914A0186FF28C00E94A0098E159F05D7
:101EB000E9F480919B0190E0382F2227222733708C
:101EC00000919C01020F132F111D0F5F1F4FF09007
:101ED0009D01959587959595879583709927823073
:101EE000910599F0039709F416CF85CDFDEFEF1614
:101EF000F7E0FF06F4F67FCD0E94A0098017910756
:101F0000C1F20F3F1140A9F276CDF4FE74CD61E02D
:101F1000C8010E948601882309F46DCDC8010E9482
:101F20004B089F2D977061E070E001C0660F9A9595
:101F3000EAF7F3FE02C0682BF6CE60956823F3CE75
:101F4000E83E08F058CDE05CFF0B80919A010091CB
:101F50009D0120919C0140919B0161E070E09E2FCA
:101F60009DCE90E080E0A8CD82E0B7CD892B11F026
:101F700081E0B3CD10926A01B2CD123051F40E94CB
:101F8000410189E08093690181E0809368011092AA
:101F90006701809196018F5F883008F436C31092F4
:101FA000960190E080E0989E7001999EF00C1124BB
:101FB00087010C521E4FF8018081982F9770923044
:101FC00009F427C3933009F4ACC3913009F0A1C3DD
:101FD000982F991F9927991F81818F70880F61E031
:101FE000892B0E94D7000E944101362F3295330F72
:101FF000330F307CD80116962C9116972F73232B14
:1020000016962C931697272F2295220F220F207CAD
:1020100066956695622B17966C931797282F2295D5
:10202000220F220F207C76957695722B18967C9342
:102030001897292F2295220F220F207C86958695AE
:10204000822B19968C931997892F869586951A96C7
:102050009C911A97907C982B1A969C931A978C9126
:1020600091E0980F9770887F892B8C9352C30E94C0
:10207000410131E0693E73408105910508F430E08B
:1020800080918D018E7F80938D0181FB222720F925
:10209000321731F08E7F832B30FB81F980938D01D5
:1020A00080918D0180FF11C081E080936801809351
:1020B000C9018093CA010E9441016093C4017093D9
:1020C000C5018093C6019093C7010E94410131E090
:1020D000693B7B408105910508F430E080918401E3
:1020E0008E7F8093840181FB222720F9321731F003
:1020F0008E7F832B30FB81F9809384018091840152
:1021000080FF13C083E08093680181E08093C90160
:1021100082E08093CA010E9441016093C4017093E0
:10212000C5018093C6019093C7010E94410131E02F
:10213000693873418105910508F430E080917B0195
:102140008E7F80937B0181FB222720F9321731F0AB
:102150008E7F832B30FB81F980937B0180917B0103
:1021600080FF13C087E08093680181E08093C901FC
:1021700083E08093CA010E9441016093C40170937F
:10218000C5018093C6019093C7010E94410131E0CF
:1021900069357B418105910508F430E08091720139
:1021A0008E7F8093720181FB222720F9321731F054
:1021B0008E7F832B30FB81F98093720180917201B5
:1021C00080FF13C086E08093680181E08093C9019D
:1021D00084E08093CA010E9441016093C40170931E
:1021E000C5018093C6019093C701809168011330A7
:1021F00009F0CFCE80936901CCCE80916701813008
:1022000009F0C7CE109267012091650130916601F7
:10221000922F9295990F990F907C8091E2018F7384
:10222000892B8093E201932F9295990F990F907CBF
:10223000822F86958695892B8093E301932F96951F
:1022400096958091E401807C892B8093E4010E9423
:1022500063070E94DC07109269019BCE80916701A1
:10226000813009F096CE10926701809165019091BE
:10227000660181508093640184E0BCCF8091670146
:10228000813009F086CE109267012091650130916E
:102290006601E09164019E9EF0011124EC52FE4F14
:1022A000922F9295990F990F907C86858F73892B29
:1022B0008687932F9295990F990F907C822F869500
:1022C0008695892B8787932F969596958089807C14
:1022D000892B808B82E08ECF80916701813009F05D
:1022E00058CE1092670180916501909166018150EE
:1022F0008093640185E07ECF80916701813009F091
:1023000048CE109267018091650190916601E0913D
:1023100064019E9EF0011124EC52FE4F81508770A3
:10232000880F880F880F9081977C892B80830E946B
:1023300063070E94B90783E05DCF80916701813018
:1023400009F027CE10926701809165019091660196
:1023500081508093640188E04DCF80916701813086
:1023600009F017CE109267012091640130E0929E2F
:10237000F001939EF00D1124EC52FE4F8081869562
:10238000869586958770D1F550E040E0AAE0949E4E
:10239000F001959EF00D1124EC52FE4F8081869540
:1023A00086958695877029F5609165017091660123
:1023B000A69FC001A79F900D1124BC01182F129554
:1023C000110F110F107CB285BF73B12BB287172F7D
:1023D0001295110F110F107CB82FB695B695B12B31
:1023E000B387872F86958695848715868685807C1A
:1023F00086874F5F5F4F4830510549F6929EF00146
:10240000939EF00D1124EC52FE4F808186958695A7
:1024100086958770823009F08ECF209165013091CA
:10242000660144E6429FC001439F900D1124209114
:1024300066022F7320936602392F3295330F330FC4
:10244000307C282F26952695232B20936702892FF1
:1024500086958695809368021092690280916A023F
:10246000807C80936A0267CF80916701813009F098
:1024700090CD10926701809165019091660101975E
:10248000E1F430E020E0929EF001939EF00D1124E3
:10249000EC52FE4F8081877C808382858F738068B9
:1024A00082878CE08387148615868685807C868764
:1024B0002F5F3F4F2830310531F7809165019091B2
:1024C0006601029781F58091D401877C88608093B2
:1024D000D4018091E501877C88608093E50180913B
:1024E000F601877C88608093F60180910702877CE3
:1024F00088608093070280911802877C88608093AF
:10250000180280912902877C88608093290280913B
:102510003A02877C886080933A0280914B02877CE4
:10252000886080934B0280916501909166010397CA
:10253000E9F430E020E092EE929EF001939EF00DDF
:102540001124EC52FE4F8081877C806180838285DC
:102550008F738287938784E0848715868685807C45
:1025600086872F5F3F4F2830310531F78091650115
:1025700090916601049781F58091D401877C8861F0
:102580008093D4018091E501877C88618093E50187
:102590008091F601877C88618093F6018091070223
:1025A000877C88618093070280911802877C88610C
:1025B0008093180280912902877C88618093290288
:1025C00080913A02877C886180933A0280914B0225
:1025D000877C886180934B028091650190916601B0
:1025E00080916501909166018091650190916601ED
:1025F00080916501909166018091650190916601DD
:10260000809165019091660122CE8093960190E0C1
:10261000CACC0E944101F701E652FE4F308132954B
:102620003695369533702181822E880C880C832A4A
:102630008D82322F32953695369533702281822ED7
:10264000880C880C832A8E82322F329536953695E7
:1026500033702381822E880C880C832A8F822295E6
:102660002695269523703481330F330F322B38870C
:10267000AB01BC014D805E806F80788444195509A0
:1026800066097709F701EA52FE4F30813295369597
:10269000369533702181F22EFF0CFF0C8F2D832B8A
:1026A000322F32953695369533702281F22EFF0CFB
:1026B000FF0C9F2D932B322F329536953695337024
:1026C0002381F22EFF0CFF0CAF2DA32B2295269514
:1026D000269523703481330F330FB32FB22B481755
:1026E00059076A077B07A8F0D8019C91991F992781
:1026F000991F11968C918F70880F60E0892B0E9432
:10270000D700F801808191E0980F9770887F892B1E
:102710008083E0E0F0E0EF2B09F496C80E9400000F
:1027200085C80E944101F701E652FE4F3081329583
:102730003695369533702181F22EFF0CFF0CF32A6B
:10274000FD82322F32953695369533702281F22EE6
:10275000FF0CFF0CF32AFE82322F32953695369508
:1027600033702381F22EFF0CFF0CF32AFF82229597
:102770002695269523703481330F330F322B3887FB
:10278000AB01BC014D805E806F807884441955098F
:1027900066097709463951056105710508F4B9CF15
:1027A000D8018C91887F61CCEAE6F1E01282138235
:1027B000E5EBF1E089E080831182128240ED57E081
:1027C00060E070E0438354836583768384E690E021
:1027D000A0E0B0E087839087A187B2871386148634
:1027E000158616861786108A118A128A138A148A09
:1027F000158AEFE9F1E02DE02083118212824383F4
:1028000054836583768387839087A187B2871386F5
:102810001486158616861786108A118A128A138ADC
:10282000148A158A0895F999FECF92BD81BDF89A50
:10283000992780B50895262FF999FECF1FBA92BD2A
:1028400081BD20BD0FB6F894FA9AF99A0FBE019691
:102850000895DB018F939F930E947514BF91AF91F0
:10286000A29F800D911DA39F900DB29F900D1124EA
:10287000089597FB072E16F4009407D077FD09D032
:102880000E94801407FC05D03EF4909581959F4FDF
:102890000895709561957F4F0895A1E21A2EAA1BA5
:1028A000BB1BFD010DC0AA1FBB1FEE1FFF1FA21700
:1028B000B307E407F50720F0A21BB30BE40BF50BFD
:1028C000661F771F881F991F1A9469F76095709586
:1028D000809590959B01AC01BD01CF010895EE0F4D
:1028E000FF1F0590F491E02D09940E949414A59F78
:1028F000900DB49F900DA49F800D911D11240895FB
:10290000AA1BBB1B51E107C0AA1FBB1FA617B70715
:1029100010F0A61BB70B881F991F5A95A9F7809531
:102920009095BC01CD010895A29FB001B39FC00155
:10293000A39F700D811D1124911DB29F700D811DEB
:102940001124911D0895FB01DC0104C08D910190BB
:10295000801921F441505040C8F7881B990B089505
:10296000F894FFCF54015401040003000500060051
:1029700007000A000B000C00010000001300120009
:08298000110010000F000E0011
:107E0000112484B714BE81FFF0D085E080938100F7
:107E100082E08093C00088E18093C10086E0809377
:107E2000C20080E18093C4008EE0C9D0259A86E02C
:107E300020E33CEF91E0309385002093840096BBD3
:107E4000B09BFECF1D9AA8958150A9F7CC24DD24C4
:107E500088248394B5E0AB2EA1E19A2EF3E0BF2EE7
:107E6000A2D0813461F49FD0082FAFD0023811F036
:107E7000013811F484E001C083E08DD089C08234E0
:107E800011F484E103C0853419F485E0A6D080C0E4
:107E9000853579F488D0E82EFF2485D0082F10E0AE
:107EA000102F00270E291F29000F111F8ED06801E7
:107EB0006FC0863521F484E090D080E0DECF843638
:107EC00009F040C070D06FD0082F6DD080E0C81688
:107ED00080E7D80618F4F601B7BEE895C0E0D1E017
:107EE00062D089930C17E1F7F0E0CF16F0E7DF06D8
:107EF00018F0F601B7BEE89568D007B600FCFDCFD4
:107F0000A601A0E0B1E02C9130E011968C91119780
:107F100090E0982F8827822B932B1296FA010C0160
:107F200087BEE89511244E5F5F4FF1E0A038BF0790
:107F300051F7F601A7BEE89507B600FCFDCF97BE46
:107F4000E89526C08437B1F42ED02DD0F82E2BD052
:107F50003CD0F601EF2C8F010F5F1F4F84911BD097
:107F6000EA94F801C1F70894C11CD11CFA94CF0C13
:107F7000D11C0EC0853739F428D08EE10CD085E9AC
:107F80000AD08FE07ACF813511F488E018D01DD067
:107F900080E101D065CF982F8091C00085FFFCCF94
:107FA0009093C60008958091C00087FFFCCF809118
:107FB000C00084FD01C0A8958091C6000895E0E648
:107FC000F0E098E1908380830895EDDF803219F02E
:107FD00088E0F5DFFFCF84E1DECF1F93182FE3DFCA
:107FE0001150E9F7F2DF1F91089580E0E8DFEE27F6
:047FF000FF270994CA
:027FFE00040479
:00000001FF
