:020000040000FA
:100000000C9462000C94B1060C948A060C948A003D
:100010000C948A000C948A000C948A000C948A0038
:100020000C948A000C948A000C948A000C948A0028
:100030000C948A000C948A000C948A000C948A0018
:100040000C9440060C948A000C948A000C948A004C
:100050000C948A000C948A000C948A000C948A00F8
:100060000C948A000C948A000000000023002600F3
:10007000290000000000240027002A0000000000E2
:10008000250028002B0004040404040404040202D4
:100090000202020203030303030301020408102007
:1000A0004080010204081020010204081020000012
:1000B0000008000201000003040700000000000027
:1000C0000000AA0B11241FBECFEFD8E0DEBFCDBFCA
:1000D00011E0A0E0B1E0ECE3F8E102C005900D9280
:1000E000AA31B107D9F721E0AAE1B1E001C01D9220
:1000F000A33AB207E1F710E0C2E6D0E004C02197CE
:10010000FE010E94090CC136D107C9F70E94D8062A
:100110000C941C0C0C9400008230F8F4E82FF0E0F2
:10012000EE0FFF1FE050FF4F2EEC31E031832083B4
:10013000813041F0809169008C7F682B6093690069
:10014000E89A089580916900837F660F771F660F94
:10015000771F682B60936900E99A0895833081F0D6
:1001600028F4813099F08230A9F008958730A9F001
:100170008830C9F08430B1F4809180008F7D03C055
:10018000809180008F7780938000089584B58F7769
:1001900084BD089584B58F7DFBCF8091B0008F77AB
:1001A0008093B00008958091B0008F7DF9CF1F93A8
:1001B000CF93DF93282F30E0F901E255FF4F849170
:1001C000F901E656FF4FD491F901EA57FF4FC49168
:1001D000CC23A9F0162F81110E94AE00EC2FF0E085
:1001E000EE0FFF1FE458FF4FA591B4918FB7F8941D
:1001F000EC91111108C0D095DE23DC938FBFDF9105
:10020000CF911F910895DE2BF8CFCF93DF9390E02D
:10021000FC01E656FF4F24918A579F4FFC018491C1
:100220008823C9F090E0880F991FFC01EE58FF4F1A
:10023000A591B491FC01E458FF4FC591D49161118F
:100240000DC09FB7F8948C91209582238C93888160
:10025000282328839FBFDF91CF910895623051F406
:100260009FB7F8943C91822F809583238C93E881EB
:100270002E2BEFCF8FB7F894EC912E2B2C938FBFB2
:10028000EACF2FB7F8946091890170918A0180912B
:100290008B0190918C012FBF089580E090E0892B15
:1002A00011F00C940000089580911B0191E08927C2
:1002B00080931B0108950895CF93C82F80E090E0AC
:1002C000892B51F080914F018C1731F081E0C111E1
:1002D00001C080E00E940000C0934F0160E070E028
:1002E000CB01C1110E9441016093500170935101F3
:1002F000809352019093530180E090E0892B59F054
:1003000080914F018C1739F081E0C11101C080E06C
:10031000CF910C940000CF9108951F93CF93DF935A
:10032000EC01162F80E090E0892B91F0C830D105C8
:1003300079F4662319F10E94000080E090E0892B97
:10034000B9F0612FCE01DF91CF911F910C94000085
:1003500080E090E0892BA9F781E0C11594E0D907EE
:1003600008F080E0111105C0DF91CF911F91089531
:1003700081E027972297C0F780E0F6CF80E090E0F9
:10038000892BF9F681E0F0CF80E090E0892B29F00D
:100390008091660183FD0C9400000895FF920F93F5
:1003A0001F93CF93DF933FB7F8948091840190918E
:1003B0008501A0918601B091870126B5A89B05C053
:1003C0002F3F19F00196A11DB11D3FBFBA2FA92FD4
:1003D000982F8827820F911DA11DB11D42E0880F23
:1003E000991FAA1FBB1F4A95D1F720911F01309179
:1003F0002001EC01C21BD30B209123013091240179
:10040000C217D30708F45FC020913701309138013B
:100410002130310561F0E0916001F091610140818E
:100420005091620145235091210145134CC0909396
:10043000200180931F010091250110912601223097
:10044000310509F413C12330310509F44EC12130BF
:10045000310561F480911E01813009F447C0C8F173
:10046000833009F482C0843009F4C9C08091370117
:1004700090913801019739F1C017D10708F06DC18B
:1004800080911C018F5F80931C018B30E0F081E034
:1004900090E0909338018093370161E070E08091A3
:1004A0005E010E948C001092210110921E0182E5D3
:1004B00090E0909326018093250183E290E0909351
:1004C000240180932301DF91CF911F910F91FF9021
:1004D0000895C017D10730F481E080931E01C093C6
:1004E0001D01C4CF84E080931E01C0CFC017D10787
:1004F000D0F510921E0180911C018F5F80931C012A
:1005000020911D018C2F0C2E000C990B821B910940
:1005100027FD939597FF03C0919581959109499780
:1005200094F2109238011092370182E990E0909392
:1005300026018093250182E590E090932401809329
:10054000230110921C01F09022016F2D70E0809128
:100550005E010E948C008091620193E0F91227C035
:100560008093210183CF83E0BECFC017D10708F568
:10057000109238011092370182E990E090932601A1
:100580008093250182E590E09093240180932301DC
:1005900010921C01F09022016F2D70E080915E019D
:1005A0000E948C008091620133E0F316C9F280E072
:1005B000D7CF90912201933009F482E080932201F9
:1005C00082E090E0909338018093370182E990E0D7
:1005D000909326018093250182E590E09093240179
:1005E0008093230110923D0180911C0180933E0174
:1005F00010923A0110923C0110923B01CBCFC017F0
:10060000D107A8F4109238011092370182E990E0E6
:10061000909326018093250182E590E09093240138
:100620008093230110921C0110923A018CCF82E03A
:1006300090E0909338018093370182E990E09093A5
:1006400026018093250182E590E090932401809318
:10065000230110923D0180911C0180933E01109274
:100660003A0110923C0110923B016DCF90913A01FA
:100670009F5F90933A0180913B01880FC017D1078B
:10068000E0F080933B01983009F0F6CEE0913D0117
:10069000E630A9F4109238011092370182E990E017
:1006A000909326018093250182E590E090932401A8
:1006B0008093230110923A01D9CE8160E2CF83E08A
:1006C00090E0909338018093370181E08E0F809302
:1006D0003D0190913B01F0E0E95CFE4F90878091F5
:1006E0003C01892780933C01C1CEC017D10728F572
:1006F000109238011092370110923A0182E990E08D
:10070000909326018093250182E590E09093240147
:100710008093230180913C018111B2CE88E0EDE30A
:10072000F1E0A5E4B1E001900D928A95E1F781E056
:100730008093390110921C0199CE80913D01863041
:1007400009F4A8CF82E090E09093380180933701BC
:1007500010923A0110923B0189CE10921C01B3CE47
:10076000FF920F931F93CF93DF930DE811E0D0E03A
:10077000C0E0F801F1908F01CE010E94CB0BF8167A
:1007800021F06F2DCE010E94D30B2196C631D105E9
:1007900081F78DE891E0DF91CF911F910F91FF904C
:1007A0000895E0911A01EF3F21F1F0E0E357FE4F89
:1007B000868191E0892786830E94B003E0911A0127
:1007C000F0E0DF01A357BE4F16966C911697EE0F1F
:1007D000FF1FE95DFE4F818160FB80F961701E960D
:1007E0009C91692760FB81F98183617080810C9401
:1007F000D7000895CF93DF9320911B01222351F05E
:1008000010921B019093920180939101DF91CF91FF
:100810000C94B0038830910538F580931A01FC01DF
:10082000E357FE4F868591E0892786870E94B003B3
:10083000E0911A01F0E0DF01A357BE4FEE0FFF1F5A
:10084000EF01C85DDE4F688161701E968C9168274C
:10085000E95DFE4F818160FB81F981836170808158
:10086000DF91CF910C94D7008FEF80931A01DF9125
:10087000CF9108951F93CF93DF93EC01162F83310F
:100880009105C8F48131910528F48130910511F06A
:10089000099731F48FEF9FEF909364018093630188
:1008A00080E090E0892BA9F0612FCE01DF91CF91FC
:1008B0001F910C9400004D9799F7177F10936601D4
:1008C00080914D018F73912F907C892B80934D01E6
:1008D000E1CFCE010E94CB0B1817C1F0612FCE01E2
:1008E0000E94D30B80E090E0892B21F0612FCE0194
:1008F0000E94000080E090E0892B41F080914D0142
:1009000084FD04C0612FCE010E940000CE01DF9162
:10091000CF911F910C94CB0B20E030E0232B11F0F2
:100920000C9400000C94CB0BBF92CF92DF92EF920D
:10093000FF920F931F93CF93DF938B01B42E690126
:1009400082FF23C083FF17C061E0C8010E948D01B0
:100950008823D9F16B2DC8010E943A048B1135C050
:10096000F601DF91CF911F910F91FF90EF90DF90F3
:10097000CF90BF90099460E0C8010E948D01882348
:1009800021F1C8010E948C04E9CF842F8770C1E057
:10099000D0E07E0101C0EE0C8A95EAF7D42FD87022
:1009A000CB010E948C04C82FB4FE1CC061E0C801BA
:1009B0000E948D01882349F0DD2389F0CE296C2F18
:1009C000C8010E943A048C1759F2DF91CF911F9110
:1009D0000F91FF90EF90DF90CF90BF900895E0943B
:1009E000CE21EDCF60E0C8010E948D01882369F31C
:1009F000CE21DD2319F0C111B3CFE7CFCC2309F409
:100A0000AFCFE3CFCF92DF92EF92FF920F931F937E
:100A1000CF937C016B01C42F402F8C2F807E8036BA
:100A200009F474C080F4803209F453C0803409F4AE
:100A30006DC08823D9F1CF911F910F91FF90EF9056
:100A4000DF90CF900895803A09F497C0A8F48038D9
:100A500091F780E090E02C2F2F7141E050E0892B3E
:100A600051F3B601C701CF911F910F91FF90EF9005
:100A7000DF90CF900C940000803C09F48CC0803E45
:100A8000D1F66C2F70E0762F662766277370622B85
:100A90006F5F7F4F24EC31E08C2FCF911F910F912E
:100AA000FF90EF90DF90CF900C9494048C2F8E7079
:100AB00011F680E090E0892B09F4BDCF8C2F817076
:100AC000CF911F910F91FF90EF90DF90CF900C94FA
:100AD0000000CF71CF3109F0AECF80E090E0892BDC
:100AE00009F4A9CF422F4F7769F0413069F0221FF6
:100AF0002227221F30E00FE710E0B601C7010E9455
:100B0000000099CF41E0F3CF40E0F1CF80E090E0EA
:100B1000892BC1F02C2F30E08C2F8F71813029F080
:100B200030F0803121F08131F1F440E001C041E04A
:100B300025FB222720F90DE110E030E0B601C701C6
:100B40000E94000080E090E0892B09F474CF4C2FC4
:100B5000B601C701CF911F910F91FF90EF90DF90E9
:100B6000CF900C940000C901880F991F8E71C4FBAF
:100B7000442740F9482B4250DBCF80E090E0892B9E
:100B800009F459CF2C2F2F7043E050E0C4FF69CFF8
:100B900042E050E066CFCF71CE3159F0CF3109F04D
:100BA0004ACF80E090E045E050E0892B09F059CF32
:100BB00042CF80E090E044E050E0892B09F051CF33
:100BC0003ACFCF93DF9320916301309164012F3F9F
:100BD000320721F0C901DF91CF910895809166011C
:100BE00087FF2BC086FF0FC089E090E00E948C0435
:100BF000C82F81E090E00E948C049C2F90936401A8
:100C00008093630115C089E090E00E948C04C82F96
:100C100081E090E00E948C0490E4C99F900111242F
:100C2000207C31708F73282B3093640120936301F3
:100C30008091630190916401CECF85FF0CC081E16A
:100C400090E00E948C04C82F82E190E00E948C0406
:100C5000C05CDD0BD2CF81E090E00E948C0490E07C
:100C6000CDCF0E945C01EDE4F1E081E08783108646
:100C7000E6E5F1E088E0DF011D928A95E9F7089545
:100C80001F920F920FB60F9211242F933F938F93C1
:100C90009F93AF93BF938091890190918A01A09116
:100CA0008B01B0918C013091880123E0230F2D3707
:100CB00058F50196A11DB11D2093880180938901EB
:100CC00090938A01A0938B01B0938C018091840151
:100CD00090918501A0918601B09187010196A11D97
:100CE000B11D8093840190938501A0938601B093F8
:100CF0008701BF91AF919F918F913F912F910F905D
:100D00000FBE0F901F90189526E8230F0296A11D85
:100D1000B11DD2CF1F920F920FB60F9211242F93B5
:100D20003F934F935F936F937F938F939F93AF9373
:100D3000BF93EF93FF93E0910201F09103010995B6
:100D4000FF91EF91BF91AF919F918F917F916F91A3
:100D50005F914F913F912F910F900FBE0F901F9079
:100D600018951F920F920FB60F9211242F933F9355
:100D70004F935F936F937F938F939F93AF93BF93A3
:100D8000EF93FF93E0910001F09101010995FF912C
:100D9000EF91BF91AF919F918F917F916F915F91F3
:100DA0004F913F912F910F900FBE0F901F9018956C
:100DB000789484B5826084BD84B5816084BD85B536
:100DC000826085BD85B5816085BD80916E00816042
:100DD00080936E00109281008091810082608093E8
:100DE00081008091810081608093810080918000EA
:100DF0008160809380008091B10084608093B10015
:100E00008091B00081608093B00080917A0084600E
:100E100080937A0080917A00826080937A0080913A
:100E20007A00816080937A0080917A008068809354
:100E30007A001092C10061E08DE00E9405010DE88A
:100E400011E0D0E0C0E0CE010E94CB0BD8018D9321
:100E50008D012196C631D105B1F780918D01909118
:100E60008E01A0918F01B09190018F3E9E4BAD4AB3
:100E7000BE4D59F086E1E4E0F1E0ADE8B1E001906B
:100E80000D928A95E1F70E94B003A3E9B1E090E0EA
:100E900080E03D91FC01EE0FFF1FE95DFE4F2181D7
:100EA00030FB20F9218317962C9117972083019608
:100EB0008830910571F710925E0182E080935F01A6
:100EC000E8E8F0E0E491F0E0EE0FFF1FE859FF4F93
:100ED000859194919093610180936001ECE9F0E039
:100EE000E491E093620160E082E00E940501E7E3A3
:100EF000F1E086E1DF011D928A95E9F782E990E051
:100F0000909326018093250182E590E0909324013F
:100F10008093230180EC80934D0110924E018FEF5E
:100F20009FEF90936401809363011092650183E0C9
:100F300080932201809162018093210163E070E03F
:100F400080915E010E948C008DE190E00E948C04F3
:100F5000682F606C8DE190E00E943A0480936601F6
:100F60006BE087E090E00E943A046DE088E090E05A
:100F70000E943A0480E00E943106809175018770DA
:100F8000886380937501809176018E7C8062809366
:100F9000760182E390E0A0E0B0E080937C01909342
:100FA0007D01A0937E01B0937F0184E591E0909351
:100FB000700180936F0181ED93E0909372018093B3
:100FC0007101C0E04C2EC0E05C2E612C772473943C
:100FD00010E0A12E10E0B12E00E0802E00E0902E57
:100FE00080E0C82E80E0D82E20917501E22FE69592
:100FF000E695E6952091760121702295220F207EBC
:101000002E2B30E0F901E255FF4F8491F901E656AD
:10101000FF4FC491F901EA57FF4FD491DD2379F0D6
:1010200081110E94AE00ED2FF0E0EE0FFF1FE85996
:10103000FF4FA591B491EC91EC23C1E009F4C0E01D
:1010400080917C0190917D01A0917E01B0917F0102
:10105000892B8A2B8B2BE1F580917C0190917D016E
:10106000A0917E01B0917F01892B8A2B8B2B51F0AF
:101070000E944101609378017093790180937A0115
:1010800090937B019C2F91708091750182FB882742
:1010900080F9C81316C08091760181FB222720F9C0
:1010A000C21709F460C090FB81F920917701CC232D
:1010B00009F452C08C6080937601822F8160809306
:1010C00077018091750190FB82F9809375011CC0B6
:1010D0000E944101009178011091790120917A01DB
:1010E00030917B01601B710B820B930B00917C0193
:1010F00010917D0120917E0130917F016017710771
:101100008207930708F0A8CF6091760166956695EF
:101110006370809175018370861749F0E0917301C7
:10112000F0917401309719F08FE691E00995909154
:101130007601292F269526952370809175018C7F45
:10114000822B8093750190738370903391F491E0BA
:101150008330A9F090E013C0837F8860809376018C
:10116000822F8260ACCF837FC1118460809376012F
:10117000A8CF903209F088C091E0823059F7809171
:10118000760190FB86F980937601982F9C709C30B5
:1011900021F4837F84608093760180917601982F7B
:1011A0009C70983019F4837F80937601809175014B
:1011B0008370823079F40E944101609380017093C2
:1011C00081018093820190938301809176018F77D2
:1011D00080937601809175018370833009F05DC042
:1011E0000E944101009180011091810120918201B2
:1011F00030918301601B710B820B930B603D774034
:101200008105910508F049C0E0916F01F0917001EE
:10121000309719F08FE691E0099580914F0188236E
:10122000B1F00E94410100915001109151012091B3
:10123000520130915301601B710B820B930B65318E
:1012400071058105910518F080E00E9431068091BA
:101250003901882309F46CC0F89488E0E5E4F1E0F2
:10126000A7E6B1E001900D928A95E1F7109239015D
:10127000789480916701E82FF0E0E759FE4F8630BF
:10128000C8F511928F5FFBCF903109F063CF825088
:1012900091E0823008F473CF5DCF80917501837047
:1012A000813009F0BACF8091760187FDB6CF0E94D8
:1012B00041010091800110918101209182013091C2
:1012C0008301601B710B820B930B603D774081059E
:1012D000910508F4A2CFE0917101F091720130976D
:1012E00019F08FE691E009958091760180688093EE
:1012F000760193CF80E090E0892B21F087E691E0A2
:101300000E9400008091690181111EC090916A01C4
:1013100091111AC080E090E0892B19F080E00E94C2
:10132000000080914F01882359F081E00E945C0108
:1013300080E090E0892B09F457CE0E94000041CE56
:1013400081E00E943106F4CF90914F01992309F476
:1013500087C08057803108F080C081E00E945C0126
:10136000C091670180915601C8130AC04C2F50E00C
:1013700068E571E089E691E00E940F0C892B61F02D
:101380001092550188E0E7E6F1E0A6E5B1E00190B2
:101390000D928A95E1F7CCCF809155018F5F8093B4
:1013A0005501C33009F041C020916901822F877037
:1013B00010916A01853049F410935401C114D1048D
:1013C00009F4B6CF0E940000B3CFCDE1D0E0843065
:1013D00089F0C82FD0E0843060F4809154018823D4
:1013E00041F08150990B880F991F880F991FC80FE2
:1013F000D91F219623FF0EC061E0CE010E948D010E
:10140000882309F495CF612FCE010E943A04181366
:101410008FCFD4CF60E0CE010E948D01882309F4E4
:1014200087CFCE010E948C04F2CFC43009F080CF68
:1014300080916901682F70E0762F662766277370A8
:1014400090916A01692B6F5F7F4F2DE431E04091ED
:101450006B018C700E9494046BCF80E00E94310677
:10146000809169018F3F59F480916A01811160CFA9
:101470008114910409F45CCF0E94000059CF87FDCC
:101480000CC000916C0120916B0140916A0170E0E9
:1014900060E090E00E9402054BCF803C08F047C11D
:1014A00090914D0197FF44CF40916A01242F30E085
:1014B000E901C095D095CC0FDD1FCC0FDD1FC07C9E
:1014C000D1708F73C82B35952795A22FA3703A2E14
:1014D00080916701853031F54C784C3019F50E94C8
:1014E000E1058C179D0721F0CF3FD14009F020CFB7
:1014F000C0916A01D0E0DC2FCC27CC27D37080913B
:101500006B01C80FD11D219610916C0161E0CE01D5
:101510000E948D01612F882309F40ACFCE010E9419
:101520003A0406CF7E01E1E0EE1AF108EE0CFF1C52
:10153000EE0CFF1CE32887010F5F1F4F80916501B0
:101540008823E9F096FF3FC0C801B3010E94E10B78
:10155000682F81E090E00E943A04C80117FF02C0A2
:1015600081509F4F692F89E090E00E943A04A114B6
:10157000B10419F0C8010E94000010926501809129
:101580004D0180FD38C080916701843009F04CC066
:1015900080916A018978813009F0CACE80E090E0BC
:1015A000892B29F060916B01C8010E940000A0E026
:1015B000B0E0AB2B09F4BCCE40916B01632DC801A8
:1015C0000E940000B5CEBE016F73772781E090E0E6
:1015D0000E943A04BE0146E0759567954A95E1F789
:1015E00089E090E00E943A044114510431F2CE01A6
:1015F0000E940000C2CF86FF0BC00E94E105801749
:10160000910709F20D3FF7E01F070CF0BCCF90CE19
:101610000E94E1058C179D0709F4B5CFCF3F21E06B
:10162000D20709F4B0CF84CE833041F540916A01EE
:10163000B42FB170EB2E43FBFF24F0F8E0E0F0E0B4
:10164000EF2B31F047702F2DBE01C8010E94000022
:1016500080914D0186FF06C04F2D6E2DC8010E945E
:10166000FA0366CE80E090E0892B09F461CE2F2D3D
:101670004E2D632DCE010E9400005ACE863009F017
:1016800057CE80916A01982F9978913021F08F7808
:10169000803809F04DCE80914D0186FF24C00E9414
:1016A000E10580179107D9F480916B0190E0D82F64
:1016B000CC27CC27D37020916C01C20FD11D21966D
:1016C00010916D01959587959595879583709927CC
:1016D0008230910589F0039709F418CF29CE0D3F88
:1016E000174014F725CE0E94E1058C179D07E1F203
:1016F000CF3FD140C9F21CCE14FF1ACE61E0CE011B
:101700000E948D01882309F413CECE010E948C041F
:10171000912F977061E070E001C0660F9A95EAF72B
:1017200013FF02C0682BFACE60956823F7CE883E7F
:1017300008F0FECD805C990B30916A0100916D013B
:1017400020916C0140916B0161E070E0E32FF82F74
:10175000CF01A0CEAFE6B1E011961C921E92139677
:101760001C921E92129715961C921E921497E5E7F2
:10177000F1E080818770808381811D961D921D928A
:101780001D921C92509792819E7F9D7F92838E7CAA
:101790008F7781830895F999FECF92BD81BDF89A24
:1017A000992780B50895262FF999FECF1FBA92BDCB
:1017B00081BD20BD0FB6F894FA9AF99A0FBE019632
:1017C000089597FB072E16F4009407D077FD09D0F3
:1017D0000E94F50B07FC05D03EF4909581959F4F34
:1017E0000895709561957F4F0895AA1BBB1B51E129
:1017F00007C0AA1FBB1FA617B70710F0A61BB70B81
:10180000881F991F5A95A9F780959095BC01CD0125
:101810000895EE0FFF1F0590F491E02D0994FB0150
:10182000DC0104C08D910190801921F44150504099
:10183000C8F7881B990B0895F894FFCF5B015B01F3
:10184000EFBEADDE0100000000000000000000005F
:0618500000000000000092
:107E0000112484B714BE81FFF0D085E080938100F7
:107E100082E08093C00088E18093C10086E0809377
:107E2000C20080E18093C4008EE0C9D0259A86E02C
:107E300020E33CEF91E0309385002093840096BBD3
:107E4000B09BFECF1D9AA8958150A9F7CC24DD24C4
:107E500088248394B5E0AB2EA1E19A2EF3E0BF2EE7
:107E6000A2D0813461F49FD0082FAFD0023811F036
:107E7000013811F484E001C083E08DD089C08234E0
:107E800011F484E103C0853419F485E0A6D080C0E4
:107E9000853579F488D0E82EFF2485D0082F10E0AE
:107EA000102F00270E291F29000F111F8ED06801E7
:107EB0006FC0863521F484E090D080E0DECF843638
:107EC00009F040C070D06FD0082F6DD080E0C81688
:107ED00080E7D80618F4F601B7BEE895C0E0D1E017
:107EE00062D089930C17E1F7F0E0CF16F0E7DF06D8
:107EF00018F0F601B7BEE89568D007B600FCFDCFD4
:107F0000A601A0E0B1E02C9130E011968C91119780
:107F100090E0982F8827822B932B1296FA010C0160
:107F200087BEE89511244E5F5F4FF1E0A038BF0790
:107F300051F7F601A7BEE89507B600FCFDCF97BE46
:107F4000E89526C08437B1F42ED02DD0F82E2BD052
:107F50003CD0F601EF2C8F010F5F1F4F84911BD097
:107F6000EA94F801C1F70894C11CD11CFA94CF0C13
:107F7000D11C0EC0853739F428D08EE10CD085E9AC
:107F80000AD08FE07ACF813511F488E018D01DD067
:107F900080E101D065CF982F8091C00085FFFCCF94
:107FA0009093C60008958091C00087FFFCCF809118
:107FB000C00084FD01C0A8958091C6000895E0E648
:107FC000F0E098E1908380830895EDDF803219F02E
:107FD00088E0F5DFFFCF84E1DECF1F93182FE3DFCA
:107FE0001150E9F7F2DF1F91089580E0E8DFEE27F6
:047FF000FF270994CA
:027FFE00040479
:00000001FF
