:100000000C9462000C9471070C944A070C948A00BB
:100010000C948A000C948A000C948A000C948A0038
:100020000C948A000C948A000C948A000C94980713
:100030000C948A000C948A000C948A000C948A0018
:100040000C9400070C948A000C948A000C948A008B
:100050000C948A000C948A000C948A000C948A00F8
:100060000C948A000C948A000000000023002600F3
:10007000290000000000240027002A0000000000E2
:10008000250028002B0004040404040404040202D4
:100090000202020203030303030301020408102007
:1000A0004080010204081020010204081020000012
:1000B0000008000201000003040700000000000027
:1000C00000002F1011241FBECFEFD8E0DEBFCDBF40
:1000D00011E0A0E0B1E0E4E8F2E202C005900D9288
:1000E000AC30B107D9F722E0ACE0B1E001C01D921D
:1000F000A035B207E1F710E0C2E6D0E004C02197D6
:10010000FE010E942D11C136D107C9F70E94540883
:100110000C9440110C9400008230F8F4E82FF0E0C9
:10012000EE0FFF1FE95FFE4F20E232E031832083B4
:10013000813041F0809169008C7F682B6093690069
:10014000E89A089580916900837F660F771F660F94
:10015000771F682B60936900E99A0895833081F0D6
:1001600028F4813099F08230A9F008958730A9F001
:100170008830C9F08430B1F4809180008F7D03C055
:10018000809180008F7780938000089584B58F7769
:1001900084BD089584B58F7DFBCF8091B0008F77AB
:1001A0008093B00008958091B0008F7DF9CF1F93A8
:1001B000CF93DF93282F30E0F901E255FF4F849170
:1001C000F901E656FF4FD491F901EA57FF4FC49168
:1001D000CC23A9F0162F81110E94AE00EC2FF0E085
:1001E000EE0FFF1FE458FF4FA591B4918FB7F8941D
:1001F000EC91111108C0D095DE23DC938FBFDF9105
:10020000CF911F910895DE2BF8CFCF93DF9390E02D
:10021000FC01E656FF4F24918A579F4FFC018491C1
:100220008823C9F090E0880F991FFC01EE58FF4F1A
:10023000A591B491FC01E458FF4FC591D49161118F
:100240000DC09FB7F8948C91209582238C93888160
:10025000282328839FBFDF91CF910895623051F406
:100260009FB7F8943C91822F809583238C93E881EB
:100270002E2BEFCF8FB7F894EC912E2B2C938FBFB2
:10028000EACF2FB7F89460912502709126028091F1
:100290002702909128022FBF089580E090E0892BDB
:1002A00011F00C94000008950895FC0180818330C2
:1002B00011F491E090839081923009F410820895B6
:1002C0001F93CF93DF93EC011C856D8570E090E068
:1002D00080E0611B71098109910922E030E040E072
:1002E00050E00E949610120F1E87DF91CF911F9150
:1002F0000895CF93DF93EC0180914F028C3058F535
:1003000091E0980F90934F02888390E0FC01EE0FEC
:10031000FF1FE80FF91FE55DFD4F88EB9BE092831F
:1003200081838FEF9FEF9B8B8A8B862F8F736A85DC
:10033000607C682B6A8788E28B8780E58C8784E6FF
:100340008D87CE010E94600188898F638064888BCD
:10035000DF91CF9108958FEF8883E3CFCF93C82F9C
:1003600080E090E0892B51F080913D018C1731F0B5
:1003700081E0C11101C080E00E940000C0933D01F6
:1003800060E070E0CB01C1110E94410160933E0129
:1003900070933F01809340019093410180E090E091
:1003A000892B59F080913D018C1739F081E0C11102
:1003B00001C080E0CF910C940000CF9108951F936D
:1003C000CF93DF93EC01162F80E090E0892B91F022
:1003D000C830D10579F4662319F10E94000080E04D
:1003E00090E0892BB9F0612FCE01DF91CF911F9161
:1003F0000C94000080E090E0892BA9F781E0C11502
:1004000094E0D90708F080E0111105C0DF91CF9189
:100410001F91089581E027972297C0F780E0F6CFDB
:1004200080E090E0892BF9F681E0F0CF80E090E069
:10043000892B29F08091540183FD0C9400000895CC
:10044000FF920F931F93CF93DF933FB7F894809160
:10045000200290912102A0912202B091230226B5A0
:10046000A89B05C02F3F19F00196A11DB11D3FBFEC
:10047000BA2FA92F982F8827820F911DA11DB11D7A
:1004800042E0880F991FAA1FBB1F4A95D1F7209100
:100490000F0130911001EC01C21BD30B209114010C
:1004A00030911501C217D30708F45FC020912501D0
:1004B000309126012130310561F0E0914E01F0913B
:1004C0004F01408150915001452350911201451335
:1004D0004CC09093100180930F0100911601109170
:1004E00017012230310509F413C12330310509F415
:1004F0004EC12130310561F480910E01813009F443
:1005000047C0C8F1833009F482C0843009F4C9C0FF
:100510008091250190912601019739F1C017D107EB
:1005200008F06DC180910C018F5F80930C018B30BE
:10053000E0F081E090E0909326018093250161E056
:1005400070E080914C010E948C0010921201109278
:100550000E0182E590E0909317018093160183E2EB
:1005600090E09093150180931401DF91CF911F913A
:100570000F91FF900895C017D10730F481E0809368
:100580000E01C0930D01C4CF84E080930E01C0CF53
:10059000C017D107D0F510920E0180910C018F5F2A
:1005A00080930C0120910D018C2F0C2E000C990BC7
:1005B000821B910927FD939597FF03C09195819523
:1005C0009109499794F2109226011092250182E92F
:1005D00090E0909317018093160182E590E090934C
:1005E00015018093140110920C01F09013016F2DEE
:1005F00070E080914C010E948C008091500193E04A
:10060000F91227C08093120183CF83E0BECFC017B9
:10061000D10708F5109226011092250182E990E099
:10062000909317018093160182E590E09093150155
:100630008093140110920C01F09013016F2D70E063
:1006400080914C010E948C008091500133E0F316A0
:10065000C9F280E0D7CF90911301933009F482E082
:100660008093130182E090E090932601809325010E
:1006700082E990E0909317018093160182E590E063
:10068000909315018093140110922B0180910C011D
:1006900080932C011092280110922A0110922901B6
:1006A000CBCFC017D107A8F41092260110922501D4
:1006B00082E990E0909317018093160182E590E023
:1006C000909315018093140110920C01109228014F
:1006D0008CCF82E090E0909326018093250182E9FF
:1006E00090E0909317018093160182E590E090933B
:1006F00015018093140110922B0180910C018093BD
:100700002C011092280110922A01109229016DCF1C
:10071000909128019F5F9093280180912901880F73
:10072000C017D107E0F080932901983009F0F6CE88
:10073000E0912B01E630A9F41092260110922501D8
:1007400082E990E0909317018093160182E590E092
:10075000909315018093140110922801D9CE8160E5
:10076000E2CF83E090E0909326018093250181E021
:100770008E0F80932B0190912901F0E0EB5DFE4FED
:10078000908780912A01892780932A01C1CEC017C2
:10079000D10728F510922601109225011092280108
:1007A00082E990E0909317018093160182E590E032
:1007B000909315018093140180912A018111B2CE8A
:1007C00088E0EBE2F1E0A3E3B1E001900D928A95BD
:1007D000E1F781E08093270110920C0199CE80917E
:1007E0002B01863009F4A8CF82E090E09093260197
:1007F00080932501109228011092290189CE109230
:100800000C01B3CE84FF0EC091E090935E0180FF97
:100810000CC091E090935B0181FF0AC081E080935E
:100820005A01089510925E01F2CF10925B01F4CF4D
:1008300010925A0108958F30974231F4413051059A
:1008400019F4822F0C9402040895B9018F30974255
:10085000D9F4242F30E050E040E021503109410923
:1008600051096130710589F4AAEBBFEF0E94C310F2
:100870002FE730E040E050E00E949610265A3F4FAC
:100880004F4F5F4F209359010895A6E4B0E00E94B6
:10089000B510EECF0F931F93CF93DF9320912902D2
:1008A00030912A028217930728F1A901485F5F4F10
:1008B00084179507F8F4821B94E1899FE0011124C5
:1008C0008E0100581E4F262F30E0ACE8B0E00E94A9
:1008D000EA102FEF30E040E050E00E9496102C5ECE
:1008E0003F4F4F4F5F4FF8012787C857DE4F888132
:1008F00081608883DF91CF911F910F910895880FB8
:10090000815080931D0110921E0184E690E0A0E0CA
:10091000B0E08093020190930301A0930401B0938F
:10092000050181E080931C0108950C9488101F93A9
:10093000CF93DF93EC01162F0E948010181739F027
:10094000612FCE01DF91CF911F910C948810DF9120
:10095000CF911F910895CF93C091290280E590E037
:100960000E948010C81729F06C2F80E590E00E944B
:100970008810C0912A0281E590E00E948010C8177B
:1009800029F06C2F81E590E00E94881089E292E0C6
:10099000CF9108950C9480100F931F93CF93DF9302
:1009A0008C01FC01C289D3892296CE010E94CA041F
:1009B000F8019085682F91FF08C06160CE01DF913A
:1009C000CF911F910F910C9495046E7FF7CF442324
:1009D00009F449C020911F01222359F010921F01F0
:1009E00090932A02809329020E94AB0486E00C9423
:1009F0007F042091290230912A028217930780F107
:100A0000A901485F5F4F8417950750F5821B8093BB
:100A10000601482F50E094E1899FF0011124E85726
:100A2000FE4F90819E7F908321E0611101C020E004
:100A3000908120FB91F9908394E1949FF001959F20
:100A4000F00D1124E058FE4F218927FF07C0899F30
:100A5000C001112480589E4F0E94CC0483E0C7CF70
:100A60008FEF8093060108951F93CF93DF93EC01DE
:100A7000162F83319105C8F48131910528F4813016
:100A8000910511F0099731F48FEF9FEF9093520188
:100A90008093510180E090E0892BA9F0612FCE0175
:100AA000DF91CF911F910C9400004D9799F7177F1C
:100AB0001093540180913B018F73912F907C892B6F
:100AC00080933B01E1CFCE010E94CA041817C1F008
:100AD000612FCE010E94950480E090E0892B21F0E7
:100AE000612FCE010E94000080E090E0892B41F050
:100AF00080913B0184FD04C0612FCE010E94000063
:100B0000CE01DF91CF911F910C94CA0420E030E018
:100B1000232B11F00C9400000C94CA04BF92CF92C6
:100B2000DF92EF92FF920F931F93CF93DF938B018E
:100B3000B42E690182FF23C083FF17C061E0C801A2
:100B40000E94DF018823D9F16B2DC8010E94340572
:100B50008B1135C0F601DF91CF911F910F91FF905E
:100B6000EF90DF90CF90BF90099460E0C8010E94A1
:100B7000DF01882321F1C8010E948605E9CF842F77
:100B80008770C1E0D0E07E0101C0EE0C8A95EAF7E3
:100B9000D42FD870CB010E948605C82FB4FE1CC08C
:100BA00061E0C8010E94DF01882349F0DD2389F05C
:100BB000CE296C2FC8010E9434058C1759F2DF91A1
:100BC000CF911F910F91FF90EF90DF90CF90BF904A
:100BD0000895E094CE21EDCF60E0C8010E94DF01CE
:100BE000882369F3CE21DD2319F0C111B3CFE7CFFC
:100BF000CC2309F4AFCFE3CFCF93DF932091510102
:100C0000309152012F3F320721F0C901DF91CF917E
:100C100008958091540187FF2BC086FF0FC089E0A3
:100C200090E00E948605C82F81E090E00E94860532
:100C30009C2F909352018093510115C089E090E060
:100C40000E948605C82F81E090E00E94860590E40E
:100C5000C99F90011124207C31708F73282B309311
:100C60005201209351018091510190915201CECFB8
:100C700085FF0CC081E190E00E948605C82F82E1CB
:100C800090E00E948605C05CDD0BD2CF81E090E051
:100C90000E94860590E0CDCF0E94AE01EBE3F1E02B
:100CA00081E087831086E4E4F1E088E0DF011D92B3
:100CB0008A95E9F70895CF92DF92EF92FF920F9312
:100CC0001F93CF937C016B01C42F402F8C2F807E0C
:100CD000803451F108F5882309F44CC08032A1F426
:100CE000CF71CF3189F4422F4F7709F455C041308D
:100CF00009F440E0221F2227221F30E00FE710E016
:100D0000B601C7010E942504CF911F910F91FF905A
:100D1000EF90DF90CF900895803809F44BC0803E6B
:100D200009F459C0803681F72C2F30E08C2F8F7159
:100D3000813029F0E8F18031D9F1813179F540E055
:100D400025FB222720F90DE110E030E0B601C701B4
:100D50000E94250480E090E0892BB1F24C2FB6016F
:100D6000C701CF911F910F91FF90EF90DF90CF902F
:100D70000C9400008C2F8E7039F680E090E0892B67
:100D800019F28C2F8170CF911F910F91FF90EF90EE
:100D9000DF90CF900C94000041E0ACCFC901880FE8
:100DA000991F8E71C4FB442740F9482B4250C8CF8D
:100DB00041E0C6CF8FE0E81687E2F80609F0A4CF3D
:100DC0008C2F8F71CF911F910F91FF90EF90DF903B
:100DD000CF900C9402046C2F70E0762F6627662764
:100DE0007370622B6F5F7F4F26E132E08C2FCF91C3
:100DF0001F910F91FF90EF90DF90CF900C948E0594
:100E00001F920F920FB60F9211242F933F938F933F
:100E10009F93AF93BF938091250290912602A0915A
:100E20002702B09128023091240223E0230F2D37AE
:100E300058F50196A11DB11D20932402809325022F
:100E400090932602A0932702B0932802809120025B
:100E500090912102A0912202B09123020196A11D3E
:100E6000B11D8093200290932102A0932202B0939F
:100E70002302BF91AF919F918F913F912F910F903E
:100E80000FBE0F901F90189526E8230F0296A11D04
:100E9000B11DD2CF1F920F920FB60F9211242F9334
:100EA0003F934F935F936F937F938F939F93AF93F2
:100EB000BF93EF93FF93E0910901F0910A01099527
:100EC000FF91EF91BF91AF919F918F917F916F9122
:100ED0005F914F913F912F910F900FBE0F901F90F8
:100EE00018951F920F920FB60F9211242F933F93D4
:100EF0004F935F936F937F938F939F93AF93BF9322
:100F0000EF93FF93E0910701F09108010995FF919C
:100F1000EF91BF91AF919F918F917F916F915F9171
:100F20004F913F912F910F900FBE0F901F901895EA
:100F30001F920F920FB60F9211242F933F934F934E
:100F40005F936F937F938F939F93AF93BF93CF9351
:100F5000DF93EF93FF9380911101C0914F02D0E096
:100F600087FF24C0109285001092840080911101A7
:100F70008F5F8093110180911101082E000C990B55
:100F80008C179D0724F4809111018C30C4F180915D
:100F9000840090918500049680349C4908F47AC0BE
:100FA0008091840090918500049676C08091110113
:100FB000082E000C990B8C179D07C4F6E0911101C7
:100FC0008E2FEE0F990BFC01EE0FFF1FE80FF91F9C
:100FD000E55DFD4F808186FFC9CFE09111018E2F25
:100FE000EE0F990BFC01EE0FFF1FE80FF91FE55DF7
:100FF000FD4F808160E08F730E94D700B7CF2091B2
:10100000840030918500E09111018E2FEE0F990B35
:10101000FC01EE0FFF1FE80FF91FE55DFD4F818119
:101020009281820F931F9093890080938800E091B2
:1010300011018E2FEE0F990BFC01EE0FFF1FE80F31
:10104000F91FE55DFD4F808186FF11C0E091110120
:101050008E2FEE0F990BFC01EE0FFF1FE80FF91F0B
:10106000E55DFD4F808161E08F730E94D700FF91A5
:10107000EF91DF91CF91BF91AF919F918F917F9130
:101080006F915F914F913F912F910F900FBE0F90F5
:101090001F90189580E49CE99093890080938800C4
:1010A0008FEF80931101E3CF789484B5826084BD83
:1010B00084B5816084BD85B5826085BD85B581605C
:1010C00085BD80916E00816080936E0010928100DA
:1010D0008091810082608093810080918100816095
:1010E0008093810080918000816080938000809156
:1010F000B10084608093B1008091B00081608093E2
:10110000B00080917A00846080937A0080917A00A8
:10111000826080937A0080917A00816080937A0067
:1011200080917A00806880937A001092C10061E01B
:1011300081E00E94050161E080E00E94050161E01C
:1011400084E00E94050161E083E00E94050161E006
:1011500086E00E94050161E085E00E94050161E0F2
:1011600089E00E94050161E088E00E94050162E0DB
:101170008EE00E94050162E08FE00E94050162E0BE
:1011800080E10E94050162E081E10E94050162E0C8
:1011900082E10E94050161E08DE00E94050180E589
:1011A00090E00E9480108093290281E590E00E94E7
:1011B000801080932A028091290290912A02019640
:1011C00041F481E090E090932A02809329020E94EA
:1011D000AB04C0E8D1E010E000E080E8E82E94E144
:1011E000F92E8091000190910101019621F4109255
:1011F000010110920001C0900001D0900101DB8A32
:10120000CA8AC60103969093010180930001E98A7E
:10121000BFEFCB16DB0609F445C001970E94CA0454
:101220008E7381F06C85C6010E9495048A899B8922
:101230006D8501960E9495048A899B8960E00296DB
:101240000E949504CA88DB88C6010E94CA048C8764
:10125000C60101960E94CA048D87CE010E946001DA
:101260008A899B8902960E94CA04998997FF0EC0B9
:1012700080FF80C39D859F83F09EF001F19EF00D5D
:101280001124E857FE4F908192609083F09EF00108
:10129000F19EF00D1124E057FE4F86FF77C3808149
:1012A00080688083F09EF001F19EF00D1124E057DC
:1012B000FE4F808161E08F730E9405010F5F1F4F19
:1012C00064960830110509F08CCF10924C0182E031
:1012D00080934D01E8E8F0E0E491F0E0EE0FFF1FAD
:1012E000E859FF4F8591949190934F0180934E015F
:1012F000ECE9F0E0E491E093500160E082E00E94CC
:101300000501E5E2F1E086E1DF011D928A95E9F74A
:1013100082E990E0909317018093160182E590E0B6
:10132000909315018093140180EC80933B011092FF
:101330003C018FEF9FEF90935201809351011092E7
:10134000530183E080931301809150018093120137
:1013500063E070E080914C010E948C008DE190E090
:101360000E948605682F606C8DE190E00E94340534
:10137000809354016BE087E090E00E9434056DE0BB
:1013800088E090E00E94340580E00E944C06B8E5B9
:101390002B2EB2E03B2EC0911E0180911D018C17B7
:1013A00010F410921C010E9441010091180110914B
:1013B000190120911A0130911B016B017C01C01AA7
:1013C000D10AE20AF30A009102011091030120916F
:1013D000040130910501C016D106E206F306F0F0D3
:1013E000609318017093190180931A0190931B0167
:1013F00080911C01882309F4CCC2CF5FC0931E01E9
:101400008091020190910301A0910401B091050126
:101410000197A105B10509F0EFC22D98C0E8D1E010
:10142000D12CC12C64E1962E7CE0872E0E944101D4
:101430000B811C812D813E81AB01BC01401B510BF6
:10144000620B730B8B8590E0B0E0A0E084179507EA
:10145000A607B70708F011C10E9441016B837C8386
:101460008D839E8381E02F819E85291708F080E07F
:1014700061E02C859D85921708F060E068279C9CB0
:1014800080019D9C100D1124F801E057FE4F8081D2
:1014900087FB992790F969278F730E94D700F8017D
:1014A000E058FE4F808580FFACC2EF848F818E159F
:1014B00010F48F5F8F838F81E81610F481508F8333
:1014C000AF8189858A1709F4D8C0A987F8809BE085
:1014D0009F1508F44FC08A815101A81AB10887FDF1
:1014E000B394AA0CBB1CAA0CBB1C898108E810E0B1
:1014F000081B110987FD1395000F111F000F111F05
:101500002801012E000C66087708B0E0A53BB10564
:1015100014F0A4EBB0E095010B2C000C440B550B20
:1015200024193509460957090E94C01024EB30E000
:1015300040E050E00E949610420E531E641E751E3D
:10154000401651062CF085014A145B040CF482010C
:1015500002501109000F111F2FB7F8948F2D90E042
:10156000FC01EE0FFF1FE80FF91FE55DFD4F128331
:1015700001832FBF8F81E81609F465C02881822F6F
:1015800090E0FC01EE0FFF1FE80FF91FE55DFD4F36
:10159000808186FD58C02C3008F055C09C9CF0011D
:1015A0009D9CF00D1124E657FE4F10811F7361E0E2
:1015B000812F0E9405018881E82FF0E09F01220F12
:1015C000331FE20FF31FE55DFD4F9081907C192BD7
:1015D000108319821A82682D0E94F910889DF001EB
:1015E000112450E040E0BF01640F751F9B01220FE2
:1015F000331F260F371FD901A55DBD4F9C9196FD66
:1016000016C04F5F5F4F4C30510569F781110FC015
:1016100010928000A2E0A0938100109285001092A9
:101620008400B19A80916F00826080936F00E8819E
:10163000F0E0CF01880F991FE80FF91FE55DFD4F1E
:101640008081806480838F81E81217C09C9CF001A8
:101650009D9CF00D1124E058FE4F808986FF0DC03F
:10166000288130E0C901880F991F820F931FFC0168
:10167000E55DFD4F80818F7B8083BFEFCB1ADB0A56
:101680006496E8E0CE16D10409F0D0CE0E94410164
:1016900000917C0110917D0120917E0130917F01AC
:1016A0006B017C01C01AD10AE20AF30A9701860194
:1016B000023311052105310508F44AC060937C010D
:1016C00070937D0180937E0190937F01C8E6D1E005
:1016D0000CE711E0EE24E39482E0D82E93E0C92ECB
:1016E000298130E0F901E255FF4F8491F901E65676
:1016F000FF4FF490F901EA57FF4FB490BB2009F473
:1017000086C181110E94AE00EB2DF0E0EE0FFF1FAD
:10171000E859FF4FA591B491EC91FE2231E020E011
:1017200009F430E0832F922F282F21703A81231360
:1017300009C03B81231709F46FC12B83892B09F45E
:1017400069C1C8822A8324960C171D0709F0C8CFE7
:1017500088E691E00E945501823021F580912401B4
:10176000815008F45FC1809324018091240194E1A9
:10177000989F90011124F901E857FE4F5081452FA1
:101780004D7F51FF4260408320583E4FD901519612
:101790002C91519727FF03C0CD010E94CC0481E01A
:1017A0000E947F0484E791E00E945501823019F580
:1017B000809124018F5F883009F436C18093240121
:1017C0008091240194E1989F90011124F901E85738
:1017D000FE4F5081452F4D7F51FF4260408320587E
:1017E0003E4FF901218927FF03C0CF010E94CC049D
:1017F00084E00E947F0480E791E00E9455018230DE
:10180000F1F4C09124018C2F90E0F4E1CF9FE0012E
:101810001124C058DE4F288521FF09C16D85653030
:1018200008F405C163506D878A899B8901960E94DF
:101830009704CE010E94600183E00E947F048CE641
:1018400091E00E9455018230F1F4C09124018C2F67
:1018500090E024E1C29FE0011124C058DE4F2885AA
:1018600021FFF6C06D856F3A08F0F2C06D5F6D879D
:101870008A899B8901960E949704CE010E9460018B
:1018800082E00E947F0488E791E00E945501823047
:10189000E9F48091240194E1989F90011124F901C9
:1018A000E857FE4F5081452F4D7F51FF42604083E6
:1018B00020583E4FD90151962C91519727FF03C0D4
:1018C000CD010E94CC0485E00E947F0488E791E06E
:1018D0000E9455018111CDC00E944101009120015B
:1018E000109121012091220130912301601B710B85
:1018F000820B930B6C3D75408105910518F081E0DA
:1019000080931F0180913D018823B1F00E94410125
:1019100000913E0110913F01209140013091410121
:10192000601B710B820B930B65317105810591056D
:1019300018F080E00E944C0680912701882309F46A
:10194000C1C0F89488E0E3E3F1E0A0E6B1E00190E3
:101950000D928A95E1F710922701789480916001A9
:10196000E82FF0E0EE59FE4F863008F08DC011925E
:101970008F5FFACF9C859F83F09EF001F19EF00D62
:101980001124E857FE4F90819D7F7FCC80818F7717
:1019900088CC80911F01FDE4CF2EDD24D394E12C6F
:1019A000F12C81111BC080915F019FEF980F933044
:1019B00068F484E690E0A0E0B0E0809302019093A8
:1019C0000301A0930401B09305011ACD843079F48A
:1019D000E8EECE2EE3E0DE2EE12CF12CC0920201E7
:1019E000D0920301E0920401F092050109CD81E05B
:1019F00090E0A0E0B0E0E1CF85B190E2892785B921
:101A00000DCD81FF02C0ED8451CDEC844FCD90E02F
:101A100080E08ACED88296CE892B11F0E88292CED1
:101A2000188290CE87E09FCE10922401C9CE24E187
:101A3000289FF001299FF00D1124E058FE4F648586
:101A4000653008F4F6CE6350648782899389EFCEBF
:101A500024E1289FF001299FF00D1124E058FE4F4A
:101A600064856F3A08F009CF6D5F64878289938936
:101A700002CF0E9441016093200170932101809365
:101A80002201909323013ECF80E090E0892B21F04A
:101A900080E691E00E94000080916201811125C0E2
:101AA00090916301911121C080E090E0892B19F0A1
:101AB00080E00E94000080913D01882391F081E048
:101AC0000E94AE01C0910601CF3F09F016C21092EC
:101AD0005F0180E090E0892B09F45DCC0E9400005A
:101AE0005ACC81E00E944C06EDCF90913D019923A4
:101AF00009F488C08057803108F081C081E00E94DD
:101B0000AE01C091600180914401C8130AC04C2FFE
:101B100050E066E471E082E691E00E943311892B87
:101B200061F01092430188E0E0E6F1E0A4E4B1E066
:101B300001900D928A95E1F7C5CF809143018F5FA7
:101B400080934301C33009F042C020916201822F8B
:101B5000877010916301853051F41093420180E049
:101B600090E0892B09F4AECF0E940000ABCFCDE10D
:101B7000D0E0843089F0C82FD0E0843060F48091C8
:101B80004201882341F08150990B880F991F880FDB
:101B9000991FC80FD91F219623FF0EC061E0CE0107
:101BA0000E94DF01882309F48DCF612FCE010E94AE
:101BB0003405181387CFD3CF60E0CE010E94DF0138
:101BC000882309F47FCFCE010E948605F2CFC4306E
:101BD00009F078CF80916201682F70E0762F662738
:101BE0006627737090916301692B6F5F7F4F2DE4BF
:101BF00031E0409164018C700E948E0563CF80E0DB
:101C00000E944C06809162018F3F61F480916301D4
:101C1000811158CF80E090E0892B09F453CF0E94C6
:101C2000000050CF87FD0CC0009165012091640138
:101C30004091630170E060E090E00E945B0642CF5B
:101C4000803C08F047C190913B0197FF3BCF40910A
:101C50006301242F30E0E901C095D095CC0FDD1F42
:101C6000CC0FDD1FC07CD1708F73C82B35952795A5
:101C7000E22FE370DE2E80916001853031F54C78E3
:101C80004C3019F50E94FC058C179D0721F0CF3FC1
:101C9000D14009F017CFC0916301D0E0DC2FCC27F1
:101CA000CC27D37080916401C80FD11D219610916B
:101CB000650161E0CE010E94DF01612F882309F4F4
:101CC00001CFCE010E943405FDCE7E0121E0E21A53
:101CD000F108EE0CFF1CEE0CFF1CED2887010F5FD6
:101CE0001F4F809153018823F9F096FF3DC0C80132
:101CF00060E071E00E940511682F81E090E00E9491
:101D00003405C80117FF02C081509F4F692F89E039
:101D100090E00E94340580E090E0892B19F0C80122
:101D20000E9400001092530180913B0180FD35C05C
:101D300080916001843009F049C080916301897805
:101D4000813009F0BFCE60916401C8010E944A044D
:101D500080E090E0892B09F4B5CE409164016D2DAF
:101D6000C8010E940000AECEBE016F73772781E0EC
:101D700090E00E943405BE0146E0759567954A954E
:101D8000E1F789E090E00E94340580E090E0892B43
:101D900049F2CE010E940000C5CF86FF0BC00E9411
:101DA000FC058017910721F20D3F87E018070CF022
:101DB000BFCF88CE0E94FC058C179D0709F4B8CFD1
:101DC000CF3F91E0D90709F4B3CF7CCE833041F502
:101DD00040916301A42FA170EA2E43FBFF24F0F889
:101DE00080E090E0892B31F047702F2DBE01C801B3
:101DF0000E94000080913B0186FF06C04F2D6E2D92
:101E0000C8010E94E7045ECE80E090E0892B09F4CF
:101E100059CE2F2D4E2D6D2DCE010E94000052CE99
:101E2000863009F04FCE80916301982F99789130D8
:101E300021F08F78803809F045CE80913B0186FFF4
:101E400025C00E94FC0580179107E1F48091640190
:101E500090E0382F222722273370C0916501C20FEE
:101E6000D32FD11D21961091660195958795959553
:101E70008795837099278230910589F0039709F43B
:101E800018CF20CE0D3F17400CF71CCE0E94FC054A
:101E90008C179D07D9F2CF3FD140C1F213CE14FF6A
:101EA00011CE61E0CE010E94DF01882309F40ACE41
:101EB000CE010E948605912F977061E070E001C00D
:101EC000660F9A95EAF713FF02C0682BFACE609569
:101ED0006823F7CE883E08F0F5CD805C990B3091F1
:101EE000630100916601209165014091640161E008
:101EF00070E0C32ED82EC601A0CE80915F01823043
:101F000009F4A0C060F4882309F48AC0813009F480
:101F100093C080915E01882309F4D9CDDACD833056
:101F200009F496C08430A9F70E944101009155013F
:101F30001091560120915701309158016B017C019D
:101F4000C01AD10AE20AF30A970186010233110589
:101F500021053105C0F060935501709356018093BF
:101F600057019093580124E1C29FF0011124DF0131
:101F7000A058BE4F809159011F968C93E857FE4F91
:101F800080818160808380915B018823C9F080918A
:101F90005D018823A9F010925D016091590184E1EF
:101FA000C89FE0011124C058DE4F6C878A899B8945
:101FB0000E949504CE010E94600182E00E947F048D
:101FC00080915A018823E1F080915C018823C1F05F
:101FD00010925C01C09106016091590194E1C99F82
:101FE000E0011124C058DE4F6D878A899B890196D4
:101FF0000E949504CE010E94600183E00E947F044C
:1020000080915E01811165CDE0910601A4E1EA9F16
:10201000F0011124E857FE4F80818E7F808379CFB5
:1020200080915E01813009F074CF80935D018093CF
:102030005C0180935F016DCF80915B01811169CF5D
:1020400082E0F7CF80915A01811163CF83E0F1CF15
:10205000809159018A3509F05CCF84E0EACFCF93B3
:10206000DF9361E080E891E00E94790160E084E91B
:1020700091E00E94790164E088EA91E00E94790190
:1020800063E08CEB91E00E94790166E080ED91E0E5
:102090000E94790165E084EE91E00E94790169E097
:1020A00088EF91E00E94790168E08CE092E00E9464
:1020B0007901C8E6D1E01A821B828EE0898362E052
:1020C0000E9405011E821F828FE08D8362E00E94C4
:1020D00005011A861B8680E1898762E00E9405015E
:1020E0001E861F8681E18D8762E00E9405011A8AA3
:1020F0001B8A82E1898B62E0DF91CF910C9405010C
:10210000F999FECF92BD81BDF89A992780B50895BF
:10211000262FF999FECF1FBA92BD81BD20BD0FB603
:10212000F894FA9AF99A0FBE01960895052E97FB36
:102130001EF400940E94AD1057FD07D00E94C810F5
:1021400007FC03D04EF40C94AD105095409530959B
:1021500021953F4F4F4F5F4F089590958095709513
:1021600061957F4F8F4F9F4F08950E94EA10A59F62
:10217000900DB49F900DA49F800D911D1124089582
:10218000B7FF0C94B5100E94B510821B930B0895F5
:10219000A1E21A2EAA1BBB1BFD010DC0AA1FBB1F6B
:1021A000EE1FFF1FA217B307E407F50720F0A21BDD
:1021B000B30BE40BF50B661F771F881F991F1A944A
:1021C00069F760957095809590959B01AC01BD0174
:1021D000CF010895A29FB001B39FC001A39F700DCE
:1021E000811D1124911DB29F700D811D1124911D1F
:1021F0000895991B79E004C0991F961708F0961B63
:10220000881F7A95C9F78095089597FB072E16F4D5
:10221000009407D077FD09D00E94191107FC05D062
:102220003EF4909581959F4F0895709561957F4FED
:102230000895AA1BBB1B51E107C0AA1FBB1FA6170D
:10224000B70710F0A61BB70B881F991F5A95A9F75F
:1022500080959095BC01CD010895EE0FFF1F05906C
:10226000F491E02D0994FB01DC0104C08D910190F3
:10227000801921F441505040C8F7881B990B0895EC
:04228000F894FFCF00
:0C228400FFFFF4010000FF5401540100B2
:00000001FF
