:100000000C9462000C948A000C948A000C948A0070
:100010000C948A000C948A000C948A000C948A0038
:100020000C948A000C948A000C948A000C948A0028
:100030000C948A000C948A000C948A000C948A0018
:100040000C9475030C948A000C94BF030C948A00E2
:100050000C941F040C948A000C948A000C948A005F
:100060000C948A000C948A000000000023002600F3
:10007000290000000000240027002A0000000000E2
:10008000250028002B0004040404040404040202D4
:100090000202020203030303030301020408102007
:1000A0004080010204081020010204081020000012
:1000B0000008000201000003040700000000000027
:1000C0000000DA0B11241FBECFEFD8E0DEBFCDBF9A
:1000D00011E0A0E0B1E0E4EBF8E102C005900D9280
:1000E000AC33B107D9F722E0ACE3B1E001C01D9217
:1000F000AA36B207E1F710E0C2E6D0E004C02197CB
:10010000FE010E94520CC136D107C9F70E94490472
:100110000C94580C0C94000020916502EBE0E29FD7
:10012000D0011124A45DBD4F6C932E9FF0011124CA
:1001300050E040E0DC013D91CD01DA01AE0FBF1F80
:10014000A35DBD4F3C934F5F5F4F461798F32F5F02
:10015000253018F4209365020895109265020895E1
:10016000FC01319690E080E06250770B96171706FD
:1001700024F4219182279F5FF9CF80830895CF9344
:10018000DF9300D000D01F92CDB7DEB7198222E5F1
:100190002A831D829C0136952795369527952B83BA
:1001A000880F8670806898E0499FA0011124482B31
:1001B0006170642B6C8365E0CE0101960E94B000F3
:1001C00065E0CE0101960E948C000F900F900F9079
:1001D0000F900F90DF91CF9108958F77982F20E0A7
:1001E00041E0992329F024273FEF390F9323F9CFDA
:1001F000211180680895CF93DF9300D000D0CDB750
:10020000DEB78091CD0181110EC081E68A8382E83C
:100210008B8383EE8C838091EB01898364E0CE0134
:1002200001960E948C000F900F900F900F90DF911D
:10023000CF910895833081F028F4813099F0823095
:10024000A9F008958730A9F08830C9F08430B1F45E
:10025000809180008F7D03C0809180008F77809394
:100260008000089584B58F7784BD089584B58F7D0F
:10027000FBCF8091B0008F778093B000089580917C
:10028000B0008F7DF9CF1F93CF93DF93282F30E0FD
:10029000F901E255FF4F8491F901E656FF4FD491E1
:1002A000F901EA57FF4FC491CC23A9F0162F811111
:1002B0000E941A01EC2FF0E0EE0FFF1FE458FF4FF1
:1002C000A591B4918FB7F894EC91111108C0D09515
:1002D000DE23DC938FBFDF91CF911F910895DE2B3A
:1002E000F8CFCF93DF9390E0FC01E656FF4F2491C7
:1002F0008A579F4FFC0184918823D1F090E0880FAA
:10030000991FFC01EE58FF4FA591B491FC01E458F0
:10031000FF4FC591D491623071F49FB7F8943C912E
:10032000822F809583238C93E8812E2B28839FBF77
:10033000DF91CF9108958FB7F894EC912E2B2C93E9
:100340008FBFF6CF3FB7F89480919F019091A001A5
:10035000A091A101B091A20126B5A89B05C02F3F95
:1003600019F00196A11DB11D3FBFBA2FA92F982FDB
:100370008827BC01CD01620F711D811D911D42E0D6
:10038000660F771F881F991F4A95D1F708958F929E
:100390009F92AF92BF92CF92DF92EF92FF924B016A
:1003A0005C010E94A2016B017C010E94A2016C19F8
:1003B0007D098E099F09683E734081059105A8F368
:1003C00021E0821A9108A108B10888EEC80E83E0E6
:1003D000D81EE11CF11C81149104A104B10429F779
:1003E000FF90EF90DF90CF90BF90AF909F908F9055
:1003F0000895FF920F931F93CF93DF93EC01DC01DD
:10040000A956BF4F9C91492F50E09E018BE0989FC9
:10041000200D311D1124F901E05AFF4FF080FF201B
:10042000A9F0BE0168567F4FFB018081280F311D66
:10043000F901EF59FF4F008110E0811118C02981A7
:1004400011602223A1F081E0FB01808360E08D81B7
:100450000E9443018881843099F58981811130C0DF
:100460001882DF91CF911F910F91FF9008958F5FB8
:10047000FB018F1540F110828BE0849FF001859F76
:10048000F00D1124EC0FFD1FE05AFF4F10829F5F0B
:100490009530A0F49C9361E08D810E94430180918E
:1004A000C1008E7F8093C10010FF05C08091C10004
:1004B00081608093C1000093C600D3CF1C92EBCF24
:1004C00082E08883CECF8083E6CF8F30974241F49D
:1004D00060FF03C010920001089581E08093000145
:1004E000089563FF33C020918E01222379F19C018E
:1004F0003F736370623008F0625080914A019091BE
:100500004B012817390759F08091940130934B0122
:1005100020934A018F5F809394018093A3018AE026
:10052000611101C084E180939301E0919401F0E0B6
:10053000EE0FFF1FED55FE4F862F90E09927869511
:1005400097958827822B932B928381830895DF923E
:10055000EF92FF920F931F93CF93DF932FB7F894EF
:1005600080919B0190919C01A0919D01B0919E0171
:100570002FBF40913C0150913D0160913E0170912F
:100580003F018C019D01041B150B260B370BB90194
:10059000A801443151056105710508F45DC08093DF
:1005A0003C0190933D01A0933E01B0933F01CDE407
:1005B000D1E001E092E0F92E23E0E22E298130E043
:1005C000F901E255FF4F8491F901E656FF4F14916E
:1005D000F901EA57FF4FD490DD2009F445C081119D
:1005E0000E941A01ED2DF0E0EE0FFF1FE859FF4FBA
:1005F000A591B491EC911E2331E020E009F430E0A4
:10060000832F922F282F21703A81231307C03B811B
:10061000231779F12B83892B51F1E8822A832496C1
:1006200011E0CD38D10709F0C9CF9091000181E0E8
:10063000911101C080E02091910182130BC02091A3
:1006400092018217F1F0809392019923C1F093E017
:1006500090938F0180939101DF91CF911F910F9122
:10066000FF90EF90DF90089590E080E0CBCFF8828C
:10067000D5CF892B11F00883D1CF1882CFCF92E04C
:10068000E7CF992311F091E0E3CF10928F01E2CFF1
:10069000AF92BF92DF92EF92FF920F931F93CF938F
:1006A000DF935C0103EA11E0D0E0C0E0F801D190F3
:1006B0008F017501EC0EFD1EC7010E943C0CD8167F
:1006C00021F06D2DC7010E94440C2196C932D1053D
:1006D00069F783EA91E0DF91CF911F910F91FF902D
:1006E000EF90DF90BF90AF9008951F920F920FB6DA
:1006F0000F9211242F933F938F939F93AF93BF93A8
:1007000080919B0190919C01A0919D01B0919E01CF
:1007100030919A0123E0230F2D3758F50196A11D42
:10072000B11D20939A0180939B0190939C01A0930B
:100730009D01B0939E0180919F019091A001A09195
:10074000A101B091A2010196A11DB11D80939F014D
:100750009093A001A093A101B093A201BF91AF918A
:100760009F918F913F912F910F900FBE0F901F90EF
:10077000189526E8230F0296A11DB11DD2CF1F9216
:100780000F920FB60F9211242F933F934F935F93C5
:100790006F937F938F939F93AF93BF93CF93DF9389
:1007A000EF93FF93C0914001D0914101209751F107
:1007B0008091C10081FF39C08091C6008B879FEF77
:1007C00099838F3519F4CE010E94F9012C892230CA
:1007D000C8F08D898F7090E002962817190671F481
:1007E000FE013C9680E0918591938F5F2813FBCFAB
:1007F00081E0FE01E656FF4F80831C8A8C89883099
:1008000008F01C8AFF91EF91DF91CF91BF91AF91DA
:100810009F918F917F916F915F914F913F912F9118
:100820000F900FBE0F901F901895EC89EF5FEC8B27
:100830008091C600EC0FFD2FF11D848BC7CF1F9256
:100840000F920FB60F9211242F933F934F935F9304
:100850006F937F938F939F93AF93BF93EF93FF9388
:100860008091400190914101009711F00E94F9019F
:10087000FF91EF91BF91AF919F918F917F916F9178
:100880005F914F913F912F910F900FBE0F901F904E
:100890001895CF93DF93CDB7DEB7A2970FB6F89434
:1008A000DEBF0FBECDBF789484B5826084BD84B5B1
:1008B000816084BD85B5826085BD85B5816085BD5B
:1008C00080916E00816080936E0010928100809113
:1008D000810082608093810080918100816080939B
:1008E0008100809180008160809380008091B100C0
:1008F00084608093B1008091B00081608093B000EB
:1009000080917A00846080937A0080917A0082607E
:1009100080937A0080917A00816080937A00809140
:100920007A00806880937A001092C10084E08093FE
:10093000D00182E08093D10161E00E94710160E00A
:100940008091D1010E944301F8941092C5008FE07C
:100950008093C4001092C0008CED8093C10086E0AB
:100960008093C20078948CEC91E090934101809345
:10097000400103E211E06DE4E62E61E0F62ED801BD
:100980008D918D01F701818362E00E947101F4E095
:10099000EF0EF11C21E00333120789F70E94A70232
:1009A00062E370E080E090E00E94C7010E94A7022D
:1009B00061E08DE00E94710180910101909102013E
:1009C000A0910301B09104018F839887A987BA870A
:1009D0000091050110910601209107013091080155
:1009E0000B871C872D873E878091090190910A0112
:1009F000A0910B01B0910C018F87988BA98BBA8BBA
:100A000000910D0110910E0120910F013091100104
:100A10000B8B1C8B2D8B3E8B8091110190911201C1
:100A2000A0911301B09114018F8B988FA98FBA8F69
:100A300000911501109116012091170130911801B4
:100A40000B8F1C8F2D8F3E8F8091190190911A0171
:100A5000A0911B01B0911C018F8F98A3A9A3BAA3E9
:100A600020901D0130901E0140901F0160902001D8
:100A7000709021018090220180919301882309F4D4
:100A800080C02FB7F89480919B0190919C01A09118
:100A90009D01B0919E012FBF4091460150914701A9
:100AA00060914801709149018C019D01041B150B57
:100AB000260B370BB901A8014233510561057105B9
:100AC00088F08093460190934701A0934801B0932A
:100AD000490185B190E2892785B9809193018150C0
:100AE000809393018091CC01823009F481C08330DE
:100AF00009F4A5C08111CDC08091CD0181110AC634
:100B000081E08093CC018091D2018F5F8093D201EC
:100B10008032B8F0982F9F71E92FF0E0EE0FFF1FA1
:100B2000E451FE4F208131812F3F3F4F19F4803235
:100B300008F0EEC58093D201911103C081E080934B
:100B4000D2011091D2011F71812F80640E94ED00AB
:100B5000082F8093E901812F0E94ED008093EA0124
:100B6000812F80660E94ED008093EB01098361E094
:100B7000CE0101960E948C008CEC91E00E94F9015C
:100B800053C080918E01813071F52FB7F894809118
:100B90009B0190919C01A0919D01B0919E012FBF5E
:100BA000409142015091430160914401709145018F
:100BB0008C019D01041B150B260B370BB901A801F5
:100BC000443F51406105710508F48CCF8093420188
:100BD00090934301A0934401B093450185B190E205
:100BE000892785B97FCF60E08DE00E9443017ACFED
:100BF0000E94A2010091D3011091D4012091D5014E
:100C00003091D601601B710B820B930B66327240E0
:100C10008105910510F01092CC018091E0018823AC
:100C2000C1F183E08093CC010E94A2016093D301C3
:100C30007093D4018093D5019093D6012AC00E946D
:100C4000A2010091D3011091D4012091D5013091DE
:100C5000D601601B710B820B930B603777418105C6
:100C6000910508F4D0C01092CC011092D8011092D6
:100C7000D9011092DA011092DB011092DC0110927E
:100C8000DD011092DE011092DF011092D701109267
:100C9000E0010E94A70280918F01833019F491E056
:100CA00090938F0190918F01923011F410928F01E7
:100CB000823009F052C581E080938E0180938D01CE
:100CC0000DE411E0F12CE12C9924939439E2532E98
:100CD000F8018081833009F49082D8019C91923090
:100CE00009F41C92823001F5B4E0B0939301809135
:100CF0008E01882309F43FC580918D01811107C0C1
:100D000080914C01859DC00111240E944803E0920E
:100D10004C01EFEFE09394012FEF3FEF30934B0145
:100D200020934A0110928D01EFEFEE1AFE0A0C5F3C
:100D30001F4FF0E1EF16F10459F62FB7F8948091A8
:100D40009B0190919C01A0919D01B0919E012FBFAC
:100D5000409196015091970160919801709199018D
:100D60008C019D01041B150B260B370BB901A80143
:100D7000443F514061057105F0F1809396019093D5
:100D80009701A0939801B0939901809195018823D0
:100D900091F1D0909401ED2DF0E0EE0FFF1FED5595
:100DA000FE4F01811281780123E0F2220027110F0A
:100DB000001F112784E00115110509F488E08093D4
:100DC000930141E0602FC7010E94BF0064E170E021
:100DD00080E090E00E94C70140E0602FC7010E94C0
:100DE000BF0081E08D0D809394018091A301D81202
:100DF00002C01092950180E090E0892B09F43CCE6E
:100E00000E9400002DCE80916602882309F441CF14
:100E1000109266028091D801482F4F7050E04F5FCA
:100E20005F4F60E090E0262F30E04217530744F018
:100E300024533E4FD9011C962C9192276F5FF3CF1C
:100E4000911194C0823509F494C308F5823209F4F3
:100E5000E5C130F4813209F4B9C00E94FB0086C1BB
:100E6000833209F4F2C18234C1F780E090E0892B2B
:100E700009F47CC18091CD0181117CC14091DA01DE
:100E80006091D9018091EB010E9400006FC1833E07
:100E900009F4F9C140F5803801F78091D901803813
:100EA000E1F68091CD018111E9C10B851C852D856D
:100EB0003E8509831A832B833C8364E0CE0101962F
:100EC0000E948C008091CF01813009F44FC181E0F4
:100ED0008093CF0180E090E0892B09F447C181E045
:100EE0000E94000043C1843E09F431C2863E09F0ED
:100EF000B4CF8091D901803309F038C10091DA0173
:100F000010E0102F002700271F738091DB01080FCE
:100F1000111D8091DC01E82EF12CFE2CEE24EE2434
:100F2000B3E0FB229091DD01E90EF11C8C7F8C3E39
:100F300051F480E090E0892B31F04091DE01B7015F
:100F4000C8010E9400008091DC018C7F883E09F07E
:100F50000DC180E090E0892B09F408C14091DE01C9
:100F60004F70B701C8010E94000000C18091CD01FF
:100F700081110EC081E68A8380E88B8381EE8C83A9
:100F80008091EB01898364E0CE0101960E948C0080
:100F90001092D8011092D9011092DA011092DB015F
:100FA0001092DC011092DD011092DE011092DF013F
:100FB0001092D7018091CD018111A7C384E0809365
:100FC000CC018CEC91E00E94F90163CE8091CD01BF
:100FD0008111D0C08091D901843201F58091DA016C
:100FE0008530E1F4E091CF0181E0E93020F4F0E0D8
:100FF000ED5CFE4F80811D8292E69A8392E29B8394
:101000009091EB0199838C8365E0CE0101960E945B
:10101000B00065E0CE0101960E948C008091D9015C
:101020008132D1F49091DA01911116C01E821D8295
:1010300093E69A838B8386E38C8380E18D83809112
:10104000EB01898366E0CE0101960E94B00066E064
:10105000CE0101960E948C008091D901803821F543
:101060008091DA01813A09F046C08091CD01811169
:10107000ABC00B8D1C8D2D8D3E8D09831A832B8368
:101080003C8364E0CE0101960E948C008091CF01E8
:10109000823051F082E08093CF0180E090E0892B94
:1010A00019F082E00E9400008091D901813819F581
:1010B0008091DA01803A09F04BC08091CD01811115
:1010C0008CC00B891C892D893E8909831A832B8347
:1010D0003C8364E0CE0101960E948C008091CF0198
:1010E000882349F01092CF0180E090E0892B19F01D
:1010F00080E00E9400009091EB018091D901803145
:1011000039F58091DA01813319F520916702309128
:101110006802809169022115310509F467C01E82B9
:101120001D8233E63A8334E13B8399832C838D839C
:1011300066E0CE0101960E94B00066E0CE01019605
:101140000E948C001092680210926702109269024D
:10115000E091EB01EF71F0E0EE0FFF1FE451FE4F65
:1011600080819181019611F4118210828091CD01CC
:101170008823E1F08091D701803609F07CC280910C
:10118000D801813609F037C28091D901813009F048
:1011900003C28091DA01803649F41092CF0180E0D9
:1011A00090E0892B19F080E00E94000080E090E040
:1011B000892B09F4EDCE6091D8016F706E5F88EDD8
:1011C00091E00E940000E4CE8F89988DA98DBA8DA0
:1011D00089839A83AB83BC8354CF8F859889A989EF
:1011E000BA8989839A83AB83BC8373CF1C821B82A9
:1011F00021E62A832FE12B8399838F3F21F483E11A
:101200008B831092690264E0CE0101960E94B000C7
:1012100064E0CE0101960E948C009ACF8091D901A2
:10122000853109F01ACE109268021092670210926E
:10123000690280E090E0892B09F498CF8091DA016F
:101240008150990B0E94000091CF8091D901863185
:1012500009F003CE109268021092670210926902A0
:1012600080E090E0892B09F481CF8091DA016091D0
:10127000DB018150990B0E94000078CF69827A824D
:101280008B8263E01BCE9091CD01911173CF909131
:10129000D901983009F443C0D8F4992379F19730F3
:1012A00009F0DBCD1B821C821D821E8283EE8A83A5
:1012B00080E58B838091EB01898366E0CE01019606
:1012C0000E94B00066E0CE0101960E948C004ECFD5
:1012D000993061F1903F09F0C0CD80E090E0892B1A
:1012E00009F464CF6091DA016F738091DB01762F8E
:1012F000682F8091EB010E94000038CF80E090E0E1
:10130000892B09F453CF6091DA016F738091DB016F
:10131000762F682F8091EB010E94000027CF1B825F
:101320001C821D821E828A8381E5C3CF80E090E00B
:10133000892B09F43BCF6091DA016F738091DB0157
:10134000762F682F8091EB010E9400000FCF8091D3
:10135000DA018F739091DB018927982789272091E3
:10136000EB01009709F451C02F71A22E022F10E05B
:10137000000F111FF801E451FE4F208131818217C7
:10138000930709F442C091838083ACECEA2EA1E07C
:10139000FA2EBB24B3948F01B3EE9B2E80E4582E1B
:1013A000BA1461F1D7019296CD90DC90F80180815A
:1013B0009181C816D90611F58B2D80660E94ED002B
:1013C0001B821C821D821E829A825B828983F4E6C4
:1013D000CF16D10418F08D2D806C8C83CD8266E001
:1013E000CE0101960E94B00066E0CE0101960E94F7
:1013F0008C00D70193961C921E929297B394B2E000
:10140000EB0EF11CE0E2BE12CBCF8091D90180310E
:1014100091F480E090E0892B09F4A8CE8091DA0164
:101420008F739091DB016091DC01892798278927D0
:101430000E9400009BCE813191F480E090E0892BE6
:1014400009F494CE8091DA018F739091DB01609161
:10145000DC018927982789270E94000087CE8231E6
:1014600091F480E090E0892B09F480CE8091DA013C
:101470008F739091DB016091DC0189279827892780
:101480000E94000073CE833191F480E090E0892BBC
:1014900009F46CCE8091DA018F739091DB01609139
:1014A000DC018927982789270E9400005FCE8032BF
:1014B00069F48091DA018F739091DB016091DC0116
:1014C0008927982789270E94650250CE813291F49E
:1014D00080E090E0892B09F449CE8091DA018F7386
:1014E0009091DB016091DC018927982789270E9470
:1014F00000003CCE823291F480E090E0892B09F428
:1015000035CE8091DA018F739091DB016091DC011F
:101510008927982789270E94000028CE833211F05E
:10152000833F91F480E090E0892B09F41FCE8091F5
:10153000DA018F739091DB016091DC018927982794
:1015400089270E94000012CE883209F086CC80E004
:1015500090E0892B09F40ACE8091DA018F73909183
:10156000DB016091DC018927982789270E94000010
:10157000FDCD6091DA012091D901F4E02F9F900117
:101580001124862F90E09595879583709927822B5B
:10159000932B0E947102EACD81110FC08091DA0174
:1015A000813609F003CE82E08093CF0180E090E0A5
:1015B000892B09F4FBCD82E0F7CD883051F484E02B
:1015C0008093CF0180E090E0892B09F4EFCD84E097
:1015D000EBCD823009F0EACD8091DA01833609F053
:1015E000E5CD88E08093CF0180E090E0892B09F47D
:1015F000DDCD88E0D9CD813899F48091D901811170
:10160000D5CD8091DA01813809F0D0CD81E0809389
:10161000CF0180E090E0892B09F4C8CD81E0C4CDF2
:10162000982F907F903409F0C1CD86958770F82E61
:101630000CEC11E0EE24E394FE1408F4B7CD20E0A6
:1016400030E0232BA1F0D8011E966C911E971D96B9
:101650002C91B4E02B9F90011124862F90E095955A
:10166000879583709927822B932B0E940000E39427
:101670000E5F1F4FE1CF8A3949F429823A824B82AB
:1016800063E0CE0101960E948C0090CD8091D8013C
:10169000823609F08BCD8091D901823209F086CD56
:1016A0008091DA01813009F170F08230B1F0883038
:1016B00021F10F81188529853A8509831A832B83A7
:1016C0003C8364E0DECF1092CF0180E090E0892B74
:1016D00081F380E00E940000ECCF8093CF0180E096
:1016E00090E0892B31F382E0F5CF8093CF0180E049
:1016F00090E0892BF1F281E0EDCF8093CF0180E083
:1017000090E0892BB1F288E0E5CF1092CC01C1CAFC
:101710008F5F00CA81508093CD0183E08093CC011C
:101720008091CE01882379F01092CE018F8D98A1FF
:10173000A9A1BAA189839A83AB83BC8364E0CE015B
:1017400001960E948C008091CD0181116DCA81E0CB
:101750008093CE011092E00167CA833009F0B0CACD
:1017600010928E0180914C01A9E28A9FC001112440
:101770000E944803A5CA5E9C60015F9CD00C1124A6
:1017800023EAA22E21E0B22EC601835A91406C01B9
:10179000C6018A0D9B1D0E943C0CD5018D935D01F5
:1017A000BCECAB16B1E0BB0699F710929401909295
:1017B0009501BACAEDE4F1E012821382349641E059
:1017C000ED38F407C9F7109291011092920110922E
:1017D000D2011092CD0181E08093CE0182E080930E
:1017E000CF0184E08093D0011092630210926402D2
:1017F00010926502ECEEF1E08CEC91E02FEF3FEF00
:101800002193319342E0EC32F407D1F743E052E008
:10181000FC01E05AFF4F108230E020E0F901EF595F
:10182000FF4FE80FF91F10822F5F3F4F2A3031051D
:10183000A9F70B964817590759F7109266021092AC
:10184000CC011092D8011092D9011092DA011092B5
:10185000DB011092DC011092DD011092DE0110928A
:10186000DF011092D7011092E001109268021092ED
:101870006702109269020895F999FECF92BD81BD69
:10188000F89A992780B50895262FF999FECF1FBAA7
:1018900092BD81BD20BD0FB6F894FA9AF99A0FBE99
:1018A00001960895EE0FFF1F0590F491E02D099425
:0418B000F894FFCFDA
:1018B400010021210060810081002181A06061017B
:1018C40060002180A16061006100212405002020C6
:1018D400008080030405060708090A0B0C0E0F108C
:0C18E400111213000101010201010108B2
:00000001FF
