:020000040000FA
:100000000C9435000C947E030C9457030C945D0003
:100010000C945D000C945D000C945D000C945D00EC
:100020000C945D000C945D000C945D000C945D00DC
:100030000C945D000C945D000C945D000C945D00CC
:100040000C940D030C945D000C945D000C945D0009
:100050000C945D000C945D000C945D000C945D00AC
:100060000C945D000C945D00A50311241FBECFEF1E
:10007000D8E0DEBFCDBF11E0A0E0B1E0EAE6F8E0F5
:1000800002C005900D92A430B107D9F722E0A4E098
:10009000B1E001C01D92AF32B207E1F710E0C5E355
:1000A000D0E004C02197FE010E942D04C433D10783
:1000B000C9F70E94AC030C9433040C94000008951B
:1000C0008091490187FF0DC080913501282F30E0D4
:1000D000C90146E0880F991F4A95E1F7822B932BBF
:1000E000089585FF08C080913D0190913E019827B9
:1000F00089279827089580912D0190E00895109206
:1001000016011092100110920F0110920E01109220
:100110000D0110920C0110920B0110920A0180E85F
:1001200080930901F89480910801882321F120919E
:1001300020013091210191E080E040910601509131
:1001400007014217530709F090E090930401809350
:1001500005011092210110922001109207011092C6
:10016000060178941092080182E191E090932E02AA
:1001700080932D02089590E080E0E7CF3FB7F89498
:1001800080911C0190911D01A0911E01B0911F0151
:1001900026B5A89B05C02F3F19F00196A11DB11DE2
:1001A0003FBFBA2FA92F982F8827BC01CD01620F1E
:1001B000711D811D911D42E0660F771F881F991FD9
:1001C0004A95D1F70895CF930E94BE00C0912601B1
:1001D0002C2F30E0E0912801F0912901DB01AE1BCA
:1001E000BF0BF901EE0FFF1FEE5DFE4FB183A08341
:1001F000609328017093290180932A0190932B0129
:100200004091200150912101240F351F309321018D
:100210002093200191E08C2F892780932601CF9194
:1002200008950895F89480912001909121012091E2
:100230000601309107018217930711F4789408950D
:100240008091200190912101821B930B029758F01D
:1002500078948FE790E090932E0280932D0287E6AA
:1002600080932701089520912201309123018091EC
:10027000240190912501409120015091210150933A
:100280000701409306017894A901445351094D3068
:10029000510568F02A553109273B364240F08FE777
:1002A00090E090932E0280932D0288E6D9CF9C0196
:1002B000245331092D30310538F18A559109873B96
:1002C000964268F74D30510568F080910401909195
:1002D00005010A97A4F081E991E090932E028093A2
:1002E0002D020895F8948091240190912501909316
:1002F00023018093220181E080932601789410925B
:1003000005011092040108954D30510558F7809170
:1003100004019091050101969093050180930401D9
:100320000895F89480912001909121012091060177
:10033000309107018217930711F478940895809102
:10034000200190912101821B930B029758F0789421
:100350008FE790E090932E0280932D0287E68093A2
:100360002701089540912201509123018091240199
:1003700090912501209120013091210130930701B6
:100380002093060178949A01245331092D303105C8
:1003900068F04A555109473B564240F08FE790E0DC
:1003A00090932E0280932D0288E6D9CFBC0164532E
:1003B000710941E06D30710508F040E06D30710564
:1003C00028F08A559109873B964240F781E02D300D
:1003D000310508F080E08413E1CF80910901882382
:1003E00089F02D30310540F4E0910A01F0E0E55F3D
:1003F000FE4F9081982B908390E095958795809300
:100400000901089580910A0191E0980F90930A01E3
:1004100040E8409309012D303105A8F491E0909314
:1004200008018250843038F48EE292E090932E02DC
:1004300080932D0208958FE790E090932E02809391
:100440002D0289E68CCF963008F48BCF8FE790E0B1
:1004500090932E0280932D028AE681CFCF93DF9373
:1004600080910B0190910C018927E0910A01E43001
:1004700068F090910D018927E43041F090910E01D0
:100480008927E53019F090910F018927F0E0E65FA8
:10049000FE4F9081981751F08FE790E090932E02D5
:1004A00080932D0284E6809327012AC02FB7F89409
:1004B0008091180190911901A0911A01B0911B012E
:1004C0002FBF8093120190931301A0931401B09356
:1004D00015011092110190910A01933009F065C045
:1004E00080910C01C0910B01811117C0CF3F59F4CD
:1004F0002FE730E030932E0220932D0290932701B6
:10050000DF91CF910895C11108C08FE790E09093DB
:100510002E0280932D0284E0C6CF9C2F907C9038D1
:1005200001F587FF1EC090E080959095880F991F78
:10053000880F991F807C9170CF73C80FD92FD11D60
:100540000E94600021E0C817D90709F020E020933D
:1005500011018FE790E090932E0280932D0287E0A7
:10056000A2CFC7FF08C08FE790E090932E02809340
:100570002D0285E698CF807C803441F08FE790E0B3
:1005800090932E0280932D0286E68DCF81E090918C
:100590002D019C1380E0809311018FE790E09093F0
:1005A0002E0280932D0286E07ECF943069F5C091B3
:1005B0000B018C2F807C803839F520910C01822F23
:1005C0008578813009F5822F867090E0982F8827F2
:1005D000207744E0249F90011124820F931FCF7352
:1005E000C80FD92FD11D0E94600021E0C817D9077C
:1005F00009F020E0209311018FE790E090932E0204
:1006000080932D0288E04FCF8FE790E090932E02E9
:1006100080932D021092270173CF1F920F920FB675
:100620000F9211242F933F938F939F93AF93BF9378
:100630008091180190911901A0911A01B0911B01AC
:100640003091170123E0230F2D3758F50196A11D96
:10065000B11D209317018093180190931901A09365
:100660001A01B0931B0180911C0190911D01A09172
:100670001E01B0911F010196A11DB11D80931C01A7
:1006800090931D01A0931E01B0931F01BF91AF91E4
:100690009F918F913F912F910F900FBE0F901F90C0
:1006A000189526E8230F0296A11DB11DD2CF1F92E7
:1006B0000F920FB60F9211242F933F934F935F9396
:1006C0006F937F938F939F93AF93BF93EF93FF931A
:1006D000E0910201F09103010995FF91EF91BF9123
:1006E000AF919F918F917F916F915F914F913F91CA
:1006F0002F910F900FBE0F901F9018951F920F9281
:100700000FB60F9211242F933F934F935F936F93E4
:100710007F938F939F93AF93BF93EF93FF93E0915A
:100720000001F09101010995FF91EF91BF91AF9107
:100730009F918F917F916F915F914F913F912F91F9
:100740000F900FBE0F901F9018958FE590E090933B
:100750002E0280932D020895789484B5826084BD22
:1007600084B5816084BD85B5826085BD85B58160B5
:1007700085BD80916E00816080936E001092810033
:1007800080918100826080938100809181008160EE
:1007900080938100809180008160809380008091AF
:1007A000B10084608093B1008091B000816080933B
:1007B000B00080917A00846080937A0080917A0002
:1007C000826080937A0080917A00816080937A00C1
:1007D00080917A00806880937A001092C1008091A5
:1007E000280190912901A0912A01B0912B01892B18
:1007F0008A2B8B2B31F581E0809333018093340178
:1008000010922601109225011092240110922301CA
:100810001092220110922101109220010E94BE002C
:10082000609328017093290180932A0190932B01F2
:100830008FE790E090932E0280932D0282E08093C8
:100840002701C0E0D0E0E0912D02F0912E02099541
:100850002097C9F30E940000F6CFEE0FFF1F05900E
:0E086000F491E02D0994F894FFCF11011101DD
:107E0000112484B714BE81FFF0D085E080938100F7
:107E100082E08093C00088E18093C10086E0809377
:107E2000C20080E18093C4008EE0C9D0259A86E02C
:107E300020E33CEF91E0309385002093840096BBD3
:107E4000B09BFECF1D9AA8958150A9F7CC24DD24C4
:107E500088248394B5E0AB2EA1E19A2EF3E0BF2EE7
:107E6000A2D0813461F49FD0082FAFD0023811F036
:107E7000013811F484E001C083E08DD089C08234E0
:107E800011F484E103C0853419F485E0A6D080C0E4
:107E9000853579F488D0E82EFF2485D0082F10E0AE
:107EA000102F00270E291F29000F111F8ED06801E7
:107EB0006FC0863521F484E090D080E0DECF843638
:107EC00009F040C070D06FD0082F6DD080E0C81688
:107ED00080E7D80618F4F601B7BEE895C0E0D1E017
:107EE00062D089930C17E1F7F0E0CF16F0E7DF06D8
:107EF00018F0F601B7BEE89568D007B600FCFDCFD4
:107F0000A601A0E0B1E02C9130E011968C91119780
:107F100090E0982F8827822B932B1296FA010C0160
:107F200087BEE89511244E5F5F4FF1E0A038BF0790
:107F300051F7F601A7BEE89507B600FCFDCF97BE46
:107F4000E89526C08437B1F42ED02DD0F82E2BD052
:107F50003CD0F601EF2C8F010F5F1F4F84911BD097
:107F6000EA94F801C1F70894C11CD11CFA94CF0C13
:107F7000D11C0EC0853739F428D08EE10CD085E9AC
:107F80000AD08FE07ACF813511F488E018D01DD067
:107F900080E101D065CF982F8091C00085FFFCCF94
:107FA0009093C60008958091C00087FFFCCF809118
:107FB000C00084FD01C0A8958091C6000895E0E648
:107FC000F0E098E1908380830895EDDF803219F02E
:107FD00088E0F5DFFFCF84E1DECF1F93182FE3DFCA
:107FE0001150E9F7F2DF1F91089580E0E8DFEE27F6
:047FF000FF270994CA
:027FFE00040479
:00000001FF
