:100000000C9453000C947B000C947B000C947B00AC
:100010000C947B000C947B000C947B000C947B0074
:100020000C947B000C947B000C947B000C947B0064
:100030000C947B000C947B000C947B000C947B0054
:100040000C94CE000C947B000C947B000C947B00F1
:100050000C947B000C947B000C947B000C947B0034
:100060000C947B000C947B0000000000240027000F
:100070002A0000000000250028002B0001020408CF
:100080001020408001020408102001020408102002
:10009000040404040404040402020202020203032E
:1000A00003030303420311241FBECFEFD8E0DEBFDA
:1000B000CDBF11E0A0E0B1E0ECECF6E002C00590AD
:1000C0000D92A030B107D9F721E0A0E0B1E001C066
:1000D0001D92AF33B207E1F710E0C3E5D0E004C0F2
:1000E0002197FE010E945E03C235D107C9F70E9425
:1000F00018010C9464030C940000CF93DF9390E0FC
:10010000FC01E458FF4F249180579F4FFC018491DC
:100110008823C9F090E0880F991FFC01E859FF4F30
:10012000A591B491FC01EE58FF4FC591D491611196
:100130000DC09FB7F8948C91209582238C93888171
:10014000282328839FBFDF91CF910895623051F417
:100150009FB7F8943C91822F809583238C93E881FC
:100160002E2BEFCF8FB7F894EC912E2B2C938FBFC3
:10017000EACF8E3008F08E508770806480937C00C8
:1001800080917A00806480937A0080917A0086FD65
:10019000FCCF809178009091790008951F920F9282
:1001A0000FB60F9211242F933F938F939F93AF938A
:1001B000BF938091120190911301A0911401B0910D
:1001C000150130910D0123E0230F2D3758F50196CD
:1001D000A11DB11D20930D01809312019093130175
:1001E000A0931401B093150180910E0190910F011D
:1001F000A0911001B09111010196A11DB11D809334
:100200000E0190930F01A0931001B0931101BF91C3
:10021000AF919F918F913F912F910F900FBE0F90B3
:100220001F90189526E8230F0296A11DB11DD2CF6D
:10023000789484B5826084BD84B5816084BD85B5C1
:10024000826085BD85B5816085BD80916E008160CD
:1002500080936E0010928100809181008260809373
:100260008100809181008160809381008091800075
:100270008160809380008091B10084608093B100A0
:100280008091B00081608093B00080917A0084609A
:1002900080937A0080917A00826080937A008091C6
:1002A0007A00816080937A0080917A0080688093E0
:1002B0007A001092C10061E0809129010E947D00C6
:1002C00061E080912A010E947D002091290130E0A7
:1002D000F901E057FF4F8491F901E458FF4FE49191
:1002E000E0932901E82FF0E0EE0FFF1FEE58FF4FDB
:1002F0008591949190933C0180933B0120912A0138
:100300002F3FB9F030E0F901E057FF4F8491F90138
:10031000E458FF4FE491E0932A01E82FF0E0EE0F5C
:10032000FF1FEE58FF4F8591949190933E0180936B
:100330003D01C1E0C0932F0182E1809332018AE048
:100340008093310162E08FE00E947D0062E080E1F5
:100350000E947D0062E081E10E947D008FE00E94AA
:10036000B9008F3F934034F460E08FE00E947D003D
:10037000C093180180E10E94B9008F3F93403CF484
:1003800060E080E10E947D0081E08093170181E1BF
:100390000E94B9008F3F93403CF460E081E10E94ED
:1003A0007D0081E080931601C0E0D0E0FF24F3944B
:1003B00008E813E155E0E52E80913B0190913C0166
:1003C000892B39F480913D0190913E01892B09F4EC
:1003D000FBC03FB7F89480910E0190910F01A0915E
:1003E0001001B091110126B5A89B05C02F3F19F04F
:1003F0000196A11DB11D3FBFBA2FA92F982F8827A5
:10040000820F911DA11DB11D42E0880F991FAA1FE7
:10041000BB1F4A95D1F7409125015091260160916B
:100420002701709128014C015D01841A950AA60AE2
:10043000B70A40911D0150911E0160911F017091FA
:10044000200184169506A606B70608F452C08093CC
:10045000250190932601A0932701B0932801809154
:100460003301811124C080912C01882301F18091F6
:100470003001882309F4EBC0E0913B01F0913C018D
:10048000808190912901892B808380912C01809318
:100490002B018091210190912201B0E0A0E0809396
:1004A0001D0190931E01A0931F01B0932001909114
:1004B000330180912B01981314C0E0913B01F0911E
:1004C0003C01908180912901809589238083E0916E
:1004D0003D01F0913E01908180912A018095892310
:1004E0008083809133018F5F853608F0B8C0809398
:1004F0003301809132018F3F09F466C00E94B90038
:100500002FB7F8948090120190901301A0901401DD
:10051000B09015012FBF4091350150913601609187
:10052000370170913801841A950AA60AB70A4091DA
:1005300023015091240170E060E0481559056A05D7
:100540007B0508F041C02FB7F894409112015091FB
:10055000130160911401709115012FBF4093350173
:1005600050933601609337017093380120912F0129
:10057000222309F47AC020913101281719060CF0C2
:1005800071C0809134018150809334018091340195
:1005900081111AC010922F01E0913B01F0913C01B2
:1005A000908180912901809589238083E0913D018C
:1005B000F0913E01908180912A018095892380836A
:1005C00010932401009323012FB7F8948091120116
:1005D00090911301A0911401B09115012FBF40918A
:1005E000190150911A0160911B0170911C015C016D
:1005F0006D01A41AB50AC60AD70AB601A501483E7C
:10060000534061057105E8F08093190190931A0138
:10061000A0931B01B0931C0180911801882319F04D
:100620008FE00E94B90080911701882319F080E1C2
:100630000E94B90080911601882319F081E10E947F
:10064000B900209709F4B8CE0E940000B5CEE09121
:100650003D01F0913E01808190912A0114CF1092CA
:10066000330147CFE092340191CFF0922F011092E5
:1006700033018091390190913A0190932401809344
:100680002301A2CFE0E0F1E0138681E080831282B3
:10069000EDE1F1E0168A178A108E118E128E138EFC
:1006A0008AE090E0958F848F84878BE0858782E352
:1006B000808B84E6818B8FEF858B0895EE0FFF1F73
:0C06C0000590F491E02D0994F894FFCF10
:00000001FF
