:100000000C9462000C948A000C948A000C948A0070
:100010000C948A000C948A000C948A000C948A0038
:100020000C948A000C948A000C9407060C948804A3
:100030000C948A000C948A000C948A000C948A0018
:100040000C94E6030C948A000C9456040C9430042F
:100050000C948A000C948A000C948A000C948A00F8
:100060000C948A000C948A000000000023002600F3
:10007000290000000008000201000003040700003E
:1000800000000000000000000000250028002B00F8
:1000900000000000240027002A00040404040404D3
:1000A0000404020202020202030303030303010227
:1000B00004081020408001020408102001020408F6
:1000C0001020390611241FBECFEFD8E0DEBFCDBF10
:1000D00011E0A0E0B1E0E2EAF5E102C005900D9286
:1000E000A632B107D9F722E0A6E2B1E001C01D9225
:1000F000AB3FB207E1F710E0C2E6D0E004C02197C1
:10010000FE010E94AE0AC136D107C9F70E948906D6
:100110000C94CF0A0C940000CF93DF93FC0129E1EB
:100120008EE241E050E033E071E0908190769036CD
:10013000D1F4918190937E01A0917E01A150109203
:100140007D019FEF60917D016A1790F4C0917D0160
:10015000CE0FDF2FD11D6881962760917D016F5FE3
:1001600060937D01EFCF9081929596709E5FE2CF74
:10017000AE0FBF2FB11D9C93F89490917C019130EC
:1001800059F490917B01981738F010927C0190916E
:100190006F009D7F90936F00789490917C019130D7
:1001A00039F490917B01943108F4BFCF70E0BDCF5A
:1001B00090917C0191110EC0F89490916F009F7DF9
:1001C00090936F00B59B09C090916F0090629093DF
:1001D0006F0078947111A9CF51C0A0917901B091AD
:1001E0007A019C9160917801EA0102C0CC0FDD1F79
:1001F0006A95E2F79C2B9C93609184007091850036
:100200006A5A7C4F70937701609376016091760112
:100210007091770170938900609388007894F093CF
:100220007501E093740110927D0110927301908129
:100230009093720130937C0110927B01B19A90915E
:100240006F00926090936F0090917C019330E1F386
:1002500090917301992381F0E0917001F091710107
:10026000E757FF4F8081918101969183808383E0DE
:1002700090E0DF91CF91089590917C018B3108F04F
:100280008150215009F050CF80910A0290910B02C9
:10029000019690930B0280930A0286E090E0E9CFEA
:1002A000FC01538D448D252F30E0842F90E0821B7C
:1002B000930B541710F0CF96089501970895FC0101
:1002C000918D828D981761F0A28DAE0FBF2FB11D59
:1002D0005D968C91928D9F5F9F73928F90E00895B1
:1002E0008FEF9FEF0895FC01918D828D981731F06B
:1002F000828DE80FF11D858D90E008958FEF9FEFBF
:100300000895FC01918D228D892F90E0805C9F4F94
:10031000821B91098F7399270895FC01A48DA80F62
:10032000B92FB11DA35ABF4F2C91848D90E0019637
:100330008F739927848FA689B7892C93A089B18957
:100340008C91837080648C93938D848D981306C0F8
:100350000288F389E02D80818F7D80830895EF925C
:10036000FF920F931F93CF93DF93EC0181E0888F6F
:100370009B8D8C8D98131AC0E889F989808185FF3F
:1003800015C09FB7F894EE89FF896083E889F989E1
:1003900080818370806480839FBF81E090E0DF91E3
:1003A000CF911F910F91FF90EF900895F62E0B8D36
:1003B00010E00F5F1F4F0F731127E02E8C8D8E11F1
:1003C0000CC00FB607FCFACFE889F989808185FF58
:1003D000F5CFCE010E948D01F1CFEB8DEC0FFD2FFB
:1003E000F11DE35AFF4FF0829FB7F8940B8FEA8913
:1003F000FB8980818062CFCFCF93DF93EC01888D22
:100400008823B9F0AA89BB89E889F9898C9185FD8F
:1004100003C0808186FD0DC00FB607FCF7CF8C911D
:1004200085FFF2CF808185FFEDCFCE010E948D0147
:10043000E9CFDF91CF9108958EE092E00E94810193
:1004400021E0892B09F420E0822F089580E090E0DC
:10045000892B29F00E941C0281110C940000089540
:10046000833081F028F4813099F08230A9F008952A
:100470008730A9F08830C9F08430B1F480918000D1
:100480008F7D03C0809180008F77809380000895D6
:1004900084B58F7784BD089584B58F7DFBCF80911F
:1004A000B0008F778093B00008958091B0008F7D69
:1004B000F9CFCF93DF9390E0FC01E255FF4F2491F9
:1004C00086569F4FFC0184918823D1F090E0880FDD
:1004D000991FFC01E057FF4FA591B491FC01EA5729
:1004E000FF4FC591D491623071F49FB7F8943C915D
:1004F000822F809583238C93E8812E2B28839FBFA6
:10050000DF91CF9108958FB7F894EC912E2B2C9317
:100510008FBFF6CF3FB7F89480914301909144018B
:10052000A0914501B091460126B5A89B05C02F3F7B
:1005300019F00196A11DB11D3FBFBA2FA92F982F09
:100540008827BC01CD01620F711D811D911D42E004
:10055000660F771F881F991F4A95D1F70895AF92AC
:10056000BF92CF92DF92EF92FF920F931F93CF93A0
:10057000DF936C017B018B01040F151FEB015E0102
:10058000AE18BF08C017D10759F06991D601ED9197
:10059000FC910190F081E02DC6010995892B79F736
:1005A000C501DF91CF911F910F91FF90EF90DF90E8
:1005B000CF90BF90AF9008956623C9F141112FC02D
:1005C0008130910519F410920001089520913201B3
:1005D000309133018217930759F02091380190939D
:1005E0003301809332012F5F20933801209347011C
:1005F0002AE0411101C024E120933701E091380144
:10060000F0E0EE0FFF1FE95BFE4F50E055274695E7
:1006100057954427842B952B92838183089541E03D
:100620008130910599F681E0809300010895089545
:10063000DF92EF92FF920F931F93CF93DF932FB729
:10064000F89480913F0190914001A0914101B091B7
:1006500042012FBF4091260150912701609128014E
:10066000709129018C019D01041B150B260B370B82
:10067000B901A801443151056105710508F45DC057
:100680008093260190932701A0932801B09329011C
:10069000CFEAD2E001E092E0F92E23E0E22E2981B8
:1006A00030E0F901EE58FF4F8491F901E255FF4F18
:1006B0001491F901E656FF4FD490DD2009F445C0AE
:1006C00081110E943002ED2DF0E0EE0FFF1FE8597E
:1006D000FF4FA591B491EC911E2331E020E009F485
:1006E00030E0832F922F282F21703A81231307C0E7
:1006F0003B81231779F12B83892B51F1E8822A83DF
:10070000249612E0CB3FD10709F0C9CF90910001A8
:1007100081E0911101C080E02091AD0282130BC0F5
:100720002091AE028217F1F08093AE029923C1F0BE
:1007300093E09093AB028093AD02DF91CF911F9134
:100740000F91FF90EF90DF90089590E080E0CBCF85
:10075000F882D5CF892B11F00883D1CF1882CFCF63
:1007600092E0E7CF992311F091E0E3CF1092AB0232
:10077000E2CFAF92BF92DF92EF92FF920F931F935F
:10078000CF93DF935C0107E411E0D0E0C0E0F80113
:10079000D1908F017501EC0EFD1EC7010E94980AD1
:1007A000D81621F06D2DC7010E94A00A2196C932EA
:1007B000D10569F787E491E0DF91CF911F910F9107
:1007C000FF90EF90DF90BF90AF9008951F920F922F
:1007D0000FB60F9211242F933F938F939F93AF9354
:1007E000BF9380913F0190914001A0914101B09150
:1007F000420130913E0123E0230F2D3758F5019639
:10080000A11DB11D20933E0180933F0190934001B3
:10081000A0934101B0934201809143019091440122
:10082000A0914501B09146010196A11DB11D809393
:10083000430190934401A0934501B0934601BF91B9
:10084000AF919F918F913F912F910F900FBE0F907D
:100850001F90189526E8230F0296A11DB11DD2CF37
:100860001F920F920FB60F9211242F933F934F9325
:100870005F936F937F938F939F93AF93BF93EF9308
:10088000FF938EE092E00E948D01FF91EF91BF9166
:10089000AF919F918F917F916F915F914F913F9118
:1008A0002F910F900FBE0F901F9018951F920F92CF
:1008B0000FB60F9211242F938F939F93EF93FF9373
:1008C000E0911E02F0911F028081E0912402F091DC
:1008D000250282FD1BC09081809127028F5F8F735C
:1008E00020912802821741F0E0912702F0E0E25FB8
:1008F000FD4F958F80932702FF91EF919F918F91EC
:100900002F910F900FBE0F901F9018958081F4CFFC
:100910001F920F920FB60F9211242F933F934F9374
:100920005F936F938F939F93AF93BF93CF93DF9317
:10093000EF93FF93809176019091770180549C4FC3
:100940009093770180937601809176019091770161
:10095000909389008093880080917B018F5F8093C2
:100960007B0180917C018430E9F580917B018930A5
:1009700000F58091720190E09595879580937201C2
:10098000189B05C080917201806880937201FF916D
:10099000EF91DF91CF91BF91AF919F918F916F9127
:1009A0005F914F913F912F910F900FBE0F901F902D
:1009B0001895B59A80916F00806280936F00809146
:1009C00070019091710118992AC0FC01E957FF4FFD
:1009D0008081918101969183808310927B0181E0D7
:1009E00080937C0180917C01833009F043C0E091C9
:1009F0007901F0917A0180812091780133B190E002
:100A0000022E02C0959587950A94E2F7832780FD10
:100A100017C010927B0182E080937C012BC0409133
:100A20007201FC01E058FF4F208131E0320F30832A
:100A3000820F911DDC014C9337FFCFCF1082CDCFB9
:100A400080917B01893008F03EC03091720181E0D5
:100A500090E001C0880F2A95EAF7908130FF31C0FD
:100A60008095892380838091720190E09595879588
:100A70008093720180917C01823099F480917B0196
:100A8000811194C0E0917901F0917A018081909177
:100A9000780121E030E001C0220F9A95EAF7822B1D
:100AA000808380917C01813009F071CF80917B013E
:100AB0008111A2C0B59A80916F00806280936F000F
:100AC00066CF892BCFCF80917B01893059F430815B
:100AD00081E090E001C0880F2A95EAF78095832392
:100AE0008083C8CF80917D018F5F80937D0190913D
:100AF0007E01891750F510927B01809174019091CD
:100B00007501A0917D01A80FB92FB11D8C91809323
:100B10007201808141E050E001C0440F2A95EAF75C
:100B2000842B808380918400909185008A5A9C4F09
:100B3000909377018093760180917601909177016F
:100B4000909389008093880095CF81E08093730112
:100B5000E0917401F0917501409170015091710123
:100B6000808180768036C9F4818130E020E0EA011E
:100B7000C058DF4F2817B0F4DF01A20FB31F6C91EC
:100B8000A88191E09A0F9883A40FB52FB11D6C93A3
:100B900097FD18822F5F3F4FEDCF80818295867041
:100BA0008E5FE3CF10927B0181E036CF80917B0195
:100BB0008F3008F476CFE0917901F0917A012081AD
:100BC0003091780181E090E001C0880F3A95EAF712
:100BD00080958223808310927B0181E080937C0149
:100BE000E0917001F0917101E357FF4F8081918195
:100BF00001969183808355CF80917B01883308F4DF
:100C0000C6CE10927C0180916F008D7F57CF1F92CE
:100C10000F920FB60F9211248F939F93EF93FF9330
:100C2000EFE6F0E080818F7D808380918600909157
:100C3000870080569A4F9093770180937601809138
:100C40007601909177019093890080938800B19A02
:100C500080818260808384E080937C0110927B019C
:100C6000FF91EF919F918F910F900FBE0F901F906A
:100C70001895109211021092100288EE93E0A0E0F5
:100C8000B0E08093120290931302A0931402B093E9
:100C9000150288E191E090930F0280930E0285EC9B
:100CA00090E090931B0280931A0284EC90E0909362
:100CB0001D0280931C0280EC90E090931F028093B1
:100CC0001E0281EC90E0909321028093200282EC3E
:100CD00090E0909323028093220286EC90E0909320
:100CE000250280932402109227021092280210926B
:100CF000290210922A02EFEAF2E01282138234965D
:100D000082E0EB3FF807C9F71092AD021092AE02F5
:100D10000895CF93DF93CDB7DEB760970FB6F89401
:100D2000DEBF0FBECDBF789484B5826084BD84B52C
:100D3000816084BD85B5826085BD85B5816085BDD6
:100D400080916E00816080936E001092810080918E
:100D50008100826080938100809181008160809316
:100D60008100809180008160809380008091B1003B
:100D700084608093B1008091B00081608093B00066
:100D800080917A00846080937A0080917A008260FA
:100D900080937A0080917A00816080937A008091BC
:100DA0007A00806880937A001092C100EFE7F1E04A
:100DB0008FE8DF011D928A95E9F761E089E00E94E2
:100DC0005902E7EBF0E02491E3EAF0E0E491F0E08F
:100DD000EE0FFF1FEA57FF4F4591549180E091E0DD
:100DE00031E0291741F08F5F932F082E01C0990F32
:100DF0000A94EAF7F6CF50937A01409379018093F1
:100E000078018FE791E090937101809370012098B1
:100E1000E0917901F0917A0120813091780181E0AF
:100E200090E001C0880F3A95EAF78095822380838D
:100E30001092800081E08093810010927C01B59A2D
:100E400080916F00806280936F0080918100887F25
:100E500081608093810001E011E044E1C42E41E013
:100E6000D42E5FEAE52E52E0F52EF80181918F0134
:100E7000D70111968C9362E00E945902B4E0EB0E08
:100E8000F11CC016D10689F70E9418030E948A023D
:100E90004B015C0132E3C32ED12CE12CF12C0E94DA
:100EA0008A02681979098A099B09683E734081059D
:100EB0009105A8F3E1E0CE1AD108E108F108F8EEB7
:100EC0008F0EF3E09F1EA11CB11CC114D104E104DC
:100ED000F10429F70E94180361E08DE00E94590295
:100EE00080E0682E80E0782E90E7492E91E0592E20
:100EF0003324339488248A94982C09E2202E10E815
:100F0000E12E809100029091FF01891709F4C1C080
:100F1000E82FF0E0E158FE4FF080F7FE70C09091AE
:100F20000102981751F020910602309107022F5FBD
:100F30003F4F3093070220930602809301021FEF78
:100F4000109302028F2D80768036C9F4109203022E
:100F5000809100028F5F80930002E0910102282FB0
:100F60002E1B87FD109200028091020290910302D5
:100F7000291709F454C0F826F0920202C2CF8F2D2F
:100F8000829586708E5F809303022091010280918A
:100F90000302820F9927991F81389105CCF20E2DFB
:100FA000021BF8944091FF0180910102841770F5B3
:100FB000242F281B822F8093FF01789460910102D7
:100FC000461738F510E050E06FE771E0C80181582E
:100FD0009E4F0E94B40A6091010270E061587E4FFA
:100FE000A8018FE791E00E94B40A809100029091DD
:100FF0000102891B8093000210920102A9CF809107
:1010000003028111A5CFF0920302BFCF802F840F7E
:10101000D2CF461B50E070E061587E4FE2CF8F1177
:101020003AC1F0E0E158FE4F2091040230910502F0
:101030002F5F3F4F309305022093040290910002EE
:1010400090930102309709F496CFA1812A2F30E0C6
:101050006281462F50E0CA019695982F8827979570
:101060008795807897708A2B932B7081723B09F05B
:101070001FC122E030E065FD02C021E030E06114D4
:10108000710439F0880F991F6071820F931F0E94BD
:10109000000080913701882309F4CDC12FB7F8945F
:1010A00080913F0190914001A0914101B091420196
:1010B0002FBF40912E0150912F016091300170910E
:1010C00031018C019D01041B150B260B370BB90157
:1010D000A801423351056105710588F080932E0106
:1010E00090932F01A0933001B093310185B190E22C
:1010F000892785B9809137018150809337010E94FB
:1011000018038091AB02833011F43092AB029091BE
:10111000AB02923011F41092AB02823009F0DCC1C4
:1011200030923601309235010FEA12E0F12CE12CB9
:10113000D8018C91833011F4E1E0EC93D8019C91BB
:10114000923009F41C928230F1F4B4E0B09337018C
:1011500080913601882309F4CCC180913501811139
:1011600007C080913401829DC00111240E94B903FF
:10117000E0923401EFEFE0933801909233018092D6
:10118000320110923501BFEFEB1AFB0A0C5F1F4FC3
:10119000E3E1EE16F10461F62FB7F89480913F0178
:1011A00090914001A0914101B09142012FBF409127
:1011B0003A0150913B0160913C0170913D018C01DD
:1011C0009D01041B150B260B370BB901A801443FE9
:1011D00051406105710508F451C080933A01909324
:1011E0003B01A0933C01B0933D01809139018823DC
:1011F00009F444C000913801E02FF0E0EE0FFF1F2A
:10120000E95BFE4F818192819C0133708827990FA1
:10121000881F992744E0009709F448E0409337017C
:10122000F82EC90101979C01220F232F221F330B97
:101230003195122F1F70E82EE894E7F8812FF110F6
:1012400075C1806190EB9983EA828B83CE01019610
:101250000E948C00F110106280EB8983EA821B836C
:10126000CE0101960E948C0081E0800F80933801AE
:1012700080914701081302C01092390180E090E08C
:10128000892B09F43CCE0E941C02882309F435CE38
:101290000E94000032CE20910602309107022F5F9B
:1012A0003F4F3093070220930602F0E0E0E0C6CE05
:1012B0000196713B91F170F4733801F1703B39F193
:1012C000723809F0E6CE80E090E0892B09F4E1CE97
:1012D00080E01AC07C3BC9F1703D09F441C0743B09
:1012E00009F0D7CEAC3309F0D4CE80E090E0892B62
:1012F00009F4CFCE8CE30E940000CBCE80E090E0DA
:10130000892B09F4C6CE81E00E940000C2CE462F90
:10131000407260710E94DC02BCCE66FF0BC020E010
:1013200030E0232B09F4B5CE462F407260710E9445
:101330000000AFCE20E030E0232B09F4AACE462FE8
:10134000407160720E940000A4CE20E030E0232BA8
:1013500009F49FCE462F407260710E94000099CE22
:10136000A076A03221F0A036C1F1A11192CE80E08A
:1013700090E0892B09F48DCEC9019695982F882786
:101380009795879580789F70840F951FA5E0359578
:101390002795AA95E1F72170019633814481E42FC6
:1013A000F0E0AF013D3731F070E8379FA001112424
:1013B0004E0F5F1F6F7079F1623079F1643079F10F
:1013C000663079F1683079F16A3079F16C3079F111
:1013D0006E3079F10E9400005CCE80E090E0892BB5
:1013E00009F457CEF3808F2D807D803109F051CEE6
:1013F000E48001E011E041E08F2D802309F040E01E
:101400002E2D2023000F612F80E80E9400001F5F17
:10141000153089F73ECE61E4DDCF62E4DBCF63E4D3
:10142000D9CF64E4D7CF65E4D5CF66E4D3CF67E402
:10143000D1CF68E4CFCF80913601813071F52FB7DD
:10144000F89480913F0190914001A0914101B091A9
:1014500042012FBF40912A0150912B0160912C0134
:1014600070912D018C019D01041B150B260B370B70
:10147000B901A801443F51406105710508F43FCE10
:1014800080932A0190932B01A0932C01B0932D01FE
:1014900085B190E2892785B932CEEFE7F0E08491FB
:1014A000EBEBF0E01491E7EAF0E00491002309F49B
:1014B00026CE81110E943002E02FF0E0EE0FFF1FD8
:1014C000EA57FF4FA591B4918FB7F894EC9110951E
:1014D0001E231C938FBF13CE833009F025CE1092AC
:1014E000360180913401829DC00111240E94B9030C
:1014F0001BCE2E9C60012F9CD00C112487E4A82EBB
:1015000081E0B82E9601275431406901C6018A0D49
:101510009B1D0E94980AD5018D935D014A165B06BA
:10152000A9F710923801309239012DCE80638ACE0E
:10153000F999FECF92BD81BDF89A992780B508959B
:10154000262FF999FECF1FBA92BD81BD20BD0FB6DF
:10155000F894FA9AF99A0FBE01960895EE0FFF1FBC
:101560000590F491E02D09946817790768F4FB0160
:10157000DC01E40FF51FA40FB51F02C002900E920C
:1015800041505040D8F708950C94C60AFB01DC0185
:1015900002C001900D9241505040D8F70895F89440
:0215A000FFCF7B
:1015A20001000102030405060708090A0B0C0E0FCD
:1015B2001011121300000000AF01AF025001FC0134
:0615C20081015F017301CD
:00000001FF
