:100000000C94181D0C9470240C9449240C94401DDD
:100010000C94401D0C94401D0C94401D0C94401DEC
:100020000C94401D0C94401D0C94401D0C94401DDC
:100030000C94401D0C94401D0C94401D0C94401DCC
:100040000C94FF230C94401D0C94401D0C94401DF7
:100050000C94401D0C94401D0C94401D0C94401DAC
:100060000C94401D0C94401D220000000000000074
:100070000000000000000000000000000000000080
:100080000000000000000000000000000000000070
:100090000000000000000000000000000000000060
:1000A0000000000000000000000000000000000050
:1000B0000000000000000000000000000000000040
:1000C0000000000000000000000000000000000030
:1000D0000000000000000000000000000000000020
:1000E0000000000000000000000000000000000010
:1000F0000000000000000000000000000000000000
:1001000000000000000000000000000000000000EF
:1001100000000000000000000000000000000000DF
:1001200000000000000000000000000000000000CF
:1001300000000000000000000000000000000000BF
:1001400000000000000000000000000000000000AF
:10015000000000000000000000000000001332005A
:10016000000001000000000000000000000000008E
:10017000000002000000000000000000000000007D
:10018000000000000000000000000000000000006F
:10019000000000000000000000000000000000005F
:1001A000000000000000000000000000000000004F
:1001B000000000000000000000000000000000003F
:1001C000000000000000000000000000000000002F
:1001D000000000000000000000000000000000001F
:1001E000000000000000000000000000000000000F
:1001F00000000000000000000000000000000000FF
:1002000000000000000000000000000000000000EE
:1002100000000000000000000000000000000000DE
:1002200000000000000000000000000000000000CE
:1002300000000000000000000000000000000000BE
:1002400000000000000000000000000000000000AE
:100250000000B221000000000002000000000002C7
:10026000020000000000000000000000000000008C
:10027000000000000000000000000000000000007E
:10028000000000000000000000000000000000006E
:10029000000000000000000000000000000000005E
:1002A000000000000000000000000000000000004E
:1002B000000000000000000000000000000000003E
:1002C000000000000000000000000000000000002E
:1002D000000000000000000000000000000000001E
:1002E000000000000000000000000000000000000E
:1002F00000000000000000000000000000000000FE
:1003000000000000000000000000000000000000ED
:1003100000000000000000000000000000000000DD
:1003200000000000000000000000000000000000CD
:1003300000000000000000000000000000000000BD
:10034000000000000000002200000000010000008A
:10035000000000000001000000000000000000009C
:10036000000000000000000000000000000000008D
:10037000000000000000000000000000000000007D
:10038000000000000000000000000000000000006D
:10039000000000000000000000000000000000005D
:1003A000000000000000000000000000000000004D
:1003B000000000000000000000000000000000003D
:1003C000000000000000000000000000000000002D
:1003D000000000000000000000000000000000001D
:1003E000000000000000000000000000000000000D
:1003F00000000000000000000000000000000000FD
:1004000000000000000000000000000000000000EC
:1004100000000000000000000000000000000000DC
:1004200000000000000000000000000000000000CC
:10043000000000000000000000000000361900006D
:1004400000010000000000000002000000000000A9
:100450000000010000000000000002000000000099
:100460000000000100000000000000020000000089
:10047000000000000000000000000000000000007C
:10048000000000000000000000000000000000006C
:10049000000000000000000000000000000000005C
:1004A000000000000000000000000000000000004C
:1004B000000000000000000000000000000000003C
:1004C000000000000000000000000000000000002C
:1004D000000000000000000000000000000000001C
:1004E000000000000000000000000000000000000C
:1004F00000000000000000000000000000000000FC
:1005000000000000000000000000000000000000EB
:1005100000000000000000000000000000000000DB
:1005200000000000000000000000000000000000CB
:100530000049190000000100000000000000020056
:1005400000000000000002000001000000000001A7
:100550000000000000000002000000000000000198
:100560000001000000000002000200000000000086
:100570000100000000000000020000000000000078
:10058000000000000000000000000000000000006B
:10059000000000000000000000000000000000005B
:1005A000000000000000000000000000000000004B
:1005B000000000000000000000000000000000003B
:1005C000000000000000000000000000000000002B
:1005D000000000000000000000000000000000001B
:1005E000000000000000000000000000000000000B
:1005F00000000000000000000000000000000000FB
:1006000000000000000000000000000000000000EA
:1006100000000000000000000000000000000000DA
:10062000000000000000461900000000010000006A
:1006300000000001000100000000000200020000B4
:1006400000000000000100000000000000020000A7
:100650000000000000000100000000000000000099
:10066000000000000000000000000000000000008A
:10067000000000000000000000000000000000007A
:10068000000000000000000000000000000000006A
:10069000000000000000000000000000000000005A
:1006A000000000000000000000000000000000004A
:1006B000000000000000000000000000000000003A
:1006C000000000000000000000000000000000002A
:1006D000000000000000000000000000000000001A
:1006E000000000000000000000000000000000000A
:1006F00000000000000000000000000000000000FA
:1007000000000000000000000000000000000000E9
:10071000000000000000000000000055190000006B
:1007200001000000000000000101000000000000C6
:1007300000000100000000000000010100000000B6
:1007400000000100010000000000000000000000A7
:100750000000000000000000000000000000000099
:100760000000000000000000000000000000000089
:100770000000000000000000000000000000000079
:100780000000000000000000000000000000000069
:100790000000000000000000000000000000000059
:1007A0000000000000000000000000000000000049
:1007B0000000000000000000000000000000000039
:1007C0000000000000000000000000000000000029
:1007D0000000000000000000000000000000000019
:1007E0000000000000000000000000000000000009
:1007F00000000000000000000000000000000000F9
:1008000000000000000000000000000000000000E8
:100810003319000000010000000000000001010089
:1008200000000000000000010000000000000000C7
:1008300000000000000000000000000000000000B8
:1008400000000000000000000000000000000000A8
:100850000000000000000000000000000000000098
:100860000000000000000000000000000000000088
:100870000000000000000000000000000000000078
:100880000000000000000000000000000000000068
:100890000000000000000000000000000000000058
:1008A0000000000000000000000000000000000048
:1008B0000000000000000000000000000000000038
:1008C0000000000000000000000000000000000028
:1008D0000000000000000000000000000000000018
:1008E0000000000000000000000000000000000008
:1008F00000000000000000000000000000000000F8
:100900000000000000640000000001000100010080
:1009100000000100010000010000010000010001D1
:1009200000000001000000000000000000000000C6
:1009300000000000000000000000000000000000B7
:1009400000000000000000000000000000000000A7
:100950000000000000000000000000000000000097
:100960000000000000000000000000000000000087
:100970000000000000000000000000000000000077
:100980000000000000000000000000000000000067
:100990000000000000000000000000000000000057
:1009A0000000000000000000000000000000000047
:1009B0000000000000000000000000000000000037
:1009C0000000000000000000000000000000000027
:1009D0000000000000000000000000000000000017
:1009E0000000000000000000000000000000000007
:1009F000000000000000000000004319000000019A
:100A000000010000000000010000010000000000E3
:100A100001000100000000000000000000000000D4
:100A200000000000000000000000000000000000C6
:100A300000000000000000000000000000000000B6
:100A400000000000000000000000000000000000A6
:100A50000000000000000000000000000000000096
:100A60000000000000000000000000000000000086
:100A70000000000000000000000000000000000076
:100A80000000000000000000000000000000000066
:100A90000000000000000000000000000000000056
:100AA0000000000000000000000000000000000046
:100AB0000000000000000000000000000000000036
:100AC0000000000000000000000000000000000026
:100AD0000000000000000000000000000000000016
:100AE00000000000000000000000000000000056B0
:100AF00019000000010000000000000000010100DA
:100B000000000000000000010000000000000001E3
:100B100002000000010100000000000001000100CF
:100B200000000000000000000000000000000000C5
:100B300000000000000000000000000000000000B5
:100B400000000000000000000000000000000000A5
:100B50000000000000000000000000000000000095
:100B60000000000000000000000000000000000085
:100B70000000000000000000000000000000000075
:100B80000000000000000000000000000000000065
:100B90000000000000000000000000000000000055
:100BA0000000000000000000000000000000000045
:100BB0000000000000000000000000000000000035
:100BC0000000000000000000000000000000000025
:100BD0000000000000000000000000000000000015
:100BE0000000000056190000000200000000000094
:100BF00000000202000000000000000002000000EF
:100C000000000000020200000002020000000000DC
:100C100000020002000000000000000000000000D0
:100C200000000000000000000000000000000000C4
:100C300000000000000000000000000000000000B4
:100C400000000000000000000000000000000000A4
:100C50000000000000000000000000000000000094
:100C60000000000000000000000000000000000084
:100C70000000000000000000000000000000000074
:100C80000000000000000000000000000000000064
:100C90000000000000000000000000000000000054
:100CA0000000000000000000000000000000000044
:100CB0000000000000000000000000000000000034
:100CC0000000000000000000000000000000000024
:100CD00000000000000000000044190000000100B6
:100CE0000000000000000101000000000000010001
:100CF00001000000000000000001000000000000F2
:100D000000000000000000000000000000000000E3
:100D100000000000000000000000000000000000D3
:100D200000000000000000000000000000000000C3
:100D300000000000000000000000000000000000B3
:100D400000000000000000000000000000000000A3
:100D50000000000000000000000000000000000093
:100D60000000000000000000000000000000000083
:100D70000000000000000000000000000000000073
:100D80000000000000000000000000000000000063
:100D90000000000000000000000000000000000053
:100DA0000000000000000000000000000000000043
:100DB0000000000000000000000000000000000033
:100DC0000000000000000000000000000000771993
:100DD0000000000100000000000000010100000010
:100DE00000000001000000020000000100010000FE
:100DF00000000000000001000000000000000100F1
:100E000001000000000001000002000000000000DE
:100E100000000000000000000000000000000000D2
:100E200000000000000000000000000000000000C2
:100E300000000000000000000000000000000000B2
:100E400000000000000000000000000000000000A2
:100E50000000000000000000000000000000000092
:100E60000000000000000000000000000000000082
:100E70000000000000000000000000000000000072
:100E80000000000000000000000000000000000062
:100E90000000000000000000000000000000000052
:100EA0000000000000000000000000000000000042
:100EB0000000000000000000000000000000000032
:100EC00000000044190000000101000000000000C3
:100ED000010101000000000001000101000000000C
:100EE0000000010100000000000000000000000000
:100EF00000000000000000000000000000000000F2
:100F000000000000000000000000000000000000E1
:100F100000000000000000000000000000000000D1
:100F200000000000000000000000000000000000C1
:100F300000000000000000000000000000000000B1
:100F400000000000000000000000000000000000A1
:100F50000000000000000000000000000000000091
:100F60000000000000000000000000000000000081
:100F70000000000000000000000000000000000071
:100F80000000000000000000000000000000000061
:100F90000000000000000000000000000000000051
:100FA0000000000000000000000000000000000041
:100FB00000000000000000007600000000010000BA
:100FC000000000000001000000000001000100001E
:100FD000010000000001010100000000000000000D
:100FE00000010100000000000000000001000000FE
:100FF00000000000000000000000000000000000F1
:1010000000000000000000000000000000000000E0
:1010100000000000000000000000000000000000D0
:1010200000000000000000000000000000000000C0
:1010300000000000000000000000000000000000B0
:1010400000000000000000000000000000000000A0
:101050000000000000000000000000000000000090
:101060000000000000000000000000000000000080
:101070000000000000000000000000000000000070
:101080000000000000000000000000000000000060
:101090000000000000000000000000000000000050
:1010A00000000000000000000000000000760000CA
:1010B000000001010000000000000100010000002C
:1010C000000001010100000000000101000100001A
:1010D000000001000100000000000000000101000C
:1010E0000000000000000000000000000000000000
:1010F00000000000000000000000000000000000F0
:1011000000000000000000000000000000000000DF
:1011100000000000000000000000000000000000CF
:1011200000000000000000000000000000000000BF
:1011300000000000000000000000000000000000AF
:10114000000000000000000000000000000000009F
:10115000000000000000000000000000000000008F
:10116000000000000000000000000000000000007F
:10117000000000000000000000000000000000006F
:10118000000000000000000000000000000000005F
:10119000000000000000000000000000000000004F
:1011A00000005800000000010000000000000000E6
:1011B000010000000000000002000000000000002C
:1011C0000101000000000000020200000000000019
:1011D000000001000000000000000200000000000C
:1011E00000000101000000000000000000000000FD
:1011F00000000000000000000000000000000000EF
:1012000000000000000000000000000000000000DE
:1012100000000000000000000000000000000000CE
:1012200000000000000000000000000000000000BE
:1039D0000000000000000000240027002A00000072
:1039E0000000250028002B00000000002300260016
:1039F0002900040404040404040402020202020272
:103A000003030303030301020408102040800102A2
:103A10000408102001020408102000000008000221
:103A20000100000304070000000000000000692CF2
:103A300011241FBECFEFD8E0DEBFCDBF11E0A0E064
:103A4000B1E0E4EFF9E502C005900D92AA32B107AA
:103A5000D9F723E0AAE2B1E001C01D92AA3AB20769
:103A6000E1F71DE1C8E1DDE104C02197FE010E94FC
:103A7000CB2CC731D107C9F70E9497240C94F82C9E
:103A80000C9400008230F8F4E82FF0E0EE0FFF1FF6
:103A9000EC5FFE4F25E43EE131832083813041F02D
:103AA000809169008C7F682B60936900E89A089583
:103AB00080916900837F660F771F660F771F682BE1
:103AC00060936900E99A0895833081F028F4813089
:103AD00099F08230A9F008958730A9F08830C9F0B4
:103AE0008430B1F4809180008F7D03C0809180008C
:103AF0008F7780938000089584B58F7784BD089573
:103B000084B58F7DFBCF8091B0008F778093B0001C
:103B100008958091B0008F7DF9CFCF93DF93282F48
:103B200030E0F901E65EF54C8491F901EA5FF54C6D
:103B3000D491F901EE50F64CC491CC23A1F081113F
:103B40000E94641DEC2FF0E0EE0FFF1FE851F64CD1
:103B5000A591B491EC91ED2381E090E009F480E02F
:103B6000DF91CF91089580E090E0FACF1F93CF933B
:103B7000DF93282F30E0F901E65EF54C8491F901DE
:103B8000EA5FF54CD491F901EE50F64CC491CC2388
:103B9000A9F0162F81110E94641DEC2FF0E0EE0FAA
:103BA000FF1FE252F64CA591B4918FB7F894EC91B7
:103BB000111108C0D095DE23DC938FBFDF91CF9128
:103BC0001F910895DE2BF8CFCF93DF9390E0FC0197
:103BD000EA5FF54C24918E50964CFC018491882329
:103BE000C9F090E0880F991FFC01EC52F64CA591AA
:103BF000B491FC01E252F64CC591D49161110DC013
:103C00009FB7F8948C91209582238C9388812823E8
:103C100028839FBFDF91CF910895623051F49FB701
:103C2000F8943C91822F809583238C93E8812E2BEE
:103C3000EFCF8FB7F894EC912E2B2C938FBFEACF58
:103C40003FB7F8948091A6039091A703A091A80391
:103C5000B091A90326B5A89B05C02F3F19F0019686
:103C6000A11DB11D3FBFBA2FA92F982F8827BC01D6
:103C7000CD01620F711D811D911D42E0660F771FFE
:103C8000881F991F4A95D1F70895FF920F931F93AC
:103C9000CF93DF930E94201E209131013091320199
:103CA000EB01C21BD30B2091350130913601C217B5
:103CB000D30708F45FC040913D0150913E0141306F
:103CC000510561F0E0916601F0916701208130912A
:103CD000680123233091330123134CC070933201C8
:103CE0006093310100913701109138014230510544
:103CF00009F413C14330510509F44EC14130510557
:103D000061F480913001813009F447C0C8F18330FB
:103D100009F482C0843009F4C9C080913D019091BA
:103D20003E01019739F1C017D10708F06DC18091AC
:103D30002E018F5F80932E018B30E0F081E090E0C8
:103D400090933E0180933D0161E070E080916401B9
:103D50000E94421D109233011092300182E590E0E2
:103D6000909338018093370183E290E0909336017D
:103D700080933501DF91CF911F910F91FF900895AE
:103D8000C017D10730F481E080933001C0932F0138
:103D9000C4CF84E080933001C0CFC017D107D0F5E5
:103DA0001092300180912E018F5F80932E0120911F
:103DB0002F018C2F0C2E000C990B821B910927FDD3
:103DC000939597FF03C0919581959109499794F236
:103DD00010923E0110923D0182E990E090933801EB
:103DE0008093370182E590E090933601809335010E
:103DF00010922E01F09034016F2D70E080916401DB
:103E00000E94421D8091680193E0F91227C08093BF
:103E1000330183CF83E0BECFC017D10708F51092DE
:103E20003E0110923D0182E990E090933801809329
:103E3000370182E590E0909336018093350110922E
:103E40002E01F09034016F2D70E0809164010E948A
:103E5000421D8091680133E0F316C9F280E0D7CFAC
:103E600090913401933009F482E08093340182E030
:103E700090E090933E0180933D0182E990E0909321
:103E800038018093370182E590E09093360180936A
:103E900035011092430180912E01809344011092CC
:103EA00040011092420110924101CBCFC017D107BF
:103EB000A8F410923E0110923D0182E990E09093A7
:103EC00038018093370182E590E09093360180932A
:103ED000350110922E01109240018CCF82E090E0CB
:103EE00090933E0180933D0182E990E090933801E8
:103EF0008093370182E590E09093360180933501FD
:103F00001092430180912E01809344011092400150
:103F100010924201109241016DCF909140019F5F3C
:103F20009093400180914101880FC017D107E0F0C4
:103F300080934101983009F0F6CEE0914301E630DC
:103F4000A9F410923E0110923D0182E990E0909315
:103F500038018093370182E590E090933601809399
:103F6000350110924001D9CE8160E2CF83E090E02C
:103F700090933E0180933D0181E08E0F8093430139
:103F800090914101F0E0E35CFE4F90878091420107
:103F9000892780934201C1CEC017D10728F510921E
:103FA0003E0110923D011092400182E990E0909311
:103FB00038018093370182E590E090933601809339
:103FC0003501809142018111B2CE88E0E3E4F1E055
:103FD000ABE4B1E001900D928A95E1F781E0809326
:103FE0003F0110922E0199CE80914301863009F451
:103FF000A8CF82E090E090933E0180933D01109223
:1040000040011092410189CE10922E01B3CE2FB7FC
:10401000F8946091A2037091A3038091A4039091FE
:10402000A5032FBF089580E090E0892B11F00C9438
:10403000000008950895CF93C82F80E090E0892B69
:1040400051F0809155018C1731F081E0C11101C010
:1040500080E00E940000C093550160E070E0CB0159
:10406000C1110E94072060935601709357018093FD
:1040700058019093590180E090E0892B59F080918C
:1040800055018C1739F081E0C11101C080E0CF915A
:104090000C940000CF9108951F93CF93DF93EC0110
:1040A000162F80E090E0892B91F0C830D10579F48B
:1040B000662319F10E94000080E090E0892BB9F09E
:1040C000612FCE01DF91CF911F910C94000080E011
:1040D00090E0892BA9F781E0C11594E0D90708F099
:1040E00080E0111105C0DF91CF911F91089581E00B
:1040F00027972297C0F780E0F6CF80E090E0892BE9
:10410000F9F681E0F0CF80E090E0892B29F08091F2
:104110006C0183FD0C9400000895CF92DF92EF9222
:10412000FF920F931F93CF93DF93EC01162F042F71
:104130000E940720C0902A01D0902B01E0902C0112
:10414000F0902D016C197D098E099F09643F714023
:104150008105910588F00E94072060932A017093E1
:104160002B0180932C0190932D0181E080937301AA
:10417000D0937101C093700180917801811138C092
:104180000023B1F1FF24F394111101C0F12C00912F
:10419000770210E0409172014170E8E7F2E030E010
:1041A00020E02017310724F5E680442311F0E110C8
:1041B0001FC080859185C817D907A0F0658170E080
:1041C000DC011197A60FB71FAC17BD0758F0DE0131
:1041D000A81BB90BCD010E94A32C880F8F0DEE20D8
:1041E00029F081832F5F3F4F7296DBCF8068F9CF34
:1041F000DF91CF911F910F91FF90EF90DF90CF90C3
:1042000008950E941B20E3E5F1E081E0878310869A
:10421000ECE5F1E088E0DF011D928A95E9F7089569
:104220000C948D2C20E030E0232B11F00C94000036
:104230000C941021CF93DF932091690130916A0192
:104240002F3F320721F0C901DF91CF91089580916E
:104250006C0187FF2BC086FF0FC089E090E00E94B1
:104260001221C82F81E090E00E9412219C2F909390
:104270006A018093690115C089E090E00E941221D3
:10428000C82F81E090E00E94122190E4C99F900124
:104290001124207C31708F73282B30936A01209376
:1042A00069018091690190916A01CECF85FF0CC0B0
:1042B00081E190E00E941221C82F82E190E00E94EB
:1042C0001221C05CDD0BD2CF81E090E00E94122170
:1042D00090E0CDCFCF93DF93EB010E948D2C8883AC
:1042E000CE01DF91CF9108950F931F93CF93DF936A
:1042F0008C01EB010E948D2C8883C80101960E94DD
:104300008D2C8983CE01DF91CF911F910F9108955C
:10431000CF92DF92EF92FF920F931F93CF93DF9391
:1043200000D0CDB7DEB71092770280916E019091E8
:104330006F0108E712E020E1E22EF12CD12CF80108
:10434000C7804C2D4D0D5527551F4131510524F582
:104350002091720121FF08C0BE016F5F7F4FC7012E
:104360000E94742189819A81F801D0829187808787
:104370002091720120FF1BC00196209177022F5FD0
:1043800020937702DC0C0E5E1F4FF2E0EF0EF11C63
:1043900020E3E216F10499F60F900F90DF91CF9190
:1043A0001F910F91FF90EF90DF90CF90089525819E
:1043B000820F911DE2CF0C94952C1F93CF93DF9326
:1043C000EC01162F83319105C8F48131910528F451
:1043D0008130910511F0099731F48FEF9FEF9093A1
:1043E0006A018093690180E090E0892BA9F0612F38
:1043F000CE01DF91CF911F910C9400004D9799F75A
:10440000177F10936C01809153018F73912F907CD3
:10441000892B80935301E1CFCE010E941021181700
:10442000C1F0612FCE010E94DB2180E090E0892B5A
:1044300021F0612FCE010E94000080E090E0892BE6
:1044400041F08091530184FD04C0612FCE010E9490
:104450000000CE01DF91CF911F910C941021BF92EB
:10446000CF92DF92EF92FF920F931F93CF93DF9340
:104470008B01B42E690182FF23C083FF17C061E066
:10448000C8010E944C208823D9F16B2DC8010E94DD
:10449000DD218B1135C0F601DF91CF911F910F9176
:1044A000FF90EF90DF90CF90BF90099460E0C8013B
:1044B0000E944C20882321F1C8010E941221E9CFDB
:1044C000842F8770C1E0D0E07E0101C0EE0C8A9598
:1044D000EAF7D42FD870CB010E941221C82FB4FE66
:1044E0001CC061E0C8010E944C20882349F0DD23F4
:1044F00089F0CE296C2FC8010E94DD218C1759F25A
:10450000DF91CF911F910F91FF90EF90DF90CF90AF
:10451000BF900895E094CE21EDCF60E0C8010E94E5
:104520004C20882369F3CE21DD2319F0C111B3CFCC
:10453000E7CFCC2309F4AFCFE3CFCF92DF92EF9256
:10454000FF920F931F93CF937C016B01C42F402FD9
:104550008C2F807E803609F474C080F4803209F498
:1045600053C0803409F46DC08823D9F1CF911F91D5
:104570000F91FF90EF90DF90CF900895803A09F46B
:1045800097C0A8F4803891F780E090E02C2F2F712D
:1045900041E050E0892B51F3B601C701CF911F9143
:1045A0000F91FF90EF90DF90CF900C940000803C33
:1045B00009F48CC0803ED1F66C2F70E0762F662710
:1045C00066277370622B6F5F7F4F23E830E28C2F7A
:1045D000CF911F910F91FF90EF90DF90CF900C94AF
:1045E0002F228C2F8E7011F680E090E0892B09F439
:1045F000BDCF8C2F8170CF911F910F91FF90EF90C5
:10460000DF90CF900C940000CF71CF3109F0AECF86
:1046100080E090E0892B09F4A9CF422F4F7769F011
:10462000413069F0221F2227221F30E00FE710E0FF
:10463000B601C7010E94000099CF41E0F3CF40E0EE
:10464000F1CF80E090E0892BC1F02C2F30E08C2F4F
:104650008F71813029F030F0803121F08131F1F417
:1046600040E001C041E025FB222720F90DE110E0E8
:1046700030E0B601C7010E94000080E090E0892B85
:1046800009F474CF4C2FB601C701CF911F910F9140
:10469000FF90EF90DF90CF900C940000C901880F3D
:1046A000991F8E71C4FB442740F9482B4250DBCF41
:1046B00080E090E0892B09F459CF2C2F2F7043E034
:1046C00050E0C4FF69CF42E050E066CFCF71CE31F9
:1046D00059F0CF3109F04ACF80E090E045E050E05A
:1046E000892B09F059CF42CF80E090E044E050E0C0
:1046F000892B09F051CF3ACFFF920F931F93CF939D
:10470000DF93EC01F62E08811981C8010E948D2CDF
:10471000F81621F06F2DC8010E94952CCE01DF9173
:10472000CF911F910F91FF900895EF92FF920F93F9
:104730001F93CF93DF9300D0CDB7DEB78C017B0101
:104740009A838983FB016081CE0101960E947C23BC
:104750000F5F1F4F1A830983F7016181CE01019614
:104760000E947C23C7010F900F90DF91CF911F9182
:104770000F91FF90EF900895AF92BF92CF92DF928A
:10478000EF92FF920F931F93CF93DF9300D0CDB79B
:10479000DEB72091720120FF25C0F62E5C0108E7EC
:1047A00012E0D12CC12CE62EE894E7F88091770234
:1047B0008C151D04B9F0B4F0F80180859185A81618
:1047C000B90651F4F182828193819A8389836E2D97
:1047D000CE0101960E947C23FFEFCF1ADF0A0E5E06
:1047E0001F4FE4CF0F900F90DF91CF911F910F914A
:1047F000FF90EF90DF90CF90BF90AF9008951F9201
:104800000F920FB60F9211242F933F938F939F9384
:10481000AF93BF938091A2039091A303A091A403AF
:10482000B091A5033091A10323E0230F2D3758F554
:104830000196A11DB11D2093A1038093A203909323
:10484000A303A093A403B093A5038091A603909122
:10485000A703A091A803B091A9030196A11DB11DC2
:104860008093A6039093A703A093A803B093A903F2
:10487000BF91AF919F918F913F912F910F900FBE5C
:104880000F901F90189526E8230F0296A11DB11DC9
:10489000D2CF1F920F920FB60F9211242F933F93F6
:1048A0004F935F936F937F938F939F93AF93BF9338
:1048B000EF93FF93E0910601F09107010995FF91B5
:1048C000EF91BF91AF919F918F917F916F915F9188
:1048D0004F913F912F910F900FBE0F901F90189501
:1048E0001F920F920FB60F9211242F933F934F9365
:1048F0005F936F937F938F939F93AF93BF93EF9348
:10490000FF93E0910401F09105010995FF91EF916A
:10491000BF91AF919F918F917F916F915F914F91D7
:104920003F912F910F900FBE0F901F901895CF932E
:10493000DF9300D000D01F92CDB7DEB7789484B556
:10494000826084BD84B5816084BD85B5826085BD8B
:1049500085B5816085BD80916E00816080936E0019
:10496000109281008091810082608093810080910B
:1049700081008160809381008091800081608093BC
:1049800080008091B10084608093B1008091B0007C
:1049900081608093B00080917A00846080937A0077
:1049A00080917A00826080937A0080917A008160A1
:1049B00080937A0080917A00806880937A001092C8
:1049C000C10061E08DE00E94E41D0AE011E04AE2CE
:1049D000C42E41E0D42ED801FC900E5F1F4F61E041
:1049E0008F2D0E94E41D60E08F2D0E94B61DC01621
:1049F000D10689F762E088E00E94E41D88E0809398
:104A00007A011092790188EE93E00E9410218C3C8B
:104A1000F1F16CEC88EE93E00E94DB2110927201C0
:104A20008DEE93E09A83898360E0CE0101960E9427
:104A30007C2381E090E090936F0180936E016EE69D
:104A400071E08AEE93E00E94952384E680938101D1
:104A500068E071E08CEE93E00E94952330E1E32E54
:104A6000F12C10E000E060E0C8010E94DB210F5F44
:104A70001F4F1C830B83BE016D5F7F4FC7010E94D8
:104A80009523B2E0EB0EF11C0031110561F762E7EE
:104A900071E08DEE93E00E946A216EE671E08AEE8D
:104AA00093E00E94742161E871E08CEE93E00E9433
:104AB0006A2108E712E0F12CE12C25EFD22EC70184
:104AC0000E948D2CF80186838D9DB00111246859B8
:104AD0007F4F45EF50E082E891E00E94842C809166
:104AE0008201982F92959770D80117969C931797EB
:104AF0008F7014968C9390E09C012150310937FD02
:104B00009C01359527952F5FF8012583828193813C
:104B10000E941021D80111968C93119716969C91A2
:104B20001697911103C0806811968C93BFEFEB1A12
:104B3000FB0A0E5E1F4FE0E1EE16F10409F0BFCF55
:104B40001092640182E080936501E4EFF9E3E4915F
:104B5000F0E0EE0FFF1FE851F64C85919491909391
:104B6000670180936601E8E0FAE3E491E09368016D
:104B700060E082E00E94E41DEDE3F1E086E1DF0108
:104B80001D928A95E9F782E990E09093380180932D
:104B9000370182E590E0909336018093350180ECF7
:104BA00080935301109254018FEF9FEF90936A010D
:104BB0008093690110926B0183E0809334018091AE
:104BC00068018093330163E070E0809164010E948A
:104BD000421D8DE190E00E941221682F606C8DE1F2
:104BE00090E00E94DD2180936C016BE087E090E013
:104BF0000E94DD216DE088E090E00E94DD2180E0F0
:104C00000E9401210E94882110926D01BD8200E066
:104C1000202E00E0302E0E940720009139011091D3
:104C20003A0120913B0130913C016B017C01C01A9B
:104C3000D10AE20AF30A97018601409102015091DC
:104C400003016A01F12CE12C0C151D052E053F0511
:104C500068F16093390170933A0180933B0190931E
:104C60003C01E0917801E15061E0E730E0F4F0E0F0
:104C7000E45CF94D0C94CB2CA2269B269B26A22605
:104C800094268D264526BD82C6CF13E2E12EF12C57
:104C9000F0920301E09202018DE00E948D1D61E01F
:104CA000892B09F060E08DE00E94B61D80915501CE
:104CB0008823B1F00E9407200091560110915701FE
:104CC0002091580130915901601B710B820B930B9D
:104CD000653171058105910518F080E00E94012180
:104CE00080913F01882309F457C0F89488E0EBE4F1
:104CF000F1E0A9E9B3E001900D928A95E1F71092F5
:104D00003F01789480919903E82FF0E0E556FC4F3D
:104D1000863008F511928F5FFBCF82E390E090938D
:104D2000030180930201B8CFAAEFB0E0B093030172
:104D3000A0930201B1CFEDE7F0E0F0930301E0931F
:104D40000201AACFB4EFCB2EDD24D394D09203017D
:104D5000C0920201A1CFA0E0EA2EA0E0FA2EEF2837
:104D600021F089E993E00E94000080919B0381116A
:104D70007CC090919C03911178C080E090E0892BD9
:104D800019F080E00E94000080915501882309F409
:104D900068C081E00E941B200E94072000917D01D5
:104DA00010917E0120917F01309180016B017C0187
:104DB000C01AD10AE20AF30A9701860104311105EB
:104DC0002105310528F160937D0170937E01809368
:104DD0007F019093800180917A010E948D1D9C013A
:104DE00091E02115310509F490E080917B01981341
:104DF0000DC080917C01981709F446C290937C0104
:104E000083E0232B09F482E08093790190937B0166
:104E100010917901133019F481E080937901809128
:104E20007901823011F410927901123039F48091B5
:104E30007801882319F01092780111E0E09178014F
:104E4000E93008F039C2F0E0E85DF84D0C94CB2C65
:104E50004B291A2A342A772A5C2A9F2AE32A742BA0
:104E6000F72981E00E94012197CF90915501992364
:104E700009F48BC08057803108F084C081E00E9423
:104E80001B201091990380915C0118130AC0412FD7
:104E900050E06EE571E08BE993E00E94EB2C892BEA
:104EA00061F010925B0188E0E9E9F3E0ACE5B1E084
:104EB00001900D928A95E1F76FCF80915B018F5F32
:104EC00080935B01133009F045C090919B03892FBB
:104ED0008770F0909C03853051F4F0925A0180E085
:104EE00090E0892B09F458CF0E94000055CF0DE1C6
:104EF00010E0843091F0282F30E08430F0F40091FD
:104F00005A010023D1F00150110B000F111F000FA7
:104F1000111F020F131F0F5F1F4F93FF10C061E09F
:104F2000C8010E944C20882309F436CF6F2DC80198
:104F30000E94DD21F81230CFD2CF8901ECCF60E0A2
:104F4000C8010E944C20882309F426CFC8010E9482
:104F50001221F0CF143009F01FCF80919B03682FEE
:104F600070E0762F66276627737090919C03692BFB
:104F70006F5F7F4F23E130E240919D038C700E9470
:104F80002F220ACF80E00E940121E0919B03EF3F96
:104F900061F480919C038111FFCE80E090E0892B29
:104FA00009F4FACE0E940000F7CEE7FD0DC0009193
:104FB0009E0320919D0340919C0370E060E08E2F42
:104FC00090E00E949D22E8CEE03C08F04CC1409168
:104FD000530147FFE1CE90919C03292F30E08901D6
:104FE00000951095000F111F000F111F007C11700C
:104FF000EF730E2B35952795822F8370B82E8091F5
:105000009903853039F59C789C3021F50E941A214E
:105010008017910721F00F3F114009F0BDCE00919C
:105020009C0310E0102F00270027137080919D0330
:10503000080F111D0F5F1F4FF0909E0361E0C80124
:105040000E944C206F2D882309F4A6CEC8010E942F
:10505000DD21A2CE6801A1E0CA1AD108CC0CDD1C6A
:10506000CC0CDD1CCB287601BFEFEB1AFB0A80913C
:105070006B018823F1F046FF3CC0C70160E071E09E
:105080000E94B72C682F81E090E00E94DD21C701CB
:10509000F7FE02C081509F4F692F89E090E00E9487
:1050A000DD212114310419F0C7010E940000109283
:1050B0006B018091530180FD35C08091990384304C
:1050C00009F04AC080919C038978813009F064CE50
:1050D00060919D03C7010E94BC2380E090E0892B72
:1050E00009F45ACE40919D036B2DC7010E94000028
:1050F00053CEB8016F73772781E090E00E94DD21E5
:10510000B801B6E075956795BA95E1F789E090E04A
:105110000E94DD21E0E0F0E0EF2B49F2C8010E949F
:105120000000C5CF86FF0CC00E941A218E159F0576
:1051300021F2FDEFEF16F7E0FF060CF0BECF2CCE0C
:105140000E941A218017910709F4B7CF0F3F21E081
:10515000120709F4B2CF20CE833041F540919C0371
:10516000942F9170C92E43FBDD24D0F8A0E0B0E06D
:10517000AB2B31F047702D2DB801C7010E94000004
:105180008091530186FF06C04D2D6C2DC7010E94F2
:105190008D2002CEE0E0F0E0EF2B09F4FDCD2D2DC7
:1051A0004C2D6B2DC8010E940000F6CD863009F011
:1051B000F3CD80919C03982F9978913021F08F78CE
:1051C000803809F0E9CD8091530186FF28C00E9404
:1051D0001A218E159F05E9F480919D0390E0382FE8
:1051E00022272227337000919E03020F132F111DD7
:1051F0000F5F1F4FF0909F03959587959595879525
:10520000837099278230910599F0039709F416CF9E
:10521000C3CDFDEFEF16F7E0FF06F4F6BDCD0E941B
:105220001A2180179107C1F20F3F1140A9F2B4CDA6
:10523000F4FEB2CD61E0C8010E944C20882309F43D
:10524000ABCDC8010E9412219F2D977061E070E0E4
:1052500001C0660F9A95EAF7F3FE02C0682BF6CEFE
:1052600060956823F3CEE83E08F096CDE05CFF0B36
:1052700080919C0300919F0320919E0340919D0388
:1052800061E070E09E2F9DCE81E0232B09F0BCCD24
:1052900010927901BBCD123079F40E9407206093FF
:1052A000740170937501809376019093770188E083
:1052B000809378011092730100919803E02EF12CF5
:1052C000F2E10F9F8001112408581D4F680126E06C
:1052D000C20ED11CD8011696BC901697BB2009F4BB
:1052E00045C2B5EFBB9EB001112468597F4F45EF11
:1052F00050E082E891E00E94842C0E9407204B013C
:105300005C01F80182859385A485B585240135016A
:10531000481A590A6A0A7B0A20918201221F222711
:10532000221F30918301832F880F282B331F3327AF
:10533000331F40918401842F880F382B842F881FBE
:105340008827881F50918501452F440F482B852FB2
:10535000881F8827881F50918601550F582BAAE077
:10536000B0E00E94D12C461657066806790608F46C
:1053700020C282869386A486B586868591E0892799
:105380008687F12CE12C3801B7E06B0E711C5801B7
:10539000EFEFAE1ABE0AC8010E964C01D3018C91F4
:1053A0008E151F0409F00CF404C2D801EC91EE0D27
:1053B000FF2DF11DEE0FFF1FE65FFE4F8081D5012F
:1053C000EC91EF77B8E0EB9FF0011124EE57FE4F20
:1053D000EE0DFF1D9581913009F4B5C108F4B7C1F8
:1053E000923009F4B6C1BFEFEB1AFB0AD7CF0E9487
:1053F0000720C0907401D0907501E0907601F09084
:1054000077016C197D098E099F09683E73408105FB
:10541000910518F083E080937801133009F04CCFA8
:105420008091720181FF02C082E001C081E080931F
:10543000780142CF80917301813009F03DCF109205
:105440007301809170019091710190936F0180932D
:105450006E016EE671E08AEE93E00E9495230E9451
:1054600088211092780126CF111116C00E940720C2
:1054700000917401109175012091760130917701AE
:10548000601B710B820B930B603A7F408105910585
:1054900018F086E08093780180917301813009F0E3
:1054A0000BCF109273018091700190917101815026
:1054B00080936D0184E0BBCF80917301813009F04E
:1054C000FBCE109273012091700130917101809197
:1054D0006D013A83298390E00896BE016F5F7F4F8C
:1054E000880F991F0E9495230E9488219DCF11113A
:1054F00016C00E940720009174011091750120913F
:10550000760130917701601B710B820B930B603A2F
:105510007F408105910518F086E0809378018091A5
:105520007301813009F0C8CE10927301809170012F
:1055300090917101815080936D0185E078CF8091C9
:105540007301813009F0B8CE10927301809170011F
:1055500090917101FF24FA94F80E00916D01E2E13F
:105560000E9F8001112408581D4FD8011696FC92F9
:10557000B5EFFB9EB001112468597F4F45EF50E015
:1055800082E891E00E94842C80918201982F92956C
:105590009770F80197838F70848390E09C0121506D
:1055A000310937FD9C01359527952F5FD801159658
:1055B0002C9380916D016F2D90E00E94DB210E9461
:1055C000882183E034CF80917301813009F074CE5B
:1055D000109273018091700190917101019769F4AB
:1055E000609172016E7F609372018DEE93E00E9474
:1055F000DB210E94882110927801809170019091A6
:105600007101029769F460917201616060937201A7
:105610008DEE93E00E94DB210E9488211092780198
:105620008091700190917101039769F4609172010A
:105630006D7F609372018DEE93E00E94DB210E94EA
:1056400088211092780180917001909171010497E6
:1056500069F4609172016260609372018DEE93E073
:105660000E94DB210E9488211092780180917001B4
:1056700090917101059719F487E0809378018091EA
:105680007001909171010A9709F016CE63E388EEDC
:1056900093E00E94DB210E94201E4B015C0150ED33
:1056A000C52E57E0D52EE12CF12C0E94201E681942
:1056B00079098A099B09683E734081059105A8F321
:1056C000B1E0CB1AD108E108F108E8EE8E0EE3E074
:1056D0009E1EA11CB11CC114D104E104F10429F7E0
:1056E000F0E0E0E00995E8CD80917301813009F0A8
:1056F000E3CD1092730180917001909171014E97EA
:10570000E0F080917001909171018B3F9105C0F4A0
:10571000809170019091710190937101809370015B
:105720006091700170917101609381018CEE93E042
:105730000E94DB2110927801BFCD8EE190E0ECCF8A
:105740008AEF90E0E9CF61E00E94B61D4CCE60E0A8
:10575000FBCFF4016081F1E0EF16F104A9F7D60167
:105760009C91923089F791E06927EECFF801878507
:10577000823009F455C048F4882389F0813031F132
:10578000FD81F13009F041C014C0833009F485C0B7
:105790008430B1F7818181708183178636C011967C
:1057A0008C91119787FF92C081E01F968C93B1E096
:1057B000BD83809198038F5F8093980390917702C7
:1057C000891302C010929803BD801FC0808190E0B1
:1057D0002181880F991FFC0120FF1FC0E65FFE4F4B
:1057E00061E080810E94B61D0E94072022E12E9D6B
:1057F000F0012F9DF00D1124E858FD4F628773874B
:105800008487958787858F5F878780E090E0892BE5
:1058100009F439CA0E940000F9C9E45FFE4FE0CFE5
:105820000E940720D8011A96CD90DD90ED90FC9053
:105830001D97AB01BC014C195D096E097F09809170
:10584000810190E0B0E0A0E0481759076A077B07A4
:10585000E0F2D801EC91F0E0EE0FFF1FE65FFE4FA3
:1058600060E080810E94B61DD801EC91F0E0EE0F5F
:10587000FF1FE45FFE4F60E080810E94B61DF801CB
:1058800087858F5F87870E940720D8011A966D93BE
:105890007D938D939C931D97B8CF0E940720F801AC
:1058A000C284D384E484F5846C197D098E099F0930
:1058B000643F71408105910508F4A7CFD8011F9678
:1058C0008C911F978F5F1F968C939FCF21E02D8324
:1058D00070CFE8E7F2E028EE33E0318B208B809147
:1058E00000019091010193838283019690930101BD
:1058F00080930001729683E0E839F80771F71092FF
:105900007B0110927C010895FB01DC0102C005902F
:105910000D9241505040D8F70895F999FECF92BDAD
:1059200081BDF89A992780B50895262FF999FECF61
:105930001FBA92BD81BD20BD0FB6F894FA9AF99AAC
:105940000FBE01960895AA1BBB1B51E107C0AA1FF9
:10595000BB1FA617B70710F0A61BB70B881F991F10
:105960005A95A9F780959095BC01CD01089597FBB4
:10597000072E16F4009407D077FD09D00E94A32CBF
:1059800007FC05D03EF4909581959F4F0895709542
:1059900061957F4F0895EE0FFF1F0590F491E02D64
:1059A00009940E94DC2CA59F900DB49F900DA49F9C
:1059B000800D911D11240895A29FB001B39FC001D5
:1059C000A39F700D811D1124911DB29F700D811D2B
:1059D0001124911D0895FB01DC0104C08D910190FB
:1059E000801921F441505040C8F7881B990B089545
:0459F000F894FFCF59
:1059F4003000E8031A201A206400040003000500A4
:105A0400060007000A000B000C0001000000130050
:0A5A140012001100110010000E0036
:00000001FF
