:020000040000FA
:100000000C9462000C948A000C948A000C948A0070
:100010000C948A000C948A000C948A000C948A0038
:100020000C948A000C948A000C948A000C948A0028
:100030000C948A000C948A000C948A000C948A0018
:100040000C946B020C948A000C94DB020C94B502A5
:100050000C948A000C948A000C948A000C948A00F8
:100060000C948A000C948A000000000024002700F1
:100070002A0000000000250028002B0000000000DE
:1000800023002600290004040404040404040202DA
:100090000202020203030303030301020408102007
:1000A0004080010204081020010204081020000012
:1000B0000008000201000003040700000000000027
:1000C00000000D0311241FBECFEFD8E0DEBFCDBF6F
:1000D00011E0A0E0B1E0E0E9F1E102C005900D928D
:1000E000A432B107D9F722E0A4E2B1E001C01D9229
:1000F000AE30B207E1F710E0C2E6D0E004C02197CD
:10010000FE010E94C008C136D107C9F70E945603FC
:100110000C94C6080C940000833081F028F48130E0
:1001200099F08230A9F008958730A9F08830C9F09D
:100130008430B1F4809180008F7D03C08091800075
:100140008F7780938000089584B58F7784BD08955C
:1001500084B58F7DFBCF8091B0008F778093B00006
:1001600008958091B0008F7DF9CFCF93DF93282F32
:1001700030E0F901E255FF4F8491F901E656FF4F57
:10018000D491F901EA57FF4FC491CC23A1F081111A
:100190000E948C00EC2FF0E0EE0FFF1FE458FF4FA1
:1001A000A591B491EC91ED2381E090E009F480E019
:1001B000DF91CF91089580E090E0FACF1F93CF9325
:1001C000DF93282F30E0F901E255FF4F8491F901C8
:1001D000E656FF4FD491F901EA57FF4FC491CC2363
:1001E000A9F0162F81110E948C00EC2FF0E0EE0F89
:1001F000FF1FEE58FF4FA591B4918FB7F894EC9183
:10020000111108C0D095DE23DC938FBFDF91CF9111
:100210001F910895DE2BF8CFCF93DF9390E0FC0180
:10022000E656FF4F24918A579F4FFC018491882303
:10023000D1F090E0880F991FFC01E859FF4FA5917C
:10024000B491FC01EE58FF4FC591D491623071F426
:100250009FB7F8943C91822F809583238C93E881FB
:100260002E2B28839FBFDF91CF9108958FB7F894ED
:10027000EC912E2B2C938FBFF6CF8E3008F08E5042
:100280008770806480937C0080917A008064809382
:100290007A0080917A0086FDFCCF80917800909161
:1002A000790008952FB7F89460913C0170913D0159
:1002B00080913E0190913F012FBF0895AF92BF9270
:1002C000CF92DF92EF92FF920F931F93CF93DF9322
:1002D0006C017B018B01040F151FEB015E01AE1851
:1002E000BF08C017D10759F06991D601ED91FC9173
:1002F0000190F081E02DC6010995892B79F7C501A0
:10030000DF91CF911F910F91FF90EF90DF90CF90F1
:10031000BF90AF900895FC01538D448D252F30E0A0
:10032000842F90E0821B930B541710F0CF96089502
:1003300001970895FC01918D828D981761F0A28D2F
:10034000AE0FBF2FB11D5D968C91928D9F5F9F73F5
:10035000928F90E008958FEF9FEF0895FC01918DAB
:10036000828D981731F0828DE80FF11D858D90E018
:1003700008958FEF9FEF0895FC01918D228D892FB5
:1003800090E0805C9F4F821B91098F73992708959D
:1003900080E491E00E94BC0121E0892B09F420E077
:1003A000822F089580E090E0892B29F00E94C801F7
:1003B00081110C9400000895FC01A48DA80FB92FA1
:1003C000B11DA35ABF4F2C91848D90E001968F737D
:1003D0009927848FA689B7892C93A089B1898C919C
:1003E000837080648C93938D848D981306C00288EB
:1003F000F389E02D80818F7D80830895EF92FF92B5
:100400000F931F93CF93DF93EC0181E0888F9B8D37
:100410008C8D98131AC0E889F989808185FF15C0F1
:100420009FB7F894EE89FF896083E889F989808114
:100430008370806480839FBF81E090E0DF91CF91E3
:100440001F910F91FF90EF900895F62E0B8D10E005
:100450000F5F1F4F0F731127E02E8C8D8E110CC074
:100460000FB607FCFACFE889F989808185FFF5CFBF
:10047000CE010E94DC01F1CFEB8DEC0FFD2FF11DC1
:10048000E35AFF4FF0829FB7F8940B8FEA89FB89FC
:1004900080818062CFCFCF93DF93EC01888D88235A
:1004A000B9F0AA89BB89E889F9898C9185FD03C0D7
:1004B000808186FD0DC00FB607FCF7CF8C9185FFBC
:1004C000F2CF808185FFEDCFCE010E94DC01E9CF24
:1004D000DF91CF9108951F920F920FB60F921124C2
:1004E0002F933F938F939F93AF93BF9380913C0142
:1004F00090913D01A0913E01B0913F0130913B01AF
:1005000023E0230F2D3758F50196A11DB11D20932F
:100510003B0180933C0190933D01A0933E01B09339
:100520003F018091370190913801A0913901B0913C
:100530003A010196A11DB11D8093370190933801B6
:10054000A0933901B0933A01BF91AF919F918F91E0
:100550003F912F910F900FBE0F901F90189526E896
:10056000230F0296A11DB11DD2CF1F920F920FB67D
:100570000F9211242F933F934F935F936F937F9329
:100580008F939F93AF93BF93EF93FF9380E491E09A
:100590000E94DC01FF91EF91BF91AF919F918F91EC
:1005A0007F916F915F914F913F912F910F900FBE6F
:1005B0000F901F9018951F920F920FB60F92112453
:1005C0002F938F939F93EF93FF93E0915001F091BE
:1005D00051018081E0915601F091570182FD1BC0CD
:1005E0009081809159018F5F8F7320915A018217FA
:1005F00041F0E0915901F0E0E05CFE4F958F80936F
:100600005901FF91EF919F918F912F910F900FBE04
:100610000F901F9018958081F4CFE0E4F1E01382F1
:10062000128288EE93E0A0E0B0E084839583A683F5
:10063000B7838AE091E09183808385EC90E0958791
:10064000848784EC90E09787868780EC90E0918B9C
:10065000808B81EC90E0938B828B82EC90E0958B89
:10066000848B86EC90E0978B868B118E128E138E86
:10067000148EE0E0F2E0138681E080831282EDEDDB
:10068000F1E0178A108E118E128E138E148E8AE06E
:1006900090E0968F858F86E0848787E0858782E368
:1006A000808B84E6818B8FEF858B0895789484B559
:1006B000826084BD84B5816084BD85B5826085BD5E
:1006C00085B5816085BD80916E00816080936E00EC
:1006D00010928100809181008260809381008091DE
:1006E000810081608093810080918000816080938F
:1006F00080008091B10084608093B1008091B0004F
:1007000081608093B00080917A00846080937A0049
:1007100080917A00826080937A0080917A00816073
:1007200080937A0080917A00806880937A0010929A
:10073000C10061E08091E9010E940C0161E08091BB
:10074000EA010E940C012091E90130E0F901EA5729
:10075000FF4F8491F901E656FF4FE491E093E901E0
:10076000E82FF0E0EE0FFF1FEE58FF4F85919491B8
:100770009093FD018093FC012091EA012F3FB9F095
:1007800030E0F901EA57FF4F8491F901E656FF4F37
:10079000E491E093EA01E82FF0E0EE0FFF1FEE583E
:1007A000FF4F859194919093FF018093FE01C1E0EA
:1007B000C093EF0183E18093F2018AE08093F1011D
:1007C00010920B02C09300021092070210920802CE
:1007D0001092090210920A0210920202E091500156
:1007E000F091510182E08083E0914C01F0914D0144
:1007F0001082E0914E01F0914F0180E180831092D0
:100800005801E0915401F091550186E08083E09118
:100810005201F0915301808180618083E091520107
:10082000F0915301808188608083E0915201F091C2
:100830005301808180688083E0915201F0915301DF
:1008400080818F7D808347E050E068E171E080E443
:1008500091E00E945E0142E050E060E271E080E4DD
:1008600091E00E945E0162E082E00E940C0162E081
:1008700083E00E940C0162E080E10E940C0162E0D2
:100880008FE00E940C0162E081E10E940C0162E0B5
:1008900082E10E940C0161E089E00E940C0161E0AC
:1008A00088E00E940C0161E089E00E94DE00C093B4
:1008B0002501C0932601C0932701CC24CA9463E08C
:1008C000D62EE12CF12C78EE472E73E0572E612CBA
:1008D000712CC1E0D2E050E1252E57E2352E8091F7
:1008E000FC019091FD01892B39F48091FE019091DA
:1008F000FF01892B09F4F6C03FB7F89480913701C6
:1009000090913801A0913901B0913A0126B5A89B88
:1009100005C02F3F19F00196A11DB11D3FBFBA2F91
:10092000A92F982F8827820F911DA11DB11D42E08C
:10093000880F991FAA1FBB1F4A95D1F74091E50167
:100940005091E6016091E7017091E8018C019D01F1
:10095000041B150B260B370B4091DD015091DE0176
:100960006091DF017091E001041715072607370732
:1009700008F442C08093E5019093E601A093E7015B
:10098000B093E8018091EF01811112C2E091FC0166
:10099000F091FD0190818091E90180958923808308
:1009A000E091FE01F091FF0190818091EA01809534
:1009B000892380839091F4018091EB01981314C0F6
:1009C000E091FC01F091FD0190818091E901809519
:1009D00089238083E091FE01F091FF019081809155
:1009E000EA018095892380838091F4018F5F8536A9
:1009F00008F00FC28093F4018091F2018F3F09F457
:100A000071C00E943D018C010E9452018090F6014C
:100A10009090F701A090F801B090F901AB01BC01F2
:100A2000481959096A097B098091E3019091E40111
:100A3000B0E0A0E084179507A607B70708F052C0FA
:100A4000E091FC01F091FD0180819091E901892301
:100A500069F4E091FE01F091FF0180819091EA013B
:100A6000892321F48091EF0181113CC00E94520141
:100A70006093F6017093F7018093F8019093F90168
:100A80008091EF01882309F4CCC18091F101801796
:100A900011060CF0C1C18091F50181508093F501E0
:100AA0008091F50181111EC01092EF01E091FC01CF
:100AB000F091FD0190818091E901809589238083E7
:100AC000E091FE01F091FF0190818091EA01809513
:100AD0008923808388E8A82E83E1B82EB092E401B0
:100AE000A092E30180910102811121C00E94520174
:100AF0000091030210910402209105023091060238
:100B0000601B710B820B930B00910702109108027E
:100B10002091090230910A0260177107820793073A
:100B200010F0C093010280910102882351F080915E
:100B30000B02813009F49AC108F482C1823009F4B1
:100B4000D3C16091EF0188E00E94DE000E94520153
:100B5000AB01BC018091330190913401A09135012A
:100B6000B09136018A019B01081B190B2A0B3B0B24
:100B70008091040190910501092E000CAA0BBB0B7A
:100B8000081719072A073B0708F49DC04093330153
:100B90005093340160933501709336018EE00E94CA
:100BA0003D01803CA1E09A070CF0DAC18090000181
:100BB00090900101919481949108092C000CAA084D
:100BC000BB08209102013091030131952195310933
:100BD000032E000C440B550B281939094A095B09EF
:100BE000DC010E9440082FEB31E040E050E00E9421
:100BF0001608820E931EA41EB51E9092320180929A
:100C00003101809131019091320120912F01309179
:100C100030018217930741F09093300180932F01A8
:100C200090932E0180932D0190902C01A92C092CDA
:100C3000000CBB0800912D0110912E01A016B106E9
:100C400009F441C088E00E94B50061E0892B09F0F9
:100C500060E088E00E94DE00A016B1061CF49394C8
:100C600090922C0120912C01822F022E000C990BC6
:100C7000081719071CF4215020932C0120912C01F6
:100C8000822F022E000C990B40910201509103011A
:100C90008090ED01EE27FF27E41BF50BE817F9071D
:100CA0000CF08AC1841795070CF086C11092F301ED
:100CB0001092EC01682D70E0C1010E9489087093C8
:100CC000E2016093E1010E9452010091280110911C
:100CD000290120912A0130912B014B015C01801ADE
:100CE000910AA20AB30A95018401043F114021052B
:100CF000310508F450C06093280170932901809356
:100D00002A0190932B01809127018823A1F080E193
:100D10000E943D019C01A0EBBFEF0E949D08A7012E
:100D200096010E9416082C593F4F4F4F5F4F30934A
:100D3000010120930001809126018823A1F08FE01A
:100D40000E943D019C01A2EEBFEF0E949D08A701F9
:100D500096010E941608225E3F4F4F4F5F4F30931F
:100D6000030120930201809125018823A1F081E1F4
:100D70000E943D019C01A6EABFEF0E949D08A701C9
:100D800096010E9416082C593F4F4F4F5F4F3093EA
:100D900005012093040180E090E0892B09F49FCDA8
:100DA0000E94C801882309F494CD0E94000091CDCF
:100DB0008091F4018111FECD8091EC01882309F42A
:100DC000F9CD8091F0018823E1F0E091FC01F091F0
:100DD000FD0180819091E901892B80838091EC0154
:100DE0008093EB018091E1019091E201B0E0A0E0FD
:100DF0008093DD019093DE01A093DF01B093E001C9
:100E0000D9CDE091FE01F091FF0180819091EA013E
:100E1000E3CF1092F401F0CD95E0892E8092F50198
:100E20003FCEC093EF011092F4018091FA019091AE
:100E3000FB019093E4018093E301D093F50152CE3E
:100E400061E089E00E94DE0082E00E94B500892B0B
:100E500039F410920202C0930002C0930B0271CECB
:100E600083E00E94B500892BA1F36BCE8091000234
:100E70001092000210920D02882361F060E089E078
:100E80000E94DE008091F3018093240110922E01D4
:100E900010922D018091F301811102C0C0930202D2
:100EA00080910202882309F44CCE10920202C09372
:100EB0000002109201020E9452016093030270939B
:100EC0000402809305029093060280ED97E0A0E073
:100ED000B0E08093070290930802A0930902B093B8
:100EE0000A02D0930B022DCE209100021092000234
:100EF00010920D0280912401992781950CF4909510
:100F0000222321F090932E0180932D012091F30153
:100F1000022E000C330B8217930711F4C0930202C8
:100F200080910202882309F40CCE10920202C09331
:100F30000002109201020E9452016093030270931A
:100F40000402809305029093060240920702509299
:100F500008026092090270920A0210920B02F1CD0F
:100F60008134B2E09B071CF1809002019090030154
:100F7000092C000CAA08BB08209100013091010146
:100F8000032E000C440B550B281939094A095B093B
:100F9000BC01990F880B990B61547240810991092A
:100FA0000E9479082EEB31E040E050E020CE109214
:100FB00032011092310125CE2093F30127FF31C079
:100FC000C093F00197FF03C0919581959109282F57
:100FD00087FD6ECE85360CF084E68093EC012B30D5
:100FE0000CF468CE912CB12CA12C2091EE0130E0B4
:100FF00050E040E0281939094A095B0990E0B0E067
:10100000A0E0BC01CD016A507109810991090E94DB
:1010100079082AE530E040E050E00E941608820E90
:1010200049CE222379F21092F001CCCF052E97FB06
:101030001EF400940E942D0857FD07D00E94480816
:1010400007FC03D04EF40C942D0850954095309534
:1010500021953F4F4F4F5F4F089590958095709524
:1010600061957F4F8F4F9F4F08950E946A08A59FFB
:10107000900DB49F900DA49F800D911D1124089593
:10108000B7FF0C9435080E943508821B930B089516
:10109000A1E21A2EAA1BBB1BFD010DC0AA1FBB1F7C
:1010A000EE1FFF1FA217B307E407F50720F0A21BEE
:1010B000B30BE40BF50B661F771F881F991F1A945B
:1010C00069F760957095809590959B01AC01BD0185
:1010D000CF010895A29FB001B39FC001A39F700DDF
:1010E000811D1124911DB29F700D811D1124911D30
:1010F0000895DB018F939F930E943508BF91AF91B4
:10110000A29F800D911DA39F900DB29F900D112461
:10111000089597FB072E16F4009407D077FD09D0A9
:101120000E94AC0807FC05D03EF4909581959F4F36
:101130000895709561957F4F08950E946A08332342
:1011400012F48A1B9B0B0C94A7080E946A08B7FF35
:101150000895821B930B0895AA1BBB1B51E107C086
:10116000AA1FBB1FA617B70710F0A61BB70B881F37
:10117000991F5A95A9F780959095BC01CD010895C6
:10118000EE0FFF1F0590F491E02D0994F894FFCF26
:1011900064000A000F0000000000FE015E018B01E8
:1011A0004B02BC019A01AE01626F6F74696E6700F9
:0411B0000D0A000024
:107E0000112484B714BE81FFF0D085E080938100F7
:107E100082E08093C00088E18093C10086E0809377
:107E2000C20080E18093C4008EE0C9D0259A86E02C
:107E300020E33CEF91E0309385002093840096BBD3
:107E4000B09BFECF1D9AA8958150A9F7CC24DD24C4
:107E500088248394B5E0AB2EA1E19A2EF3E0BF2EE7
:107E6000A2D0813461F49FD0082FAFD0023811F036
:107E7000013811F484E001C083E08DD089C08234E0
:107E800011F484E103C0853419F485E0A6D080C0E4
:107E9000853579F488D0E82EFF2485D0082F10E0AE
:107EA000102F00270E291F29000F111F8ED06801E7
:107EB0006FC0863521F484E090D080E0DECF843638
:107EC00009F040C070D06FD0082F6DD080E0C81688
:107ED00080E7D80618F4F601B7BEE895C0E0D1E017
:107EE00062D089930C17E1F7F0E0CF16F0E7DF06D8
:107EF00018F0F601B7BEE89568D007B600FCFDCFD4
:107F0000A601A0E0B1E02C9130E011968C91119780
:107F100090E0982F8827822B932B1296FA010C0160
:107F200087BEE89511244E5F5F4FF1E0A038BF0790
:107F300051F7F601A7BEE89507B600FCFDCF97BE46
:107F4000E89526C08437B1F42ED02DD0F82E2BD052
:107F50003CD0F601EF2C8F010F5F1F4F84911BD097
:107F6000EA94F801C1F70894C11CD11CFA94CF0C13
:107F7000D11C0EC0853739F428D08EE10CD085E9AC
:107F80000AD08FE07ACF813511F488E018D01DD067
:107F900080E101D065CF982F8091C00085FFFCCF94
:107FA0009093C60008958091C00087FFFCCF809118
:107FB000C00084FD01C0A8958091C6000895E0E648
:107FC000F0E098E1908380830895EDDF803219F02E
:107FD00088E0F5DFFFCF84E1DECF1F93182FE3DFCA
:107FE0001150E9F7F2DF1F91089580E0E8DFEE27F6
:047FF000FF270994CA
:027FFE00040479
:00000001FF
