:100000000C9462000C948A000C948A000C948A0070
:100010000C948A000C948A000C948A000C948A0038
:100020000C948A000C948A000C9495050C94160488
:100030000C948A000C948A000C948A000C948A0018
:100040000C94CC030C948A000C949A030C947403C3
:100050000C948A000C948A000C948A000C948A00F8
:100060000C948A000C948A000000000023002600F3
:10007000290000000000240027002A0000000000E2
:10008000250028002B0004040404040404040202D4
:100090000202020203030303030301020408102007
:1000A0004080010204081020010204081020000012
:1000B0000008000201000003040700000000000027
:1000C0000000C70511241FBECFEFD8E0DEBFCDBFB3
:1000D00011E0A0E0B1E0E8EBF4E102C005900D9280
:1000E000AA32B107D9F722E0AAE2B1E001C01D921D
:1000F000AB3CB207E1F710E0C2E6D0E004C02197C4
:10010000FE010E94390AC136D107C9F70E941306C1
:100110000C945A0A0C940000CF93DF93FC0129E160
:100120008EE241E050E033E071E0908190769036CD
:10013000D1F4918190935201A0915201A15010925B
:1001400051019FEF609151016A1790F4C0915101E4
:10015000CE0FDF2FD11D68819627609151016F5F0F
:1001600060935101EFCF9081929596709E5FE2CFA0
:10017000AE0FBF2FB11D9C93F89490915001913018
:1001800059F490914F01981738F0109250019091C6
:100190006F009D7F90936F00789490915001913003
:1001A00039F490914F01943108F4BFCF70E0BDCF86
:1001B0009091500191110EC0F89490916F009F7D25
:1001C00090936F00B59B09C090916F0090629093DF
:1001D0006F0078947111A9CF51C0A0914D01B091D9
:1001E0004E019C9160914C01EA0102C0CC0FDD1FD1
:1001F0006A95E2F79C2B9C93609184007091850036
:100200006A5A7C4F70934B0160934A0160914A0196
:1002100070914B0170938900609388007894F093FB
:100220004901E093480110925101109247019081D9
:10023000909346013093500110924F01B19A9091E2
:100240006F00926090936F00909150019330E1F3B2
:1002500090914701992381F0E0914401F09145018B
:10026000E757FF4F8081918101969183808383E0DE
:1002700090E0DF91CF910895909150018B3108F07B
:100280008150215009F050CF8091DE019091DF0123
:1002900001969093DF018093DE0186E090E0E9CF44
:1002A00041110DC08130910529F410920301109283
:1002B0000201089590930101809300010895813017
:1002C0009105C1F790930301809302010895AF92C5
:1002D000BF92CF92DF92EF92FF920F931F93CF9333
:1002E000DF936C017B018B01040F151FEB015E0195
:1002F000AE18BF08C017D10759F06991D601ED912A
:10030000FC910190F081E02DC6010995892B79F7C8
:10031000C501DF91CF911F910F91FF90EF90DF907A
:10032000CF90BF90AF900895FC01538D448D252F41
:1003300030E0842F90E0821B930B541710F0CF967F
:10034000089501970895FC01918D828D981761F0B1
:10035000A28DAE0FBF2FB11D5D968C91928D9F5FC8
:100360009F73928F90E008958FEF9FEF0895FC01A7
:10037000918D828D981731F0828DE80FF11D858D5A
:1003800090E008958FEF9FEF0895FC01918D228DED
:10039000892F90E0805C9F4F821B91098F73992772
:1003A000089582EE91E00E94C50121E0892B09F4B5
:1003B00020E0822F089580E090E0892B29F00E94B0
:1003C000D10181110C9400000895FC01A48DA80FA7
:1003D000B92FB11DA35ABF4F2C91848D90E0019687
:1003E0008F739927848FA689B7892C93A089B189A7
:1003F0008C91837080648C93938D848D981306C048
:100400000288F389E02D80818F7D80830895EF92AB
:10041000FF920F931F93CF93DF93EC0181E0888FBE
:100420009B8D8C8D98131AC0E889F989808185FF8E
:1004300015C09FB7F894EE89FF896083E889F98930
:1004400080818370806480839FBF81E090E0DF9132
:10045000CF911F910F91FF90EF900895F62E0B8D85
:1004600010E00F5F1F4F0F731127E02E8C8D8E1140
:100470000CC00FB607FCFACFE889F989808185FFA7
:10048000F5CFCE010E94E501F1CFEB8DEC0FFD2FF2
:10049000F11DE35AFF4FF0829FB7F8940B8FEA8962
:1004A000FB8980818062CFCFCF93DF93EC01888D71
:1004B0008823B9F0AA89BB89E889F9898C9185FDDF
:1004C00003C0808186FD0DC00FB607FCF7CF8C916D
:1004D00085FFF2CF808185FFEDCFCE010E94E5013F
:1004E000E9CFDF91CF910895833081F028F48130F6
:1004F00099F08230A9F008958730A9F08830C9F0CA
:100500008430B1F4809180008F7D03C080918000A1
:100510008F7780938000089584B58F7784BD089588
:1005200084B58F7DFBCF8091B0008F778093B00032
:1005300008958091B0008F7DF9CFCF93DF9390E045
:10054000FC01E656FF4F24918A579F4FFC0184918E
:100550008823D1F090E0880F991FFC01EE58FF4FDF
:10056000A591B491FC01E458FF4FC591D49162303C
:1005700071F49FB7F8943C91822F809583238C93DC
:10058000E8812E2B28839FBFDF91CF9108958FB7ED
:10059000F894EC912E2B2C938FBFF6CF3FB7F894A5
:1005A00080912F0190913001A0913101B0913201E1
:1005B00026B5A89B05C02F3F19F00196A11DB11DBE
:1005C0003FBFBA2FA92F982F8827BC01CD01620FFA
:1005D000711D811D911D42E0660F771F881F991FB5
:1005E0004A95D1F708950F931F93CF93DF93EC01B2
:1005F000298130E0F901E255FF4F8491F901E65677
:10060000FF4F0491F901EA57FF4F1491112331F183
:1006100081110E947402E12FF0E0EE0FFF1FE859F4
:10062000FF4FA591B491EC910E2331E020E009F445
:1006300030E0832F922F282F21703A81321308C087
:100640003B81321781F02B83892B59F083E088831B
:100650002A83DF91CF911F910F91089590E080E060
:10066000EACF82E0F4CF892B11F081E0F0CF18823D
:10067000EFCF0F931F93CF93DF932FB7F894809111
:10068000370190913801A0913901B0913A012FBF03
:1006900040912A0150912B0160912C0170912D0104
:1006A0008C019D01041B150B260B370BB901A8010A
:1006B000423351056105710590F080932A019093B2
:1006C0002B01A0932C01B0932D01CFE7D2E0CE01F6
:1006D0000E94F302249612E0CB3CD107C1F7DF91D0
:1006E000CF911F910F9108951F920F920FB60F9205
:1006F00011242F933F934F935F936F937F938F9327
:100700009F93AF93BF93EF93FF9382EE91E00E948C
:10071000E501FF91EF91BF91AF919F918F917F91F3
:100720006F915F914F913F912F910F900FBE0F905E
:100730001F9018951F920F920FB60F9211242F93AE
:100740008F939F93EF93FF93E091F201F091F30168
:100750008081E091F801F091F90182FD1BC0908148
:100760008091FB018F5F8F732091FC01821741F014
:10077000E091FB01F0E0EE51FE4F958F8093FB017D
:10078000FF91EF919F918F912F910F900FBE0F903E
:100790001F9018958081F4CF1F920F920FB60F9281
:1007A00011242F933F938F939F93AF93BF93809187
:1007B000370190913801A0913901B0913A013091FF
:1007C0002E0123E0230F2D3758F50196A11DB11DF1
:1007D00020932E018093370190933801A093390123
:1007E000B0933A0180912F0190913001A091310195
:1007F000B09132010196A11DB11D80932F019093FC
:100800003001A0933101B0933201BF91AF919F911C
:100810008F913F912F910F900FBE0F901F901895C1
:1008200026E8230F0296A11DB11DD2CF1F920F9271
:100830000FB60F9211242F933F934F935F936F93B3
:100840008F939F93AF93BF93CF93DF93EF93FF93D8
:1008500080914A0190914B0180549C4F90934B01A1
:1008600080934A0180914A0190914B0190938900B5
:100870008093880080914F018F5F80934F0180911A
:1008800050018430E9F580914F01893000F5809165
:10089000460190E09595879580934601189B05C089
:1008A00080914601806880934601FF91EF91DF912E
:1008B000CF91BF91AF919F918F916F915F914F9128
:1008C0003F912F910F900FBE0F901F901895B59AE2
:1008D00080916F00806280936F00809144019091BD
:1008E000450118992AC0FC01E957FF4F8081918189
:1008F00001969183808310924F0181E08093500193
:1009000080915001833009F043C0E0914D01F09196
:100910004E01808120914C0133B190E0022E02C043
:10092000959587950A94E2F7832780FD17C010926A
:100930004F0182E0809350012BC040914601FC01A1
:10094000E058FF4F208131E0320F3083820F911D3C
:10095000DC014C9337FFCFCF1082CDCF80914F0178
:10096000893008F03EC03091460181E090E001C03E
:10097000880F2A95EAF7908130FF31C0809589234E
:1009800080838091460190E09595879580934601FC
:1009900080915001823099F480914F01811194C06F
:1009A000E0914D01F0914E01808190914C0121E048
:1009B00030E001C0220F9A95EAF7822B8083809164
:1009C0005001813009F071CF80914F018111A2C097
:1009D000B59A80916F00806280936F0066CF892BFB
:1009E000CFCF80914F01893059F4308181E090E080
:1009F00001C0880F2A95EAF7809583238083C8CFAA
:100A0000809151018F5F809351019091520189171C
:100A100050F510924F018091480190914901A091A9
:100A20005101A80FB92FB11D8C918093460180818F
:100A300041E050E001C0440F2A95EAF7842B8083FF
:100A400080918400909185008A5A9C4F90934B012D
:100A500080934A0180914A0190914B0190938900C3
:100A60008093880095CF81E080934701E091480111
:100A7000F091490140914401509145018081807677
:100A80008036C9F4818130E020E0EA01C058DF4FB0
:100A90002817B0F4DF01A20FB31F6C91A88191E079
:100AA0009A0F9883A40FB52FB11D6C9397FD1882F0
:100AB0002F5F3F4FEDCF8081829586708E5FE3CFB1
:100AC00010924F0181E036CF80914F018F3008F4B2
:100AD00076CFE0914D01F0914E01208130914C0193
:100AE00081E090E001C0880F3A95EAF78095822373
:100AF000808310924F0181E080935001E091440186
:100B0000F0914501E357FF4F8081918101969183D8
:100B1000808355CF80914F01883308F4C6CE109260
:100B2000500180916F008D7F57CF1F920F920FB6AB
:100B30000F9211248F939F93EF93FF93EFE6F0E0D2
:100B400080818F7D80838091860090918700805680
:100B50009A4F90934B0180934A0180914A01909162
:100B60004B019093890080938800B19A80818260C4
:100B7000808384E08093500110924F01FF91EF91A8
:100B80009F918F910F900FBE0F901F90189510920C
:100B9000E5011092E40188EE93E0A0E0B0E08093DC
:100BA000E6019093E701A093E801B093E9018BE19E
:100BB00091E09093E3018093E20185EC90E09093C3
:100BC000EF018093EE0184EC90E09093F10180932B
:100BD000F00180EC90E09093F3018093F20181ECBE
:100BE00090E09093F5018093F40182EC90E0909373
:100BF000F7018093F60186EC90E09093F9018093E1
:100C0000F8011092FB011092FC011092FD0110926C
:100C1000FE01EFE7F2E012821382349682E0EB3CB1
:100C2000F807C9F70895CF93DF93CDB7DEB7609784
:100C30000FB6F894DEBF0FBECDBF789484B5826046
:100C400084BD84B5816084BD85B5826085BD85B570
:100C5000816085BD80916E00816080936E001092EE
:100C60008100809181008260809381008091810069
:100C700081608093810080918000816080938000FA
:100C80008091B10084608093B1008091B000816058
:100C90008093B00080917A00846080937A00809184
:100CA0007A00826080937A0080917A0081608093DC
:100CB0007A0080917A00806880937A001092C10057
:100CC0000E9439030E94CE024B015C01B4E6CB2E98
:100CD000D12CE12CF12C0E94CE02681979098A09E5
:100CE0009B09683E734081059105A8F301E0C01A95
:100CF000D108E108F10818EE810E13E0911EA11C45
:100D0000B11CC114D104E104F10429F70E94390394
:100D1000E3E5F1E08FE8DF011D928A95E9F761E0F4
:100D200089E00E949D02E3EAF0E02491EFE8F0E020
:100D3000E491F0E0EE0FFF1FE458FF4F459154910E
:100D400080E091E031E0291741F08F5F932F082E6A
:100D500001C0990F0A94EAF7F6CF50934E014093E1
:100D60004D0180934C0183E591E090934501809380
:100D700044012098E0914D01F0914E012081309185
:100D80004C0181E090E001C0880F3A95EAF7809528
:100D9000822380831092800081E0809381001092F2
:100DA0005001B59A80916F00806280936F008091AE
:100DB0008100887F816080938100E091F201F09151
:100DC000F30182E08083E091EE01F091EF01108267
:100DD000E091F001F091F10180E180831092FA013D
:100DE000E091F601F091F70186E08083E091F40153
:100DF000F091F501808180618083E091F401F091B0
:100E0000F501808188608083E091F401F091F50123
:100E1000808180688083E091F401F091F501808108
:100E20008F7D808361E08DE00E949D02E4E0EE2EE4
:100E3000E1E0FE2E0FE712E0DD24D394F70181916B
:100E40007F01D80111968C931197DC921396DC9256
:100E500062E00E949D020C5F1F4FB7E1EB16B1E00C
:100E6000FB0661F757EA452E50E0552E63E9662EE2
:100E700060E0762E70E0872E70E0972E40EB242EF7
:100E80002FB7F8948091370190913801A0913901E2
:100E9000B0913A012FBF40914001509141016091C2
:100EA0004201709143018C019D01041B150B260B1F
:100EB000370BB901A801443F51406105710598F015
:100EC0008093400190934101A0934201B09343016C
:100ED0000FE712E0C8010E94F3020C5F1F4F22E0EF
:100EE0000B3C1207B9F780913F01882309F4DBC05E
:100EF0002FB7F8948091370190913801A091390172
:100F0000B0913A012FBF409133015091340160916B
:100F10003501709136018C019D01041B150B260BC8
:100F2000370BB901A801423351056105710588F0FD
:100F30008093330190933401A0933501B09336012F
:100F400085B190E2892785B980913F0181508093D6
:100F50003F010E9439032FE7E22E22E0F22E01E04A
:100F600010E0D7013C90B3E03B1203C021E0F70151
:100F70002083D7018C91823009F41C928EEF830D6F
:100F8000823008F045C0B4E0B0933F015801E1E081
:100F9000AE1AB1088091020190910301019709F006
:100FA000D5C0C5010E94230A8983C8010E94230A73
:100FB0008A8389819A81C92ECC1CCC24CC1C977041
:100FC000F2E03F1202C021E0C22601979C01220FED
:100FD000232F221F330B3195422F4F70B42ED82E62
:100FE000E894D7F8842FC110AFC080612982DA82DB
:100FF0008B83CE0101960E948C00CC2011F0689466
:10100000B5F82982DA82BB82CE0101960E948C005B
:1010100084E0E80EF11C0E5F1F4F0732110509F046
:10102000A0CF00E8D02EEE24EA948091D4019091D4
:10103000D301891709F431C1E82FF0E0ED5AFE4FD2
:10104000F080F7FEE1C09091D501981751F0209102
:10105000DA013091DB012F5F3F4F3093DB012093AA
:10106000DA018093D501E092D6018F2D807680360B
:1010700009F089C01092D7018091D4018F5F8093CD
:10108000D401E091D501282F2E1B87FD1092D401A9
:101090008091D6019091D701291709F4C5C0F8268F
:1010A000F092D601C2CF8091020190910301892B69
:1010B00071F52FB7F8948091370190913801A09184
:1010C0003901B0913A012FBF40913B0150913C0151
:1010D00060913D0170913E018C019D01041B150B37
:1010E000260B370BB901A801443F5140610571053A
:1010F00008F42FCF80933B0190933C01A0933D01D6
:10110000B0933E0185B190E2892785B922CFEBEB00
:10111000F0E08491F2011491F3010491002309F4A9
:1011200018CF81110E947402E02FF0E0EE0FFF1F34
:10113000E458FF4FA591B4918FB7F8949C91109506
:1011400019231C938FBF05CF806350CFC09000013F
:10115000D090010173E0371611F06894D7F8C501FB
:101160000E94230AC81621F06C2DC5010E942B0A8B
:10117000C8010E94230A8D1509F44ACF6D2DC801BC
:101180000E942B0A45CF8F2D829586708E5F8093AB
:10119000D7012091D5018091D701820F9927991FFE
:1011A000813891050CF468CF0D2D021BF894409105
:1011B000D3018091D501841770F5942F981B892F46
:1011C0008093D30178946091D501461738F510E0EB
:1011D00050E063E571E0C8018D5A9E4F0E943F0ABE
:1011E0006091D50170E06D5A7E4FA80183E591E0D2
:1011F0000E943F0A8091D4019091D501891B809370
:10120000D4011092D50138CF8091D701811134CF0C
:10121000F092D701BECF802F840FD2CF461B50E073
:1012200070E06D5A7E4FE2CF8F1144C0F0E0ED5A6E
:10123000FE4F2091D8013091D9012F5F3F4F30935D
:10124000D9012093D8019091D4019093D501309782
:1012500009F425CFA1812A2F30E06281462F50E08A
:10126000CA019695982F88279795879580789770CB
:101270008A2B932B7081723B51F522E030E065FDA3
:1012800002C021E030E08114910439F0880F991FE9
:101290006071820F931F0E94000080E090E0892B14
:1012A00009F4EECD0E94D101882309F4E7CD0E9414
:1012B0000000E4CD2091DA013091DB012F5F3F4F38
:1012C0003093DB012093DA01F0E0E0E0BCCF01963F
:1012D000713B59F160F47338D1F0703B01F1723811
:1012E000E1F680E090E0892BC1F280E015C07C3B04
:1012F000A1F1703DE9F1743B81F6AC3371F680E009
:1013000090E0892B51F28CE30E940000C6CF80E070
:1013100090E0892B11F281E00E940000BECF462FA1
:10132000407260710E945001B8CF66FF0BC020E090
:1013300030E0232B09F4B1CF462F407260710E9438
:101340000000ABCF20E030E0232B09F4A6CF462FDE
:10135000407160720E940000A0CF20E030E0232B9B
:1013600009F49BCF462F407260710E94000095CF18
:10137000A076A03221F0A036C1F1A1118ECF80E07D
:1013800090E0892B09F489CFC9019695982F882779
:101390009795879580789F70840F951FB5E0359558
:1013A0002795BA95E1F72170019633814481E42FA6
:1013B000F0E0AF013D3731F0A0E83A9FA0011124E1
:1013C0004E0F5F1F6F7079F1623079F1643079F1FF
:1013D000663079F1683079F16A3079F16C3079F101
:1013E0006E3079F10E94000058CF80E090E0892BA8
:1013F00009F453CFF3808F2D807D803109F04DCFDC
:10140000E48001E011E041E08F2D802309F040E00D
:101410002E2D2023000F612F80E80E9400001F5F07
:10142000153089F73ACF61E4DDCF62E4DBCF63E4C6
:10143000D9CF64E4D7CF65E4D5CF66E4D3CF67E4F2
:10144000D1CF68E4CFCFF999FECF92BD81BDF89A94
:10145000992780B50895262FF999FECF1FBA92BD1E
:1014600081BD20BD0FB6F894FA9AF99A0FBE019685
:101470000895EE0FFF1F0590F491E02D0994681771
:10148000790768F4FB01DC01E40FF51FA40FB51F19
:1014900002C002900E9241505040D8F708950C942B
:1014A000510AFB01DC0102C001900D9241505040F5
:0814B000D8F70895F894FFCF6E
:1014B800FFFF0100000102030405060708090A0BE3
:1014C8000C0E0F10111213000000000702670194A0
:0A14D800015402C501A301B7010091
:00000001FF
